:100000000C9410110C9438110C9438110C94381174
:100010000C9438110C9438110C9438110C9438113C
:100020000C9438110C9438110C94332A0C94A22A95
:100030000C9438110C9438110C9438110C9438111C
:100040000C9438110C9438110C9438110C9438110C
:100050000C9438110C9438110C9438110C94D42C45
:100060000C9438110C9438110C9438110C943811EC
:100070000C9438110C9438110C9438110C943811DC
:100080000C9438110C9438110C9438110C943811CC
:100090000C9438110C9438110C9438110C943811BC
:1000A0000C9438110C94D1300C943811403F500806
:1000B0008347532114AF528141FEAF9F40205281AC
:1000C00047532141015020873DDF9F403F41F85277
:1000D0000154000DA79F403F41F814A69F403F41A7
:1000E000F836A438AA9F403F01AF9F0C02012A0BAB
:1000F00060000B040000008121A100000030020F0D
:1001000000000000AB3141596981C000001001516D
:1001100000663B8B000000C0000018057B2B1342DB
:1001200062820000300A17000072006524A40000FB
:10013000008000000011A900603C5C6C8C00300E57
:100140001F00005000A14181000000C000002019E4
:100150007900653292000000301E2B0000722214DC
:100160004B9B00000040000028000000634181001C
:100170000000D426002C21A300215A6A00000010A0
:100180002A00000000000000000000000704051E17
:100190000A020122096000070800000081194900D5
:1001A0000000C000000C016200A33A8A0000003089
:1001B000020F00007900663393000000F00617106C
:1001C0000953B0124383000000100E00000000002D
:1001D000A53C5C6C8C00C00000180D29A96042820F
:1001E0005B0000301623000072006521A4000000AF
:1001F00040000020000000633191000000D41E0088
:1002000024197B00214A9A000000102200000000FF
:10021000000000000000000604041E080201190787
:1002200040000004000000A14181210000B0020B49
:1002300000117A00663B8B00000080000000055131
:1002400000653292000000501200180000002344A4
:100250006484A4006000070C00A929105B6B0000F7
:100260000000000000007300654A9A000000320E92
:100270001F00004000A221C1000000800000001902
:1002800000000000000000000502031E0800001A24
:100290000760000B04000000812141A10000500212
:1002A000000C007900AB3B8B000000C00000100187
:1002B0005000A0335B83000030061700007200215D
:1002C0004262920000900A0000190000643C5C6CDD
:1002D0008C00800000000DA3001242820000006428
:1002E00000131C002900AB4999000000101A0000FF
:1002F0000000000000000000000902020802F10AEC
:1003000007140D0100C39CBC940B2BA0001300012B
:100310005900A2143C648CB40000000000220004C8
:10032000670000000020000300004BBA66936B3B9F
:100330004300C400001C05A020660000000000105F
:10034000020000004181C1630323A300501E00206E
:10035000002000C072626A5A525412001800C20093
:10036000656C5C000000101A000000AB00656C5C5E
:1003700000000006060111001C0300000802980698
:10038000000009000000000000000062000B0000F7
:100390000000400000000000A00003000500000075
:1003A0006700000000000006011501260137014A20
:1003B000015D01720188019F01B801D201EE010BBC
:1003C000022A024B026E029302BA02E40210033FB9
:1003D000037003A403DC03170455049704DD04270A
:1003E000057505C80520067D06E0064907B8072DF6
:1003F00008A9082D09B9094D0AEA0A900B400CFA20
:100400000CC00D910E6F0F5A1053115B1272139A9C
:1004100014D41520178018F519801B231DDE1EB477
:1004200020A622B52420202020434F4E46205344AE
:100430004658202020494E464F20504C415900201C
:10044000425554544F4E20534348454D452020209B
:10045000204E3C3E532020453C3E5700202020208B
:100460004D534658204D5553432020205344465861
:10047000204D5554450020435245415445442042A7
:100480005920535447204F4E45424954204A4F3338
:1004900052490020434F4E54494E55452047414D47
:1004A00045202020204E4557202020434F4E540009
:1004B0002020204C4556454C202020202020202064
:1004C0002053434F52453A0047414D45204F564532
:1004D0005220203A3C202053434F52453A00445288
:1004E0004F49442045534341504544203A3E202043
:1004F00053434F52453A00414343455353204445EB
:100500004E4945443A2055534520574849544520C3
:1005100043415244004143434553532044454E49CF
:1005200045443A2055534520424C41434B204341DA
:1005300052440044524F49442055534544204120E1
:1005400054454C45504F5254204745542048494D3E
:100550000057415443482049542044524F494420B5
:10056000464F554E4420412053574954434800417B
:100570004C45525420414C4552542044524F49441A
:10058000204553434150494E470047455420544865
:1005900041542044524F4944204E4F5700444F206D
:1005A0004E4F54204C455420544841542044524FFF
:1005B0004944204553434150450049542053544F2A
:1005C0004C45205448452044454144535441522011
:1005D000504C414E53005448495320495320412028
:1005E0004E4F20534D4F4B494E4720464143494CB7
:1005F0004954590041524541203531204953204941
:100600004E204C4F434B444F574E0044524F4944A9
:10061000205133453320504C4541534520524550DD
:100620004F5254204E4F5700544845204558495486
:10063000204953205448415420574159203D3D3DC5
:100640003D3E0000E600DD00D600CB004D21BC00A1
:10065000AC000600000A001200150020002C00006B
:10066000010202403F9D0E41FAFD3F039F40304191
:10067000FFFD14049F40009F2BAF32AF2EAF2EA77B
:100680002DA7FEFC054CFEFC054C02FC054DFE05AD
:10069000DFFE180800C0C0F0F0F830F8183C0C1E5F
:1006A0000C1E0C1E060F060F060F060F060F060F78
:1006B000060F060F0C1E0C1E0C1E183C30F8F0F82E
:1006C000C0F000C00003030F0F1F0C1F183C307850
:1006D0003078307860F060F060F060F060F060F0EA
:1006E00060F060F0307830783078183C0C1F0F1FC5
:1006F000030F00037903F9028C021B029001EB0047
:1007000008080000008080808080A0305058C8C059
:1007100064060E8B99993D27260C8888C84860206E
:10072000302060C0C000000000000000000000C0D9
:10073000C0404040400018183848D8E17133322694
:10074000262E0B190000000001010101000000002D
:1007500001010302060404040416121B090C8CFE9A
:10076000F2322624BC98C04040404040C080000087
:10077000000060F09090C0444C0E1A92BA08486D88
:10078000293B1206040404070300000100000000D6
:100790000000000307040404040426321359C8ECC3
:1007A000A436121808089890F0600A2820404020CB
:1007B00090CCE2FA797D1717080A050502020101BB
:1007C0005050E8E8F4F4FAFA7DBDF0F8F3F30703CB
:1007D0007B7CFE7F0F0301060203000000007D7991
:1007E000FAE2CC90204040200101020205050A08EF
:1007F0001717BD7DFAFAF4F4E8E850507FFE7C7BD1
:100800000307F3F3F8F00000000003020601030FF2
:1008100016100000000000000000000000008080B2
:100820008080C0C0C0C0E0E0E0E0C0C0C0C0808048
:1008300080800000000000000000000000000404B0
:1008400004040E0E0E0E1F1F1F1F3F3F3F3F7F7FF2
:100850007F7FFFFFFFFF7F7F7F7F3F3F3F3F1F1F68
:100860001F1F0E0E0E0E040404040000000000F012
:10087000E0F010F8D0F838FCB8FC7CFE7CFEFEFFFF
:10088000FEFF7CFE7CFEB8FCB8FC50F850F8A0F0EF
:1008900000F0000000000000000000070307000F48
:1008A000070F001F0F1F003F1F3F007F2A7F153FCC
:1008B000153F0A1F0A1F050F050F0207000700005A
:1008C0000000F0F008F8D0F0A0E040C0FEFE01FF0C
:1008D000C6FE38F806FEF9FFC6FE38F870F08CFC4C
:1008E00002FEFCFCC0C030F0CCFC02FEFCFC0404A8
:1008F0000707080F0F0F1E1F1D1F203F3F3F7C7F64
:10090000437FFFFF8FFF717F7E7F3F3F203F1B1F95
:100910001C1F0F0F080F0707040400000000000051
:10092000808040C020E010F008F804FC02FEABFF1D
:1009300055FF02FE04FC08F810F020E040C0808063
:1009400000000000000004040606090F080F101F35
:10095000101F203F203F407F407FAAFFD5FF407FF0
:10096000407F203F203F101F101F080F090F060671
:10097000040400000000000000000080008000C0AF
:1009800080C000E0C0E000E0E0E000E0C0E000C0C7
:1009900080C0008000800000000000000000000E09
:1009A000040E001F0E1F003F1F3F207F2F7F70FF90
:1009B00077FFF8FFFBFF70FF77FF207F2F7F003F5F
:1009C0001F3F001F0E1F000E040E0000000000005D
:1009D0000000000000008080808040C040C0A0E097
:1009E000A0E040C040C08080808000000000000087
:1009F000000000000000040404040A0E0A0E151F83
:100A0000151F2E3F2E3F5B7F5B7FB5FFB5FF5B7FE2
:100A10005B7F2E3F2E3F151F151F0A0E0A0E040482
:100A200004040000000000000000000000008080BE
:100A30008080C0C0C0C060E060E0C0C0C0C0808036
:100A4000808000000000000000000000000004049E
:100A500004040E0E0E0E1B1F1B1F353F353F6E7F0D
:100A60006E7FDBFFDBFF6E7F6E7F353F353F1B1FE9
:100A70001B1F0E0E0E0E04040404000000000000F4
:100A80000000000000000080008080C080C0C0E046
:100A9000C0E080C080C00080008000000000000036
:100AA00000000000000000040004040E040E0E1FED
:100AB0000E1F1B3F1B3F357F357F6EFF6EFF357F5F
:100AC000357F1B3F1B3F0E1F0E1F040E040E00043C
:100AD00000040A208080000050500000AAAA0000F4
:100AE0000000000000000000AAAA00005555000008
:100AF000AAAA00000000000000100000AAAA00003E
:100B000055550000AAAA00000000000000000000E7
:100B10000A0A0000050500000202000000000000B3
:100B20000000000000000000000000000000AAAA71
:100B30000000505000008080000000100000000005
:100B40000000AAAA000055550000AAAA0000000053
:100B5000000000000000AAAA000055550000AAAA43
:100B60000000000000000000000002020000050577
:100B700000000A0A000000A000000054000000AAC3
:100B800000000055000000AA000000AA0000005567
:100B9000000000AA00000055001000AA000000AAF2
:100BA00000000055000000AA00000055000000AA47
:100BB000000000AA000000550000002A00000015F7
:100BC0000000000A00AA00000055000000AA000072
:100BD0000054000000A0000000AA00100055000012
:100BE00000AA00000055000000AA000000AA0000B2
:100BF0000055000000AA00000055000000AA0000F7
:100C0000000A000000150000002A00000055000046
:100C100000AA00001710000000000000008080C043
:100C2000C0E0C0E0E0F0F0F870F878FCB8FCDCFE62
:100C3000DCFEEEFFECFE74FE70FC78FCF0F8F0F8E1
:100C4000E0F000E000F8F8FEFEFFFFFF1FFFE7FF07
:100C5000FBFF7DFF1EFF0FFF07FF03FF03FF01FFE9
:100C6000FEFFFEFFFFFFFFFFFFFF00FFFFFFFFFF95
:100C700000FF00E0E0F0F0F8F0F878FC70FC74FEA3
:100C8000ECFEEEFFDCFEDCFEB8FC78FC70F8F0F861
:100C9000E0F0C0E0C0E080C0008000000000000084
:100CA00000FFFFFFFFFF00FFFFFFFFFFFFFFFEFF53
:100CB000FEFF01FF03FF03FF07FF0FFF1EFF7DFF86
:100CC000FBFFE7FF1FFFFFFFFEFFF8FE00F800003D
:100CD00000000000008080C0C0E0C0E0E0F0F0F85C
:100CE00070F878FCB8FCDCFEDCFEEEFFECFE74FE77
:100CF00070FC78FCF0F8F0F8E0F000E000F8F8FEA6
:100D0000FEFFFFFF1FFFE7FFFBFF7DFF1E7F0F1FA3
:100D1000070F0307030701FFFEFFFEFFFFFFFFFFB3
:100D2000FFFF00FFFFFFFFFF00FF00E0E0F0F0F833
:100D3000F0F878FC70FC74FEECFEEEFFDCFEDCFEEE
:100D4000B8FC78FC70F8F0F8E0F0C0E0C0E080C0DB
:100D5000008000000000000000FFFFFFFFFF00FF19
:100D6000FFFFFFFFFFFFFEFFFEFF01FF030703077B
:100D7000070F0F1F1E3F7DFFFBFFE7FF1FFFFFFF5A
:100D8000FEFFF8FE00F80820000000000000000050
:100D900000FFFFFFFFFF00FF000000000000000059
:100DA00000FFFFFFFFFF00FF000000000000000049
:100DB00000FFFFFFFFFF00FF000000000000000039
:100DC000007F1F3F1F3F001F00FFFFFFFFFF00FFCF
:100DD000000000000000000000FFFFFFFFFF00FF19
:100DE000000000000000000000FFFFFFFFFF00FF09
:100DF0000000000000000000001F1F3F1F3F003FD9
:100E0000000000000000000000FFFFFFFFFFFFFFE9
:100E100000FFFFFFFFFF00FF00FFFFFFFFFFFFFFDF
:100E200000FFFFFFFFFF00FF00FFFFFFFFFFFFFFCF
:100E300000FFFFFFFFFF00FF0007070F070F0F1F57
:100E4000003F1F3F1F3F001F00FFFFFFFFFF00FF8E
:100E5000FFFFFFFFFFFF00FF00FFFFFFFFFF00FF9F
:100E6000FFFFFFFFFFFF00FF00FFFFFFFFFF00FF8F
:100E7000FFFFFFFFFFFF00FF001F1F3F1F3F003F5F
:100E80000F1F070F070F00070F2000FF00FF00FFD5
:100E900000FF00FF00FFFFFF8FFF4FFF1FFFFFFF5F
:100EA00000FFFFFFFFFF00FF00FF00FF00FF00FF4C
:100EB00000FF00FFFFFFFFFFFFFFFFFFFFFF00FF3F
:100EC000FFFFFFFF00FF80FFC0FFC0FFE0FFE0FF6C
:100ED000F0FFF7FFEFFFEFFF5FFF5FFF007F3F7F58
:100EE0001F3F003F0F1F070F070F030703070103F3
:100EF00001030001000100000000000000000000EC
:100F0000000000FFFFFFFFFF00FFFFFF1FFF4FFF7D
:100F10008FFFFFFF00FF00FF00FF00FF00FF00FF4B
:100F200000FFFFFFFFFF00FFFFFFFFFFFFFFFFFFCF
:100F3000FFFF00FF00FF00FF00FF00FF00FF003F7A
:100F40001F3F3F7F007F5FFF5FFFEFFFEFFFF7FF78
:100F5000F0FFE0FFE0FFC0FFC0FF80FF00000000E7
:100F60000000000000000000000100010103010377
:100F700003070307070F070F0F1F00000000000003
:100F80000000000000FFFFFF8FFF4FFF1FFFFFFF6C
:100F900000FFFFFFFFFF00FF000000000000000057
:100FA000000000FFFFFFFFFFFFFFFFFFFFFF00FF4D
:100FB000FFFFFFFF00FF80C0C0E0C0E0E0F0E0F016
:100FC000F0FFF7FFEFFFEFFF5FFF5FFF007F3F7F67
:100FD0001F3F003F0F1F070F070F03070307010302
:100FE00001030001000100000000000000000000FB
:100FF000000000FFFFFFFFFF00FFFFFF1FFF4FFF8D
:101000008FFFFFFF00FF0000000000000000000055
:1010100000FFFFFFFFFF00FFFFFFFFFFFFFFFFFFDE
:10102000FFFF00FF00000000000000000000003F84
:101030001F3F3F7F007F5FFF5FFFEFFFEFFFF7FF87
:10104000F0FFE0F0E0F0C0E0C0E080C00000000091
:101050000000000000000000000100010103010386
:1010600003070307070F070F0F1F100518151015AB
:10107000180F500550155F15550F5126593651362A
:1010800059300E260E361D361330081000FE00FEB5
:1010900038FE38FE38FE00FE00FE00000027002764
:1010A000022700270227002700270000000000FF7A
:1010B0001CFF38FE38FE00FC00000000000000139A
:1010C00001270027024F004F000000000000000031
:1010D00000FF1CFF00FC00000000000000000000FA
:1010E0000013012F004F000000000000000000006E
:1010F000000000FF000000000000000000000000F1
:101100000000004F00000000000000000000000090
:1011100000FC1CFF00FF00000000000000000000B9
:10112000004F012F0013000000000000000000FC31
:1011300038FE38FE1CFF00FF000000000000004FDA
:10114000024F0027012700130000000000FEFCFEF4
:101150003CFE3CFE3CFEFCFE00FE00000027032798
:10116000022702270227032700270000000000FFB4
:10117000FEFF3CFEF8FE00FC000000000000001333
:1011800001270227074F004F000000000000000069
:1011900000FFFCFF00FC0000000000000000000059
:1011A0000013012F004F00000000000000000000AD
:1011B000000000FF00000000000000000000000030
:1011C0000000004F000000000000000000000000D0
:1011D00000FCFEFF00FF0000000000000000000017
:1011E000004F012F0013000000000000000000FC71
:1011F000F8FE3CFEFEFF00FF000000000000004F74
:10120000074F0227012700130000000000FCA8FC84
:10121000A8FEA0FE80FE00FC00FC000000270227C4
:10122000022702270227022700270000000000FEF5
:1012300054FEA0FE00FE00F80000000000000013B5
:1012400001270227044F004F0000000000000000AB
:1012500000FE00FE00F8000000000000000000009A
:101260000013002F004F00000000000000000000ED
:10127000000000FE00000000000000000000000070
:101280000000004F0000000000000000000000000F
:1012900000F800FE00FE000000000000000000005A
:1012A000004F002F0013000000000000000000F8B5
:1012B00000FEA0FE54FE00FE000000000000004FF3
:1012C000044F022701270013000000000038007CB3
:1012D00000FE08FE08FE107C003800000020002000
:1012E0000020002000200020002000000000001C42
:1012F00000FE08FE20FE007000000000000000104C
:10130000002000200040004000000000000000001D
:10131000001C00FE00700000000000000000000043
:10132000001000200040000000000000000000004D
:10133000000000FE000000000000000000000000AF
:10134000000000400000000000000000000000005D
:10135000007000FE001C0000000000000000000003
:10136000004000200010000000000000000000709D
:1013700000FE08FE08FE001C000000000000004007
:1013800000400020002000100000000000FCF8FCDD
:1013900000FCA8FCA8FCF8FC00FC000000270327C8
:1013A000002702270227032700270000000000FE75
:1013B000FCFEA8FCF0FC00F8000000000000001398
:1013C00001270227074F004F000000000000000027
:1013D00000FEF0FE00F80000000000000000000029
:1013E0000013032F004F0000000000000000000069
:1013F000000000FE000000000000000000000000EF
:101400000000004F0000000000000000000000008D
:1014100000F8F0FE00FE00000000000000000000E8
:10142000004F032F0013000000000000000000F830
:10143000F0FCA8FCFCFE00FE000000000000004FD5
:10144000074F0227012700130000000000F848FCA6
:1014500048FC9CFE9CFE48FC48FC00F8003F017FD5
:10146000017F02FF02FF017F017F003F00F888FC3F
:1014700088FC1CFE1CFE88FC88FC00F8003F027FF4
:10148000027F05FF05FF027F027F003F00F808FC96
:1014900008FC1CFE1CFE08FC08FC00F8003F057F51
:1014A000057F0AFF0AFF057F057F003F00F808FC63
:1014B00008FC1CFE1CFE08FC08FC00F8003F0A7F2C
:1014C0000A7F14FF14FF0A7F0A7F003F00F808FC20
:1014D00008FC1CFE1CFE08FC08FC00F8003F147F02
:1014E000147F28FF28FF147F147F003F00F808FCBA
:1014F00008FC1CFE1CFE08FC08FC00F8003F287FCE
:10150000287F50FF50FF287F287F003F007858FC3D
:101510005CFEBEFFBEFF5CFE58FC0078003C307EE7
:10152000307E60FF60FF307E307E003C007858FCEB
:101530005CFEBEFFBEFF5CFE58FC0078003C307EC7
:10154000307E60FF60FF307E307E003C007858FCCB
:101550005CFEBEFFBEFF5CFE58FC0078003C307EA7
:10156000307E60FF60FF307E307E003C007840FCC3
:1015700040FE80FF80FF40FE40FC0078003C307E53
:10158000307E60FF60FF307E307E003C007840FCA3
:1015900040FE80FF80FF40FE40FC0078003C307E33
:1015A000307E60FF60FF307E307E003C007840FC83
:1015B00040FE80FF80FF40FE40FC0078003C307E13
:1015C000307E60FF60FF307E307E003C008080C057
:1015D000C0E0E0F0E0F0C0E080C00080003F3D7F70
:1015E0003D7F7BFF7BFF3D7F3D7F003F008080C0D4
:1015F000C0E0E0F0E0F0C0E080C00080003F3D7F50
:101600003D7F7BFF7BFF3D7F3D7F003F008080C0B3
:10161000C0E0E0F0E0F0C0E080C00080003F3D7F2F
:101620003D7F7BFF7BFF3D7F3D7F003F008000C013
:1016300000E000F000F000E000C00080003F027F0A
:10164000027F04FF04FF027F027F003F008000C092
:1016500000E000F000F000E000C00080003F027FEA
:10166000027F04FF04FF027F027F003F008000C072
:1016700000E000F000F000E000C00080003F027FCA
:10168000027F04FF04FF027F027F003F252502073F
:101690000207252A000523280108001F111F111F1A
:1016A000101D151711151F07041F17151D1F151DD8
:1016B00001011F1F151F17151F000A00100A000443
:1016C0000A110A0A0A110A040115020E17161F054B
:1016D0001F1F150A1F11111F110E1F15111F0501C4
:1016E0001F111D1F041F111F1119111F1F06191F84
:1016F00010101F071F1F011F1F111F1F05070F09B4
:101700001F1F051A17151D011F011F101F0F100F96
:101710001F1C1F1B041B071C071915130508FEFFC0
:10172000FFFFFEFEBFBFBFFEFEAFAFAFFEFEABAB27
:10173000ABFE07081F11151511111F07081F1919F6
:101740001F1F1F1F05080E1F1D190E020800FFFF97
:10175000FF180000050010001B00210026006C008F
:1017600074007D008C00A700AC00B100C000CF0069
:10177000F000F600FC000B0111015A016401680140
:101780006E0106120016400040009F41FA0DA7416D
:10179000F419A314A3FE41F40DA30DA314A319A3DC
:1017A000FEFD0201FC02FEFC01FC02FEFC02FD014A
:1017B00003FC044CFEFC044CFCFC044DFC04FD0149
:1017C00003FC044CFEFC044CFCFC044C03FC04FD38
:1017D00001034C07FC044C05FC044C03FD0104FD13
:1017E00001034C07FC044C05FC044C03FC044DFCB9
:1017F00004FE4030FD0203FD02019E07130017FDA9
:1018000001059F31A72FA731A72CA728A72CA72513
:10181000AFFE31A733A734A733A734A731A733A727
:1018200031A733A72FA731A72FA731A7FE2DA731A7
:10183000AFFE33A734AFFE38A736A738A734A72F9B
:10184000A734A72CAFFE31A72FA731A72CA728A319
:101850002CA725B3FE31A733A734A733A334A7346D
:10186000A731A333A731A333A733A72FA331A72FC2
:10187000A331A731A3FEA32DA331AFFEA333A3341D
:10188000AFFE38A736A738A734A72FA334A72CB3A9
:10189000FE4000DFDFDFCF403041E8FD0108FC09FA
:1018A000FC0AFD0108FC09FC0BFD010C4C07FC09BE
:1018B000FC0A4DFD010C4C07FC09FC0B4DFD010D14
:1018C000FC0EFC0FFD010DFC0EFC10FD01114C0780
:1018D000FC0EFC0F4DFD01114C07FC0EFC104D9F42
:1018E00057024904402041FAAFFEFD0314FEFD02F9
:1018F00015FD0214FC14FD0F15FC14FD0F159F02BD
:1019000008001F001F1E1800C038C6E9ADE1D1DD78
:10191000DDE1FDFDFDFDFDFDFDFDFDFDFDF5BDF97F
:10192000C638C215020041060808C84848D000F869
:101930001FDF5F5F9F3FFF18C05048080808086618
:10194000610008205088502003813943988A888B91
:1019500088898A888A889B423A034012381000029C
:1019600000101800F0F0F8F0F8F8FCF8FCFCFEFCB1
:10197000FEFEFFFEFFFCFEFCFEF8FC80F80080008F
:1019800000000000FFFFFFFFFF7FFFBFFF3FFFFFE3
:10199000FFFFFFFFFFFFFFFFFFFFFFFFFFFFFFFC5A
:1019A000FF00FC000F0F1F0F1F1C3F1D3F3E7F3F1E
:1019B0007F7FFF7FFF3F7F3F7F1F3F1F3F0F1F0F37
:1019C0001F000F00000000008080F8F8FCFCFEFC07
:1019D000FEFEFFFEFFFCFEFCFEF8FCF8FCF0F8F05B
:1019E000F800F000FCFCFFFFFFFFFFFFFFFFFFFF21
:1019F000FFFFFFFFFFFFFF3FFFBFFF7FFFFFFFFF77
:101A0000FF00FF000F0F1F0F1F1F3F1F3F3F7F3FB4
:101A10007F7FFF7FFF3F7F3E7F1D3F1C3F0F1F0FDC
:101A20001F000F000000000000008080C0C0E0C068
:101A3000E0E0F0E0F0F0F8F0F8F8FC78FC70F8F096
:101A4000F800F000E0E0F8F8FCFCFF7FFF7FFFFF0C
:101A5000FFFFFFFFFF41FF6CFF20FF36FF10FFFF7E
:101A6000FF00FF000F0F1F0F1F1F3F1C3F3B7F3862
:101A70007F7FFF7FFF207F377F163F1A3F081F0FB2
:101A80001F000F00F0F0F870F878FCF8FCF0F8F0A8
:101A9000F8E0F0E0F0C0E0C0E080C00080000000AE
:101AA00000000000FFFFFF10FF36FF20FF6CFF412A
:101AB000FFFFFFFFFFFFFF7FFF7FFFFCFFF8FCE062
:101AC000F800E0000F0F1F081F1A3F163F377F2056
:101AD0007F7FFF7FFF387F3B7F1C3F1F3F0F1F0F24
:101AE0001F000F008080C0C0E0E0F0F0F8F8FCFCC0
:101AF000FE54FFAAFFFCFEF8FCF0F8E0F0C0E08026
:101B0000C000800008081D083D1D7F5DFFB3FFB3C6
:101B1000FF65FF66FFB3FFB3FF5DFF1D7F083D0854
:101B20001D000800080008001C001C003E003F01CA
:101B30007F027F017F017F003F003E001C001C00F0
:101B4000080008008080C0C0E0E0F0F0F8F8FCFC7D
:101B5000FE54FFAAFFFCFE78FCB0F8E0F0C0E08085
:101B6000C000800008081D083D1D7F5DFFB3FFB366
:101B7000FF65FF66FFB3FFB3FF5DFF1D7F083D08F4
:101B80001D000800080008001C001C003E003F016A
:101B90007F027F017F017F003F003E001C001C0090
:101BA000080008008080C0C0E0E0F0B0F878FCFCDD
:101BB000FE54FFAAFFFCFE78FC30F8E0F0C0E080A5
:101BC000C000800008081D083D1D7F5DFFB3FFB306
:101BD000FF65FF66FFB3FFB3FF5DFF1D7F083D0894
:101BE0001D000800080008001C001C003E003F010A
:101BF0007F027F017F017F003F003E001C001C0030
:101C0000080008008080C0C0E0E0F030F878FCFCFC
:101C1000FE54FFAAFFFCFEF8FCF0F8E0F0C0E08004
:101C2000C000800008081D083D1D7F5DFFB3FFB3A5
:101C3000FF65FF66FFB3FFB3FF5DFF1D7F083D0833
:101C40001D000800080008001C001C003E003F01A9
:101C50007F027F017F017F003F003E001C001C00CF
:101C60000800080000000000000000000000000064
:101C70000000000000000000000000000000000064
:101C800000000000000080008000C000C000E000F4
:101C9000E000F060F0C0E0C0E080C080C0008000E4
:101CA000800000000F0D1F0D1F1B3F1B3F377F36AD
:101CB0007F6EFF6EFF377F377F1B3F1B3F0D1F0D72
:101CC0001F000F00000000000000000000000000E6
:101CD0000000000000000000000000000000000004
:101CE00000000000000080008080C080C0C0E0C014
:101CF000E060F000F000E000E000C000C000800004
:101D0000800000000F0D1F0D1F1B3F1B3F377F374B
:101D10007F6EFF6EFF367F377F1B3F1B3F0D1F0D12
:101D20001F000F0000000000000000000000000085
:101D300000000000000000000000000000000000A3
:101D400000000000000080008080C080C0C0E0C0B3
:101D5000E0E0F0E0F0C0E0C0E080C080C0008000C3
:101D6000800000000F0D1F0D1F1B3F1B3F377F37EB
:101D70007F6CFF60FF307F017F193F013F0D1F0D1A
:101D80001F000F0000000000000000000000000025
:101D90000000000000000000000000000000000043
:101DA00000000000000080008080C080C0C0E0C053
:101DB000E0E0F0E0F0C0E0C0E080C080C000800063
:101DC000800000000F0D1F0D1F013F193F017F30E4
:101DD0007F60FF6CFF377F377F1B3F1B3F0D1F0D61
:101DE0001F000F00F0D0F8D0F8B0FCB0FC70FE601F
:101DF000FEE0FFE6FF7CFE7CFEB8FCB8FCD0F8D02D
:101E0000F800F000E0A0F1A0F171FB41FFBBFFBBC7
:101E1000FF76FF76FFBBFFBBFF41FF71FBA0F1A088
:101E2000F100E0000F0F1F0F1F173F173F327F32E7
:101E30007F7DFF7DFF3E7F3E7F1F3F1F3F0F1F0FB8
:101E40001F000F00F0D0F8D0F8B8FCB8FC7CFE7C86
:101E5000FEE6FFE0FF60FE70FEB0FCB0FCD0F8D004
:101E6000F800F000E0A0F1A0F171FB41FFBBFFBB67
:101E7000FF76FF76FFBBFFBBFF41FF71FBA0F1A028
:101E8000F100E0000F0F1F0F1F1F3F1F3F3E7F3E5F
:101E90007F7DFF7DFF327F327F173F173F0F1F0F80
:101EA0001F000F00F0D0F8D0F8B8FCB8FC7CFE7C26
:101EB000FECEFF0EFF0CFE1CFE98FC18FCD0F8D0E6
:101EC000F800F000E0A0F1A0F171FB41FFBBFFBB07
:101ED000FF76FF76FFBBFFB8FF41FF70FBA0F1A0CC
:101EE000F100E0000F0F1F0F1F193F193F367F361B
:101EF0007F7DFF7DFF3E7F3E7F1F3F1F3F0F1F0FF8
:101F00001F000F00F0D0F8D0F818FC98FC1CFE0C55
:101F1000FE0EFFCEFF7CFE7CFEB8FCB8FCD0F8D0F5
:101F2000F800F000E0A0F1A0F170FB41FFB8FFBBAA
:101F3000FF76FF76FFBBFFBBFF41FF71FBA0F1A067
:101F4000F100E0000F0F1F0F1F1F3F1F3F3E7F3E9E
:101F50007F7DFF7DFF367F367F193F193F0F1F0FB3
:101F60001F000F101800F0F0F8F0F8F8FCF8FCFC77
:101F7000FEFCFEFEFFFEFFFCFEFCFEF8FCF8FCF0A3
:101F8000F8F0F800F0006363FF7FFFFFFF9FFFE7BB
:101F9000FFF9FFFFFFFFFFFFFFFFFFFFFFFFFF7FD7
:101FA000FF7FFF007F000E0C1E0C1F183F1A3F35ED
:101FB0007F357F6BFF6BFF357F357F1A3F183F0CF6
:101FC0001F0C1E000E00F0F0F8F0F8F8FCF8FCFC16
:101FD000FEFCFEFEFFFEFFFCFEFCFEF8FCF8FCF043
:101FE000F8F0F800F0007F7FFF7FFFFFFFFFFFFFAB
:101FF000FFFFFFFFFFFFFFF9FFE7FF9FFFFFFF7FEF
:10200000FF63FF0063000E0C1E0C1F183F1A3F35C4
:102010007F357F6BFF6BFF357F357F1A3F183F0C95
:102020001F0C1E000E00F0F0F8F0F8F8FCF8FCFCB5
:10203000FEFCFEFEFFFEFF7CFE7CFE38FCB8FC10C2
:10204000F8F0F800F0007F7FFF7FFFF9FFE7FF9FC8
:10205000FFFFFFFFFFF0FFF9FFF8FFFCFFFCFF7E33
:10206000FF63FF0063000E0C1E0C1F183F1A3F3564
:102070007F357F6BFF6BFF357F357F1A3F183F0C35
:102080001F0C1E000E00F0F0F810F8B8FC38FC7CB5
:10209000FE7CFEFEFFFEFFFCFEFCFEF8FCF8FCF002
:1020A000F8F0F800F0006363FF7EFFFCFFFCFFF830
:1020B000FFF9FFF0FFFFFFFFFF9FFFE7FFF9FF7F43
:1020C000FF7FFF007F000E0C1E0C1F183F1A3F35CC
:1020D0007F357F6BFF6BFF357F357F1A3F183F0CD5
:1020E0001F0C1E000E008000C080C080FCF8FCFCAD
:1020F000FEFCFEFEFFCEFFE0FEF0F878FC78FC3040
:10210000F8F0F800F0007F7FFF7FFFF9FF87FFFF07
:10211000FFFFFFFFFFF1FFF8FFF8FFFCFFFCFF7E72
:10212000FF63FF0063000E0C1E0C1F081F0A3F35E3
:102130007F357F6BFF6BFF357F357F0A3F081F0CB4
:102140001F0C1E000E10244054FBFF050140109D83
:10215000325201475321410119DF9D249F804010D5
:102160002020804010020A160ED5F08D14A1C881DF
:10217000CFD9F1AF20009D1EAF403F41F84753211A
:1021800033AB33A933A32EBF57019FEB20BE20E70B
:1021900029AC208828D91F2E231520DF28FC1FC931
:1021A0001F5E1BBD1FB6296416080B000202020049
:1021B00000090400000102020000052400100105CE
:1021C00024010101042402060524060001070581FB
:1021D0000310004009040100020A00000007050284
:1021E00002400000070583024000000403090412B6
:1021F000010002EF02014041233680000101020389
:102200000141726475696E6F204C4C4300417264E9
:1022100075696E6F204C656F6E6172646F005A3124
:1022200011241FBECFEFDAE0DEBFCDBF11E0A0E08A
:10223000B1E0E4EBF6E602C005900D92AC32B107D6
:10224000D9F728E0ACE2B1E001C01D92A437B20793
:10225000E1F711E1C0E1D1E104C02197FE010E9444
:102260004B33CF30D107C9F70E9480310C945833DB
:102270000C94000080911407811118C081E08093B4
:1022800014072091130730E0EDE2F1E090E080E0E8
:10229000A901082E02C0559547950A94E2F740FF20
:1022A0001082019635968430910591F70895FC01CE
:1022B00080910D07882311F13FB7F89482E0809355
:1022C000E9002091F200822F90E01816190614F40C
:1022D00081E090E0882339F0289844E640930C0789
:1022E0004091F1004083222339F02091F200211126
:1022F00003C02BE62093E8003FBF08958FEF9FEFC8
:1023000008952FB7F89483E08093E9009091E80056
:10231000892F807295FF04C09091F20080E4891BA0
:102320002FBF08958091040781110DC082E0809332
:10233000000784E0809301071092030710920207C0
:1023400081E08093040780E097E00895CF93DF93C6
:102350001F92CDB7DEB76983DC01ED91FC9102805D
:10236000F381E02D41E050E0BE016F5F7F4F0995A2
:102370000F90DF91CF91089583E08093E9008091E1
:10238000F200882319F08AE38093E80008950E9400
:10239000811190E00895CF93DF931F92CDB7DEB700
:1023A000FC018485958597FD08C02FEF3FEF3587A9
:1023B00024870F90DF91CF910895CE0101960E945E
:1023C0005711019719F4898190E0F3CF8FEF9FEFB8
:1023D000F0CF0F931F93CF93DF931F92CDB7DEB74C
:1023E0008C01FC018485958597FF0BC0CE01019679
:1023F0000E945711019771F4898190E0F801958747
:102400008487F801848595850F90DF91CF911F9186
:102410000F9108958FEF9FEFF1CFFC018485958593
:1024200097FD0BC09FB7F89482E08093E9008091FC
:10243000F2009FBF90E0019608959FB7F89482E064
:102440008093E9008091F2009FBF90E00895409151
:10245000FA065091FB062091F8063091F9064217D2
:102460005307B4F49091E8009570E1F39091E8007F
:1024700092FD19C08093F1008091FA069091FB06BD
:1024800001968F739927892B19F48EEF8093E800BA
:102490008091FA069091FB0601969093FB0680933B
:1024A000FA0681E0089580E00895EF92FF920F937D
:1024B0001F93CF93DF93F82E192FE62E042F81E080
:1024C000860F880F0E94271283E00E942712CF2DCB
:1024D000D12FEC0EFD2EF11CCE15DF05B9F007FF54
:1024E00013C0FE0184910E942712182F80E00E94E1
:1024F0002712812321968111EFCFDF91CF911F9178
:102500000F91FF90EF9008958881EDCF81E0F5CF96
:10251000DF92EF92FF920F931F93CF93DF93D82E0A
:102520008A01EB017B01E40EF51ECE15DF0559F0A3
:10253000D7FE12C0FE0184910E94271221968111BC
:10254000F4CF0FEF1FEFC801DF91CF911F910F91D3
:10255000FF90EF90DF9008958881EECF0F931F9347
:10256000CF93DF931F92CDB7DEB782E0898342E439
:1025700050E069EA71E280E80E9488120E9492119C
:10258000DC0112960D911C910115110589F0D801FD
:10259000ED91FC910280F381E02DBE016F5F7F4FD2
:1025A000C801099597FD04C0F80100851185ECCF9D
:1025B00089810F90DF91CF911F910F910895615004
:1025C00030F02091F100FC0120830196F8CF28988B
:1025D00084E680930C0708953FB7F8948091F40641
:1025E0009091F506A091F606B091F70626B5A89B46
:1025F00005C02F3F19F00196A11DB11D3FBFBA2F95
:10260000A92F982F8827BC01CD01620F711D811D54
:10261000911D42E0660F771F881F991F4A95D1F7D9
:1026200008958F929F92AF92BF92CF92DF92EF92D6
:10263000FF926B017C010E94EC124B015C01C11402
:10264000D104E104F104B9F00E94EC12681979098F
:102650008A099B09683E73408105910580F321E05A
:10266000C21AD108E108F10888EE880E83E0981EAE
:10267000A11CB11CE4CFFF90EF90DF90CF90BF90F2
:10268000AF909F908F90089565E070E080E090E0BB
:102690000C9411138F929F92AF92BF92CF92DF92C0
:1026A000EF92FF920F931F93CF93DF936C017B0107
:1026B0008A0180910F01882309F45CC080910D0785
:1026C000882309F457C08091FF0680FF05C08091E0
:1026D000E00082608093E000E801B12C8AEFA82E30
:1026E00093E0892E2AE3922E209711F4BB20D9F192
:1026F0000E94811181110AC0AA94AA20D9F161E037
:1027000070E080E090E00E941113EECF8C171D0660
:1027100011F00CF08C2F9FB7F8948092E900209173
:10272000E80025FD02C09FBFDFCF282F30E0C21B8D
:10273000D30BF701815020F041914093F100FACF83
:10274000E20EF31EBB2021F09092E800B12CEBCFFB
:102750008091E80085FDE7CF9092E800BB24B39418
:10276000209709F3F3CF5D9884E68093FE06101658
:1027700011063CF081E090E0F6019383828310E043
:1027800000E0C801DF91CF911F910F91FF90EF9072
:10279000DF90CF90BF90AF909F908F9008954F9211
:1027A0005F926F927F928F929F92AF92BF92CF92E1
:1027B000DF92EF92FF920F931F93CF93DF934C0121
:1027C0005901FC2DC02FD0E0CE01880D991D18169F
:1027D00019060CF06CC020E8821691040CF067C05A
:1027E0009B012E0D311D121613060CF060C06034D3
:1027F00071050CF05CC04115510509F458C0E62F75
:10280000E770FE2EDB0177FD179633E0B595A795AF
:102810003A95E1F73A2F77FF04C0FF2011F03FEF20
:102820003A0F662777276819790997FC02C070E08C
:1028300060E0803891050CF44BC090E89819961B25
:10284000A32F032E000CBB0B1A2F10953F3F0CF04B
:1028500010E021E08E2D877009F420E0E694E694E4
:10286000E694E20EAE0DB11D19971CF028E0E22EA1
:10287000E31AE11A310F20E83203D0011124A80D28
:10288000B91DA60FB71F019F600D711D1124460FC2
:10289000571F0F2D0F2C000C110BF33009F41CC126
:1028A000C8F4F13009F4D0C0F23009F47CC0DF91F3
:1028B000CF911F910F91FF90EF90DF90CF90BF903D
:1028C000AF909F908F907F906F905F904F90089502
:1028D000902FB5CFFA3FB1F1232F2E0DFB3F39F7E3
:1028E000321729F3BD0163517D4FD12CC12CC9167C
:1028F00008F0A4C0FA01EC0DFD1DE491F0E04F01D9
:10290000002E02C0880C991C0A94E2F737FD06C01D
:10291000FB018081E82CE0948E218083FF2061F010
:10292000373054F45B01F0E8AF0EB11CE92CE094B1
:10293000F50180818E218083FFEFCF1ADF0A6F5F60
:102940007F4FD5CF232F2E0D321709F4B0CFBD0105
:1029500063517D4FD12CC12CC91608F069C0FA0112
:10296000EC0DFD1DE491F0E04F01002E02C0880C3B
:10297000991C0A94E2F737FD04C0FB018081882985
:102980008083FF2051F0373044F45B01F0E8AF0E54
:10299000B11CF501808189298083FFEFCF1ADF0AFE
:1029A0006F5F7F4FD9CF6FEF70E00F2C02C0660FC3
:1029B000771F0A94E2F760957095772E232F2E0DDE
:1029C000321709F474CFFD01E351FD4F6F01B12CB3
:1029D000A12CA91638F5FA01EA0DFB1DE491F0E0EF
:1029E0002F01002E02C0440C551C0A94E2F737FD5B
:1029F00005C0F6018081862384298083FF2059F059
:102A000037304CF44601F0E88F0E911CF4018081C0
:102A1000872185298083FFEFAF1ABF0A8FEFC81A7D
:102A2000D80AD7CF3F5F4C0F5D1FA058BF4FC8CF0C
:102A30003F5F4C0F5D1FA058BF4F86CF3F5F4C0FCD
:102A40005D1FA058BF4F4CCF6A0D7B1D232F2E0D4D
:102A5000321709F42CCFFD01E351FD4F6F01B12C6A
:102A6000A12CA91688F5FB01EA0DFB1D8490912C81
:102A7000002E02C0880C991C0A94E2F7809490946E
:102A8000FA01EA0DFB1D6490712C002E02C0660C49
:102A9000771C0A94E2F737FD05C0F6018081882192
:102AA00086298083FF2049F037303CF4F601E05856
:102AB000FF4F8081892187298083FFEFAF1ABF0AEA
:102AC0008FEFC81AD80ACDCF3F5F4C0F5D1F6C0F38
:102AD0007D1FA058BF4FBCCFC92ED12CFA01E60FE5
:102AE000F71FA351BD4F00E810E00C191D09CC19C8
:102AF000DD09BE01660F771F41E050E06A010F2C2F
:102B000001C0CC0C0A94EAF7592F2E2D792ECF93C1
:102B1000DF93ED01EF96EF9622968590A590FF202A
:102B200059F08C9C4001AC9C500137302CF4E8806B
:102B3000B094EB20E928E99233233AF0EC90A0948A
:102B4000EA20E828ED920C94A61511965A9529F7DB
:102B50002A9551F0572D33951124E60FF11DA00F42
:102B6000B11DC00FD11DD9CFDF91CF9111249FCEC0
:102B7000CF92EF920F93FA0104913196E4904E5F59
:102B80005F4F2223F9F0A1E0B0E03E2D377011F441
:102B9000B0E0A0E0EE2DE695E695E695EA0FFB2F76
:102BA000F11D0E9FD0010F9FB00D112430E0220FB8
:102BB000331FA29FF001A39FF00DB29FF00D1124CF
:102BC0004E0F5F1F23E0C22E30E020E00E94CF13A3
:102BD0000F91EF90CF900895CF92EF920F93CF93F4
:102BE000DF93DC01FA0104913196E4904E5F5F4F70
:102BF0002223D1F0C1E0D0E09E2D977011F4D0E0F7
:102C0000C0E0EE2DE695E695E695EC0FFD2FF11D63
:102C10000E9FE0010F9FD00D11242C9FC0012D9F0E
:102C2000900D1124480F591F8AEFC82E30E020E084
:102C3000CD010E94CF13DF91CF910F91EF90CF90F4
:102C400008958FB18095807F669B88601C9B84600F
:102C500008951092E7023E983F9808953E9A3F9A51
:102C600081E08093E70208959091ED06982329F47E
:102C70009091EE06982381E009F480E0089546E003
:102C8000849F900111242E5E3F4F65E00E94173310
:102C9000582F48EE4503C0011124820F931F089559
:102CA000482F65E00E94173396E0899F9001112418
:102CB0002C5F3F4F241B31094CE0429FC001439FD2
:102CC000900D1124039608951092FD011092FE01BB
:102CD0001092FF0110920002E5E0F2E086E08583A9
:102CE00080E486838CE08783108683E0848311866A
:102CF000128688E0809303010895E091B00290E08D
:102D000025E0E29FF0011124E05FFD4F27E030E075
:102D1000281B390B41E050E060E070E004C0440F34
:102D2000551F661F771F2A95D2F7409521814223B0
:102D3000418326E0289FF001299FF00D1124E25CD9
:102D4000F74F14828091FD019091FE01A091FF0147
:102D5000B0910002855B9F4FAF4FBF4F8093FD0145
:102D60009093FE01A093FF01B09300020895E091BB
:102D7000B00285E0E89FF0011124E05FFD4F818102
:102D80008F7D81830895A0910302B0910402AA0F60
:102D9000BB1F2A9FF0012B9FF00D1124660F771F98
:102DA0004370552742305105E9F04330510519F180
:102DB0004130510551F0680F791FE75AFF4F81E00C
:102DC000E617F70774F480E00CC09C01261B370B54
:102DD000B9012FE030E02E1B3F0B81E06217730733
:102DE00094F30895EA54FF4F680F791F81E0E617C6
:102DF000F707BCF3E8CF9C01261B370BB9012FEA7C
:102E00003FEF2E1B3F0B81E02617370754F7DBCF30
:102E10001F93CF93DF93C82F8091E9029091EA022C
:102E20008F709927892B31F48091F40191E08927E3
:102E30008093F4018091F4018823E9F0D0E1DC0F64
:102E40001AE360910302709104026A5D7F4F8C2F38
:102E500090E0AC0155954795242FCA3310F0212FEF
:102E6000241B621B710920E04FEF58E10E94B81546
:102E7000CE5FDC13E6CFDF91CF911F9108954F9283
:102E80005F926F927F928F929F92AF92BF92CF92FA
:102E9000DF92EF92FF920F931F93CF93DF9300D0B7
:102EA00000D000D01F92CDB7DEB7C82EA62ECA0123
:102EB000B9019E012F5F3F4F7901490110E02AE0DF
:102EC000422E512C612C712C6115710581059105E3
:102ED00079F4198211E0F701E10FF11DCF018E198C
:102EE0009F091017A8F4119212E0F8CF173099F348
:102EF0001F5FA30192010E94F532F40161934F011B
:102F0000B901CA01611571058105910579F7E3CF12
:102F1000E80EF91ED12C612CB12CF70182917F01B2
:102F2000982F990F980F77247394790E04E0090F66
:102F30004601272D48E956E1B501C4010E94EC1570
:102F4000FFEF8F1A9F0A73940711F3CF639424E065
:102F5000C20ED11C611608F327960FB6F894DEBF97
:102F60000FBECDBFDF91CF911F910F91FF90EF90DA
:102F7000DF90CF90BF90AF909F908F907F906F9099
:102F80005F904F9008950F93CF93DF93D0E0C0E010
:102F900020E04BE457E1BE0186E790E00E94B815BF
:102FA0002896C034D105A1F72091B00230E050E05E
:102FB00040E002E061E089E70E943F1720910B02A8
:102FC000277030E050E040E001E067E18BE70E94CD
:102FD0003F1720E044E457E16DE170E08AE790E0BC
:102FE0000E94EC1520910B0230E083E03595279587
:102FF0008A95E1F723703327032E000C440B550B01
:1030000066E28BE70E943F1720E04BE357E16CE25A
:1030100070E089E790E00E94EC1520910B0225FBFF
:10302000222720F930E050E040E065E38BE70E9482
:103030003F1720E042E357E16BE370E089E790E05F
:103040000E94EC158091E9029091EA0264E170E03F
:103050000E942333AC0190910B0220910902452B71
:10306000B9F42230A8F480E4982790930B02809161
:103070000B0286FF11C0209109024CE157E169E083
:1030800070E08AE790E0DF91CF910F910C94EC15FE
:10309000223068F39064E9CFDF91CF910F910895CA
:1030A000BF92CF92DF92EF92FF920F931F93CF9335
:1030B000DF93C091FC01CC23B1F18091FB01882307
:1030C00091F18CE7E82E81E0F82ECC24C394D12C2A
:1030D000D0E0B12C00910302109104020A5D1F4F51
:1030E0000D1B1109F701208148E956E1B801C7011C
:1030F0008C5791400E94EC15F701218148E956E177
:10310000B801C6010E94EC15FCE1FB1508F456C09D
:10311000DF5FB39482E0E80EF11CE2E0CE0ED11C3A
:10312000FBE3BF12D7CF2091E9023091EA02C90137
:1031300064E170E00E942333892B41F4C5FF06C08F
:103140008091FB0191E089278093FB012370332755
:10315000232B31F4C530C1F198F5C33009F442C0D6
:10316000CEEFDFEF10E000E0E0900302F090040209
:10317000B701675E7F4F600F711F20E04AEA57E09A
:10318000CE010E94EC15B701601B710B21E04AEAE9
:1031900057E0CE01CE960E94EC15055011092A96F3
:1031A000023E8FEF180701F7DF91CF911F910F912A
:1031B000FF90EF90DF90CF90BF900895D150A9CFAE
:1031C000C33281F0C53261F68091F301E3EFF1E0A3
:1031D0002CE731E0929191832E173F07D9F7809326
:1031E0007C01BECF80917C01ECE7F1E023EF31E080
:1031F000918191932E173F07D9F78093F301B0CFB8
:103200008091030290910402892B31F48AEF9FEFA1
:1032100090930402809303020C9450189F92AF92F3
:10322000BF92CF92DF92EF92FF920F931F93CF93B3
:10323000DF93A0900301B12CD12CC12CD0E053E03E
:10324000952ECB2D10E000E07601EE0CFF1C80E304
:10325000E80EF11CE5E0EA1560F08AEF8C0F84308F
:10326000E0F1CB30D1F1C031C1F1C531B1F120E095
:103270001FC08C2F8B198230D1F7D230C1F79091BB
:10328000B002809101029813F2CF80917B012091CE
:10329000E9023091EA0227703327232B31F48F5F44
:1032A000692D0E94173390937B0120917B012B5F46
:1032B0006091030270910402655E7F4F600F711F81
:1032C0006C0D7D1D40E158E0C801880F991FF70182
:1032D000E81BF90BCF010E94B815CF5F0A5F1F4FA3
:1032E0000E31110509F0B6CFDF5FF6E0CF0ED11C2D
:1032F00085E0B80ED53009F0A4CF8A1508F446C091
:1033000027E2E22EF12CC0E00091030210910402AA
:10331000B801625D7F4F2C2F40E057E0C7010E944B
:10332000EC15CF5FE8E0EE0EF11CC53069F797E1D0
:10333000E92EF12C6801F6E3CF0ED11C2C2F40E0D2
:1033400057E0B601C7010E94EC1588E0E80EF11CB9
:10335000CF5FCE3099F78FE0E82EF12C025C1F4F43
:103360002C2F40E057E0B801C7010E94EC1523E084
:103370002C0F40E057E0B801C701C8960E94EC1539
:10338000E8E0EE0EF11CCF5FC23151F7DF91CF9133
:103390001F910F91FF90EF90DF90CF90BF90AF9073
:1033A0009F900895362F83506CE00E941733282F8A
:1033B000911118C08EEE830F66E00E9417339111B1
:1033C00011C09CEF980F290F20FD0CC0022E000C9D
:1033D000330B35952795253028F4982F921B81E0E3
:1033E000953008F080E008959AEA899FA0011124A1
:1033F00085E591E0689F9001699F300D1124CA0115
:10340000820F931F8FEC890F90E064E0959587956C
:103410006A95E1F7982F990F990F890F241B350BA7
:1034200092E1930F92959F70890F0895CF930E9418
:10343000F419C82F893158F4609107028091030272
:10344000681B809105020E94F41991E08C1390E0B2
:10345000892FCF9108950F931F93CF930E94F41952
:10346000C82F893128F5E091B00285E0E89FF0018E
:103470001124E05FFD4F8181082F87FF08C0609114
:10348000400880913E080E94F419C81779F006FFA1
:103490000FC060914608809144080E94F419C81337
:1034A00007C081E0CF911F910F91089580E0FACF7E
:1034B0008FEFF8CFE0910202E150FF0BEE0FFF1FFC
:1034C000EC50F94F25913491820F932F911DFC01FF
:1034D0008491089583E00E945A1A9091B002282F97
:1034E00030E035952795359527959217130611F4F9
:1034F000837008958FEF08956B5F9DE0899F600D45
:103500001124862F0C945A1A8F929F92AF92BF92D9
:10351000CF92DF92EF92FF920F931F93CF93DF939F
:10352000982E1092E6021092DF021092F901CEE37B
:10353000D8E007E010E0A82EB12C25E0829FC00162
:103540001124FC01EF5EFD4F6F012CE0822E1C82E6
:10355000F601808190E0002E02C0959587950A942F
:10356000E2F780FF1AC0682D601B892D0E947C1A2B
:10357000E82EF12C93E0F594E7949A95E1F7F8E1C1
:10358000FE1580F18C838E2D0E94501699838883BE
:103590008E2D0E943F169B838A8326960150110927
:1035A000B0F680914E08982F9770963070F095E0A5
:1035B0009A9DF0019B9DF00D1124E05FFD4F9381DA
:1035C00097FF12C0816080934E08DF91CF911F91C9
:1035D0000F91FF90EF90DF90CF90BF90AF909F90B2
:1035E0008F9008951C82CFCF8E7FEDCFEF92FF9208
:1035F0000F931F93CF93DF9380910A02182F1370BC
:10360000012F000F87FF1CC0D0E0C0E0E02EF12C9E
:103610006091070270910802665071096C0F7D1F5E
:103620006E197F09809105029091060220E042E91F
:1036300056E004970E94B8152896C831D10541F785
:1036400080910A02609107027091080224E084FDD3
:1036500007C082FF0DC06091070270910802212F00
:1036600043E65FE180910502909106020E94B81541
:1036700080910A0287FF1BC0D0E0C0E010E060919B
:103680000702709108026E5F7F4F6C0F7D1F601BF9
:10369000710B809105029091060221E042E956E00B
:1036A00004970E94B8152896C831D10541F7DF91DB
:1036B000CF911F910F91FF90EF900895CF93DF93DB
:1036C00090910F029F5F90930F02C091E902D091F9
:1036D000EA029E0123703327232B51F480910A02C2
:1036E000282F2370233009F047C08C7F80930A0273
:1036F0009B3558F080910A028F77846080930A028C
:1037000010920F0286E0809303010E9450180E94DD
:103710000E190E94C3170E94F61ACE016AE570E0E6
:103720000E942333892B51F5E091B00285E0E89F98
:10373000F0011124E05FFD4FC281C093B002D0912F
:103740000C028D2F0E945016909306028093050262
:103750008D2F0E943F162091030230910402820FA8
:10376000931F909308028093070210920D028C2FF2
:10377000DF91CF910C94841A8F5FB8CFDF91CF91F6
:1037800008954F925F926F927F928F929F92AF9225
:10379000BF92CF92DF92EF92FF920F931F93CF933E
:1037A000DF9300D01F92CDB7DEB70E9450180E9461
:1037B0000E19E1EBAE2EE2E0BE2EFFED6F2EF2E031
:1037C0007F2EA6E05A2EB3E08B2E912CD501ED91E1
:1037D0005D01EB3109F496C0E23020F55E9EF00108
:1037E0001124E25CF74F848190E09C01220F331F8B
:1037F000220F331F2C7173E0959587957A95E1F729
:103800008370822B628173812091030230910402C4
:10381000620F731F282F41E659E1808191810E9438
:10382000B81570C0E23091F58091F90181116AC03C
:103830008091E9029091EA0287709927892B41F4DF
:1038400080914F088F5F652D0E94173390934F082A
:1038500080914E088770282F220F280F220F809109
:103860004F08280F60914C0870914D088091030219
:1038700090910402680F791F6A5F7F4F80914A0818
:1038800090914B084AE850E10496C9CFE830A8F57A
:10389000F0E05E9ED0015F9EB00D1124A25CB74F98
:1038A00014962C91222371F12770273071F48091A6
:1038B000E9029091EA0253E0969587955A95E1F7CF
:1038C000B4010E94233325E0280F5E9EC0015F9E55
:1038D000900D1124FC01E25CF74F628173818091AD
:1038E000030290910402680F791F675F7F4F808108
:1038F000918140E158E0039792CFE93009F04EC042
:103900000E94F61A6A147B0409F060CF8091E602E7
:103910008823B1F06091E2027091E302809103028A
:1039200090910402680F791F6A5F7F4F8091E002D7
:103930009091E10222E14AE850E104960E94B81514
:103940008091DF02882309F47AC060917008709139
:1039500071088091030290910402680F791F6A5FD9
:103960007F4F80916E0890916F0822E14AE850E104
:1039700004960F900F900F90DF91CF911F910F91B0
:10398000FF90EF90DF90CF90BF90AF909F908F907F
:103990007F906F905F904F900C94B815EB50E03192
:1039A00008F0B0CFCE2ED12CD594C794D594C7941F
:1039B0004C2CBE2FB370B983EE0F8E2F90E0FC011C
:1039C000E659FF4E049185599F4EFC01F491609198
:1039D0000302709104028F2F860F972F911D9B83F6
:1039E0008A8328E8E22E2EE0F22EB13081F096E8AC
:1039F000E92E9DE0F92EB23051F034E1E32E3CE0A7
:103A0000F32EB33021F482EDE82E8AE0F82E10E098
:103A10002C2DA7016A817B81C8010E94B81599816C
:103A2000933009F06FCF0E946A1A48126BCF6A81F7
:103A30007B816F5F7F4F2C2DA701C801F0CE0F90C7
:103A40000F900F90DF91CF911F910F91FF90EF900A
:103A5000DF90CF90BF90AF909F908F907F906F90AE
:103A60005F904F90089520910A02822F807629F06E
:103A700080910D028F5F80930D022370809103026D
:103A800090910402223018F1853E3FEF9307ACF08D
:103A90000197909304028093030280910502909114
:103AA000060221502230E8F422E030E0820F931F1A
:103AB00090930602809305020895809107029091E9
:103AC000080201969093080280930702E6CF97FFC1
:103AD00002C00196DECF8091070290910802019703
:103AE000F1CF2EEF3FEFE2CF8091090268E2823002
:103AF00008F064E26093120770E089E09DE30E94A1
:103B00003733709342016093410108954F925F9261
:103B10006F927F928F929F92AF92BF92EF92FF929D
:103B20000F931F93CF93DF934B015C01C42FD22FD0
:103B300011E081149104A104B10409F010E0A50181
:103B400094016AE0462E512C612C712C211531050F
:103B50004105510541F01F5FCA01B901A30192015E
:103B60000E94F532F3CF1D1708F41D2FC10FDD277A
:103B7000DD1FCC0FDD1FCC0FDD1FC858DE4F00E06E
:103B80009AE0492E512C612C712C82E090E09C012E
:103B90002C5731407901C501B401A30192010E9463
:103BA000F532C7018C0F9D1F8837910558F4862F79
:103BB000880F680F81E0860F888382E0860F8983F3
:103BC0006D5F6A830F5F249749015A011013E3CF99
:103BD000DF91CF911F910F91FF90EF90BF90AF9029
:103BE0009F908F907F906F905F904F90089590E09E
:103BF000880F991FE0911007F0911107E80FF91F46
:103C00008591949120910E0730910F07820F931F99
:103C10000895EF92FF920F931F93CF93DF9310922B
:103C2000720021E030E03093440120934301E6E14B
:103C3000F7E048EDDF011D924A95E9F740EF409328
:103C400011011092150710921407109213074FEFED
:103C50004093100159E15093120761E772E07093AD
:103C600042016093410130933E0120933D01309326
:103C7000DE072093DD0722E42093C00021E020939B
:103C8000C1004093D10020E82093CF00EC012196A1
:103C9000FC018491D0931107C093100790E0880F26
:103CA000991FC80FD91FCE01049690930F078093D8
:103CB0000E0736E1E32E37E0F32E10E000E0FE01C0
:103CC000E00FF11F84910E94F71DD7018D939C9303
:103CD0000F5F1F4FB6E3EB0EF11C0430110579F7AF
:103CE00084E080937200DF91CF911F910F91FF903C
:103CF000EF90089581E597E10E94091E84E2809388
:103D0000120782EB91E090934201809341018091F0
:103D1000F501823010F00C943A110895CF938093FE
:103D2000F5018330C1F410927200E6E1F7E088ED0E
:103D3000DF011D928A95E9F780EF809311011092BF
:103D4000150710921407109213078FEF809310013C
:103D5000CF910C942916C82F0E942E1681E597E169
:103D60000E94091EC23018F0CF910C943A11CF91E5
:103D70000895AF92BF92CF92DF92EF92FF920F938E
:103D80001F93CF93DF934EE250E06BE170E081EB45
:103D900092E00E945133E091B0024E2F50E025E0B6
:103DA000E29FF0011124E05FFD4F60812EE090E082
:103DB00080E070E0382FFC01EC56F94EE491DC0114
:103DC0001496EB0102C0D595C795AA95E2F7C0FFFE
:103DD00010C0AE2FB0E0AF54BD4FFDEFF20FFC931B
:103DE000FEEFF20F1196FC931197FFEFF20F13966F
:103DF000FC93DB0102C0B595A7953A95E2F7A0FFC9
:103E000004C0F0E0EF54FD4F248301962C5F843012
:103E1000910581F6B090F9010EE318E0D0E0C0E022
:103E200025E0249FC001259F900D1124FC01EF5E29
:103E3000FD4F7F0187E0C82ED12CAC2EF2E0CF13CE
:103E400002C0B11017C0F701808190E096012C1BD1
:103E50003D0B02C0959587952A95E2F780FF0AC031
:103E6000F801628180810E94F419E82FF0E0EF549C
:103E7000FD4FA28621960A5F1F4FC830D105E9F693
:103E8000E0910A022E2F20729E2F90748E2F807642
:103E900091F4E0910C02F0E0EF54FD4F89E082874D
:103EA000DF91CF911F910F91FF90EF90DF90CF9016
:103EB000BF90AF9008958E2F8370222351F0E82F8A
:103EC000F0E0E057F94EE491F0E0EF54FD4F29E0C7
:103ED0002083992329F3E82FF0E0E457F94EE49189
:103EE000F0E0EF54FD4F89E08083DACFECE7F1E0BA
:103EF00098E7DF011D929A95E9F745E254E08111B8
:103F000023C0ACE7B1E030E020E0FA01E20FF31F9C
:103F1000E491EE23C1F0E053E03F79F08E2F880F5B
:103F2000E80F81E08E0F8C9382E08E0F11968C93B8
:103F30001197ED5F1296EC9312972F5F3F4F1496F7
:103F40002E31310511F70895FA0194914F5F5F4FBB
:103F50009111FACF8150D3CF8AEF9FEF9093040253
:103F60008093030280E00E94761F81E08093FC0131
:103F70008093FB011092030108950E9450188CE079
:103F80000E943416882321F00E947A1E0C94AC1FE4
:103F900008950E9450180E940E190E94F61A8CE093
:103FA0000E943416882321F00E947A1E0C94AC1FC4
:103FB00008958091150710921507813021F40E9411
:103FC0007A1E0E94AC1F20E045E059E164E170E0F8
:103FD00081E390E00C94EC158091B0028770845FCF
:103FE0000E94761F83E08093FC0181E08093FB01B7
:103FF00086E08093030108950E9450180E940E19D4
:104000000E94C3178CE00E943416882369F08091C7
:104010001407882339F0109214078091720084608D
:10402000809372000C94EC1F08950E94B91E0E94A8
:10403000C11B80910D02853038F48091E90280FF28
:104040000E94331D0C94C31710920D0280910A0236
:104050008F7B80930A020E94EC1FF4CF81E2809351
:10406000FC0185E00E94761F6091020270E090E002
:1040700080E022E049E00E94861D6091FD01709180
:10408000FE018091FF019091000226E047E10C942F
:10409000861DCF93DF93FC01262F8091720082FD55
:1040A0002FC060911207611101C069E1609312078E
:1040B00070E089E09DE30E94373370934201609382
:1040C000410181E090E090934401809343019093FB
:1040D0003E0180933D019093DE078093DD0782E4EB
:1040E0008093C00081E08093C1009FEF9093D10046
:1040F00090E89093CF008093140780EF8093110194
:10410000A7E4B1E084E3ED0119928A95E9F7F09311
:104110004601E09345012093100181E001C0880F22
:104120002A95EAF780931307809172008460809348
:104130007200DF91CF9108959091F50190FD0BC031
:10414000E82FF0E0EE0FFF1FEC5BF94F85919491A3
:1041500061E00C94492008950E9400190E940E19F4
:1041600083E08093FC018CE00E943416882329F0C0
:1041700081E00E949C200C94AC1F08950E940019BD
:104180000E940E198091E802811122C088E40E94E9
:10419000081780E40E943416882331F082E00E94E0
:1041A0009C2084E08093E80280E20E9434168823F9
:1041B00029F082E00E949C201092E8028CE00E948C
:1041C0003416882339F081E00E949C200C94AC1FA7
:1041D00080E6DDCF08951F93CF93DF930E940019EF
:1041E0000E940E19D0910101ED2FF0E0EB5BFE4D26
:1041F00084910E940817809115071092150782304C
:1042000031F48091F60191E089278093F601C09105
:10421000F60112E01C0F212F43E65FE16CE070E035
:1042200083E390E00E94B815212F41E659E168E14F
:1042300070E08BE490E00E94B81526E02C0F41E678
:1042400059E168E170E08BE190E00E94B8152AE046
:104250002C0F41E659E164E270E083E690E00E94B1
:10426000B8152EE02C0F41E659E164E270E083E0DE
:1042700090E00E94B81580E40E943416882341F033
:10428000D33030F482E00E949C20DF5FD0930101A4
:1042900080E20E943416882351F0C0910101CC23A2
:1042A00031F082E00E949C20C150C09301018CE05B
:1042B0000E943416882389F081E00E949C20C091DE
:1042C0000101CF5FC09303018C2F0E94761FC23083
:1042D00021F48091F50180930101DF91CF911F912D
:1042E000089580910A0283FD23C0809109028150C4
:1042F0008093090286E00E949C2080910A028860D7
:1043000080930A020E94741D80910902811110C0DD
:1043100082E596E00E94091E8091F501823010F03E
:104320000E943A1180910A02877F806180930A027D
:104330000895CF92DF92EF92FF920F931F93CF9346
:10434000DF93E82E882309F441C06091E002709168
:10435000E1028091E2029091E302C090E402F090C9
:10436000E5022C2D23703FEF320FCEEFDFEF32301E
:1043700010F4C2E0D0E0C60FD71F0FEF1FEF2230BE
:1043800010F001E010E0080F191FF394B801CE01FE
:10439000EE2091F10E942B1A823008F0DAC00E94C0
:1043A0007D16D093E102C093E0021093E3020093E4
:1043B000E202F092E5021092E602DF91CF911F91A6
:1043C0000F91FF90EF90DF90CF90089560916E086D
:1043D00070916F08809170089091710840917208F7
:1043E00050E023E0559547952A95E1F7242F237057
:1043F000C22EF0907308B5CF0E94161AD82E8823CB
:1044000089F00E947121D0936F08C0936E081093B9
:10441000710800937008F0927308DD2071F2109219
:10442000DF02CBCF85E08F1570F74C2D50E020E0F8
:10443000B801CE010E94C316811172C0B801CE012D
:10444000EE2041F00E942B1A823068F40E947D1603
:10445000F12CA7CF0E94161AD82E882321F00E9493
:104460007121F12CD0CF602F8C2F0E94F41989314B
:1044700008F050C0E82FF0E0EF54FD4FE285E9303E
:1044800011F0E23008F4EBE18DEF8E0F853008F08B
:1044900045C06E2F70E0A6E0EA9FF0011124E25CB7
:1044A000F74F848187708430A9F1833081F52091A2
:1044B000B002B5E02B9F90011124205F3D4F47E0F3
:1044C00050E0461B570B81E090E0A0E0B0E004C054
:1044D000880F991FAA1FBB1F4A95D2F78095D90153
:1044E00011969C911197892311968C931482DD2447
:1044F000D394EE2009F4B5CFD093E102C093E0024B
:104500001093E3020093E2021092E50254CF81502F
:10451000823068F3E11011C0D12CA3CFE230D1F783
:10452000E11096CFD0936F08C0936E081093710876
:10453000009370081092730872CFF12CD093E102AF
:10454000C093E0021093E3020093E202F092E502CE
:1045500034CFB5E0BF1590F768CF0F93CF93C22F3C
:10456000437055274230510589F14330510589F197
:1045700064504130510541F188500E94F4198093F4
:10458000F701E091F701E931D0F4F0E0EF54FD4F8D
:1045900082858093FA018B3191F09DEF980F9530D1
:1045A00050F496E0899FF0011124E25CF74F94816A
:1045B0009770973021F0CC2379F0893009F4C0E06E
:1045C0008C2FCF910F910895885FD7CF6D5F8A5F51
:1045D000D4CF6D5F8650D1CF011106C0882379F307
:1045E000893029F0C1E0ECCF8130D1F7E8CF0E94CB
:1045F0007121F8CFCF92DF92EF92FF920F931F932A
:10460000CF93DF93182FC62FD0E086E0189FF001DC
:104610001124E25CF74FC280D380E080F18020E07B
:10462000AE01B601C7010E94C316811115C001E099
:10463000111101C000E020E0AE01B601C7010E94E7
:10464000AD2291E08927DF91CF911F910F91FF90CB
:10465000EF90DF90CF90089580E0F5CF3F924F929A
:104660005F926F927F928F929F92AF92BF92CF9202
:10467000DF92EF92FF920F931F93CF93DF9300D0BF
:104680001F92CDB7DEB70E94B91E0E94C11B609178
:104690000A0265FD42C464FD8EC08091E90280FD7E
:1046A00046C0009103021091040260910702601B52
:1046B000809105020E94F419893110F480930C0254
:1046C0002091E802622F70E07B836A83FB01E35A4A
:1046D000FE4DF4900E9421168F21F81609F494C122
:1046E000EA81FB81E25AFE4DF4900E9421168F214F
:1046F00091E0F81609F489C1EA81FB81E15AFE4D87
:10470000F4900E9421168F2192E0F81609F47DC1E1
:104710008A819B81805A9E4DFC01F491F9830E940D
:1047200021162981822393E0281709F46EC188E0BD
:104730000E943416882339F00E942E200E943A11DC
:1047400089E08093030184E00E943416D82E8823E8
:1047500091F120910C02622F70E0EEE3F8E04CE55D
:1047600058E030E08689982F9770973051F490E0A8
:10477000B3E095958795BA95E1F78617970709F401
:104780003D2D36964E175F0769F76091B0026A8338
:10479000B09001026B1102C02C3019F0332309F4E0
:1047A00059C20E943A1160E08DE491E20E944920D2
:1047B00088E08093030180910A0283FF33C49091C3
:1047C0000E029F5F90930E022091E9023091EA025F
:1047D00023703327232B21F424E0822780930A02BD
:1047E000913F40F080910A02877F846080930A02A3
:1047F00010920E0280910A0284FDF0C08091E902BD
:104800009091EA0266E070E00E942333892B09F060
:10481000CFC06EE378E07B836A8310E000E055E070
:10482000652E67E0C62ED12C70E3A72EB12C332461
:104830003394502EE091B0026E9EF0011124E05F9F
:10484000FD4F818190E09601201B310B02C09595B0
:1048500087952A95E2F74C0171E08722992480FF21
:104860009DC0AA81BB8114962C91822F90E043E0D9
:10487000959587954A95E1F7B82FB3707B2E2770F1
:1048800029836B2F802F0E94FA22882309F429C4E0
:10489000EA81FB81E080F18044244A94470CF1E0F6
:1048A00082E090E0F41510F48EEF9FEFE80EF91E11
:1048B000AA81BB811196FC92EE9212968D919C91E9
:1048C000B1E0B71518F088248A94982C880E991EA8
:1048D000EA81FB8193828282682D8E2D0E94D219FB
:1048E000882399F1F981242D2370422EF130C1F0F3
:1048F0003981323051F5682D8E2D0E94F419482FE0
:10490000893108F4BFC3AA81BB8114966C9170E011
:1049100023E0759567952A95E1F7B62FB3704B2E76
:104920007414E1F1642D852D0E94FA22882369F028
:10493000EA81FB818481877EF8E04F9E200111246B
:10494000482AAA81BB8114964C92B981B33031F5C3
:104950008091E9029091EA02B5010E942333892BEC
:10496000E9F48091DF02811119C083E00E949C204C
:104970003092DF02EA81FB818081918190936F0800
:1049800080936E0882819381909371088093700860
:104990008481887180937208109273082A813B8108
:1049A0002A5F3F4F3B832A830130110509F067C31B
:1049B0008091E602882339F08091E90280FD03C0EE
:1049C00081E00E9499218091DF02882339F0809153
:1049D000E90280FD03C080E00E9499210F900F90B2
:1049E0000F90DF91CF911F910F91FF90EF90DF908B
:1049F000CF90BF90AF909F908F907F906F905F907F
:104A00004F903F900C94C31790E030910A023C7F86
:104A1000392B398330930A02C0900702D0900802E4
:104A2000A0900502B0900602E92EF12C21E0A7012A
:104A3000B601C5010E94C31681110EC0B601601BEC
:104A4000710B00E021E0A701C5010E94AD22811198
:104A500040C00E94331D6BCE49814370242F30E04B
:104A6000F901EB59FE4D64916A8380910C02681341
:104A70005ECEE091B00275E0E79FF0011124E05FA7
:104A8000FD4F808190E02C5F3F4FDC0102C0B59567
:104A9000A7952A95E2F7A0FF4ACE02C09595879583
:104AA0004A95E2F780FD43CEB981B062B0930A0225
:104AB000862F0E94501690930602809305028A81E9
:104AC0000E943F16800F911F909308028093070267
:104AD0002ECEE091FA01E23091F070F0E83008F06B
:104AE00026CE26E0E29FF0011124E25CF74F84819C
:104AF0008770823009F01BCE0E94712118CE809100
:104B00004E088770823009F45DC008F58823B9F13A
:104B1000813009F00CCE80910B028871883109F444
:104B200006CE81E00E949C2080910B02885F8093DA
:104B30000B020E94B7168091FD019091FE01A09199
:104B4000FF01B09100020A96A11DB11D32C0833051
:104B500009F464C0843009F0EACD81E00E949C2011
:104B60000E94B7168091FD019091FE01A091FF0176
:104B7000B091000288539F4FAF4FBF4F1AC0809132
:104B80000B0285FDD4CD81E00E949C2080910B0218
:104B9000806280930B020E94B7168091FD01909174
:104BA000FE01A091FF01B09100028C599F4FAF4FC1
:104BB000BF4F8093FD019093FE01A093FF01B0933E
:104BC0000002B5CD81E00E949C2080910902C09036
:104BD000FD01D090FE01E090FF01F09000028330D3
:104BE000A8F48F5F809309020E94B716E4E1CE0E0D
:104BF000D11CE11CF11CC092FD01D092FE01E0929B
:104C0000FF01F09200020E94741D91CD0E94B71620
:104C1000F2E3CF0ED11CE11CF11CEDCF81E00E942C
:104C20009C2080910B02982F9770973009F47FCDCC
:104C30008F5F80930B0281E08093F9018091FD01E9
:104C40009091FE01A091FF01B09100024E96A11D2E
:104C5000B11DAFCF70910A0273707983072F10E0F6
:104C6000C8018B599E4D7C01FC018491281357C0CB
:104C7000672F6F5F8A810E947C1AC82E0E946A1A71
:104C8000F981F81721F0C694C694CB106FC090E25A
:104C900080910B02282F30E040E250E0D11002C09A
:104CA00048E150E024233523232B09F462C0891BFB
:104CB00080930B0248EE53E060E070E0D11004C036
:104CC00042E350E060E070E08091FD019091FE01D0
:104CD000A091FF01B0910002840F951FA61FB71F7E
:104CE0008093FD019093FE01A093FF01B093000219
:104CF0003A8125E0329FF0011124E05FFD4F81E011
:104D000090E0A0E0B0E0098004C0880F991FAA1FBE
:104D1000BB1F0A94D2F7809590818923808390915C
:104D20004E0840910C02F801E75BFE4D8491840F20
:104D3000F701E490282F082E000C330B592F5695BD
:104D4000569556955217130609F042C0592F5770C1
:104D50005530F9F480910A02806880930A028BE052
:104D60008093030185E00E949C2025CDD12C98E002
:104D70008FCF80E00E949C2089E0D11001C088E0A4
:104D80000E94761F85E28093FC0181E08093FB0105
:104D9000C6CF5630E8F081E0982790934E0885E022
:104DA0002A81829FF0011124E05FFD4FA381A0586A
:104DB000A383AF738A9FD0011124A05FBD4F84816C
:104DC00011969C911197892711968C9380E0CBCFF7
:104DD0004E1509F4F0CCEFEF893128F42F543D4FF4
:104DE000D9011A96EC918DEF8E0F853060F4EE2E7E
:104DF000F12CB6E0EB9FF0011124E25CF74F8481C7
:104E00008770813091F18091E6028111D4CC80913C
:104E10000B02877009F4CFCC83E00E949C20809124
:104E20000B02815080930B0281E08093E602109286
:104E3000E50280910502909106029093E102809331
:104E4000E0028091070290910802209103023091C4
:104E50000402821B930B9093E3028093E202809101
:104E60000A0283708093E402A6CC128120812A83F7
:104E7000612F822F0E94D219882309F49CCC612FC4
:104E80008A810E94F419282F893108F094CC398145
:104E9000311105C0853008F48ECC255012C06981CF
:104EA000623029F4843108F086CC2B5F0AC065E0BB
:104EB0000E9417337981713041F52150992309F40B
:104EC0007ACC29839981993108F075CCE92F092E84
:104ED000000CFF0BEF54FD4F82858B3109F06BCC3A
:104EE000892F0E94501626E02E9D80012F9D100DC7
:104EF0001124025C174FD8018D939C9389810E94E5
:104F00003F16F8019383828356CC8981833019F44C
:104F1000943009F450CC2F5FD4CF80910D028530AE
:104F200038F48091E90280FD46CC0E94331D43CCC9
:104F3000F091B002F98363706F5F8F2F0E947C1A2B
:104F40008370E82FF0E0EB59FE4DE491E0930C0202
:104F5000E63131F0F7EFEF2EFF24FA94EE3021F432
:104F6000ADEDEA2EFF24FA94F0920402E0920302DF
:104F700060910A0263706F5F89810E947C1A282FFA
:104F800030E035952795359527953B832A832093E7
:104F9000B00210910C02812F0E9450161A3021F09D
:104FA00026EF3FEF163111F42AE030E0820F931F15
:104FB0009093060280930502812F0E943F161631BE
:104FC00021F02BEF3FEF1E3011F425E030E0820F8F
:104FD000931F8E0D9F1D90930802809307021092DD
:104FE0000D028A810E94841A80910A028F7D80645A
:104FF00080930A0287E0809303010F900F900F9037
:10500000DF91CF911F910F91FF90EF90DF90CF90A4
:10501000BF90AF909F908F907F906F905F904F90D8
:105020003F90089584FFEACB8AEF9FEF90930402AC
:105030008093030286E00E94761F6091FD017091CB
:10504000FE018091FF019091000226E046E10E945E
:10505000861D83E08093FC0181E08093FB0183E364
:1050600090E0909306028093050285E190E0909392
:105070000802809307028AE080930301BBCB01E022
:1050800010E0D7CB80910C02662D0E941733382F89
:10509000292F842F0E941733381B832F291B922F0F
:1050A000432F330F550B57FF03C0519541955109BD
:1050B000292F092E000C330B37FF03C031952195A2
:1050C00031094217530734F092E0492E87FF28CC6C
:1050D000412C26CC4424439497FD22CC83E0482ED7
:1050E0001FCCB98182E0B23009F081E0870D837076
:1050F000E8E08E9FC0011124AA81BB8114969C9187
:105100001497977E892B14968C931FCC0C94DF32C6
:1051100089E590E00E948628843109F04AC08CE538
:1051200090E00E948628843109F043C08AE590E02F
:105130000E948628809302020E9400190E940E1984
:105140008091F801811131C088E40E94081780E441
:105150000E943416882331F082E00E949C2084E073
:105160008093F80180E20E943416882329F082E0BF
:105170000E949C201092F80184E00E94341688233B
:1051800051F081E00E949C208091F80181110FC0B4
:105190008DE08093030188E00E943416882361F03B
:1051A00081E00E949C200C94AC1F80E6CECF8EE064
:1051B000F0CF8DE08093030108950C94E7322F9295
:1051C0003F924F925F926F927F928F929F92AF9297
:1051D000BF92CF92DF92EF92FF920F931F93CF93E4
:1051E000DF93609102026F5F6093020283E080931D
:1051F00009028AE590E00E94DD2880910202873052
:1052000028F187E00E94761F6091FD017091FE01F8
:105210008091FF019091000226E048E10E94861DE6
:105220008CE080930301DF91CF911F910F91FF904C
:10523000EF90DF90CF90BF90AF909F908F907F9036
:105240006F905F904F903F902F9008951092B00212
:105250008CE080930C028AEF9FEF9093040280937E
:10526000030283E390E0909306028093050284E2B8
:1052700090E0909308028093070284E00E945A1AFB
:105280008F738093010280E00E945A1A382E8DE0BD
:10529000389E70011124E5E0EE0EF11C81E00E94C1
:1052A0005A1A5701A80EB11CC0E1D2E010E0812CBF
:1052B000912C95E0292E412C512C3201439431162A
:1052C00009F44DC0FE01822D11928A95E9F760E044
:1052D000812F0E947C1A888387E0C82ED12C05E09C
:1052E000602F812F0E947C1A882369F02981D301C5
:1052F000C2010C2C04C0880F991FAA1FBB1F0A945F
:10530000D2F7822B89830F5FE1E0CE1AD1080D30EE
:1053100039F767E0812F0E947C1A082F077005304B
:1053200049F4892D8E0D0E945A1A8A8393941F5F27
:105330002596C5CF0630D8F3D82CDA0C8D2D0E94D7
:105340005A1A8B8381E08D0D0E945A1A8C838394A4
:105350008394073061F78B8180688B83E8CF80E08E
:105360000E94841A0E942E2089E05BCF10920202D4
:105370001092FD011092FE011092FF0110920002A6
:10538000E5E0F2E086E0858380E486838CE0878335
:10539000108683E084831186128664E189E590E0BB
:1053A0000E94DD28609102028AE590E00E94DD28DB
:1053B0006091E8028BE590E00E94DD2864E18CE5D5
:1053C00090E00E94DD2888E0809303010895CF9348
:1053D0000E9400190E940E19C0910101EC2FF0E00B
:1053E000EB5BFE4D84910E94081780E40E94341606
:1053F000882359F0C33048F481E08C0F8093010179
:105400000E948E1E82E00E949C2080E20E94341640
:10541000882361F080910101882341F081508093BD
:1054200001010E948E1E82E00E949C208CE00E945E
:1054300034168823B1F081E00E949C20C091E702DD
:1054400082E090E00E94DF32C81729F06C2F82E0E2
:1054500090E00E94E73281E080930101CF910C94AB
:10546000AC1FCF9108951F920F920FB60F92112487
:105470008F939F938091E1009091E100937F9093AF
:10548000E10083FF0FC01092E90091E09093EB00E0
:105490001092EC0092E39093ED0010920D0798E0CB
:1054A0009093F00082FF22C093E09093E9009091E6
:1054B000F200992319F09AE39093E8009091FE0688
:1054C000992341F09091FE0691509093FE06911120
:1054D00001C05D9A90910C07992341F090910C07BF
:1054E000915090930C07911101C0289A84FF18C025
:1054F0008091E2008E7E81608093E2008091E100E5
:105500008F7E8093E1008091FF068E7E8061809384
:10551000FF069F918F910F900FBE0F901F901895CF
:1055200080FFF7CF8091E2008E7E80618093E20061
:105530008091E1008E7E8093E1008091FF068E7E57
:105540008160E5CF1F920F920FB60F921124CF9278
:10555000DF92EF92FF920F931F932F933F934F93FE
:105560005F936F937F938F939F93AF93BF93EF93CB
:10557000FF93CF93DF93CDB7DEB76C97DEBFCDBF80
:105580001092E9008091E80083FF25C068E0CE0119
:1055900045960E94DF1282EF8093E8008D8987FF95
:1055A00039C09091E80090FFFCCF982F907609F0D9
:1055B00034C19E894F89588D2F89F88C911131C043
:1055C000803861F58091FD068093F1001092F10022
:1055D0008EEF8093E8006C960FB6F894DEBF0FBE96
:1055E000CDBFDF91CF91FF91EF91BF91AF919F918F
:1055F0008F917F916F915F914F913F912F911F916B
:105600000F91FF90EF90DF90CF900F900FBE0F9013
:105610001F9018959EEF9093E800C7CF1092F1006D
:10562000D5CF913059F48111D3CF4130510581F656
:105630008091FD068D7F8093FD06CACF933049F49B
:105640008111C6CF4130510519F68091FD06826067
:10565000F2CF953041F48091E80080FFFCCF2068C4
:105660002093E300B5CF963009F0A9C00B8D1C8DB7
:1056700022E01092E9001092FB061092FA06F21254
:105680002EC01092F9061092F8060E94AE121F82E8
:1056900099E09983FA8291E09E8390EA98879AEF45
:1056A00099872091FA063091FB06275F3F4F3C8394
:1056B0002B838D831092E9001092FB061092FA065C
:1056C0001093F9060093F80649E050E0BE016F5FC1
:1056D0007F4F80E00E9488120E94AE1279CF109313
:1056E000F9060093F8060E949211DC0112960D91C2
:1056F0001C910115110509F451C1D801ED91FC91DE
:105700000480F581E02DBE016B5E7F4FC8010995D5
:10571000009709F03EC1F80100851185EACFF3E05A
:10572000FF120EC08F89882309F440C0823061F4D3
:1057300040E860E18DE092E20E945512811148CF6D
:1057400081E28093EB0047CF813029F440E86BE0A1
:1057500081E092E2F1CF833099F70E949211DC014F
:105760001296ED90FC908E010F5F1F4F6801E114BF
:10577000F10479F0D701ED91FC910680F781E02DDD
:10578000B801C7010995080F111DF701E084F184E4
:10579000EECFD8011C92F60101900020E9F7319775
:1057A000BF016C197D0940E0C601C6CF6BEE71E206
:1057B000FB01449150E080E80E94881209CF9730A5
:1057C00009F4BECF983021F481E08093F10000CF3E
:1057D000993009F0FDCE837009F0B2CFE3E1F1E03A
:1057E00081E031E096E32191222371F08093E9007A
:1057F0003093EB00DF0111972C912093EC009093F4
:10580000ED008F5F873079F78EE78093EA00109282
:10581000EA008F8980930D07DBCE8B8D9C8D1092D3
:10582000E9001092FB061092FA069093F906809315
:10583000F806898D811192C08E899D89913A49F42B
:10584000813209F07DCF47E050E068E071E080E010
:10585000B3CF913209F074CF833269F48F89988D78
:10586000B0E0A0E08093040190930501A0930601AD
:10587000B0930701ADCE803269F48091E80082FFD9
:10588000FCCF67E088E091E00E94DF128BEF80930D
:10589000E8009ECE823209F09BCE8F8980930F0163
:1058A000EEEFFFE7859194918B3F9C4D51F1E0E045
:1058B000F8E08091080190910901A0910A01B0914E
:1058C0000B01803B9440A105B105F1F480910F01DB
:1058D00080FD1AC0EE3F8AE0F80789F587E797E771
:1058E00091838083809160008093FC0688E19BE037
:1058F0000FB6F894A895809360000FBE9093600057
:1059000067CEEEEFFAE0D5CF808191818737974758
:1059100009F05ECEA8958091600088618093600058
:105920008091FC0680936000EE3F2AE0F20789F048
:105930008091FE0A9091FF0A9183808349CE8081F5
:1059400091818737980751F29093FF0A8093FE0A5E
:10595000C5CF1092FF0A1092FE0A3ACE0E94921111
:10596000DC0112960D911C910115110509F4E8CE88
:10597000D801ED91FC910190F081E02DBE016B5EAC
:105980007F4FC8010995811123CEF801008511854B
:10599000EBCF181619060CF41BCED2CEF1E0FF1295
:1059A000BECE6FEE71E204CF1F920F920FB60F9230
:1059B00011242F933F938F939F93AF93BF93809125
:1059C000F0069091F106A091F206B091F3063091A5
:1059D000EF0623E0230F2D3758F50196A11DB11DC9
:1059E0002093EF068093F0069093F106A093F206C1
:1059F000B093F3068091F4069091F506A091F60617
:105A0000B091F7060196A11DB11D8093F406909305
:105A1000F506A093F606B093F706BF91AF919F915C
:105A20008F913F912F910F900FBE0F901F9018955F
:105A300026E8230F0296A11DB11DD2CF2F923F92CF
:105A40004F925F926F927F928F929F92AF92BF928E
:105A5000CF92DF92EF92FF920F931F93CF93DF933A
:105A6000812C3EEEE32E37E0F32E49E0C42E4DE3C9
:105A7000D42EAA24AA94BA2C10E000E02224239465
:105A8000312C502E811021C18091130790E0002EFF
:105A900002C0959587950A94E2F720911407222376
:105AA00049F180FD09C085E0809FF001819FF00DE4
:105AB0001124E35DFE4F10820F5F1F4F043011056C
:105AC00001F7F1E08F1213C0DF91CF911F910F9179
:105AD000FF90EF90DF90CF90BF90AF909F908F900E
