:100000000C9413110C943B110C943B110C943B1168
:100010000C943B110C943B110C943B110C943B1130
:100020000C943B110C943B110C9416290C948529CB
:100030000C943B110C943B110C943B110C943B1110
:100040000C943B110C943B110C943B110C943B1100
:100050000C943B110C943B110C943B110C94B72B5A
:100060000C943B110C943B110C943B110C943B11E0
:100070000C943B110C943B110C943B110C943B11D0
:100080000C943B110C943B110C943B110C943B11C0
:100090000C943B110C943B110C943B110C943B11B0
:1000A0000C943B110C94B42F0C943B119D249F9DF8
:1000B000289F403F41F8520154000DA79F403F4107
:1000C000F814A69F403F41F836A438AA9F403F014C
:1000D000AF9F0C02012A0B60000B0400000081217D
:1000E000A100000030020F00000000AB314159694F
:1000F00081C0000010015100663B8B000000C00071
:100100000018057B2B134262820000300A170000A2
:1001100072006524A40000008000000011A90060A6
:100120003C5C6C8C00300E1F00005000A14181002F
:100130000000C000002019790065329200000030F4
:100140001E2B00007222144B9B0000004000002870
:10015000000000634181000000D426002C21A30090
:10016000215A6A000000102A000000000000000070
:100170000000000704051E0A0201220960000708AA
:10018000000000811949000000C000000C0162005D
:10019000A33A8A00000030020F0000790066339312
:1001A000000000F00617100953B01243830000004E
:1001B000100E0000000000A53C5C6C8C00C000002C
:1001C000180D29A96042825B0000301623000072DE
:1001D000006521A400000040000020000000633101
:1001E00091000000D41E0024197B00214A9A0000CF
:1001F00000102200000000000000000000000604C3
:10020000041E080201190740000004000000A1417B
:1002100081210000B0020B00117A00663B8B0000C8
:10022000008000000005510065329200000050126D
:10023000001800000023446484A4006000070C0040
:10024000A929105B6B00000000000000007300652E
:100250004A9A000000320E1F00004000A221C10097
:1002600000008000000019000000000000000005F0
:1002700002031E0800001A0760000B040000008142
:100280002141A100005002000C007900AB3B8B0023
:100290000000C0000010015000A0335B830000305C
:1002A000061700007200214262920000900A0000CE
:1002B000190000643C5C6C8C00800000000DA30001
:1002C0001242820000006400131C002900AB49990F
:1002D000000000101A0000000000000000000000F4
:1002E0000902020002F10A07140D0100C39CBC942C
:1002F0002B0BA0001300015900A2B48C643C1440E5
:1003000000000000220004000000000020000300A4
:10031000004BBA66936B3B4300C400001C05A02051
:1003200066000000000010020000004181C163036C
:1003300023A300501E0020002000B072626A5A52AF
:100340005412001800C200656C5C000000101A0016
:100350000000AB00656C5C0000000606011F001F7A
:10036000000006011501260137014A015D017201F5
:1003700088019F01B801D201EE010B022A024B0253
:100380006E029302BA02E40210033F037003A40357
:10039000DC03170455049704DD0427057505C8051B
:1003A00020067D06E0064907B8072D08A9082D0993
:1003B000B9094D0AEA0A900B400CFA0CC00D910ED7
:1003C0006F0F5A1053115B1272139A14D415201721
:1003D0008018F519801B231DDE1EB420A622B5242B
:1003E00020202020434F4E462053444658202020B2
:1003F000494E464F20504C41590020425554544FCD
:100400004E20534348454D45202020204E3C3E532E
:100410002020453C3E5700202020204D53465820A8
:100420004D55534320202053444658204D555445A4
:1004300000204352454154454420425920535447DB
:10044000204F4E45424954204A4F33524900202004
:10045000204C4556454C2020202020202020205391
:10046000434F52453A0047414D45204F5645522093
:10047000203A3C202053434F52453A0044524F49C2
:10048000442045534341504544203A3E20205343A5
:100490004F52453A004143434553532044454E494A
:1004A00045443A2055534520574849544520434137
:1004B0005244004143434553532044454E4945442B
:1004C0003A2055534520424C41434B20434152442E
:1004D0000044524F4944205553454420412054453F
:1004E0004C45504F5254204745542048494D0057E1
:1004F000415443482049542044524F494420464FD8
:10050000554E4420412053574954434800414C45DF
:10051000525420414C4552542044524F49442045A6
:1005200053434150494E4700474554205448415495
:100530002044524F4944204E4F5700444F204E4FC5
:1005400054204C455420544841542044524F49446F
:10055000204553434150450049542053544F4C4586
:100560002054484520444541445354415220504C66
:10057000414E5300544849532049532041204E4F87
:1005800020534D4F4B494E4720464143494C495417
:1005900059004152454120353120495320494E20D0
:1005A0004C4F434B444F574E0044524F4944205107
:1005B00033453320504C45415345205245504F520E
:1005C00054204E4F5700544845204558495420491F
:1005D00053205448415420574159203D3D3D3D3E14
:1005E0000000CD00C400BD00B200AF00AC000600AA
:1005F000000A001200150020002C00000102024039
:10060000509D0E41FAFD3F039F403041FFFD140411
:100610009F40009F2BAF32AF2EAF2EA72DA7FEFC21
:10062000054CFEFC054C02FC054DFE05DFFE1808DE
:1006300000C0C0F0F0F830F8183C0C1E0C1E0C1E68
:10064000060F060F060F060F060F060F060F060F02
:100650000C1E0C1E0C1E183C30F8F0F8C0F000C048
:100660000003030F0F1F0C1F183C307830783078D0
:1006700060F060F060F060F060F060F060F060F0FA
:10068000307830783078183C0C1F0F1F030F0003B0
:10069000E002730202027701D20008080000008025
:1006A00080808080A0305058C8C064060E8B999915
:1006B0003D27260C8888C8486020302060C0C000D4
:1006C000000000000000000000C0C04040404000AA
:1006D00018183848D8E171333226262E0B1900003D
:1006E00000000101010100000000010103020604F5
:1006F00004040416121B090C8CFEF2322624BC984A
:10070000C04040404040C0800000000060F0909039
:10071000C0444C0E1A92BA08486D293B12060404D4
:1007200004070300000100000000000000030704AC
:100730000404040426321359C8ECA436121808081D
:100740009890F0600A282040402090CCE2FA797D11
:100750001717080A0505020201015050E8E8F4F4F1
:10076000FAFA7DBDF0F8F3F307037B7CFE7F0F03FD
:1007700001060203000000007D79FAE2CC902040DF
:1007800040200101020205050A081717BD7DFAFA8B
:10079000F4F4E8E850507FFE7C7B0307F3F3F8F0B5
:1007A0000000000003020601030FD0D0E8E8740443
:1007B00082BA5D5D11110A0A050502020101D0D05D
:1007C000E8E8740482BADDDDC1C1EEEE770783BBD1
:1007D000DDDD010106060303010100005D5DBA8253
:1007E0000474E8E8D0D00101020205050A0A1111DB
:1007F000DDDDBA820474E8E8D0D0DDDDBB830777A5
:10080000EEEEC1C10000010103030606010116104E
:1008100000000000000000000000000080808080D8
:10082000C0C0C0C0E0E0E0E0C0C0C0C08080808048
:1008300000000000000000000000000004040404A8
:100840000E0E0E0E1F1F1F1F3F3F3F3F7F7F7F7FFC
:10085000FFFFFFFF7F7F7F7F3F3F3F3F1F1F1F1F28
:100860000E0E0E0E040404040000000000F0E0F080
:1008700010F8D0F838FCB8FC7CFE7CFEFEFFFEFFD2
:100880007CFE7CFEB8FCB8FC50F850F8A0F000F0FC
:10089000000000000000000000070307000F070F22
:1008A000001F0F1F003F1F3F007F2A7F153F153F8E
:1008B0000A1F0A1F050F050F0207000700000000AE
:1008C000F0F008F8D0F0A0E040C0FEFE01FFC6FE48
:1008D00038F806FEF9FFC6FE38F870F08CFC02FE10
:1008E000FCFCC0C030F0CCFC02FEFCFC040407079A
:1008F000080F0F0F1E1F1D1F203F3F3F7C7F437FB0
:10090000FFFF8FFF717F7E7F3F3F203F1B1F1C1F1C
:100910000F0F080F0707040400000000000080808C
:1009200040C020E010F008F804FC02FEABFF55FFC9
:1009300002FE04FC08F810F020E040C080800000B7
:100940000000000004040606090F080F101F101F06
:10095000203F203F407F407FAAFFD5FF407F407F60
:10096000203F203F101F101F080F090F0606040428
:1009700000000000000000000080008000C080C077
:1009800000E0C0E000E0E0E000E0C0E000C080C0C7
:10099000008000800000000000000000000E040E37
:1009A000001F0E1F003F1F3F207F2F7F70FF77FF2C
:1009B000F8FFFBFF70FF77FF207F2F7F003F1F3F77
:1009C000001F0E1F000E040E0000000000000000BB
:1009D000000000008080808040C040C0A0E0A0E017
:1009E00040C040C080808080000000000000000007
:1009F00000000000040404040A0E0A0E151F151F4F
:100A00002E3F2E3F5B7F5B7FB5FFB5FF5B7F5B7F3C
:100A10002E3F2E3F151F151F0A0E0A0E0404040454
:100A200000000000000000000000000080808080C6
:100A3000C0C0C0C060E060E0C0C0C0C08080808036
:100A40000000000000000000000000000404040496
:100A50000E0E0E0E1B1F1B1F353F353F6E7F6E7F28
:100A6000DBFFDBFF6E7F6E7F353F353F1B1F1B1F9C
:100A70000E0E0E0E0404040400000000000000002E
:100A8000000000000080008080C080C0C0E0C0E0A6
:100A900080C080C0008000800000000000000000D6
:100AA0000000000000040004040E040E0E1F0E1FC0
:100AB0001B3F1B3F357F357F6EFF6EFF357F357FD8
:100AC0001B3F1B3F0E1F0E1F040E040E00040004EC
:100AD0000A208080000050500000AAAA00000000F8
:100AE000000000000000AAAA000055550000AAAAB4
:100AF00000000000000000100000AAAA00005555E8
:100B00000000AAAA000000000000000000000A0A7D
:100B100000000505000002020000000000000000C7
:100B2000000000000000000000000000AAAA000071
:100B30005050000080800000001000000000000005
:100B4000AAAA000055550000AAAA00000000000053
:100B500000000000AAAA000055550000AAAA000043
:100B60000000000000000000020200000505000077
:100B70000A0A000000A000000054000000AA0000C3
:100B80000055000000AA000000AA00000055000067
:100B900000AA00000055001000AA000000AA0000F2
:100BA0000055000000AA00000055000000AA000047
:100BB00000AA000000550000002A000000150000F7
:100BC000000A00AA00000055000000AA000000541E
:100BD000000000A0000000AA00100055000000AABC
:100BE00000000055000000AA000000AA0000005507
:100BF000000000AA00000055000000AA0000000A42
:100C0000000000150000002A00000055000000AAA6
:100C100000001710000000000000008080C0C0E04D
:100C2000C0E0E0F0F0F870F878FCB8FCDCFEDCFE28
:100C3000EEFFECFE74FE70FC78FCF0F8F0F8E0F0EB
:100C400000E000F8F8FEFEFFFFFF1FFFE7FFFBFFDD
:100C50007DFF1EFF0FFF07FF03FF03FF01FFFEFFE6
:100C6000FEFFFFFFFFFFFFFF00FFFFFFFFFF00FF93
:100C700000E0E0F0F0F8F0F878FC70FC74FEECFEB8
:100C8000EEFFDCFEDCFEB8FC78FC70F8F0F8E0F07B
:100C9000C0E0C0E080C0008000000000000000FF55
:100CA000FFFFFFFF00FFFFFFFFFFFFFFFEFFFEFF55
:100CB00001FF03FF03FF07FF0FFF1EFF7DFFFBFF89
:100CC000E7FF1FFFFFFFFEFFF8FE00F80000000037
:100CD0000000008080C0C0E0C0E0E0F0F0F870F8F4
:100CE00078FCB8FCDCFEDCFEEEFFECFE74FE70FC73
:100CF00078FCF0F8F0F8E0F000E000F8F8FEFEFF15
:100D0000FFFF1FFFE7FFFBFF7DFF1E7F0F1F070F8A
:100D10000307030701FFFEFFFEFFFFFFFFFFFFFFCB
:100D200000FFFFFFFFFF00FF00E0E0F0F0F8F0F849
:100D300078FC70FC74FEECFEEEFFDCFEDCFEB8FC22
:100D400078FC70F8F0F8E0F0C0E0C0E080C000800F
:100D500000000000000000FFFFFFFFFF00FFFFFF9B
:100D6000FFFFFFFFFEFFFEFF01FF03070307070F63
:100D70000F1F1E3F7DFFFBFFE7FF1FFFFFFFFEFF73
:100D8000F8FE00F80820000000000000000000FF4E
:100D9000FFFFFFFF00FF000000000000000000FF59
:100DA000FFFFFFFF00FF000000000000000000FF49
:100DB000FFFFFFFF00FF0000000000000000007FB9
:100DC0001F3F1F3F001F00FFFFFFFFFF00FF00004E
:100DD00000000000000000FFFFFFFFFF00FF000019
:100DE00000000000000000FFFFFFFFFF00FF000009
:100DF000000000000000001F1F3F1F3F003F0000D9
:100E000000000000000000FFFFFFFFFFFFFF00FFEA
:100E1000FFFFFFFF00FF00FFFFFFFFFFFFFF00FFDF
:100E2000FFFFFFFF00FF00FFFFFFFFFFFFFF00FFCF
:100E3000FFFFFFFF00FF0007070F070F0F1F003F17
:100E40001F3F1F3F001F00FFFFFFFFFF00FFFFFFCF
:100E5000FFFFFFFF00FF00FFFFFFFFFF00FFFFFF9F
:100E6000FFFFFFFF00FF00FFFFFFFFFF00FFFFFF8F
:100E7000FFFFFFFF00FF001F1F3F1F3F003F0F1F2F
:100E8000070F070F00070F2000FF00FF00FF00FF04
:100E900000FF00FFFFFF8FFF4FFF1FFFFFFF00FF5F
:100EA000FFFFFFFF00FF00FF00FF00FF00FF00FF4C
:100EB00000FFFFFFFFFFFFFFFFFFFFFF00FFFFFF40
:100EC000FFFF00FF80FFC0FFC0FFE0FFE0FFF0FF7B
:100ED000F7FFEFFFEFFF5FFF5FFF007F3F7F1F3FE9
:100EE000003F0F1F070F070F03070307010301034D
:100EF00000010001000000000000000000000000F0
:100F000000FFFFFFFFFF00FFFFFF1FFF4FFF8FFFEF
:100F1000FFFF00FF00FF00FF00FF00FF00FF00FFDA
:100F2000FFFFFFFF00FFFFFFFFFFFFFFFFFFFFFFD0
:100F300000FF00FF00FF00FF00FF00FF003F1F3F1A
:100F40003F7F007F5FFF5FFFEFFFEFFFF7FFF0FFE7
:100F5000E0FFE0FFC0FFC0FF80FF000000000000D6
:100F6000000000000000000100010103010303076D
:100F70000307070F070F0F1F00000000000000000D
:100F8000000000FFFFFF8FFF4FFF1FFFFFFF00FF6D
:100F9000FFFFFFFF00FF0000000000000000000056
:100FA00000FFFFFFFFFFFFFFFFFFFFFF00FFFFFF4F
:100FB000FFFF00FF80C0C0E0C0E0E0F0E0F0F0FF25
:100FC000F7FFEFFFEFFF5FFF5FFF007F3F7F1F3FF8
:100FD000003F0F1F070F070F03070307010301035C
:100FE00000010001000000000000000000000000FF
:100FF00000FFFFFFFFFF00FFFFFF1FFF4FFF8FFFFF
:10100000FFFF00FF0000000000000000000000FFE4
:10101000FFFFFFFF00FFFFFFFFFFFFFFFFFFFFFFDF
:1010200000FF00000000000000000000003F1F3F24
:101030003F7F007F5FFF5FFFEFFFEFFFF7FFF0FFF6
:10104000E0F0E0F0C0E0C0E080C000000000000080
:10105000000000000000000100010103010303077C
:101060000307070F070F0F1F100518151015180F8E
:10107000500550155F15550F5126593651365930C8
:101080000E260E361D361330081000FE00FE38FE08
:1010900038FE38FE00FE00FE000000270027022771
:1010A00000270227002700270000000000FF1CFF88
:1010B00038FE38FE00FC000000000000001301278D
:1010C0000027024F004F000000000000000000FF5A
:1010D0001CFF00FC000000000000000000000013E6
:1010E000012F004F00000000000000000000000081
:1010F00000FF0000000000000000000000000000F1
:10110000004F00000000000000000000000000FC94
:101110001CFF00FF00000000000000000000004F66
:10112000012F0013000000000000000000FC38FE4A
:1011300038FE1CFF00FF000000000000004F024FBF
:101140000027012700130000000000FEFCFE3CFE0B
:101150003CFE3CFEFCFE00FE0000002703270227A9
:1011600002270227032700270000000000FFFEFFE0
:101170003CFEF8FE00FC0000000000000013012708
:101180000227074F004F000000000000000000FF92
:10119000FCFF00FC00000000000000000000001345
:1011A000012F004F000000000000000000000000C0
:1011B00000FF000000000000000000000000000030
:1011C000004F00000000000000000000000000FCD4
:1011D000FEFF00FF00000000000000000000004FC4
:1011E000012F0013000000000000000000FCF8FECA
:1011F0003CFEFEFF00FF000000000000004F074F14
:101200000227012700130000000000FCA8FCA8FE34
:10121000A0FE80FE00FC00FC000000270227022741
:1012200002270227022700270000000000FE54FECC
:10123000A0FE00FE00F800000000000000130127DF
:101240000227044F004F000000000000000000FED5
:1012500000FE00F800000000000000000000001385
:10126000002F004F00000000000000000000000000
:1012700000FE000000000000000000000000000070
:10128000004F00000000000000000000000000F817
:1012900000FE00FE00000000000000000000004F03
:1012A000002F0013000000000000000000F800FE06
:1012B000A0FE54FE00FE000000000000004F044F9E
:1012C000022701270013000000000038007C00FE08
:1012D00008FE08FE107C00380000002000200020DE
:1012E000002000200020002000000000001C00FE64
:1012F00008FE20FE0070000000000000001000202A
:101300000020004000400000000000000000001C21
:1013100000FE00700000000000000000000000104F
:10132000002000400000000000000000000000005D
:1013300000FE0000000000000000000000000000AF
:1013400000400000000000000000000000000070ED
:1013500000FE001C00000000000000000000004033
:10136000002000100000000000000000007000FEDF
:1013700008FE08FE001C00000000000000400040C5
:101380000020002000100000000000FCF8FC00FC21
:10139000A8FCA8FCF8FC00FC00000027032700279D
:1013A00002270227032700270000000000FEFCFEA2
:1013B000A8FCF0FC00F8000000000000001301276A
:1013C0000227074F004F000000000000000000FE51
:1013D000F0FE00F800000000000000000000001314
:1013E000032F004F0000000000000000000000007C
:1013F00000FE0000000000000000000000000000EF
:10140000004F00000000000000000000000000F895
:10141000F0FE00FE00000000000000000000004F91
:10142000032F0013000000000000000000F8F0FC93
:10143000A8FCFCFE00FE000000000000004F074F6B
:101440000227012700130000000000F848FC48FCB8
:101450009CFE9CFE48FC48FC00F8003F017F017F99
:1014600002FF02FF017F017F003F00F888FC88FC3B
:101470001CFE1CFE88FC88FC00F8003F027F027FF7
:1014800005FF05FF027F027F003F00F808FC08FC13
:101490001CFE1CFE08FC08FC00F8003F057F057FD1
:1014A0000AFF0AFF057F057F003F00F808FC08FCE3
:1014B0001CFE1CFE08FC08FC00F8003F0A7F0A7FA7
:1014C00014FF14FF0A7F0A7F003F00F808FC08FCA5
:1014D0001CFE1CFE08FC08FC00F8003F147F147F73
:1014E00028FF28FF147F147F003F00F808FC08FC49
:1014F0001CFE1CFE08FC08FC00F8003F287F287F2B
:1015000050FF50FF287F287F003F007858FC5CFE8A
:10151000BEFFBEFF5CFE58FC0078003C307E307E93
:1015200060FF60FF307E307E003C007858FC5CFE3F
:10153000BEFFBEFF5CFE58FC0078003C307E307E73
:1015400060FF60FF307E307E003C007858FC5CFE1F
:10155000BEFFBEFF5CFE58FC0078003C307E307E53
:1015600060FF60FF307E307E003C007840FC40FE33
:1015700080FF80FF40FE40FC0078003C307E307EE3
:1015800060FF60FF307E307E003C007840FC40FE13
:1015900080FF80FF40FE40FC0078003C307E307EC3
:1015A00060FF60FF307E307E003C007840FC40FEF3
:1015B00080FF80FF40FE40FC0078003C307E307EA3
:1015C00060FF60FF307E307E003C008080C0C0E065
:1015D000E0F0E0F0C0E080C00080003F3D7F3D7F54
:1015E0007BFF7BFF3D7F3D7F003F008080C0C0E0F0
:1015F000E0F0E0F0C0E080C00080003F3D7F3D7F34
:101600007BFF7BFF3D7F3D7F003F008080C0C0E0CF
:10161000E0F0E0F0C0E080C00080003F3D7F3D7F13
:101620007BFF7BFF3D7F3D7F003F008000C000E0EF
:1016300000F000F000E000C00080003F027F027F69
:1016400004FF04FF027F027F003F008000C000E033
:1016500000F000F000E000C00080003F027F027F49
:1016600004FF04FF027F027F003F008000C000E013
:1016700000F000F000E000C00080003F027F027F29
:1016800004FF04FF027F027F003F252502070207B7
:10169000252A000523280108001F111F111F101DF6
:1016A000151711151F07041F17151D1F151D010103
:1016B0001F1F151F17151F000A00100A00040A112A
:1016C0000A0A0A110A040115020E17161F051F1F28
:1016D000150A1F11111F110E1F15111F05011F11D2
:1016E0001D1F041F111F1119111F1F06191F101094
:1016F0001F071F1F011F1F111F1F05070F091F1F96
:10170000051A17151D011F011F101F0F100F1F1C99
:101710001F1B041B071C071915130508FEFFFFFFFD
:10172000FEFEBFBFBFFEFEAFAFAFFEFEABABABFE7C
:1017300007081F11151511111F07081F19191F1F61
:101740001F1F05080E1F1D190E020800FFFFFF18BE
:101750000000050010001B00210026006C00740032
:101760007D008C00A700AC00B100C000CF00F000ED
:10177000F600FC000B0111015A01640168016E01C1
:101780000612001640009D249F41FA0DA741F4194E
:10179000A314A3FE41F40DA30DA314A319A3FEFDEE
:1017A0000201FC02FEFC01FC02FEFC02FD0103FC46
:1017B000044CFEFC044CFCFC044DFC04FD0103FC49
:1017C000044CFEFC044CFCFC044C03FC04FD010333
:1017D0004C07FC044C05FC044C03FD0104FD010313
:1017E0004C07FC044C05FC044C03FC044DFC04FEBB
:1017F0004030FD0203FD02019E07130017FD0105A5
:101800009F31A72FA731A72CA728A72CA725AFFE6C
:1018100031A733A734A733A734A731A733A731A7FC
:1018200033A72FA731A72FA731A7FE2DA731AFFED2
:1018300033A734AFFE38A736A738A734A72FA7346D
:10184000A72CAFFE31A72FA731A72CA728A32CA721
:1018500025B3FE31A733A734A733A334A734A73168
:10186000A333A731A333A733A72FA331A72FA331C6
:10187000A731A3FEA32DA331AFFEA333A334AFFE44
:1018800038A736A738A734A72FA334A72CB3FE4018
:1018900000DFDFDFCF403041E8FD0108FC09FC0A32
:1018A000FD0108FC09FC0BFD010C4C07FC09FC0ABE
:1018B0004DFD010C4C07FC09FC0B4DFD010DFC0E10
:1018C000FC0FFD010DFC0EFC10FD01114C07FC0E80
:1018D000FC0F4DFD01114C07FC0EFC104D9F5702F3
:1018E0004904402041FAAFFEFD0314FEFD0215FD40
:1018F0000214FC14FD0F15FC14FD0F159F020800C7
:101900001F001F1E1800C038C6E9ADE1D1DDDDE1C2
:10191000FDFDFDFDFDFDFDFDFDFDFDF5BDF9C6383F
:10192000C215020041060808C84848D000F81FDF69
:101930005F5F9F3FFF18C0504808080808666100B5
:1019400008205088502003813943988A888B8889E1
:101950008A888A889B423A0340123810000200109D
:101960001800F0F0F8F0F8F8FCF8FCFCFEFCFEFEC5
:10197000FFFEFFFCFEFCFEF8FC80F800800000008B
:101980000000FFFFFFFFFF7FFFBFFF3FFFFFFFFFE5
:10199000FFFFFFFFFFFFFFFFFFFFFFFFFFFCFF0059
:1019A000FC000F0F1F0F1F1C3F1D3F3E7F3F7F7F1F
:1019B000FF7FFF3F7F3F7F1F3F1F3F0F1F0F1F0016
:1019C0000F00000000008080F8F8FCFCFEFCFEFE2A
:1019D000FFFEFFFCFEFCFEF8FCF8FCF0F8F0F8005F
:1019E000F000FCFCFFFFFFFFFFFFFFFFFFFFFFFF1B
:1019F000FFFFFFFFFF3FFFBFFF7FFFFFFFFFFF0076
:101A0000FF000F0F1F0F1F1F3F1F3F3F7F3F7F7FB5
:101A1000FF7FFF3F7F3E7F1D3F1C3F0F1F0F1F00BB
:101A20000F000000000000008080C0C0E0C0E0E0C7
:101A3000F0E0F0F0F8F0F8F8FC78FC70F8F0F8005E
:101A4000F000E0E0F8F8FCFCFF7FFF7FFFFFFFFF06
:101A5000FFFFFF41FF6CFF20FF36FF10FFFFFF007D
:101A6000FF000F0F1F0F1F1F3F1C3F3B7F387F7F63
:101A7000FF7FFF207F377F163F1A3F081F0F1F0091
:101A80000F00F0F0F870F878FCF8FCF0F8F0F8E0EF
:101A9000F0E0F0C0E0C0E080C00080000000000086
:101AA0000000FFFFFF10FF36FF20FF6CFF41FFFF2C
:101AB000FFFFFFFFFF7FFF7FFFFCFFF8FCE0F80068
:101AC000E0000F0F1F081F1A3F163F377F207F7F50
:101AD000FF7FFF387F3B7F1C3F1F3F0F1F0F1F0003
:101AE0000F008080C0C0E0E0F0F0F8F8FCFCFE548D
:101AF000FFAAFFFCFEF8FCF0F8E0F0C0E080C000B8
:101B0000800008081D083D1D7F5DFFB3FFB3FF6522
:101B1000FF66FFB3FFB3FF5DFF1D7F083D081D009B
:101B20000800080008001C001C003E003F017F0266
:101B30007F017F017F003F003E001C001C00080069
:101B400008008080C0C0E0E0F0F0F8F8FCFCFE5433
:101B5000FFAAFFFCFE78FCB0F8E0F0C0E080C00017
:101B6000800008081D083D1D7F5DFFB3FFB3FF65C2
:101B7000FF66FFB3FFB3FF5DFF1D7F083D081D003B
:101B80000800080008001C001C003E003F017F0206
:101B90007F017F017F003F003E001C001C00080009
:101BA00008008080C0C0E0E0F0B0F878FCFCFE5493
:101BB000FFAAFFFCFE78FC30F8E0F0C0E080C00037
:101BC000800008081D083D1D7F5DFFB3FFB3FF6562
:101BD000FF66FFB3FFB3FF5DFF1D7F083D081D00DB
:101BE0000800080008001C001C003E003F017F02A6
:101BF0007F017F017F003F003E001C001C000800A9
:101C000008008080C0C0E0E0F030F878FCFCFE54B2
:101C1000FFAAFFFCFEF8FCF0F8E0F0C0E080C00096
:101C2000800008081D083D1D7F5DFFB3FFB3FF6501
:101C3000FF66FFB3FFB3FF5DFF1D7F083D081D007A
:101C40000800080008001C001C003E003F017F0245
:101C50007F017F017F003F003E001C001C00080048
:101C6000080000000000000000000000000000006C
:101C70000000000000000000000000000000000064
:101C80000000000080008000C000C000E000E00014
:101C9000F060F0C0E0C0E080C080C0008000800044
:101CA00000000F0D1F0D1F1B3F1B3F377F367F6E40
:101CB000FF6EFF377F377F1B3F1B3F0D1F0D1F0040
:101CC0000F00000000000000000000000000000005
:101CD0000000000000000000000000000000000004
:101CE0000000000080008080C080C0C0E0C0E060D4
:101CF000F000F000E000E000C000C00080008000C4
:101D000000000F0D1F0D1F1B3F1B3F377F377F6EDE
:101D1000FF6EFF367F377F1B3F1B3F0D1F0D1F00E0
:101D20000F000000000000000000000000000000A4
:101D300000000000000000000000000000000000A3
:101D40000000000080008080C080C0C0E0C0E0E0F3
:101D5000F0E0F0C0E0C0E080C080C0008000800003
:101D600000000F0D1F0D1F1B3F1B3F377F377F6C80
:101D7000FF60FF307F017F193F013F0D1F0D1F00E6
:101D80000F00000000000000000000000000000044
:101D90000000000000000000000000000000000043
:101DA0000000000080008080C080C0C0E0C0E0E093
:101DB000F0E0F0C0E0C0E080C080C00080008000A3
:101DC00000000F0D1F0D1F013F193F017F307F6085
:101DD000FF6CFF377F377F1B3F1B3F0D1F0D1F0021
:101DE0000F00F0D0F8D0F8B0FCB0FC70FE60FEE060
:101DF000FFE6FF7CFE7CFEB8FCB8FCD0F8D0F80013
:101E0000F000E0A0F1A0F171FB41FFBBFFBBFF764A
:101E1000FF76FFBBFFBBFF41FF71FBA0F1A0F1000C
:101E2000E0000F0F1F0F1F173F173F327F327F7DDC
:101E3000FF7DFF3E7F3E7F1F3F1F3F0F1F0F1F0095
:101E40000F00F0D0F8D0F8B8FCB8FC7CFE7CFEE6C1
:101E5000FFE0FF60FE70FEB0FCB0FCD0F8D0F800F0
:101E6000F000E0A0F1A0F171FB41FFBBFFBBFF76EA
:101E7000FF76FFBBFFBBFF41FF71FBA0F1A0F100AC
:101E8000E0000F0F1F0F1F1F3F1F3F3E7F3E7F7D54
:101E9000FF7DFF327F327F173F173F0F1F0F1F005D
:101EA0000F00F0D0F8D0F8B8FCB8FC7CFE7CFECE79
:101EB000FF0EFF0CFE1CFE98FC18FCD0F8D0F800BA
:101EC000F000E0A0F1A0F171FB41FFBBFFBBFF768A
:101ED000FF76FFBBFFB8FF41FF70FBA0F1A0F10050
:101EE000E0000F0F1F0F1F193F193F367F367F7D10
:101EF000FF7DFF3E7F3E7F1F3F1F3F0F1F0F1F00D5
:101F00000F00F0D0F8D0F818FC98FC1CFE0CFE0E68
:101F1000FFCEFF7CFE7CFEB8FCB8FCD0F8D0F80009
:101F2000F000E0A0F1A0F170FB41FFB8FFBBFF762D
:101F3000FF76FFBBFFBBFF41FF71FBA0F1A0F100EB
:101F4000E0000F0F1F0F1F1F3F1F3F3E7F3E7F7D93
:101F5000FF7DFF367F367F193F193F0F1F0F1F0090
:101F60000F101800F0F0F8F0F8F8FCF8FCFCFEFC9C
:101F7000FEFEFFFEFFFCFEFCFEF8FCF8FCF0F8F0B5
:101F8000F800F0006363FF7FFFFFFF9FFFE7FFF9AB
:101F9000FFFFFFFFFFFFFFFFFFFFFFFFFF7FFF7F51
:101FA000FF007F000E0C1E0C1F183F1A3F357F35B7
:101FB0007F6BFF6BFF357F357F1A3F183F0C1F0C7F
:101FC0001E000E00F0F0F8F0F8F8FCF8FCFCFEFC47
:101FD000FEFEFFFEFFFCFEFCFEF8FCF8FCF0F8F055
:101FE000F800F0007F7FFF7FFFFFFFFFFFFFFFFF95
:101FF000FFFFFFFFFFF9FFE7FF9FFFFFFF7FFF638B
:10200000FF0063000E0C1E0C1F183F1A3F357F3572
:102010007F6BFF6BFF357F357F1A3F183F0C1F0C1E
:102020001E000E00F0F0F8F0F8F8FCF8FCFCFEFCE6
:10203000FEFEFFFEFF7CFE7CFE38FCB8FC10F8F0D4
:10204000F800F0007F7FFF7FFFF9FFE7FF9FFFFFB2
:10205000FFFFFFF0FFF9FFF8FFFCFFFCFF7EFF63CF
:10206000FF0063000E0C1E0C1F183F1A3F357F3512
:102070007F6BFF6BFF357F357F1A3F183F0C1F0CBE
:102080001E000E00F0F0F810F8B8FC38FC7CFE7C66
:10209000FEFEFFFEFFFCFEFCFEF8FCF8FCF0F8F094
:1020A000F800F0006363FF7EFFFCFFFCFFF8FFF920
:1020B000FFF0FFFFFFFFFF9FFFE7FFF9FF7FFF7FBD
:1020C000FF007F000E0C1E0C1F183F1A3F357F3596
:1020D0007F6BFF6BFF357F357F1A3F183F0C1F0C5E
:1020E0001E000E008000C080C080FCF8FCFCFEFCDE
:1020F000FEFEFFCEFFE0FEF0F878FC78FC30F8F052
:10210000F800F0007F7FFF7FFFF9FF87FFFFFFFFF1
:10211000FFFFFFF1FFF8FFF8FFFCFFFCFF7EFF630E
:10212000FF0063000E0C1E0C1F081F0A3F357F3591
:102130007F6BFF6BFF357F357F0A3F081F0C1F0C3D
:102140001E000E10244054FBFF050180401020208B
:10215000804010020A160ED5F08D14A1C881CFD987
:10216000F1AF200003000003001600020100004050
:10217000009F40309D180DBF44080DDF4619AF4148
:10218000FCBF57019F403001BF440C01DF4619AF2F
:1021900041FCAF9F7F213222CA285F224A1671225A
:1021A000A223A122D52294222222491B1622080B07
:1021B0000002020200000904000001020200000502
:1021C000240010010524010101042402060524064F
:1021D00000010705810310004009040100020A0004
:1021E00000000705020240000007058302400000CE
:1021F0000403090412010002EF020140412336806A
:1022000000010102030141726475696E6F204C4C3C
:10221000430041726475696E6F204C656F6E617228
:10222000646F00003D3011241FBECFEFDAE0DEBF47
:10223000CDBF11E0A0E0B1E0E4E6F4E602C0059015
:102240000D92AC32B107D9F728E0ACE2B1E001C0A1
:102250001D92A337B207E1F711E1C3E1D1E104C058
:102260002197FE010E942332C231D107C9F70E9493
:1022700063300C9430320C940000FC0180910C0708
:10228000882311F13FB7F89482E08093E900209110
:10229000F200822F90E01816190614F481E090E005
:1022A000882339F0289844E640930B074091F100C9
:1022B0004083222339F02091F200211103C02BE644
:1022C0002093E8003FBF08958FEF9FEF08952FB749
:1022D000F89483E08093E9009091E800892F807260
:1022E00095FF04C09091F20080E4891B2FBF0895F0
:1022F0008091030781110DC082E08093FF0684E086
:1023000080930007109202071092010781E08093EA
:1023100003078FEF96E00895CF93DF931F92CDB719
:10232000DEB76983DC01ED91FC910280F381E02D41
:1023300041E050E0BE016F5F7F4F09950F90DF9144
:10234000CF91089583E08093E9008091F200882383
:1023500019F08AE38093E80008950E94671190E0E5
:102360000895CF93DF931F92CDB7DEB7FC0184852C
:10237000958597FD08C02FEF3FEF358724870F9095
:10238000DF91CF910895CE0101960E943D110197F2
:1023900019F4898190E0F3CF8FEF9FEFF0CF0F9387
:1023A0001F93CF93DF931F92CDB7DEB78C01FC0153
:1023B0008485958597FF0BC0CE0101960E943D1143
:1023C000019771F4898190E0F80195878487F8017D
:1023D000848595850F90DF91CF911F910F9108957E
:1023E0008FEF9FEFF1CFFC018485958597FD0BC0A2
:1023F0009FB7F89482E08093E9008091F2009FBF3C
:1024000090E0019608959FB7F89482E08093E900E8
:102410008091F2009FBF90E008954091F90650919D
:10242000FA062091F7063091F80642175307B4F4E4
:102430009091E8009570E1F39091E80092FD19C049
:102440008093F1008091F9069091FA0601968F73BE
:102450009927892B19F48EEF8093E8008091F90673
:102460009091FA0601969093FA068093F90681E01E
:10247000089580E00895EF92FF920F931F93CF93FA
:10248000DF93F82E192FE62E042F81E0860F880F98
:102490000E940D1283E00E940D12CF2DD12FEC0E61
:1024A000FD2EF11CCE15DF05B9F007FF13C0FE01AC
:1024B00084910E940D12182F80E00E940D1281233A
:1024C00021968111EFCFDF91CF911F910F91FF9056
:1024D000EF9008958881EDCF81E0F5CFDF92EF9204
:1024E000FF920F931F93CF93DF93D82E8A01EB01B6
:1024F0007B01E40EF51ECE15DF0559F0D7FE12C0A4
:10250000FE0184910E940D1221968111F4CF0FEFEC
:102510001FEFC801DF91CF911F910F91FF90EF90B6
:10252000DF9008958881EECF0F931F93CF93DF93B1
:102530001F92CDB7DEB782E0898342E450E06EEAB5
:1025400071E280E80E946E120E947811DC011296FE
:102550000D911C910115110589F0D801ED91FC91A7
:102560000280F381E02DBE016F5F7F4FC8010995A6
:1025700097FD04C0F80100851185ECCF89810F908B
:10258000DF91CF911F910F910895615030F020910C
:10259000F100FC0120830196F8CF289884E680930F
:1025A0000B0708953FB7F8948091F3069091F406D5
:1025B000A091F506B091F60626B5A89B05C02F3F61
:1025C00019F00196A11DB11D3FBFBA2FA92F982F59
:1025D0008827BC01CD01620F711D811D911D42E054
:1025E000660F771F881F991F4A95D1F708958F921C
:1025F0009F92AF92BF92CF92DF92EF92FF926B01C8
:102600007C010E94D2124B015C01C114D104E1048F
:10261000F104B9F00E94D212681979098A099B095C
:10262000683E73408105910580F321E0C21AD1080C
:10263000E108F10888EE880E83E0981EA11CB11C09
:10264000E4CFFF90EF90DF90CF90BF90AF909F903E
:102650008F90089565E070E080E090E00C94F712B0
:102660008F929F92AF92BF92CF92DF92EF92FF92A2
:102670000F931F93CF93DF936C017B018A018091AD
:102680000F01882309F45CC080910C07882309F4AA
:1026900057C08091FE0680FF05C08091E0008260F7
:1026A0008093E000E801B12C8AEFA82E93E0892EF8
:1026B0002AE3922E209711F4BB20D9F10E946711D2
:1026C00081110AC0AA94AA20D9F161E070E080E0EB
:1026D00090E00E94F712EECF8C171D0611F00CF05F
:1026E0008C2F9FB7F8948092E9002091E80025FD97
:1026F00002C09FBFDFCF282F30E0C21BD30BF701F2
:10270000815020F041914093F100FACFE20EF31E88
:10271000BB2021F09092E800B12CEBCF8091E80033
:1027200085FDE7CF9092E800BB24B394209709F38E
:10273000F3CF5D9884E68093FD06101611063CF0F9
:1027400081E090E0F6019383828310E000E0C8010D
:10275000DF91CF911F910F91FF90EF90DF90CF907D
:10276000BF90AF909F908F9008954F925F926F921D
:102770007F928F929F92AF92BF92CF92DF92EF9211
:10278000FF920F931F93CF93DF934C015901FC2DC0
:10279000C02FD0E0CE01880D991D181619060CF037
:1027A0006CC020E8821691040CF067C09B012E0DCE
:1027B000311D121613060CF060C0603471050CF068
:1027C0005CC04115510509F458C0E62FE770FE2E94
:1027D000DB0177FD179633E0B595A7953A95E1F7BC
:1027E0003A2F77FF04C0FF2011F03FEF3A0F662722
:1027F00077276819790997FC02C070E060E080389B
:1028000091050CF44BC090E89819961BA32F032E4A
:10281000000CBB0B1A2F10953F3F0CF010E021E08D
:102820008E2D877009F420E0E694E694E694E20E9B
:10283000AE0DB11D19971CF028E0E22EE31AE11A43
:10284000310F20E83203D0011124A80DB91DA60FC5
:10285000B71F019F600D711D1124460F571F0F2DCB
:102860000F2C000C110BF33009F41CC1C8F4F1302B
:1028700009F4D0C0F23009F47CC0DF91CF911F91F0
:102880000F91FF90EF90DF90CF90BF90AF909F900F
:102890008F907F906F905F904F900895902FB5CF5D
:1028A000FA3FB1F1232F2E0DFB3F39F7321729F3F1
:1028B000BD0164517D4FD12CC12CC91608F0A4C0B4
:1028C000FA01EC0DFD1DE491F0E04F01002E02C075
:1028D000880C991C0A94E2F737FD06C0FB01808141
:1028E000E82CE0948E218083FF2061F0373054F48F
:1028F0005B01F0E8AF0EB11CE92CE094F50180819A
:102900008E218083FFEFCF1ADF0A6F5F7F4FD5CF15
:10291000232F2E0D321709F4B0CFBD0164517D4F26
:10292000D12CC12CC91608F069C0FA01EC0DFD1DAF
:10293000E491F0E04F01002E02C0880C991C0A942B
:10294000E2F737FD04C0FB01808188298083FF20E6
:1029500051F0373044F45B01F0E8AF0EB11CF501E3
:10296000808189298083FFEFCF1ADF0A6F5F7F4F55
:10297000D9CF6FEF70E00F2C02C0660F771F0A945B
:10298000E2F760957095772E232F2E0D321709F4FC
:1029900074CFFD01E451FD4F6F01B12CA12CA9169C
:1029A00038F5FA01EA0DFB1DE491F0E02F01002E4D
:1029B00002C0440C551C0A94E2F737FD05C0F6012D
:1029C0008081862384298083FF2059F037304CF49E
:1029D0004601F0E88F0E911CF40180818721852942
:1029E0008083FFEFAF1ABF0A8FEFC81AD80AD7CF7C
:1029F0003F5F4C0F5D1FA058BF4FC8CF3F5F4C0FCC
:102A00005D1FA058BF4F86CF3F5F4C0F5D1FA05882
:102A1000BF4F4CCF6A0D7B1D232F2E0D321709F4AB
:102A20002CCFFD01E451FD4F6F01B12CA12CA91653
:102A300088F5FB01EA0DFB1D8490912C002E02C04D
:102A4000880C991C0A94E2F780949094FA01EA0D9C
:102A5000FB1D6490712C002E02C0660C771C0A943A
:102A6000E2F737FD05C0F601808188218629808341
:102A7000FF2049F037303CF4F601E058FF4F8081E9
:102A8000892187298083FFEFAF1ABF0A8FEFC81A09
:102A9000D80ACDCF3F5F4C0F5D1F6C0F7D1FA05834
:102AA000BF4FBCCFC92ED12CFA01E60FF71FA4519E
:102AB000BD4F00E810E00C191D09CC19DD09BE015D
:102AC000660F771F41E050E06A010F2C01C0CC0C6B
:102AD0000A94EAF7592F2E2D792ECF93DF93ED012B
:102AE000EF96EF9622968590A590FF2059F08C9C4A
:102AF0004001AC9C500137302CF4E880B094EB20BE
:102B0000E928E99233233AF0EC90A094EA20E828EF
:102B1000ED920C948C1511965A9529F72A9551F03F
:102B2000572D33951124E60FF11DA00FB11DC00FD5
:102B3000D11DD9CFDF91CF9111249FCECF92EF92AB
:102B40000F93FA0104913196E4904E5F5F4F222378
:102B5000F9F0A1E0B0E03E2D377011F4B0E0A0E054
:102B6000EE2DE695E695E695EA0FFB2FF11D0E9FFB
:102B7000D0010F9FB00D112430E0220F331FA29F10
:102B8000F001A39FF00DB29FF00D11244E0F5F1FB7
:102B900023E0C22E30E020E00E94B5130F91EF90A9
:102BA000CF900895CF92EF920F93CF93DF93DC01F4
:102BB000FA0104913196E4904E5F5F4F2223D1F0E9
:102BC000C1E0D0E09E2D977011F4D0E0C0E0EE2D72
:102BD000E695E695E695EC0FFD2FF11D0E9FE001C1
:102BE0000F9FD00D11242C9FC0012D9F900D1124FB
:102BF000480F591F8AEFC82E30E020E0CD010E9417
:102C0000B513DF91CF910F91EF90CF9008958FB1D1
:102C10008095807F669B88601C9B846008951092DD
:102C2000E6023E983F9808953E9A3F9A81E080934D
:102C3000E60208959091EC06982329F49091ED0610
:102C4000982381E009F480E0089546E0849F900194
:102C500011242E5E3F4F65E00E94EF31582F48EE61
:102C60004503C0011124820F931F0895482F65E08A
:102C70000E94EF3196E0899F900111242C5F3F4F15
:102C8000241B31094CE0429FC001439F900D112449
:102C9000039608951092FC011092FD011092FE011E
:102CA0001092FF01E4E0F2E086E0858380E4868311
:102CB0008CE08783108683E08483118612861092CD
:102CC000010288E0809303010895E091AF0290E053
:102CD00025E0E29FF0011124E15FFD4F27E030E0A5
:102CE000281B390B41E050E060E070E004C0440F65
:102CF000551F661F771F2A95D2F7409521814223E1
:102D0000418326E0289FF001299FF00D1124E35C08
:102D1000F74F14828091FC019091FD01A091FE017A
:102D2000B091FF01855B9F4FAF4FBF4F8093FC0178
:102D30009093FD01A093FE01B093FF010895E091EF
:102D4000AF0285E0E89FF0011124E15FFD4F818132
:102D50008F7D81830895A0910202B0910302AA0F92
:102D6000BB1F2A9FF0012B9FF00D1124660F771FC8
:102D70004370552742305105E9F04330510519F1B0
:102D80004130510551F0680F791FE75AFF4F81E03C
:102D9000E617F70774F480E00CC09C01261B370B84
:102DA000B9012FE030E02E1B3F0B81E06217730763
:102DB00094F30895EA54FF4F680F791F81E0E617F6
:102DC000F707BCF3E8CF9C01261B370BB9012FEAAC
:102DD0003FEF2E1B3F0B81E02617370754F7DBCF61
:102DE0001F93CF93DF93C82F8091E8029091E9025F
:102DF0008F709927892B31F48091F40191E0892714
:102E00008093F4018091F4018823E9F0D0E1DC0F94
:102E10001AE360910202709103026A5D7F4F8C2F6A
:102E200090E0AC0155954795242FCA3310F0212F1F
:102E3000241B621B710920E04DEF58E10E949E1592
:102E4000CE5FDC13E6CFDF91CF911F9108954F92B3
:102E50005F926F927F928F929F92AF92BF92CF922A
:102E6000DF92EF92FF920F931F93CF93DF9300D0E7
:102E700000D000D01F92CDB7DEB7C82EA62ECA0153
:102E8000B9019E012F5F3F4F7901490110E02AE00F
:102E9000422E512C612C712C611571058105910513
:102EA00079F4198211E0F701E10FF11DCF018E19BC
:102EB0009F091017A8F4119212E0F8CF173099F378
:102EC0001F5FA30192010E94CD31F40161934F0174
:102ED000B901CA01611571058105910579F7E3CF43
:102EE000E80EF91ED12C612CB12CF70182917F01E3
:102EF000982F990F980F77247394790E04E0090F97
:102F00004601272D46E956E1B501C4010E94D215BC
:102F1000FFEF8F1A9F0A73940711F3CF639424E095
:102F2000C20ED11C611608F327960FB6F894DEBFC7
:102F30000FBECDBFDF91CF911F910F91FF90EF900A
:102F4000DF90CF90BF90AF909F908F907F906F90C9
:102F50005F904F9008950F93CF93DF93D0E0C0E040
:102F600020E049E457E1BE0186E790E00E949E150B
:102F70002896C034D105A1F72091AF0230E050E08F
:102F800040E002E061E089E70E94271720910A02F1
:102F9000277030E050E040E001E067E18BE70E94FD
:102FA000271720E042E457E16DE170E08AE790E006
:102FB0000E94D21520910A0230E083E035952795D2
:102FC0008A95E1F723703327032E000C440B550B31
:102FD00066E28BE70E94271720E049E357E16CE2A5
:102FE00070E089E790E00E94D21520910A0225FB4B
:102FF000222720F930E050E040E065E38BE70E94B3
:10300000271720E040E357E16BE370E089E790E0A9
:103010000E94D2158091090220910A0284FF14C0F7
:10302000206420930A0280910A0286FF1EC020912C
:1030300008024AE157E169E070E08AE790E0DF9139
:10304000CF910F910C94D2158091E8029091E902F2
:1030500064E170E00E94FB31892B29F7809108021E
:10306000823008F780E42827DCCFDF91CF910F91E1
:103070000895BF92CF92DF92EF92FF920F931F932A
:10308000CF93DF93C091FB01CC23B1F18091FA0182
:10309000882391F18CE7E82E81E0F82ECC24C394AC
:1030A000D12CD0E0B12C00910202109103020A5DF4
:1030B0001F4F0D1B1109F701208146E956E1B801A8
:1030C000C7018C5791400E94D215F701218146E932
:1030D00056E1B801C6010E94D215FCE1FB1508F4C7
:1030E00056C0DF5FB39482E0E80EF11CE2E0CE0E42
:1030F000D11CFBE3BF12D7CF2091E8023091E90247
:10310000C90164E170E00E94FB31892B41F4C5FFE5
:1031100006C08091FA0191E089278093FA0123701B
:103120003327232B31F4C530C1F198F5C33009F4AE
:1031300042C0CEEFDFEF10E000E0E0900202F0903E
:103140000302B701675E7F4F600F711F22E044E406
:1031500057E0CE010E94D215B701601B710B23E02E
:1031600044E457E0CE01CE960E94D21505501109D5
:103170002A96023E8FEF180701F7DF91CF911F913A
:103180000F91FF90EF90DF90CF90BF900895D150B6
:10319000A9CFC33281F0C53261F68091F301E3EF2C
:1031A000F1E02CE731E0929191832E173F07D9F798
:1031B00080937C01BECF80917C01ECE7F1E023EFAE
:1031C00031E0918191932E173F07D9F78093F30156
:1031D000B0CF8091020290910302892B31F48AEFE3
:1031E0009FEF90930302809302020C9439189F92F0
:1031F000AF92BF92CF92DF92EF92FF920F931F9305
:10320000CF93DF93A0900301B12CD12CC12CD0E03F
:1032100053E0952ECB2D10E000E07601EE0CFF1C64
:1032200080E3E80EF11CE5E0EA1560F08AEF8C0F10
:103230008430E0F1CB30D1F1C031C1F1C531B1F111
:1032400020E01FC08C2F8B198230D1F7D230C1F70C
:103250009091AF02809100029813F2CF80917B0190
:103260002091E8023091E90227703327232B31F4B3
:103270008F5F692D0E94EF3190937B0120917B013C
:103280002B5F6091020270910302655E7F4F600FB9
:10329000711F6C0D7D1D4EE058E0C801880F991F0D
:1032A000F701E81BF90BCF010E949E15CF5F0A5F63
:1032B0001F4F0E31110509F0B6CFDF5FF6E0CF0EDC
:1032C000D11C85E0B80ED53009F0A4CF8A1508F4DA
:1032D00046C027E2E22EF12CC0E0009102021091DC
:1032E0000302B801625D7F4F2C2F4AE956E0C70107
:1032F0000E94D215CF5FE8E0EE0EF11CC53069F7F1
:1033000097E1E92EF12C6801F6E3CF0ED11C2C2FAA
:103310004AE956E0B601C7010E94D21588E0E80EDE
:10332000F11CCF5FCE3099F78FE0E82EF12C025CD4
:103330001F4F2C2F4AE956E0B801C7010E94D21551
:1033400023E02C0F4AE956E0B801C701C8960E9455
:10335000D215E8E0EE0EF11CCF5FC23151F7DF91DC
:10336000CF911F910F91FF90EF90DF90CF90BF9082
:10337000AF909F900895362F83506CE00E94EF31FC
:10338000282F911118C08EEE830F66E00E94EF3156
:10339000911111C09CEF980F290F20FD0CC0022E37
:1033A000000C330B35952795253028F4982F921B68
:1033B00081E0953008F080E008959AEA899FA001A5
:1033C000112485E591E0689F9001699F300D1124DB
:1033D000CA01820F931F8FEC890F90E064E09595EE
:1033E00087956A95E1F7982F990F990F890F241BFC
:1033F000350B92E1930F92959F70890F0895CF93AB
:103400000E94DD19C82F893158F46091060280911D
:103410000202681B809104020E94DD1991E08C1366
:1034200090E0892FCF9108950F931F93CF930E941F
:10343000DD19C82F893128F5E091AF0285E0E89FBA
:10344000F0011124E15FFD4F8181082F87FF08C043
:1034500060913F0880913D080E94DD19C81779F0FE
:1034600006FF0FC060914508809143080E94DD1956
:10347000C81307C081E0CF911F910F91089580E09C
:10348000FACF8FEFF8CFE0910102E150FF0BEE0F82
:10349000FF1FE057F94F25913491820F932F911D13
:1034A000FC018491089583E00E94431A9091AF0239
:1034B000282F30E035952795359527952F7133279F
:1034C0009217130611F4837008958FEF08956B5FC0
:1034D0009DE0899F600D1124862F0C94431A8F92D2
:1034E0009F92AF92BF92CF92DF92EF92FF920F9393
:1034F0001F93CF93DF93982E1092E5021092DE0275
:103500001092F701CDE3D8E007E010E0A82EB12C2F
:1035100025E0829FC0011124FC01E05FFD4F6F0197
:103520002CE0822E1C82F601808190E0002E02C0E9
:10353000959587950A94E2F780FF1AC0682D601B65
:10354000892D0E94671AE82EF12C93E0F594E794F8
:103550009A95E1F7F8E1FE1580F18C838E2D0E949B
:103560003616998388838E2D0E9425169B838A8325
:10357000269601501109B0F680914D08982F97704A
:10358000963070F095E09A9DF0019B9DF00D11240E
:10359000E15FFD4F938197FF12C0816080934D08DA
:1035A000DF91CF911F910F91FF90EF90DF90CF901F
:1035B000BF90AF909F908F9008951C82CFCF8E7F49
:1035C000EDCFEF92FF920F931F93CF93DF938091F4
:1035D0000902182F1370012F000F87FF1CC0D0E0C5
:1035E000C0E0E02EF12C6091060270910702665057
:1035F00071096C0F7D1F6E197F09809104029091F3
:10360000050220E04EE256E004970E949E1528969F
:10361000C831D10541F7809109026091060270918D
:10362000070224E084FD07C082FF0DC060910602FE
:1036300070910702212F41E65FE180910402909191
:1036400005020E949E158091090287FF1BC0D0E0F1
:10365000C0E010E060910602709107026E5F7F4F3C
:103660006C0F7D1F601B710B80910402909105020D
:1036700021E04EE256E004970E949E152896C8313C
:10368000D10541F7DF91CF911F910F91FF90EF90FE
:103690000895CF93DF9390910E029F5F90930E0257
:1036A000C091E802D091E9029E0123703327232BB9
:1036B00051F480910902282F2370233009F047C06C
:1036C0008C7F809309029B3558F0809109028F7797
:1036D00084608093090210920E0286E080930301B9
:1036E0000E9439180E94F7180E94AB170E94E11A35
:1036F000CE016AE570E00E94FB31892B51F5E09123
:10370000AF0285E0E89FF0011124E15FFD4FC28127
:10371000C093AF02D0910B028D2F0E94361690936A
:103720000502809304028D2F0E942516209102022B
:1037300030910302820F931F909307028093060239
:1037400010920C028C2FDF91CF910C946F1A8F5F27
:10375000B8CFDF91CF9108956F927F928F929F9211
:10376000AF92BF92CF92DF92EF92FF920F931F938F
:10377000CF93DF9300D01F92CDB7DEB70E943918E8
:103780000E94F71870EBE72E72E0F72EEEEDCE2ECA
:10379000E2E0DE2EF6E07F2ED701ED917D01EB31E8
:1037A00009F47AC0E23020F57E9EF0011124E35C3A
:1037B000F74F848190E09C01220F331F220F331FAB
:1037C0002C7163E0959587956A95E1F78370822B5C
:1037D000628173812091020230910302620F731F94
:1037E000282F4FE559E1808191810E949E1554C098
:1037F000E23091F58091F70181114EC08091E8028D
:103800009091E90287709927892B41F480914E08A5
:103810008F5F672D0E94EF3190934E0880914D0885
:103820008770282F220F280F220F80914E08280F13
:1038300060914B0870914C088091020290910302B4
:10384000680F791F6A5F7F4F8091490890914A08FD
:1038500048E850E10496C9CFE830C8F47E9EF001F4
:103860001124E35CF74F24812223B1F02770628199
:1038700073818091020290910302680F791F675F44
:103880007F4F808191814EE058E00397AECFE930C1
:1038900009F04CC00E94E11ACE14DF0409F07CCF7D
:1038A0008091E5028823B1F06091E1027091E2021B
:1038B0008091020290910302680F791F6A5F7F4F27
:1038C0008091DF029091E00222E148E850E1049605
:1038D0000E949E158091DE02882309F478C06091D1
:1038E0006F08709170088091020290910302680F36
:1038F000791F6A5F7F4F80916D0890916E0822E179
:1039000048E850E104960F900F900F90DF91CF910F
:103910001F910F91FF90EF90DF90CF90BF90AF90ED
:103920009F908F907F906F900C949E15EB50E0319C
:1039300008F0B2CF8E2E912C95948794959487940D
:10394000682CBE2FB370B983EE0F8E2F90E0FC0170
:10395000E859FF4E049187599F4EFC01F491609104
:103960000202709103028F2F860F972F911D9B8368
:103970008A8326E8A22E2EE0B22EB13081F094E8A0
:10398000A92E9DE0B92EB23051F032E1A32E3CE0D9
:10399000B32EB33021F480EDA82E8AE0B82E10E0CB
:1039A000282DA5016A817B81C8010E949E159981FD
:1039B000933009F071CF0E94531A68126DCF6A815B
:1039C0007B816F5F7F4F282DA501C8010ECF0F901F
:1039D0000F900F90DF91CF911F910F91FF90EF907B
:1039E000DF90CF90BF90AF909F908F907F906F901F
:1039F000089520910902822F807629F080910C028F
:103A00008F5F80930C0223708091020290910302D9
:103A1000223018F1853E3FEF9307ACF00197909369
:103A200003028093020280910402909105022150CA
:103A30002230E8F422E030E0820F931F90930502D9
:103A400080930402089580910602909107020196E6
:103A50009093070280930602E6CF97FF02C001967B
:103A6000DECF80910602909107020197F1CF2EEFF1
:103A70003FEFE2CF4F925F926F927F928F929F9231
:103A8000AF92BF92EF92FF920F931F93CF93DF936A
:103A90004B015C01C42FD22F11E081149104A104C9
:103AA000B10409F010E0A50194016AE0462E512C02
:103AB000612C712C211531054105510541F01F5F25
:103AC000CA01B901A30192010E94CD31F3CF1D17A4
:103AD00008F41D2FC10FDD27DD1FCC0FDD1FCC0F1C
:103AE000DD1FC858DE4F00E09AE0492E512C612CB2
:103AF000712C82E090E09C012C5731407901C50186
:103B0000B401A30192010E94CD31C7018C0F9D1F0A
:103B10008837910558F4862F880F680F81E0860F4B
:103B2000888382E0860F89836D5F6A830F5F2497A5
:103B300049015A011013E3CFDF91CF911F910F91EB
:103B4000FF90EF90BF90AF909F908F907F906F907D
:103B50005F904F90089581E08093130720911207A2
:103B600030E0EDE2F1E090E080E0A901082E02C033
:103B7000559547950A94E2F740FF108201963596D5
:103B80008430910591F7089590E0880F991FE09196
:103B90000F07F0911007E80FF91F8591949120917C
:103BA0000D0730910E07820F931F0895EF92FF9239
:103BB0000F931F93CF93DF931092720021E030E0B8
:103BC0003093440120934301E5E1F7E048EDDF0144
:103BD0001D924A95E9F740EF4093110110921407A6
:103BE00010921307109212074FEF4093100159E102
:103BF0005093110761E772E07093420160934101B5
:103C000030933E0120933D013093DD072093DC0784
:103C100022E42093C00021E02093C1004093D10012
:103C200020E82093CF00EC012196FC018491D093F1
:103C30001007C0930F0790E0880F991FC80FD91F76
:103C4000CE01049690930E0780930D0735E1E32E85
:103C500037E0F32E10E000E0FE01E00FF11F849149
:103C60000E94C41DD7018D939C930F5F1F4FB6E335
:103C7000EB0EF11C0430110579F784E0809372009B
:103C8000DF91CF911F910F91FF90EF900895809158
:103C9000E702823020F48FE497E10C94D61D08955A
:103CA000CF938093E7028330C1F410927200E5E174
:103CB000F7E088EDDF011D928A95E9F780EF8093A8
:103CC00011011092140710921307109212078FEF30
:103CD00080931001CF910C940F16C82F0E941416D8
:103CE0008FE497E10E94D61DC23038F0809113070F
:103CF000811103C0CF910C94AB1DCF910895AF9269
:103D0000BF92CF92DF92EF92FF920F931F93CF93C8
:103D1000DF934EE250E06BE170E080EB92E00E94B6
:103D20002932E091AF024E2F50E025E0E29FF001F2
:103D30001124E15FFD4F60812EE090E080E070E0B3
:103D4000382FFC01EE56F94EE491DC011496EB019C
:103D500002C0D595C795AA95E2F7C0FF10C0AE2F57
:103D6000B0E0A055BD4FFDEFF20FFC93FEEFF20F58
:103D70001196FC931197FFEFF20F1396FC93DB0162
:103D800002C0B595A7953A95E2F7A0FF04C0F0E010
:103D9000E055FD4F248301962C5F8430910581F618
:103DA000B090F7010DE318E0D0E0C0E025E0249FDB
:103DB000C001259F900D1124FC01E05FFD4F7F01A4
:103DC00087E0C82ED12CAC2EF2E0CF1302C0B11088
:103DD00017C0F701808190E096012C1B3D0B02C0BB
:103DE000959587952A95E2F780FF0AC0F8016281D0
:103DF00080810E94DD19E82FF0E0E055FD4FA2869A
:103E000021960A5F1F4FC830D105E9F6E0910902FB
:103E10002E2F20729E2F90748E2F807691F4E09139
:103E20000B02F0E0E055FD4F89E08287DF91CF91F2
:103E30001F910F91FF90EF90DF90CF90BF90AF90C8
:103E400008958E2F8370222351F0E82FF0E0E2577F
:103E5000F94EE491F0E0E055FD4F29E020839923ED
:103E600029F3E82FF0E0E657F94EE491F0E0E05551
:103E7000FD4F89E08083DACF9091E70290FD51C039
:103E8000E82FF0E0EE0FFF1FEE51FA4F259134912D
:103E90008091720082FD2FC060911107611101C0F5
:103EA00069E16093110770E089E09DE30E940F32A1
:103EB000709342016093410181E090E0909344014E
:103EC0008093430190933E0180933D019093DD07E1
:103ED0008093DC0782E48093C00081E08093C1007E
:103EE0009FEF9093D10090E89093CF0080931307B9
:103EF00080EF80931101E7E4F1E084E3DF011D929C
:103F00008A95E9F7309346012093450181E080933B
:103F1000100182E080931207809172008460809388
:103F20007200089580910802823018F085E00C94A8
:103F30003C1F84E0FCCF8091090283FD22C0909158
:103F400008029150909308028860809309020E94B1
:103F5000921F80910802811114C08EEE95E00E949C
:103F6000D61D8091E702823030F0809113078111D5
:103F700002C00E94AB1D80910902877F80618093FF
:103F800009020895CF92DF92EF92FF920F931F9351
:103F9000CF93DF93E82E882309F441C06091DF02BC
:103FA0007091E0028091E1029091E202C090E30200
:103FB000F090E4022C2D23703FEF320FCEEFDFEFB5
:103FC000323010F4C2E0D0E0C60FD71F0FEF1FEF62
:103FD000223010F001E010E0080F191FF394B8012F
:103FE000CE01EE2091F10E94141A823008F0DAC05E
:103FF0000E946516D093E002C093DF021093E202A4
:104000000093E102F092E4021092E502DF91CF9179
:104010001F910F91FF90EF90DF90CF9008956091E6
:104020006D0870916E0880916F08909170084091B2
:10403000710850E023E0559547952A95E1F7242F24
:104040002370C22EF0907208B5CF0E94FF19D82EAF
:10405000882389F00E949B1FD0936E08C0936D083F
:104060001093700800936F08F0927208DD2071F2CF
:104070001092DE02CBCF85E08F1570F74C2D50E00B
:1040800020E0B801CE010E94AB16811172C0B801C8
:10409000CE01EE2041F00E94141A823068F40E9492
:1040A0006516F12CA7CF0E94FF19D82E882321F086
:1040B0000E949B1FF12CD0CF602F8C2F0E94DD1906
:1040C000893108F050C0E82FF0E0E055FD4FE2855F
:1040D000E93011F0E23008F4EBE18DEF8E0F85301E
:1040E00008F045C06E2F70E0A6E0EA9FF0011124B1
:1040F000E35CF74F848187708430A9F1833081F5C8
:104100002091AF02B5E02B9F90011124215F3D4F1C
:1041100047E050E0461B570B81E090E0A0E0B0E0A4
:1041200004C0880F991FAA1FBB1F4A95D2F780951C
:10413000D90111969C911197892311968C93148221
:10414000DD24D394EE2009F4B5CFD093E002C093E0
:10415000DF021093E2020093E1021092E40254CFD6
:104160008150823068F3E11011C0D12CA3CFE2302E
:10417000D1F7E11096CFD0936E08C0936D081093DD
:10418000700800936F081092720872CFF12CD093D0
:10419000E002C093DF021093E2020093E102F0928A
:1041A000E40234CFB5E0BF1590F768CF0F93CF93FB
:1041B000C22F437055274230510519F14330510544
:1041C00019F1645041305105D1F088500E94DD1939
:1041D0008093F601E091F601E93160F4F0E0E055FA
:1041E000FD4F82858093F8018B3121F0CC2379F04B
:1041F000893009F4C0E08C2FCF910F910895885F2A
:10420000E5CF6D5F8A5FE2CF6D5F8650DFCF011132
:1042100006C0882379F3893029F0C1E0ECCF8130E2
:10422000D1F7E8CF0E949B1FF8CFCF92DF92EF9299
:10423000FF920F931F93CF93DF93182FC62FD0E0D9
:1042400086E0189FF0011124E35CF74FC280D38011
:10425000E080F18020E0AE01B601C7010E94AB16FC
:10426000811115C001E0111101C000E020E0AE0194
:10427000B601C7010E94D62091E08927DF91CF9136
:104280001F910F91FF90EF90DF90CF90089580E005
:10429000F5CFECE7F1E098E7DF011D929A95E9F799
:1042A00040EE53E0811123C0ACE7B1E030E020E004
:1042B000FA01E20FF31FE491EE23C1F0E053E03F77
:1042C00079F08E2F880FE80F81E08E0F8C9382E0BB
:1042D0008E0F11968C931197ED5F1296EC931297B7
:1042E0002F5F3F4F14962E31310511F70895FA01D3
:1042F00094914F5F5F4F9111FACF8150D3CF1F93AD
:10430000CF93DF930E94E9180E94F718D091010122
:10431000ED2FF0E0ED5BFE4D84910E94F016809150
:10432000140710921407823031F48091F50191E066
:1043300089278093F501C091F50112E01C0F212F10
:1043400041E65FE16CE070E083E390E00E949E153F
:10435000212F4FE559E168E170E08BE490E00E9485
:104360009E1526E02C0F4FE559E168E170E08BE1E6
:1043700090E00E949E152AE02C0F4FE559E164E27F
:1043800070E083E690E00E949E152EE02C0F4FE532
:1043900059E164E270E083E090E00E949E1580E4C1
:1043A0000E941A16882341F0D33030F482E00E9434
:1043B0003C1FDF5FD093010180E20E941A16882320
:1043C00051F0C0910101CC2331F082E00E943C1FEA
:1043D000C150C09301018CE00E941A16882389F015
:1043E00081E00E943C1FC0910101CF5FC093030197
:1043F0008C2F0E944921C23021F48091E7028093E2
:104400000101DF91CF911F9108958AEF9FEF909363
:1044100003028093020280E00E94492181E08093A0
:10442000FB018093FA011092030108950E9439184C
:104430008CE00E941A16882321F00E94471E0C94DB
:10444000052208950E9439180E94F7180E94E11A67
:104450008CE00E941A16882321F00E94471E0C94BB
:10446000052208950E94E9180E94F7188091F90129
:10447000811122C088E40E94F01680E40E941A167E
:10448000882331F082E00E943C1F84E08093F90190
:1044900080E20E941A16882329F082E00E943C1FC5
:1044A0001092F9018CE00E941A16882339F081E0FD
:1044B0000E943C1F0C94052280E6DDCF08950E94E7
:1044C000E9180E94F71883E08093FB018CE00E94BA
:1044D0001A16882329F081E00E943C1F0C940522C3
:1044E00008958091140710921407813021F40E94DE
:1044F000471E0E94052220E043E059E164E170E09C
:1045000081E390E00C94D2158091AF028770855FB3
:104510000E94492183E08093FB0181E08093FA01AE
:1045200086E08093030108950E9439180E94F718CD
:104530000E94AB178CE00E941A1681110C94842201
:1045400008950E947F1E0E94AC1B80910C02853052
:1045500038F48091E80280FF0E94F91C0C94AB179C
:1045600010920C02809109028F7B809309020E94B5
:104570008422F4CF81E28093FB0184E00E944921F0
:104580006091010270E090E080E022E049E00E944A
:104590003A1D6091FC017091FD018091FE019091A6
:1045A000FF0126E047E10C943A1D2F923F924F9273
:1045B0005F926F927F928F929F92AF92BF92CF92B3
:1045C000DF92EF92FF920F931F93CF93DF9380912F
:1045D00001028F5F80930102863028F186E00E94FD
:1045E00049216091FC017091FD018091FE01909143
:1045F000FF0126E048E10E943A1D8CE08093030110
:10460000DF91CF911F910F91FF90EF90DF90CF90AE
:10461000BF90AF909F908F907F906F905F904F90E2
:104620003F902F9008951092AF028CE080930B0280
:104630008AEF9FEF909303028093020283E390E05E
:10464000909305028093040284E290E09093070225
:104650008093060284E00E94431A8093000280E067
:104660000E94431A382E8DE0389E70011124E5E037
:10467000EE0EF11C81E00E94431A5701A80EB11CF6
:10468000CFE0D2E010E0812C912C95E0292E412C36
:10469000512C32014394311609F44DC0FE01822D94
:1046A00011928A95E9F760E0812F0E94671A88834A
:1046B00087E0C82ED12C05E0602F812F0E94671A59
:1046C000882369F02981D301C2010C2C04C0880F12
:1046D000991FAA1FBB1F0A94D2F7822B89830F5FF1
:1046E000E1E0CE1AD1080D3039F767E0812F0E9442
:1046F000671A082F0770053049F4892D8E0D0E9426
:10470000431A8A8393941F5F2596C5CF0630D8F34A
:10471000D82CDA0C8D2D0E94431A8B8381E08D0DED
:104720000E94431A8C8383948394073061F78B81B2
:1047300080688B83E8CF80E00E946F1A0E94BA22C3
:1047400089E05CCF3F924F925F926F927F928F92FF
:104750009F92AF92BF92CF92DF92EF92FF920F9310
:104760001F93CF93DF9300D01F92CDB7DEB70E9487
:104770007F1E0E94AC1B6091090265FD12C464FD9E
:1047800068C08091E80280FD46C00091020210914D
:10479000030260910602601B809104020E94DD19F1
:1047A000893110F480930B022091F901622F70E09F
:1047B0007B836A83FB01E55BFE4DF4900E94071644
:1047C0008F21F81609F46EC1EA81FB81E45BFE4D8E
:1047D000F4900E9407168F2191E0F81609F463C146
:1047E000EA81FB81E35BFE4DF4900E9407168F2166
:1047F00092E0F81609F457C18A819B81825B9E4D35
:10480000FC01F491F9830E9407162981822393E029
:10481000281709F448C188E00E941A16882329F055
:104820000E94BA2289E08093030184E00E941A1654
:10483000882379F03091AF023A8380910B029091F6
:104840000002391355C28C3009F052C288E08093BF
:1048500003018091090283FF29C490910D029F5F9B
:1048600090930D022091E8023091E90223703327E2
:10487000232B21F424E0822780930902913F40F00A
:1048800080910902877F84608093090210920D0253
:104890008091090284FDF0C08091E8029091E902C4
:1048A00066E070E00E94FB31892B09F0CFC06DE318
:1048B00078E07B836A8310E000E055E0652E67E0D6
:1048C000C62ED12C70E3A72EB12C33243394502E56
:1048D000E091AF026E9EF0011124E15FFD4F8181F6
:1048E00090E09601201B310B02C0959587952A9583
:1048F000E2F74C0171E08722992480FF9DC0AA81D4
:10490000BB8114962C91822F90E043E0959587957A
:104910004A95E1F7B82FB3707B2E277029836B2F50
:10492000802F0E941521882309F41FC4EA81FB818E
:10493000E080F18044244A94470CF1E082E090E06A
:10494000F41510F48EEF9FEFE80EF91EAA81BB81DB
:104950001196FC92EE9212968D919C91B1E0B71552
:1049600018F088248A94982C880E991EEA81FB817D
:1049700093828282682D8E2D0E94BB19882399F123
:10498000F981242D2370422EF130C1F0398132306B
:1049900051F5682D8E2D0E94DD19482F893108F4BC
:1049A000B5C3AA81BB8114966C9170E023E0759524
:1049B00067952A95E1F7B62FB3704B2E4714E1F1B6
:1049C000642D852D0E941521882369F0EA81FB81E1
:1049D0008481877EF8E04F9E20011124482AAA8115
:1049E000BB8114964C92B981B33031F58091E802C5
:1049F0009091E902B5010E94FB31892BE9F4809185
:104A0000DE02811119C083E00E943C1F3092DE0259
:104A1000EA81FB818081918190936E0880936D087B
:104A2000828193819093700880936F08848188714C
:104A300080937108109272082A813B812A5F3F4F50
:104A40003B832A830130110509F05DC38091E502A3
:104A5000882339F08091E80280FD03C081E00E9444
:104A6000C21F8091DE02882339F08091E80280FD28
:104A700003C080E00E94C21F0F900F900F90DF9143
:104A8000CF911F910F91FF90EF90DF90CF90BF904B
:104A9000AF909F908F907F906F905F904F903F90DE
:104AA0000C94AB1790E0309109023C7F392B39838D
:104AB00030930902C0900602D0900702A090040231
:104AC000B0900502E92EF12C21E0A701B601C50145
:104AD0000E94AB1681110EC0B601601B710B00E085
:104AE00021E0A701C5010E94D620811140C00E948B
:104AF000F91C91CE49814370242F30E0F901ED5A21
:104B0000FE4D64916A8380910B02681384CEE0911C
:104B1000AF0275E0E79FF0011124E15FFD4F808156
:104B200090E02C5F3F4FDC0102C0B595A7952A9518
:104B3000E2F7A0FF70CE02C0959587954A95E2F7FF
:104B400080FD69CEB981B062B0930902862F0E94C0
:104B5000361690930502809304028A810E942516DE
:104B6000800F911F909307028093060254CEE0912C
:104B7000F801E23091F070F0E83008F04CCE26E019
:104B8000E29FF0011124E35CF74F8481877082304B
:104B900009F041CE0E949B1F3ECE80914D08877048
:104BA000823009F45DC008F58823B9F1813009F03D
:104BB00032CE80910A028871883109F42CCE81E0CE
:104BC0000E943C1F80910A02885F80930A020E9423
:104BD0009F168091FC019091FD01A091FE01B09182
:104BE000FF010A96A11DB11D32C0833009F464C0D3
:104BF000843009F010CE81E00E943C1F0E949F1675
:104C00008091FC019091FD01A091FE01B091FF0106
:104C100088539F4FAF4FBF4F1AC080910A0285FD46
:104C2000FACD81E00E943C1F80910A02806280934D
:104C30000A020E949F168091FC019091FD01A091B3
:104C4000FE01B091FF018C599F4FAF4FBF4F809332
:104C5000FC019093FD01A093FE01B093FF01DBCD19
:104C600081E00E943C1F0E94921F80910802C09028
:104C7000FC01D090FD01E090FE01F090FF01833037
:104C800098F48F5F809308020E949F16E4E1CE0E95
:104C9000D11CE11CF11CC092FC01D092FD01E092FC
:104CA000FE01F092FF01B7CD0E949F16F2E3CF0EF6
:104CB000D11CE11CF11CEFCF81E00E943C1F8091D0
:104CC0000A02982F9770973009F4A5CD8F5F8093D3
:104CD0000A0281E08093F7018091FC019091FD012F
:104CE000A091FE01B091FF014E96A11DB11DAFCF65
:104CF0004091090243704983042F10E0B8016D5AB6
:104D00007E4D7B01FB01949198134AC00E94531A77
:104D1000D82EF98190E2F81398E080910A02282FAA
:104D200030E049814D1163C040E250E02423352337
:104D3000232B09F464C0891B80930A0269816D11D9
:104D400059C048EE53E060E070E08091FC01909122
:104D5000FD01A091FE01B091FF01840F951FA61FD8
:104D6000B71F8093FC019093FD01A093FE01B093C7
:104D7000FF018A8175E0879FF0011124E15FFD4FFB
:104D800081E090E0A0E0B0E0098004C0880F991FA6
:104D9000AA1FBB1F0A94D2F7809590818923808334
:104DA00090914D0840910B02F801E95BFE4D849112
:104DB000840FF701E490282F082E000C330B592F95
:104DC0005695569556955217130609F046C0592F19
:104DD0005770553021F5809109028068809309024F
:104DE0008BE08093030180E00E943C1F32CD48E1BC
:104DF00050E09CCF42E350E060E070E0A6CF80E05E
:104E00000E943C1F998188E09D1187E00E94492102
:104E100085E28093FB0181E08093FA01C1CF563097
:104E2000E0F081E0982790934D0885E02A81829FE9
:104E3000F0011124E15FFD4FA381A058A383AF735C
:104E40008A9FD0011124A15FBD4F848111969C914E
:104E50001197892711968C93C6CF4E1509F4F9CC7A
:104E6000EFEF893128F420553D4FD9011A96EC9186
:104E70008DEF8E0F853060F4EE2EF12CB6E0EB9FB7
:104E8000F0011124E35CF74F84818770813091F148
:104E90008091E5028111DDCC80910A02877009F4CE
:104EA000D8CC83E00E943C1F80910A0281508093FD
:104EB0000A0281E08093E5021092E40280910402EC
:104EC000909105029093E0028093DF0280910602A8
:104ED000909107022091020230910302821B930BF2
:104EE0009093E2028093E1028091090283708093A3
:104EF000E302AFCC128120812A83612F822F0E948E
:104F0000BB19882309F4A5CC612F8A810E94DD1981
:104F1000282F893108F09DCC3981311105C08530A9
:104F200008F497CC255012C04981423029F48431CD
:104F300008F08FCC2B5F0AC065E00E94EF316981D9
:104F4000613039F52150992309F483CC2983898173
:104F5000893108F07ECCE82F880FFF0BE055FD4F1C
:104F600082858B3109F075CC89810E94361626E046
:104F70002E9D80012F9D100D1124035C174FD80129
:104F80008D939C9389810E942516F80193838283D7
:104F900060CC7981733019F4943009F45ACC2F5FC6
:104FA000D5CF80910C02853038F48091E80280FDE5
:104FB00050CC0E94F91C4DCCF091AF02F983637084
:104FC0006F5F8F2F0E94671A8370E82FF0E0ED5A11
:104FD000FE4DE491E0930B02E63131F0F7EFEF2E56
:104FE000FF24FA94EE3021F4ADEDEA2EFF24FA947A
:104FF000F0920302E09202026091090263706F5F17
:1050000089810E94671A282F30E0359527953595BC
:1050100027953B832A832093AF0210910B02812FA7
:105020000E9436161A3021F026EF3FEF163111F4A8
:105030002AE030E0820F931F9093050280930402D0
:10504000812F0E942516163121F02BEF3FEF1E30E5
:1050500011F425E030E0820F931F8E0D9F1D909379
:1050600007028093060210920C028A810E946F1A36
:10507000809109028F7D80648093090287E080938C
:1050800003010F900F900F90DF91CF911F910F911F
:10509000FF90EF90DF90CF90BF90AF909F908F9058
:1050A0007F906F905F904F903F90089584FFF4CB76
:1050B0008AEF9FEF909303028093020285E00E94A3
:1050C00049216091FC017091FD018091FE01909158
:1050D000FF0126E046E10E943A1D83E08093FB0138
:1050E00081E08093FA0183E390E09093050280933E
:1050F000040285E190E090930702809306028AE023
:1051000080930301C5CB01E010E0E1CB80910B025D
:10511000662D0E94EF31382F292F842F0E94EF3106
:10512000381B832F291B922F432F330F550B57FF0B
:1051300003C0519541955109292F092E000C330BBD
:1051400037FF03C03195219531094217530734F0D9
:1051500092E0492E87FF32CC412C30CC442443943A
:1051600097FD2CCC83E0482E29CCB98182E0B23067
:1051700009F081E0870D8370E8E08E9FC001112463
:10518000AA81BB8114969C911497977E892B1496C3
:105190008C9329CCCF930E94E9180E94F718C091F4
:1051A0000101EC2FF0E0ED5BFE4D84910E94F016C2
:1051B00080E40E941A16882359F0C33048F481E035
:1051C0008C0F809301010E94501E82E00E943C1FC0
:1051D00080E20E941A16882361F0809101018823E1
:1051E00041F08150809301010E94501E82E00E9494
:1051F0003C1F8CE00E941A168823B1F081E00E94C7
:105200003C1FC091E60282E090E00E94B731C817CF
:1052100029F06C2F82E090E00E94BF3181E0809302
:105220000101CF910C940522CF9108951F920F9206
:105230000FB60F9211248F939F938091E10090916C
:10524000E100937F9093E10083FF0FC01092E9008B
:1052500091E09093EB001092EC0092E39093ED00BC
:1052600010920C0798E09093F00082FF22C093E028
:105270009093E9009091F200992319F09AE39093AA
:10528000E8009091FD06992341F09091FD06915020
:105290009093FD06911101C05D9A90910B0799239F
:1052A00041F090910B07915090930B07911101C021
:1052B000289A84FF18C08091E2008E7E81608093DE
:1052C000E2008091E1008F7E8093E1008091FE06F4
:1052D0008E7E80618093FE069F918F910F900FBE0E
:1052E0000F901F90189580FFF7CF8091E2008E7E7F
:1052F00080618093E2008091E1008E7E8093E100E6
:105300008091FE068E7E8160E5CF1F920F920FB6D0
:105310000F921124CF92DF92EF92FF920F931F937F
:105320002F933F934F935F936F937F938F939F93AD
:10533000AF93BF93EF93FF93CF93DF93CDB7DEB7D8
:105340006C97DEBFCDBF1092E9008091E80083FF2B
:1053500025C068E0CE0145960E94C51282EF809379
:10536000E8008D8987FF39C09091E80090FFFCCF5D
:10537000982F907609F034C19E894F89588D2F89D6
:10538000F88C911131C0803861F58091FC068093D2
:10539000F1001092F1008EEF8093E8006C960FB64A
:1053A000F894DEBF0FBECDBFDF91CF91FF91EF919B
:1053B000BF91AF919F918F917F916F915F914F912D
:1053C0003F912F911F910F91FF90EF90DF90CF9021
:1053D0000F900FBE0F901F9018959EEF9093E800CE
:1053E000C7CF1092F100D5CF913059F48111D3CFAE
:1053F0004130510581F68091FC068D7F8093FC063B
:10540000CACF933049F48111C6CF4130510519F606
:105410008091FC068260F2CF953041F48091E800E3
:1054200080FFFCCF20682093E300B5CF963009F0D1
:10543000A9C00B8D1C8D22E01092E9001092FA0693
:105440001092F906F2122EC01092F8061092F7068A
:105450000E9494121F8299E09983FA8291E09E83C0
:1054600090EA98879AEF99872091F9063091FA0689
:10547000275F3F4F3C832B838D831092E90010926E
:10548000FA061092F9061093F8060093F70649E021
:1054900050E0BE016F5F7F4F80E00E946E120E945D
:1054A000941279CF1093F8060093F7060E947811B2
:1054B000DC0112960D911C910115110509F451C1E1
:1054C000D801ED91FC910480F581E02DBE016B5E69
:1054D0007F4FC8010995009709F03EC1F80100858A
:1054E0001185EACFF3E0FF120EC08F89882309F4FB
:1054F00040C0823061F440E860E182E192E20E94C3
:105500003B12811148CF81E28093EB0047CF81307D
:1055100029F440E86BE086E092E2F1CF833099F71E
:105520000E947811DC011296ED90FC908E010F5FC5
:105530001F4F6801E114F10479F0D701ED91FC915E
:105540000680F781E02DB801C7010995080F111DEC
:10555000F701E084F184EECFD8011C92F6010190AE
:105560000020E9F73197BF016C197D0940E0C601C1
:10557000C6CF60EF71E2FB01449150E080E80E94E9
:105580006E1209CF973009F4BECF983021F481E034
:105590008093F10000CF993009F0FDCE837009F0BF
:1055A000B2CFE3E1F1E081E031E096E32191222303
:1055B00071F08093E9003093EB00DF0111972C919B
:1055C0002093EC009093ED008F5F873079F78EE7A2
:1055D0008093EA001092EA008F8980930C07DBCE5B
:1055E0008B8D9C8D1092E9001092FA061092F906AC
:1055F0009093F8068093F706898D811192C08E8969
:105600009D89913A49F4813209F07DCF47E050E01D
:1056100068E071E080E0B3CF913209F074CF83325B
:1056200069F48F89988DB0E0A0E080930401909395
:105630000501A0930601B0930701ADCE803269F455
:105640008091E80082FFFCCF67E088E091E00E9453
:10565000C5128BEF8093E8009ECE823209F09BCE7C
:105660008F8980930F01EEEFFFE7859194918B3F37
:105670009C4D51F1E0E0F8E0809108019091090122
:10568000A0910A01B0910B01803B9440A105B105A6
:10569000F1F480910F0180FD1AC0EE3F8AE0F80717
:1056A00089F587E797E791838083809160008093F5
:1056B000FB0688E19BE00FB6F894A8958093600004
:1056C0000FBE9093600067CEEEEFFAE0D5CF8081F9
:1056D00091818737974709F05ECEA8958091600049
:1056E0008861809360008091FB0680936000EE3FAC
:1056F0002AE0F20789F08091FE0A9091FF0A9183D7
:10570000808349CE808191818737980751F29093A9
:10571000FF0A8093FE0AC5CF1092FF0A1092FE0A7C
:105720003ACE0E947811DC0112960D911C91011560
:10573000110509F4E8CED801ED91FC910190F081BA
:10574000E02DBE016B5E7F4FC8010995811123CE0C
:10575000F80100851185EBCF181619060CF41BCE45
:10576000D2CEF1E0FF12BECE64EF71E204CF1F9201
:105770000F920FB60F9211242F933F938F939F9305
:10578000AF93BF938091EF069091F006A091F10640
:10579000B091F2063091EE0623E0230F2D3758F535
:1057A0000196A11DB11D2093EE068093EF06909304
:1057B000F006A093F106B093F2068091F306909163
:1057C000F406A091F506B091F6060196A11DB11D53
:1057D0008093F3069093F406A093F506B093F60633
:1057E000BF91AF919F918F913F912F910F900FBEDD
:1057F0000F901F90189526E8230F0296A11DB11D4A
:10580000D2CF2F923F924F925F926F927F928F9260
:105810009F92AF92BF92CF92DF92EF92FF920F933F
:105820001F93CF93DF93812C3DEEE32E37E0F32ED1
:1058300049E0C42E4DE3D42EAA24AA94BA2C10E039
:1058400000E022242394312C502E811021C180911C
:10585000120790E0002E02C0959587950A94E2F712
:1058600020911307222349F180FD09C085E0809F24
:10587000F001819FF00D1124E35DFE4F10820F5F58
:105880001F4F0430110501F7F1E08F1213C0DF91B3
:10589000CF911F910F91FF90EF90DF90CF90BF902D
:1058A000AF909F908F907F906F905F904F903F90C0
:1058B0002F90089588248394C2CF26E3209FE0018F
:1058C000219FD00D1124CB5ED84F80959095282F25
:1058D0002170922EEEA5EE23B1F08FA59E2F93702E
:1058E000891708F4DDC0F0E0F595E795F595E795A3
:1058F000EE0FFF1FE05AFC4F8591949190933E016B
:1059000080933D011FA69CA99923F9F08DA9292F09
:105910002F77022E000C330B821713060CF4CAC02B
:105920008A8197FFC0C081508A838A818111BDC05E
:1059300081E08A83EA81F0E0EE0FFF1FE05AFC4F1E
:10594000859194919EA38DA31DAA58A5552319F165
:105950003AA529A5311119C0422F407426FFADC0C8
:105960008DA19EA1850F911D57FD9A9527FDAAC077
:1059700097FDA6C0442309F4A7C0863B44E29407E0
:1059800014F085EB94E29EA38DA32F73321708F0D9
:105990009DC03F5F3AA79BA5992371F0EA81EE2352
:1059A00059F08DA52CA5482F4F71322F3F71431709
:1059B00008F08EC08F5F8DA749A9442311F13AA941
:1059C000632F607436FFB0C08DA19EA12BA950E05B
:1059D00027FFADC0840F951F97FDACC0662309F467
:1059E000ADC0863BE4E29E0714F085EB94E29EA3F3
:1059F0008DA33F71822F8F71831708F0A1C02F5F95
:105A00002BAB89A19AA1009709F4A1C08F3F9807F9
:105A100019F001979AA389A3992009F494C280915F
:105A2000110190E0002E02C0959587950A94E2F747
:105A300080FD89C28FA123E0521278C290E0959533
:105A4000879580933C0181101FCF80911101807F49
:105A500009F015CF8091350790916B07890F9091D0
:105A6000A107890F9091D707890F09F46FC2C5E18B
:105A7000D7E088A10E94C41D998388831AA219A225
:105A8000E696EC16FD06A9F780EF80931101F7CE9C
:105A9000809110018013F3CE982CC5E4D1E01ACF89
:105AA0008F5F8FA730CF8F5F3FCF803408F442CF16
:105AB0008FE33FCF8F5F8DAB48CF8FA190E052CF68
:105AC00090E080E041115FCF8FA35FCF1AA663CF34
:105AD000807EF1F480E28DA78DA5807E51F09F3FFE
