:100000000C94DD100C9405110C9405110C94051141
:100010000C9405110C9405110C9405110C94051108
:100020000C9405110C9405110C94FB280C946A296E
:100030000C9405110C9405110C9405110C940511E8
:100040000C9405110C9405110C9405110C940511D8
:100050000C9405110C9405110C9405110C949C2B17
:100060000C9405110C9405110C9405110C940511B8
:100070000C9405110C9405110C9405110C940511A8
:100080000C9405110C9405110C9405110C94051198
:100090000C9405110C9405110C9405110C94051188
:1000A0000C9405110C94922F0C940511403F41F8CB
:1000B00031A12EA12AA12CA19F403F41F852015409
:1000C000000DA79F403F41F814A69F403F41F836DE
:1000D000A438AA9F403F01AF9F06020108026000BA
:1000E0000710000000000000000000C4000008012C
:1000F0001058A89C948C847C1006000000C2A28A30
:1001000067000000004000001400000065000000CF
:100110000000100200000000006500000000001058
:100120000E00000000006600000000000003011F38
:100130000A02012209600007080000008119490035
:100140000000C000000C016200A33A8A00000030E9
:10015000020F00007900663393000000F0061710CC
:100160000953B0124383000000100E00000000008D
:10017000A53C5C6C8C00C00000180D29A96042826F
:100180005B0000301623000072006521A40000000F
:1001900040000020000000633191000000D41E00E8
:1001A00024197B00214A9A00000010220000000060
:1001B000000000000000000604041E0802011907E8
:1001C00040000004000000A14181210000B0020BAA
:1001D00000117A00663B8B00000080000000055192
:1001E0000065329200000050120018000000234405
:1001F0006484A4006000070C00A929105B6B000058
:100200000000000000007300654A9A000000320EF2
:100210001F00004000A221C1000000800000001962
:1002200000000000000000000502031E0800001A84
:100230000760000B04000000812141A10000500272
:10024000000C007900AB3B8B000000C000001001E7
:100250005000A0335B8300003006170000720021BD
:100260004262920000900A0000190000643C5C6C3D
:100270008C00800000000DA3001242820000006488
:1002800000131C002900AB4999000000101A00005F
:100290000000000000000000000C02012A0B6000BA
:1002A0000B040000008121A100000030020F0000BB
:1002B0000000AB3141596981C00000100151006656
:1002C0003B8B000000C0000018057B2B13426282AC
:1002D0000000300A17000072006524A400000080AE
:1002E00000000011A900603C5C6C8C00300E1F0007
:1002F000005000A14181000000C0000020197900D9
:10030000653292000000301E2B00007222144B9BBD
:100310000000004000002800000063418100000050
:10032000D426002C21A300215A6A000000102A00C4
:10033000000000000000000000000704051E00008F
:1003400006011501260137014A015D01720188018C
:100350009F01B801D201EE010B022A024B026E028C
:100360009302BA02E40210033F037003A403DC0308
:10037000170455049704DD0427057505C8052006F4
:100380007D06E0064907B8072D08A9082D09B90917
:100390004D0AEA0A900B400CFA0CC00D910E6F0F3B
:1003A0005A1053115B1272139A14D4152017801827
:1003B000F519801B231DDE1EB420A622B5242020A3
:1003C0002020434F4E462053444658202020494E7B
:1003D000464F20504C41590020425554544F4E2016
:1003E000534348454D45202020204E3C3E5320207D
:1003F000453C3E5700202020204D534658204D5567
:10040000534320202053444658204D555445002046
:100410004352454154454420425920535447204FAC
:100420004E45424954204A4F335249002020204C27
:100430004556454C20202020202020202053434F8B
:1004400052453A0047414D45204F56455220203AEB
:100450003C202053434F52453A0044524F494420D8
:1004600045534341504544203A3E202053434F5288
:10047000453A004143434553532044454E49454482
:100480003A2055534520574849544520434152444A
:10049000004143434553532044454E4945443A2087
:1004A00055534520424C41434B2043415244004464
:1004B000524F4944205553454420412054454C4512
:1004C000504F5254204745542048494D00574154FD
:1004D00043482049542044524F494420464F554EEA
:1004E0004420412053574954434800414C455254FD
:1004F00020414C4552542044524F494420455343D7
:100500004150494E470047455420544841542044E7
:10051000524F4944204E4F5700444F204E4F5420D5
:100520004C455420544841542044524F494420459E
:1005300053434150450049542053544F4C45205497
:10054000484520444541445354415220504C414E6B
:100550005300544849532049532041204E4F2053C3
:100560004D4F4B494E4720464143494C4954590051
:100570004152454120353120495320494E204C4FAE
:10058000434B444F574E0044524F4944205133454A
:100590003320504C45415345205245504F52542032
:1005A0004E4F570054484520455849542049532040
:1005B0005448415420574159203D3D3D3D3E0000A7
:1005C000D400CB00C400B900AC00180800C0C0F0D3
:1005D000F0F830F8183C0C1E0C1E0C1E060F060F0F
:1005E000060F060F060F060F060F060F0C1E0C1E39
:1005F0000C1E183C30F8F0F8C0F000C00003030FE8
:100600000F1F0C1F183C30783078307860F060F0A5
:1006100060F060F060F060F060F060F030783078AA
:100620003078183C0C1F0F1F030F000399022C0297
:10063000BB013001D9000808000000808080808064
:10064000A0305058C8C064060E8B99993D27260CDF
:100650008888C8486020302060C0C00000000000CA
:100660000000000000C0C04040404000181838485A
:10067000D8E171333226262E0B190000000001014B
:100680000101000000000101030206040404041635
:10069000121B090C8CFEF2322624BC98C04040404C
:1006A0004040C0800000000060F09090C0444C0EBC
:1006B0001A92BA08486D293B120604040407030085
:1006C000000100000000000000030704040404040B
:1006D00026321359C8ECA436121808089890F06016
:1006E0000A282040402090CCE2FA797D1717080AAA
:1006F0000505020201015050E8E8F4F4FAFA7DBD64
:10070000F0F8F3F307037B7CFE7F0F03010602037F
:10071000000000007D79FAE2CC90204040200101E9
:10072000020205050A081717BD7DFAFAF4F4E8E895
:1007300050507FFE7C7B0307F3F3F8F000000000CD
:1007400003020601030FD0D0E8E8740482BA5D5DAD
:1007500011110A0A050502020101D0D0E8E874046B
:1007600082BADDDDC1C1EEEE770783BBDDDD0101BD
:1007700006060303010100005D5DBA820474E8E827
:10078000D0D00101020205050A0A1111DDDDBA828D
:100790000474E8E8D0D0DDDDBB830777EEEEC1C19D
:1007A000000001010303060601011610000000000D
:1007B000000000000000000080808080C0C0C0C039
:1007C000E0E0E0E0C0C0C0C08080808000000000A9
:1007D0000000000000000000040404040E0E0E0ED1
:1007E0001F1F1F1F3F3F3F3F7F7F7F7FFFFFFFFF99
:1007F0007F7F7F7F3F3F3F3F1F1F1F1F0E0E0E0E4D
:10080000040404040000000000F0E0F010F8D0F848
:1008100038FCB8FC7CFE7CFEFEFFFEFF7CFE7CFE0E
:10082000B8FCB8FC50F850F8A0F000F00000000050
:100830000000000000070307000F070F001F0F1F35
:10084000003F1F3F007F2A7F153F153F0A1F0A1FE9
:10085000050F050F0207000700000000F0F008F880
:10086000D0F0A0E040C0FEFE01FFC6FE38F806FE54
:10087000F9FFC6FE38F870F08CFC02FEFCFCC0C02C
:1008800030F0CCFC02FEFCFC04040707080F0F0F3D
:100890001E1F1D1F203F3F3F7C7F437FFFFF8FFFB9
:1008A000717F7E7F3F3F203F1B1F1C1F0F0F080FD4
:1008B00007070404000000000000808040C020E022
:1008C00010F008F804FC02FEABFF55FF02FE04FC2A
:1008D00008F810F020E040C0808000000000000018
:1008E00004040606090F080F101F101F203F203FA9
:1008F000407F407FAAFFD5FF407F407F203F203FC1
:10090000101F101F080F090F060604040000000046
:10091000000000000080008000C080C000E0C0E057
:1009200000E0E0E000E0C0E000C080C000800080A7
:100930000000000000000000000E040E001F0E1F4B
:10094000003F1F3F207F2F7F70FF77FFF8FFFBFFE7
:1009500070FF77FF207F2F7F003F1F3F001F0E1F7C
:10096000000E040E00000000000000000000000067
:100970008080808040C040C0A0E0A0E040C040C077
:100980008080808000000000000000000000000067
:10099000040404040A0E0A0E151F151F2E3F2E3FD5
:1009A0005B7F5B7FB5FFB5FF5B7F5B7F2E3F2E3F9D
:1009B000151F151F0A0E0A0E04040404000000008F
:1009C000000000000000000080808080C0C0C0C027
:1009D00060E060E0C0C0C0C0808080800000000097
:1009E0000000000000000000040404040E0E0E0EBF
:1009F0001B1F1B1F353F353F6E7F6E7FDBFFDBFF0D
:100A00006E7F6E7F353F353F1B1F1B1F0E0E0E0E78
:100A100004040404000000000000000000000000C6
:100A20000080008080C080C0C0E0C0E080C080C086
:100A300000800080000000000000000000000000B6
:100A400000040004040E040E0E1F0E1F1B3F1B3F6C
:100A5000357F357F6EFF6EFF357F357F1B3F1B3F38
:100A60000E1F0E1F040E040E000400040A208080D6
:100A7000000050500000AAAA000000000000000082
:100A80000000AAAA000055550000AAAA0000000014
:100A9000000000100000AAAA000055550000AAAAF4
:100AA000000000000000000000000A0A0000050528
:100AB0000000020200000000000000000000000032
:100AC0000000000000000000AAAA00005050000032
:100AD000808000000010000000000000AAAA0000B2
:100AE00055550000AAAA0000000000000000000008
:100AF000AAAA000055550000AAAA000000000000A4
:100B00000000000002020000050500000A0A0000C3
:100B100000A000000054000000AA000000550000E2
:100B200000AA000000AA00000055000000AA000072
:100B30000055001000AA000000AA000000550000A7
:100B400000AA00000055000000AA000000AA000052
:100B500000550000002A000000150000000A00AA4D
:100B600000000055000000AA00000054000000A092
:100B7000000000AA00100055000000AA0000005567
:100B8000000000AA000000AA00000055000000AA12
:100B900000000055000000AA0000000A0000001537
:100BA0000000002A00000055000000AA00001710F5
:100BB000000000000000008080C0C0E0C0E0E0F065
:100BC000F0F870F878FCB8FCDCFEDCFEEEFFECFE22
:100BD00074FE70FC78FCF0F8F0F8E0F000E000F84B
:100BE000F8FEFEFFFFFF1FFFE7FFFBFF7DFF1EFF7D
:100BF0000FFF07FF03FF03FF01FFFEFFFEFFFFFFE5
:100C0000FFFFFFFF00FFFFFFFFFF00FF00E0E0F03E
:100C1000F0F8F0F878FC70FC74FEECFEEEFFDCFE01
:100C2000DCFEB8FC78FC70F8F0F8E0F0C0E0C0E062
:100C300080C0008000000000000000FFFFFFFFFFF9
:100C400000FFFFFFFFFFFFFFFEFFFEFF01FF03FFAF
:100C500003FF07FF0FFF1EFF7DFFFBFFE7FF1FFFE7
:100C6000FFFFFEFFF8FE00F800000000000000801B
:100C700080C0C0E0C0E0E0F0F0F870F878FCB8FCAC
:100C8000DCFEDCFEEEFFECFE74FE70FC78FCF0F89F
:100C9000F0F8E0F000E000F8F8FEFEFFFFFF1FFFB5
:100CA000E7FFFBFF7DFF1E7F0F1F070F03070307F3
:100CB00001FFFEFFFEFFFFFFFFFFFFFF00FFFFFF43
:100CC000FFFF00FF00E0E0F0F0F8F0F878FC70FCC7
:100CD00074FEECFEEEFFDCFEDCFEB8FC78FC70F887
:100CE000F0F8E0F0C0E0C0E080C00080000000004C
:100CF000000000FFFFFFFFFF00FFFFFFFFFFFFFF00
:100D0000FEFFFEFF01FF03070307070F0F1F1E3F34
:100D10007DFFFBFFE7FF1FFFFFFFFEFFF8FE00F870
:100D20000820000000000000000000FFFFFFFFFFA0
:100D300000FF000000000000000000FFFFFFFFFFB9
:100D400000FF000000000000000000FFFFFFFFFFA9
:100D500000FF0000000000000000007F1F3F1F3F59
:100D6000001F00FFFFFFFFFF00FF0000000000006A
:100D7000000000FFFFFFFFFF00FF00000000000079
:100D8000000000FFFFFFFFFF00FF00000000000069
:100D90000000001F1F3F1F3F003F00000000000039
:100DA000000000FFFFFFFFFFFFFF00FFFFFFFFFF4F
:100DB00000FF00FFFFFFFFFFFFFF00FFFFFFFFFF40
:100DC00000FF00FFFFFFFFFFFFFF00FFFFFFFFFF30
:100DD00000FF0007070F070F0F1F003F1F3F1F3FB8
:100DE000001F00FFFFFFFFFF00FFFFFFFFFFFFFFF0
:100DF00000FF00FFFFFFFFFF00FFFFFFFFFFFFFF00
:100E000000FF00FFFFFFFFFF00FFFFFFFFFFFFFFEF
:100E100000FF001F1F3F1F3F003F0F1F070F070F5F
:100E200000070F2000FF00FF00FF00FF00FF00FF92
:100E3000FFFF8FFF4FFF1FFFFFFF00FFFFFFFFFFC1
:100E400000FF00FF00FF00FF00FF00FF00FFFFFFAB
:100E5000FFFFFFFFFFFFFFFF00FFFFFFFFFF00FFA0
:100E600080FFC0FFC0FFE0FFE0FFF0FFF7FFEFFFF4
:100E7000EFFF5FFF5FFF007F3F7F1F3F003F0F1FC0
:100E8000070F070F03070307010301030001000118
:100E900000000000000000000000000000FFFFFF55
:100EA000FFFF00FFFFFF1FFF4FFF8FFFFFFF00FF50
:100EB00000FF00FF00FF00FF00FF00FFFFFFFFFF3C
:100EC00000FFFFFFFFFFFFFFFFFFFFFF00FF00FF2F
:100ED00000FF00FF00FF00FF003F1F3F3F7F007F3C
:100EE0005FFF5FFFEFFFEFFFF7FFF0FFE0FFE0FFC7
:100EF000C0FFC0FF80FF00000000000000000000F5
:100F00000000000100010103010303070307070FAD
:100F1000070F0F1F0000000000000000000000FF8E
:100F2000FFFF8FFF4FFF1FFFFFFF00FFFFFFFFFFD0
:100F300000FF0000000000000000000000FFFFFFB5
:100F4000FFFFFFFFFFFFFFFF00FFFFFFFFFF00FFAF
:100F500080C0C0E0C0E0E0F0E0F0F0FFF7FFEFFF9E
:100F6000EFFF5FFF5FFF007F3F7F1F3F003F0F1FCF
:100F7000070F070F03070307010301030001000127
:100F800000000000000000000000000000FFFFFF64
:100F9000FFFF00FFFFFF1FFF4FFF8FFFFFFF00FF5F
:100FA0000000000000000000000000FFFFFFFFFF46
:100FB00000FFFFFFFFFFFFFFFFFFFFFF00FF00003D
:100FC0000000000000000000003F1F3F3F7F007F47
:100FD0005FFF5FFFEFFFEFFFF7FFF0FFE0F0E0F0F4
:100FE000C0E0C0E080C00000000000000000000081
:100FF0000000000100010103010303070307070FBD
:10100000070F0F1F100518151015180F5005501554
:101010005F15550F51265936513659300E260E366A
:101020001D361330081000FE00FE38FE38FE38FE74
:1010300000FE00FE000000270027022700270227ED
:10104000002700270000000000FF1CFF38FE38FECC
:1010500000FC000000000000001301270027024FE1
:10106000004F000000000000000000FF1CFF00FC1B
:10107000000000000000000000000013012F004FDE
:1010800000000000000000000000000000FF000061
:10109000000000000000000000000000004F000001
:1010A0000000000000000000000000FC1CFF00FF2A
:1010B00000000000000000000000004F012F00139E
:1010C000000000000000000000FC38FE38FE1CFF9D
:1010D00000FF000000000000004F024F0027012722
:1010E00000130000000000FEFCFE3CFE3CFE3CFE47
:1010F000FCFE00FE0000002703270227022702272C
:10110000032700270000000000FFFEFF3CFEF8FE62
:1011100000FC000000000000001301270227074F19
:10112000004F000000000000000000FFFCFF00FC7A
:10113000000000000000000000000013012F004F1D
:1011400000000000000000000000000000FF0000A0
:10115000000000000000000000000000004F000040
:101160000000000000000000000000FCFEFF00FF87
:1011700000000000000000000000004F012F0013DD
:10118000000000000000000000FCF8FE3CFEFEFF36
:1011900000FF000000000000004F074F022701275A
:1011A00000130000000000FCA8FCA8FEA0FE80FECA
:1011B00000FC00FC0000002702270227022702276C
:1011C000022700270000000000FE54FEA0FE00FEE3
:1011D00000F8000000000000001301270227044F60
:1011E000004F000000000000000000FE00FE00F8BC
:1011F000000000000000000000000013002F004F5E
:1012000000000000000000000000000000FE0000E0
:10121000000000000000000000000000004F00007F
:101220000000000000000000000000F800FE00FECA
:1012300000000000000000000000004F002F00131D
:10124000000000000000000000F800FEA0FE54FEB8
:1012500000FE000000000000004F044F022701279D
:101260000013000000000038007C00FE08FE08FEAD
:10127000107C00380000002000200020002000200A
:101280000020002000000000001C00FE08FE20FEE0
:10129000007000000000000000100020002000404E
:1012A00000400000000000000000001C00FE007074
:1012B00000000000000000000000001000200040BE
:1012C00000000000000000000000000000FE000020
:1012D00000000000000000000000000000400000CE
:1012E00000000000000000000000007000FE001C74
:1012F000000000000000000000000040002000107E
:101300000000000000000000007000FE08FE08FE63
:10131000001C0000000000000040004000200020F1
:1013200000100000000000FCF8FC00FCA8FCA8FC79
:10133000F8FC00FC000000270327002702270227F3
:10134000032700270000000000FEFCFEA8FCF0FCC4
:1013500000F8000000000000001301270227074FDB
:10136000004F000000000000000000FEF0FE00F84A
:10137000000000000000000000000013032F004FD9
:1013800000000000000000000000000000FE00005F
:10139000000000000000000000000000004F0000FE
:1013A0000000000000000000000000F8F0FE00FE59
:1013B00000000000000000000000004F032F001399
:1013C000000000000000000000F8F0FCA8FCFCFE9B
:1013D00000FE000000000000004F074F0227012719
:1013E00000130000000000F848FC48FC9CFE9CFE36
:1013F00048FC48FC00F8003F017F017F02FF02FF2C
:10140000017F017F003F00F888FC88FC1CFE1CFE69
:1014100088FC88FC00F8003F027F027F05FF05FF83
:10142000027F027F003F00F808FC08FC1CFE1CFE47
:1014300008FC08FC00F8003F057F057F0AFF0AFF53
:10144000057F057F003F00F808FC08FC1CFE1CFE21
:1014500008FC08FC00F8003F0A7F0A7F14FF14FF15
:101460000A7F0A7F003F00F808FC08FC1CFE1CFEF7
:1014700008FC08FC00F8003F147F147F28FF28FFB9
:10148000147F147F003F00F808FC08FC1CFE1CFEC3
:1014900008FC08FC00F8003F287F287F50FF50FF21
:1014A000287F287F003F007858FC5CFEBEFFBEFF0F
:1014B0005CFE58FC0078003C307E307E60FF60FFB0
:1014C000307E307E003C007858FC5CFEBEFFBEFFE4
:1014D0005CFE58FC0078003C307E307E60FF60FF90
:1014E000307E307E003C007858FC5CFEBEFFBEFFC4
:1014F0005CFE58FC0078003C307E307E60FF60FF70
:10150000307E307E003C007840FC40FE80FF80FF53
:1015100040FE40FC0078003C307E307E60FF60FF83
:10152000307E307E003C007840FC40FE80FF80FF33
:1015300040FE40FC0078003C307E307E60FF60FF63
:10154000307E307E003C007840FC40FE80FF80FF13
:1015500040FE40FC0078003C307E307E60FF60FF43
:10156000307E307E003C008080C0C0E0E0F0E0F0E3
:10157000C0E080C00080003F3D7F3D7F7BFF7BFF60
:101580003D7F3D7F003F008080C0C0E0E0F0E0F0A4
:10159000C0E080C00080003F3D7F3D7F7BFF7BFF40
:1015A0003D7F3D7F003F008080C0C0E0E0F0E0F084
:1015B000C0E080C00080003F3D7F3D7F7BFF7BFF20
:1015C0003D7F3D7F003F008000C000E000F000F064
:1015D00000E000C00080003F027F027F04FF04FFA4
:1015E000027F027F003F008000C000E000F000F0BA
:1015F00000E000C00080003F027F027F04FF04FF84
:10160000027F027F003F008000C000E000F000F099
:1016100000E000C00080003F027F027F04FF04FF63
:10162000027F027F003F0108001F111F111F101DC4
:10163000151711151F07041F17151D1F151D010173
:101640001F1F151F17151F000A00100A00040A119A
:101650000A0A0A110A040115020E17161F051F1F98
:10166000150A1F11111F110E1F15111F05011F1142
:101670001D1F041F111F1119111F1F06191F101004
:101680001F071F1F011F1F111F1F05070F091F1F06
:10169000051A17151D011F011F101F0F100F1F1C0A
:1016A0001F1B041B071C071915130508FEFFFFFF6E
:1016B000FEFEBFBFBFFEFEAFAFAFFEFEABABABFEED
:1016C00007081F11151511111F07081F19191F1FD2
:1016D0001F1F05080E1F1D190E020800FFFFFF182F
:1016E0000000050010001B00210026006C007400A3
:1016F0007D008C00A700AC00B100C000CF00F0005E
:10170000F600FC000B0111015A01620166016C0137
:101710000612001640009D249F41FA0DA741F419BE
:10172000A314A3FE41F40DA30DA314A319A3FEFD5E
:101730000201FC02FEFC01FC02FEFC02FD0103FCB6
:10174000044CFEFC044CFCFC044DFC04FD0103FCB9
:10175000044CFEFC044CFCFC044C03FC04FD0103A3
:101760004C07FC044C05FC044C03FD0104FD010383
:101770004C07FC044C05FC044C03FC044DFC04FE2B
:101780004030FD0203FD02019E07130017FD010515
:101790009F31A72FA731A72CA728A72CA725AFFEDD
:1017A00031A733A734A733A734A731A733A731A76D
:1017B00033A72FA731A72FA731A7FE2DA731AFFE43
:1017C00033A734AFFE38A736A738A734A72FA734DE
:1017D000A72CAFFE31A72FA731A72CA728A32CA792
:1017E00025B3FE31A733A734A733A334A734A731D9
:1017F000A333A731A333A733A72FA331A72FA33137
:10180000A731A3FEA32DA331AFFEA333A334AFFEB4
:1018100038A736A738A734A72FA334A72CB3FE4088
:1018200000DFDFDFCF403041E8FD0108FC09FC0AA2
:10183000FD0108FC09FC0BFD010C4C07FC09FC0A2E
:101840004DFD010C4C07FC09FC0B4DFD010DFC0E80
:10185000FC0FFD010DFC0EFC10FD01114C07FC0EF0
:10186000FC0F4DFD01114C07FC0EFC104D9F49046F
:10187000402041FAAFFEFD0314FEFD0215FD0214E7
:10188000FC14FD0F15FC14FD0F159F0208001F002E
:101890001F1E1800C038C6E9ADE1D1DDDDE1FDFD58
:1018A000FDFDFDFDFDFDFDFDFDF5BDF9C638C215D3
:1018B000020041060808C84848D000F81FDF5F5FF3
:1018C0009F3FFF18C05048080808086661000820BC
:1018D0005088502003813943988A888B88898A8868
:1018E0008A889B423A034012381000020010180008
:1018F000F0F0F8F0F8F8FCF8FCFCFEFCFEFEFFFE51
:10190000FFFCFEFCFEF8FC80F800800000000000F8
:10191000FFFFFFFFFF7FFFBFFF3FFFFFFFFFFFFF57
:10192000FFFFFFFFFFFFFFFFFFFFFFFCFF00FC00CB
:101930000F0F1F0F1F1C3F1D3F3E7F3F7F7FFF7F0D
:10194000FF3F7F3F7F1F3F1F3F0F1F0F1F000F00F5
:10195000000000008080F8F8FCFCFEFCFEFEFFFEAC
:10196000FFFCFEFCFEF8FCF8FCF0F8F0F800F000DC
:10197000FCFCFFFFFFFFFFFFFFFFFFFFFFFFFFFF7D
:10198000FFFFFF3FFFBFFF7FFFFFFFFFFF00FF00E5
:101990000F0F1F0F1F1F3F1F3F3F7F3F7F7FFF7FA7
:1019A000FF3F7F3E7F1D3F1C3F0F1F0F1F000F009B
:1019B0000000000000008080C0C0E0C0E0E0F0E077
:1019C000F0F0F8F0F8F8FC78FC70F8F0F800F000AF
:1019D000E0E0F8F8FCFCFF7FFF7FFFFFFFFFFFFF69
:1019E000FF41FF6CFF20FF36FF10FFFFFF00FF00ED
:1019F0000F0F1F0F1F1F3F1C3F3B7F387F7FFF7F55
:101A0000FF207F377F163F1A3F081F0F1F000F0070
:101A1000F0F0F870F878FCF8FCF0F8F0F8E0F0E09E
:101A2000F0C0E0C0E080C0008000000000000000C6
:101A3000FFFFFF10FF36FF20FF6CFF41FFFFFFFF9E
:101A4000FFFFFF7FFF7FFFFCFFF8FCE0F800E000F6
:101A50000F0F1F081F1A3F163F377F207F7FFF7F22
:101A6000FF387F3B7F1C3F1F3F0F1F0F1F000F00E2
:101A70008080C0C0E0E0F0F0F8F8FCFCFE54FFAA63
:101A8000FFFCFEF8FCF0F8E0F0C0E080C000800051
:101A900008081D083D1D7F5DFFB3FFB3FF65FF66AE
:101AA000FFB3FFB3FF5DFF1D7F083D081D00080069
:101AB000080008001C001C003E003F017F027F015F
:101AC0007F017F003F003E001C001C000800080052
:101AD0008080C0C0E0E0F0F0F8F8FCFCFE54FFAA03
:101AE000FFFCFE78FCB0F8E0F0C0E080C0008000B1
:101AF00008081D083D1D7F5DFFB3FFB3FF65FF664E
:101B0000FFB3FFB3FF5DFF1D7F083D081D00080008
:101B1000080008001C001C003E003F017F027F01FE
:101B20007F017F003F003E001C001C0008000800F1
:101B30008080C0C0E0E0F0B0F878FCFCFE54FFAA62
:101B4000FFFCFE78FC30F8E0F0C0E080C0008000D0
:101B500008081D083D1D7F5DFFB3FFB3FF65FF66ED
:101B6000FFB3FFB3FF5DFF1D7F083D081D000800A8
:101B7000080008001C001C003E003F017F027F019E
:101B80007F017F003F003E001C001C000800080091
:101B90008080C0C0E0E0F030F878FCFCFE54FFAA82
:101BA000FFFCFEF8FCF0F8E0F0C0E080C000800030
:101BB00008081D083D1D7F5DFFB3FFB3FF65FF668D
:101BC000FFB3FFB3FF5DFF1D7F083D081D00080048
:101BD000080008001C001C003E003F017F027F013E
:101BE0007F017F003F003E001C001C000800080031
:101BF00000000000000000000000000000000000E5
:101C000000000000000000000000000000000000D4
:101C1000000080008000C000C000E000E000F06034
:101C2000F0C0E0C0E080C080C00080008000000004
:101C30000F0D1F0D1F1B3F1B3F377F367F6EFF6E43
:101C4000FF377F377F1B3F1B3F0D1F0D1F000F000E
:101C50000000000000000000000000000000000084
:101C60000000000000000000000000000000000074
:101C7000000080008080C080C0C0E0C0E060F00054
:101C8000F000E000E000C000C00080008000000024
:101C90000F0D1F0D1F1B3F1B3F377F377F6EFF6EE2
:101CA000FF367F377F1B3F1B3F0D1F0D1F000F00AF
:101CB0000000000000000000000000000000000024
:101CC0000000000000000000000000000000000014
:101CD000000080008080C080C0C0E0C0E0E0F0E094
:101CE000F0C0E0C0E080C080C00080008000000044
:101CF0000F0D1F0D1F1B3F1B3F377F377F6CFF6092
:101D0000FF307F017F193F013F0D1F0D1F000F00A6
:101D100000000000000000000000000000000000C3
:101D200000000000000000000000000000000000B3
:101D3000000080008080C080C0C0E0C0E0E0F0E033
:101D4000F0C0E0C0E080C080C000800080000000E3
:101D50000F0D1F0D1F013F193F017F307F60FF6C8A
:101D6000FF377F377F1B3F1B3F0D1F0D1F000F00ED
:101D7000F0D0F8D0F8B0FCB0FC70FE60FEE0FFE6FA
:101D8000FF7CFE7CFEB8FCB8FCD0F8D0F800F00078
:101D9000E0A0F1A0F171FB41FFBBFFBBFF76FF7636
:101DA000FFBBFFBBFF41FF71FBA0F1A0F100E00012
:101DB0000F0F1F0F1F173F173F327F327F7DFF7DB1
:101DC000FF3E7F3E7F1F3F1F3F0F1F0F1F000F0073
:101DD000F0D0F8D0F8B8FCB8FC7CFE7CFEE6FFE062
:101DE000FF60FE70FEB0FCB0FCD0F8D0F800F00050
:101DF000E0A0F1A0F171FB41FFBBFFBBFF76FF76D6
:101E0000FFBBFFBBFF41FF71FBA0F1A0F100E000B1
:101E10000F0F1F0F1F1F3F1F3F3E7F3E7F7DFF7D28
:101E2000FF327F327F173F173F0F1F0F1F000F003A
:101E3000F0D0F8D0F8B8FCB8FC7CFE7CFECEFF0EEB
:101E4000FF0CFE1CFE98FC18FCD0F8D0F800F00047
:101E5000E0A0F1A0F171FB41FFBBFFBBFF76FF7675
:101E6000FFBBFFB8FF41FF70FBA0F1A0F100E00055
:101E70000F0F1F0F1F193F193F367F367F7DFF7DE4
:101E8000FF3E7F3E7F1F3F1F3F0F1F0F1F000F00B2
:101E9000F0D0F8D0F818FC98FC1CFE0CFE0EFFCE1B
:101EA000FF7CFE7CFEB8FCB8FCD0F8D0F800F00057
:101EB000E0A0F1A0F170FB41FFB8FFBBFF76FF7619
:101EC000FFBBFFBBFF41FF71FBA0F1A0F100E000F1
:101ED0000F0F1F0F1F1F3F1F3F3E7F3E7F7DFF7D68
:101EE000FF367F367F193F193F0F1F0F1F000F105E
:101EF0001800F0F0F8F0F8F8FCF8FCFCFEFCFEFE30
:101F0000FFFEFFFCFEFCFEF8FCF8FCF0F8F0F80029
:101F1000F0006363FF7FFFFFFF9FFFE7FFF9FFFF15
:101F2000FFFFFFFFFFFFFFFFFFFFFF7FFF7FFF00C0
:101F30007F000E0C1E0C1F183F1A3F357F357F6B3C
:101F4000FF6BFF357F357F1A3F183F0C1F0C1E00BB
:101F50000E00F0F0F8F0F8F8FCF8FCFCFEFCFEFED9
:101F6000FFFEFFFCFEFCFEF8FCF8FCF0F8F0F800C9
:101F7000F0007F7FFF7FFFFFFFFFFFFFFFFFFFFFFF
:101F8000FFFFFFF9FFE7FF9FFFFFFF7FFF63FF00FA
:101F900063000E0C1E0C1F183F1A3F357F357F6BF8
:101FA000FF6BFF357F357F1A3F183F0C1F0C1E005B
:101FB0000E00F0F0F8F0F8F8FCF8FCFCFEFCFEFE79
:101FC000FFFEFF7CFE7CFE38FCB8FC10F8F0F80049
:101FD000F0007F7FFF7FFFF9FFE7FF9FFFFFFFFF1D
:101FE000FFF0FFF9FFF8FFFCFFFCFF7EFF63FF003F
:101FF00063000E0C1E0C1F183F1A3F357F357F6B98
:10200000FF6BFF357F357F1A3F183F0C1F0C1E00FA
:102010000E00F0F0F810F8B8FC38FC7CFE7CFEFEF8
:10202000FFFEFFFCFEFCFEF8FCF8FCF0F8F0F80008
:10203000F0006363FF7EFFFCFFFCFFF8FFF9FFF099
:10204000FFFFFFFFFF9FFFE7FFF9FF7FFF7FFF001D
:102050007F000E0C1E0C1F183F1A3F357F357F6B1B
:10206000FF6BFF357F357F1A3F183F0C1F0C1E009A
:102070000E008000C080C080FCF8FCFCFEFCFEFE70
:10208000FFCEFFE0FEF0F878FC78FC30F8F0F800C6
:10209000F0007F7FFF7FFFF9FF87FFFFFFFFFFFF5C
:1020A000FFF1FFF8FFF8FFFCFFFCFF7EFF63FF007E
:1020B00063000E0C1E0C1F081F0A3F357F357F6B17
:1020C000FF6BFF357F357F0A3F081F0C1F0C1E007A
:1020D0000E10244054FBFF0501020A160E8040102A
:1020E0002020804010D5F08D14A1C881CFD9F1AF48
:1020F000200004000003000B001C00010000004051
:10210000009F9DA04030FD07029FFC034CFBFC0399
:102110004CFDFC034CFFFC034C00FE41FC25AF29A9
:10212000AF2CAFFE86205920102147200316C81E71
:10213000FE22E522581DD822B81E6322AC1E080BD1
:102140000002020200000904000001020200000572
:1021500024001001052401010104240206052406BF
:1021600000010705810310004009040100020A0074
:10217000000007050202400000070583024000003E
:102180000403090412010002EF02014041233680DA
:1021900000010102030141726475696E6F204C4CAD
:1021A000430041726475696E6F204C656F6E617299
:1021B000646F0000052328001B3011241FBECFEFE1
:1021C000DAE0DEBFCDBF11E0A0E0B1E0E8EDF4E67B
:1021D00002C005900D92AC32B107D9F728E0ACE20D
:1021E000B1E001C01D92A239B207E1F710E1CDEDD7
:1021F000D0E104C02197FE010E944232CC3DD107BC
:10220000C9F70E9441300C946A320C940000FC0122
:1022100080912906882311F13FB7F89482E08093DA
:10222000E9002091F200822F90E01816190614F4AC
:1022300081E090E0882339F0289844E6409328060E
:102240004091F1004083222339F02091F2002111C6
:1022500003C02BE62093E8003FBF08958FEF9FEF68
:1022600008952FB7F89483E08093E9009091E800F7
:10227000892F807295FF04C09091F20080E4891B41
:102280002FBF08958091200681110DC082E08093B8
:102290001C0684E080931D0610921F0610921E06F5
:1022A00081E0809320068CE196E00895CF93DF9340
:1022B0001F92CDB7DEB76983DC01ED91FC910280FE
:1022C000F381E02D41E050E0BE016F5F7F4F099543
:1022D0000F90DF91CF91089583E08093E900809182
:1022E000F200882319F08AE38093E80008950E94A1
:1022F000311190E00895CF93DF931F92CDB7DEB7F1
:10230000FC018485958597FD08C02FEF3FEF358749
:1023100024870F90DF91CF910895CE0101960E94FE
:102320000711019719F4898190E0F3CF8FEF9FEFA8
:10233000F0CF0F931F93CF93DF931F92CDB7DEB7EC
:102340008C01FC018485958597FF0BC0CE01019619
:102350000E940711019771F4898190E0F801958737
:102360008487F801848595850F90DF91CF911F9127
:102370000F9108958FEF9FEFF1CFFC018485958534
:1023800097FD0BC09FB7F89482E08093E90080919D
:10239000F2009FBF90E0019608959FB7F89482E005
:1023A0008093E9008091F2009FBF90E008954091F2
:1023B0001606509117062091140630911506421703
:1023C0005307B4F49091E8009570E1F39091E80020
:1023D00092FD19C08093F100809116069091170626
:1023E00001968F739927892B19F48EEF8093E8005B
:1023F0008091160690911706019690931706809388
:10240000160681E0089580E00895EF92FF920F9301
:102410001F93CF93DF93F82E192FE62E042F81E020
:10242000860F880F0E94D71183E00E94D711CF2D0D
:10243000D12FEC0EFD2EF11CCE15DF05B9F007FFF4
:1024400013C0FE0184910E94D711182F80E00E94D2
:10245000D711812321968111EFCFDF91CF911F9169
:102460000F91FF90EF9008958881EDCF81E0F5CF37
:10247000DF92EF92FF920F931F93CF93DF93D82EAB
:102480008A01EB017B01E40EF51ECE15DF0559F044
:10249000D7FE12C0FE0184910E94D71121968111AE
:1024A000F4CF0FEF1FEFC801DF91CF911F910F9174
:1024B000FF90EF90DF9008958881EECF0F931F93E8
:1024C000CF93DF931F92CDB7DEB782E0898342E4DA
:1024D00050E06EE371E280E80E9438120E944211DF
:1024E000DC0112960D911C910115110589F0D8019E
:1024F000ED91FC910280F381E02DBE016F5F7F4F73
:10250000C801099597FD04C0F80100851185ECCF3D
:1025100089810F90DF91CF911F910F9108956150A4
:1025200030F02091F100FC0120830196F8CF28982B
:1025300084E68093280608953FB7F89480911006AA
:1025400090911106A0911206B091130626B5A89B92
:1025500005C02F3F19F00196A11DB11D3FBFBA2F35
:10256000A92F982F8827BC01CD01620F711D811DF5
:10257000911D42E0660F771F881F991F4A95D1F77A
:1025800008958F929F92AF92BF92CF92DF92EF9277
:10259000FF926B017C010E949C124B015C01C114F3
:1025A000D104E104F104B9F00E949C126819790980
:1025B0008A099B09683E73408105910580F321E0FB
:1025C000C21AD108E108F10888EE880E83E0981E4F
:1025D000A11CB11CE4CFFF90EF90DF90CF90BF9093
:1025E000AF909F908F90089565E070E080E090E05C
:1025F0000C94C1128F929F92AF92BF92CF92DF92B2
:10260000EF92FF920F931F93CF93DF936C017B01A7
:102610008A0180910F01882309F45CC0809129060A
:10262000882309F457C080911B0680FF05C0809164
:10263000E00082608093E000E801B12C8AEFA82ED0
:1026400093E0892E2AE3922E209711F4BB20D9F132
:102650000E94311181110AC0AA94AA20D9F161E027
:1026600070E080E090E00E94C112EECF8C171D0652
:1026700011F00CF08C2F9FB7F8948092E900209114
:10268000E80025FD02C09FBFDFCF282F30E0C21B2E
:10269000D30BF701815020F041914093F100FACF24
:1026A000E20EF31EBB2021F09092E800B12CEBCF9C
:1026B0008091E80085FDE7CF9092E800BB24B394B9
:1026C000209709F3F3CF5D9884E680931A061016DD
:1026D00011063CF081E090E0F6019383828310E0E4
:1026E00000E0C801DF91CF911F910F91FF90EF9013
:1026F000DF90CF90BF90AF909F908F9008954F92B2
:102700005F926F927F928F929F92AF92BF92CF9281
:10271000DF92EF92FF920F931F93CF93DF934C01C1
:102720005901FC2DC02FD0E0CE01880D991D18163F
:1027300019060CF06CC020E8821691040CF067C0FA
:102740009B012E0D311D121613060CF060C0603473
:1027500071050CF05CC04115510509F458C0E62F15
:10276000E770FE2EDB0177FD179633E0B595A79550
:102770003A95E1F73A2F77FF04C0FF2011F03FEFC1
:102780003A0F662777276819790997FC02C070E02D
:1027900060E0803891050CF44BC090E89819961BC6
:1027A000A32F032E000CBB0B1A2F10953F3F0CF0EC
:1027B00010E021E08E2D877009F420E0E694E69485
:1027C000E694E20EAE0DB11D19971CF028E0E22E42
:1027D000E31AE11A310F20E83203D0011124A80DC9
:1027E000B91DA60FB71F019F600D711D1124460F63
:1027F000571F0F2D0F2C000C110BF33009F41CC1C7
:10280000C8F4F13009F4D0C0F23009F47CC0DF9193
:10281000CF911F910F91FF90EF90DF90CF90BF90DD
:10282000AF909F908F907F906F905F904F900895A2
:10283000902FB5CFFA3FB1F1232F2E0DFB3F39F783
:10284000321729F3BD01675F7D4FD12CC12CC9160A
:1028500008F0A4C0FA01EC0DFD1DE491F0E04F0179
:10286000002E02C0880C991C0A94E2F737FD06C0BE
:10287000FB018081E82CE0948E218083FF2061F0B1
:10288000373054F45B01F0E8AF0EB11CE92CE09452
:10289000F50180818E218083FFEFCF1ADF0A6F5F01
:1028A0007F4FD5CF232F2E0D321709F4B0CFBD01A6
:1028B000675F7D4FD12CC12CC91608F069C0FA01A1
:1028C000EC0DFD1DE491F0E04F01002E02C0880CDC
:1028D000991C0A94E2F737FD04C0FB018081882926
:1028E0008083FF2051F0373044F45B01F0E8AF0EF5
:1028F000B11CF501808189298083FFEFCF1ADF0A9F
:102900006F5F7F4FD9CF6FEF70E00F2C02C0660F63
:10291000771F0A94E2F760957095772E232F2E0D7E
:10292000321709F474CFFD01E75FFD4F6F01B12C41
:10293000A12CA91638F5FA01EA0DFB1DE491F0E08F
:102940002F01002E02C0440C551C0A94E2F737FDFB
:1029500005C0F6018081862384298083FF2059F0F9
:1029600037304CF44601F0E88F0E911CF401808161
:10297000872185298083FFEFAF1ABF0A8FEFC81A1E
:10298000D80AD7CF3F5F4C0F5D1FA058BF4FC8CFAD
:102990003F5F4C0F5D1FA058BF4F86CF3F5F4C0F6E
:1029A0005D1FA058BF4F4CCF6A0D7B1D232F2E0DEE
:1029B000321709F42CCFFD01E75FFD4F6F01B12CF9
:1029C000A12CA91688F5FB01EA0DFB1D8490912C22
:1029D000002E02C0880C991C0A94E2F7809490940F
:1029E000FA01EA0DFB1D6490712C002E02C0660CEA
:1029F000771C0A94E2F737FD05C0F6018081882133
:102A000086298083FF2049F037303CF4F601E058F6
:102A1000FF4F8081892187298083FFEFAF1ABF0A8A
:102A20008FEFC81AD80ACDCF3F5F4C0F5D1F6C0FD8
:102A30007D1FA058BF4FBCCFC92ED12CFA01E60F85
:102A4000F71FA75FBD4F00E810E00C191D09CC1956
:102A5000DD09BE01660F771F41E050E06A010F2CCF
:102A600001C0CC0C0A94EAF7592F2E2D792ECF9362
:102A7000DF93ED01EF96EF9622968590A590FF20CB
:102A800059F08C9C4001AC9C500137302CF4E8800C
:102A9000B094EB20E928E99233233AF0EC90A0942B
:102AA000EA20E828ED920C94561511965A9529F7CC
:102AB0002A9551F0572D33951124E60FF11DA00FE3
:102AC000B11DC00FD11DD9CFDF91CF9111249FCE61
:102AD000CF92EF920F93FA0104913196E4904E5FFA
:102AE0005F4F2223F9F0A1E0B0E03E2D377011F4E2
:102AF000B0E0A0E0EE2DE695E695E695EA0FFB2F17
:102B0000F11D0E9FD0010F9FB00D112430E0220F58
:102B1000331FA29FF001A39FF00DB29FF00D11246F
:102B20004E0F5F1F23E0C22E30E020E00E947F1393
:102B30000F91EF90CF900895CF92EF920F93CF9394
:102B4000DF93DC01FA0104913196E4904E5F5F4F10
:102B50002223D1F0C1E0D0E09E2D977011F4D0E097
:102B6000C0E0EE2DE695E695E695EC0FFD2FF11D04
:102B70000E9FE0010F9FD00D11242C9FC0012D9FAF
:102B8000900D1124480F591F8AEFC82E30E020E025
:102B9000CD010E947F13DF91CF910F91EF90CF90E5
:102BA00008958FB18095807F669B88601C9B8460B0
:102BB0000895109203023E983F9808953E9A3F9AD6
:102BC00081E080930302089590910906982329F4E7
:102BD00090910A06982381E009F480E00895482F37
:102BE00065E00E940E3296E0899F900111242C5FCF
:102BF0003F4F241B31094CE0429FC001439F900D81
:102C00001124039608951092FF0110920002109271
:102C1000010210920202EAE2F6E086E0858380E497
:102C200086838CE08783108683E0848311861286F6
:102C30001092FC0188E0809303010895E09135062D
:102C400086E0E89FF0011124EC59F94F81818F7DD6
:102C500081830895A091FD01B091FE01AA0FBB1FD1
:102C60002A9FF0012B9FF00D1124660F771F44302F
:102C700051054CF442305105E9F04330510519F14A
:102C80004130510551F0680F791FE75AFF4F81E03D
:102C9000E617F70774F480E00CC09C01261B370B85
:102CA000B9012FE030E02E1B3F0B81E06217730764
:102CB00094F30895EA54FF4F680F791F81E0E617F7
:102CC000F707BCF3E8CF9C01261B370BB9012FEAAD
:102CD0003FEF2E1B3F0B81E02617370754F7DBCF62
:102CE0004370FC01208131815FEF540FEEEFFFEF65
:102CF000523010F4E2E0F0E02E0F3F1FFC01318370
:102D00002083FB01808191812FEF3FEF423010F053
:102D100021E030E0820F931FFB01918380830895AF
:102D20001F93CF93DF93C82F8091050290910602E5
:102D30008F709927892B31F48091F40191E08927D4
:102D40008093F4018091F4018823E9F0D0E1DC0F55
:102D50001AE36091FD017091FE016A5D7F4F8C2F37
:102D600090E0AC0155954795242FCA3310F0212FE0
:102D7000241B621B710920E04BE858E10E94681592
:102D8000CE5FDC13E6CFDF91CF911F910895BF9204
:102D9000CF92DF92EF92FF920F931F93CF93DF9327
:102DA000C091FA01CC23B1F18091F901882391F10E
:102DB0008CE7E82E81E0F82ECC24C394D12CD0E00F
:102DC000B12C0091FD011091FE010A5D1F4F0D1BFA
:102DD0001109F701208146E256E1B801C7018C577D
:102DE00091400E949C15F701218146E256E1B8010D
:102DF000C6010E949C15FCE1FB1508F456C0DF5F7C
:102E0000B39482E0E80EF11CE2E0CE0ED11CFBE3AD
:102E1000BF12D7CF2091050230910602C9016EE1A1
:102E200070E00E941A32892B41F4C5FF06C08091E0
:102E3000F90191E089278093F90123703327232B2F
:102E400031F4C530C1F198F5C33009F442C0CEEF7A
:102E5000DFEF10E000E0E090FD01F090FE01B7012F
:102E6000675E7F4F600F711F22E040EE56E0CE019B
:102E70000E949C15B701601B710B23E040EE56E0E9
:102E8000CE01CE960E949C15055011092A96023E4D
:102E90008FEF180701F7DF91CF911F910F91FF90EE
:102EA000EF90DF90CF90BF900895D150A9CFC3325B
:102EB00081F0C53261F68091F301E3EFF1E02CE798
:102EC00031E0929191832E173F07D9F780937C01CF
:102ED000BECF80917C01ECE7F1E023EF31E09181FE
:102EE00091932E173F07D9F78093F301B0CF8091CC
:102EF000FD019091FE01892B31F48AEF9FEF9093B1
:102F0000FE018093FD010C94C7169F92AF92BF9271
:102F1000CF92DF92EF92FF920F931F93CF93DF93A5
:102F2000A0900301B12CD12CC12CD0E053E0952E00
:102F3000CB2D10E000E07601EE0CFF1C80E3E80EE4
:102F4000F11CE5E0EA1560F08AEF8C0F8430E0F1C7
:102F5000CB30D1F1C031C1F1C531B1F120E01FC09A
:102F60008C2F8B198230D1F7D230C1F79091350672
:102F70008091FB019813F2CF80917B012091050293
:102F80003091060227703327232B31F48F5F692D90
:102F90000E940E3290937B0120917B012B5F609108
:102FA000FD017091FE01655E7F4F600F711F6C0D1A
:102FB0007D1D4AEA57E0C801880F991FF701E81BF9
:102FC000F90BCF010E946815CF5F0A5F1F4F0E31CA
:102FD000110509F0B6CFDF5FF6E0CF0ED11C85E01A
:102FE000B80ED53009F0A4CF8A1508F446C027E200
:102FF000E22EF12CC0E00091FD011091FE01B8011C
:10300000625D7F4F2C2F46E356E0C7010E949C155E
:10301000CF5FE8E0EE0EF11CC53069F797E1E92ECD
:10302000F12C6801F6E3CF0ED11C2C2F46E356E0BD
:10303000B601C7010E949C1588E0E80EF11CCF5F25
:10304000CE3099F78FE0E82EF12C025C1F4F2C2F29
:1030500046E356E0B801C7010E949C1523E02C0FFF
:1030600046E356E0B801C701C8960E949C15E8E007
:10307000EE0EF11CCF5FC23151F7DF91CF911F915E
:103080000F91FF90EF90DF90CF90BF90AF909F9007
:103090000895362F83506CE00E940E32282F911134
:1030A00018C08EEE830F66E00E940E32911111C09F
:1030B0009CEF980F290F20FD0CC0022E000C330B43
:1030C00035952795253028F4982F921B81E095306F
:1030D00008F080E008959AEA899FA001112485E50F
:1030E00091E0689F9001699F300D1124CA01820F01
:1030F000931F8FEC890F90E064E0959587956A9512
:10310000E1F7982F990F990F890F241B350B92E146
:10311000930F92959F70890F0895E091FC01E15003
:10312000FF0BEE0FFF1FE45DF94F25913491820FE5
:10313000932F911DFC018491089583E00E948D18C6
:1031400090913506282F30E03595279535952795B0
:103150002F7133279217130611F483700895089581
:103160006B5F9DE0899F600D1124862F0C948D1854
:103170005F926F927F928F929F92AF92BF92CF9207
:10318000DF92EF92FF920F931F93CF93DF93982ECE
:1031900010922C071092250710922407CCE5D8E056
:1031A00007E010E0C82ED12C26E0822E8C9CC001B6
:1031B0008D9C900D11249C012B59394F79013CE0D5
:1031C000732E45E0642E1C82F701808190E0002E72
:1031D00002C0959587950A94E2F780FF2BC0672D72
:1031E000601B892D0E94B018A82EB12C93E0B594D5
:1031F000A7949A95E1F75A2CF8E1FA1508F442C021
:103200008C838A2D0E94EF15998388838A9C900174
:103210008B9C300D11242E5E3F4F852D662D0E9414
:103220000E3248EE582F4503C0011124280F391FD4
:103230003B832A8326960150110928F680916C0859
:10324000982F9770963070F096E09C9DF0019D9DB0
:10325000F00D1124EC59F94F948197FF15C081604E
:1032600080936C08DF91CF911F910F91FF90EF90A9
:10327000DF90CF90BF90AF909F908F907F906F9096
:103280005F9008951C82BDCF8E7FEACFEF92FF92B0
:103290000F931F93CF93DF9380912F06182F1370F6
:1032A000012F000F87FF1CC0D0E0C0E0E02EF12C02
:1032B00060912C0670912D06665071096C0F7D1F70
:1032C0006E197F0980912A0690912B0620E04AEC26
:1032D00055E004970E9468152896C831D10541F73A
:1032E00080912F0660912C0670912D0624E084FDBC
:1032F00007C082FF0DC060912C0670912D06212F12
:103300004FEE5EE180912A0690912B060E9468158F
:1033100080912F0687FF1BC0D0E0C0E010E06091D5
:103320002C0670912D066E5F7F4F6C0F7D1F601B0A
:10333000710B80912A0690912B0621E04AEC55E012
:1033400004970E9468152896C831D10541F7DF918E
:10335000CF911F910F91FF90EF9008956F927F9200
:103360008F929F92AF92BF92CF92DF92EF92FF9295
:103370000F931F93CF93DF9300D01F92CDB7DEB78B
:103380000E94C7160E94851776E3E72E76E0F72E97
:10339000E4E6CE2EE6E0DE2EF6E07F2ED701ED91BC
:1033A0007D01EB3109F47AC0E23020F57E9EF00118
:1033B0001124E45AF74F848190E09C01220F331FBF
:1033C000220F331F2C7163E0959587956A95E1F77D
:1033D0008370822B628173812091FD013091FE0107
:1033E000620F731F282F4DEE58E1808191810E945A
:1033F000681554C0E23091F58091240781114EC0C8
:10340000809105029091060287709927892B41F4DB
:1034100080916D088F5F672D0E940E3290936D082A
:1034200080916C088770282F220F280F220F80911F
:103430006D08280F60916A0870916B088091FD01FA
:103440009091FE01680F791F6A5F7F4F8091680835
:103450009091690844E250E10496C9CFE830C8F47D
:103460007E9EF0011124E45AF74F24812223B1F00B
:103470002770628173818091FD019091FE01680F38
:10348000791F675F7F4F808191814AEA57E00397F8
:10349000AECFE93009F04CC00E944619CE14DF04CB
:1034A00009F07CCF80912C078823B1F06091280728
:1034B000709129078091FD019091FE01680F791F9D
:1034C0006A5F7F4F809126079091270722E144E2AF
:1034D00050E104960E94681580912507882309F41D
:1034E00078C060918E0870918F088091FD01909155
:1034F000FE01680F791F6A5F7F4F80918C08909161
:103500008D0822E144E250E104960F900F900F9055
:10351000DF91CF911F910F91FF90EF90DF90CF90AF
:10352000BF90AF909F908F907F906F900C94681594
:10353000EB50E03108F0B2CF8E2E912C9594879409
:1035400095948794682CBE2FB370B983EE0F8E2F9D
:1035500090E0FC01EC5FFF4E04918B5F9F4EFC01FD
:10356000F4916091FD017091FE018F2F860F972FCE
:10357000911D9B838A8322E2A22E2EE0B22EB130CF
:1035800081F090E2A92E9DE0B92EB23051F03EEAD2
:10359000A32E3BE0B32EB33021F48CE6A82E8AE0B4
:1035A000B82E10E0282DA5016A817B81C8010E94F8
:1035B00068159981933009F071CF0E949D186812A7
:1035C0006DCF6A817B816F5F7F4F282DA501C80178
:1035D0000ECF0F900F900F90DF91CF911F910F9111
:1035E000FF90EF90DF90CF90BF90AF909F908F9023
:1035F0007F906F90089580912F0683FD0AC090916F
:103600002E06915090932E06992321F08860809386
:103610002F060895877F8061FACFCF93DF93C42F61
:103620000E946B18893108F055C0E82FF0E0EA5C81
:10363000F94F8285CC2309F447C0823008F04BC093
:1036400090E0E6E0E89F9001E99F300D1124245AB4
:10365000374FD90114964C914770423009F46EC02F
:1036600040913506E49FF0011124EC59F94F47E0F1
:1036700050E0481B590B81E090E0A0E0B0E004C0AE
:10368000880F991FAA1FBB1F4A95D2F78095918179
:1036900089238183F90114828091FF0190910002B6
:1036A000A0910102B0910202855B9F4FAF4FBF4FC7
:1036B0008093FF0190930002A0930102B093020255
:1036C0008C2FDF91CF910895893029F40E94FB1A45
:1036D000C1E0F6CF8BE19DEF980F953088F590E033
:1036E000E6E0E89FE001E99FD00D1124C45AD74FCE
:1036F0002C812770243011F12330E1F4209135061C
:10370000E29FF0011124EC59F94F27E030E0281B2B
:10371000390B81E090E0A0E0B0E004C0880F991F71
:10372000AA1FBB1F2A95D2F7809591818923818397
:103730001C82CECF2150C1E0223010F2C0E0C0CFB9
:10374000C1E08230D9F7BCCF0F93CF93C22F443062
:1037500051054CF44230510521F14330510521F11E
:1037600041305105D9F0645088500E946B18809305
:10377000F601E091F601E93160F4F0E0EA5CF94F1E
:1037800082858093F7018B3121F0CC2381F0893041
:1037900009F4C0E08C2FCF910F9108956450885F99
:1037A000E4CF6D5F8A5FE1CF6D5F8650DECF0111A0
:1037B00006C0882371F3893029F0C1E0EBCF813056
:1037C000D1F7E7CF0E94FB1AF8CFCF92DF92EF92AA
:1037D000FF920F931F93CF93DF93182FC62FD0E044
:1037E00086E0189FF0011124E45AF74FC280D3807D
:1037F000E080F18020E0AE01B601C7010E942A16E8
:10380000811115C001E0111101C000E020E0AE01FE
:10381000B601C7010E94A41B91E08927DF91CF91D7
:103820001F910F91FF90EF90DF90CF90089580E06F
:10383000F5CF40912F06842F807629F080913206B3
:103840008F5F809332068091FD019091FE0143705D
:1038500020912A0630912B06423081F14330D1F17C
:103860004130A1F097FF08C001969093FE0180932C
:10387000FD012250310913C080912C0690912D0634
:10388000019790932D0680932C06F3CF97FF0CC0E1
:1038900001969093FE018093FD012E5F3F4F309380
:1038A0002B0620932A06089580912C0690912D06D0
:1038B000019790932D0680932C06EFCF853E4FEF16
:1038C000940714F00197E5CF80912C0690912D0676
:1038D0000196EFCF853E4FEF940714F00197C5CFC7
:1038E00080912C0690912D060196CBCF4F925F923E
:1038F0006F927F928F929F92AF92BF92EF92FF92C0
:103900000F931F93CF93DF934B015C01C42FD22FF2
:1039100011E081149104A104B10409F010E0A501A3
:1039200094016AE0462E512C612C712C2115310531
:103930004105510541F01F5FCA01B901A301920180
:103940000E94EC31F3CF1D1708F41D2FC10FDD27A6
:10395000DD1FCC0FDD1FCC0FDD1FC858DE4F00E090
:103960009AE0492E512C612C712C82E090E09C0150
:103970002C5731407901C501B401A30192010E9485
:10398000EC31C7018C0F9D1F8837910558F4862FA5
:10399000880F680F81E0860F888382E0860F898315
:1039A0006D5F6A830F5F249749015A011013E3CFBB
:1039B000DF91CF911F910F91FF90EF90BF90AF904B
:1039C0009F908F907F906F905F904F900895ACE79D
:1039D000B1E0FD01119291E0E43FF907D9F74EEB18
:1039E00053E0882341F0FA0194914F5F5F4F9111AA
:1039F000FACF8150F6CF30E020E0FA01E20FF31F5A
:103A0000E491EE23C1F0E053E03F79F08E2F880F70
:103A1000E80F81E08E0F8C9382E08E0F11968C93CD
:103A20001197ED5F1296EC9312972F5F3F4F14960C
:103A30002E31310511F708958AEF9FEF9093FE0123
:103A40008093FD0180E00E94E71C81E08093FA01F1
:103A50008093F901109203010895809135068770D3
:103A6000855F0E94E71C83E08093FA0181E08093E8
:103A7000F90186E080930301089581E28093FA01C1
:103A800084E00E94E71C6091FC0170E090E080E01F
:103A900022E049E00E94761C6091FF0170910002D3
:103AA000809101029091020226E047E10C94761C7D
:103AB0003F924F925F926F927F928F929F92AF92BE
:103AC000BF92CF92DF92EF92FF920F931F93CF930B
:103AD000DF938091FC018F5F8093FC01863020F1A1
:103AE00086E00E94E71C6091FF01709100028091C6
:103AF00001029091020226E048E10E94761C8CE0CF
:103B000080930301DF91CF911F910F91FF90EF9070
:103B1000DF90CF90BF90AF909F908F907F906F90ED
:103B20005F904F903F900895109235068CE08093FF
:103B300031068AEF9FEF9093FE018093FD0183E3AE
:103B400090E090932B0680932A0684E290E0909375
:103B50002D0680932C0684E00E948D188093FB0133
:103B600080E00E948D18382E8DE0389E700111245F
:103B700085E0E80EF11C81E00E948D185701A80E27
:103B8000B11CC4E6D6E010E0812C912C412C512CC4
:103B900032014394311609F44EC0188219821A82F8
:103BA0001B821C821D8260E0812F0E94B0188883D6
:103BB00087E0C82ED12C05E0602F812F0E94B0181D
:103BC000882369F02981D301C2010C2C04C0880F1D
:103BD000991FAA1FBB1F0A94D2F7822B89830F5FFC
:103BE00081E0C81AD1080D3039F767E0812F0E94B3
:103BF000B018082F0770053049F4892D8E0D0E94EA
:103C00008D188A8393941F5F2696C4CF0630D8F30D
:103C1000D82CDA0C8D2D0E948D188B8381E08D0DB0
:103C20000E948D188D8383948394073061F78C8173
:103C300080688C83E8CF80E00E94B8180E943D1D08
:103C400089E05ECF90E0880F991FE0912F07F091F7
:103C50003007E80FF91F8591949120912D0730913D
:103C60002E07820F931F0895EF92FF920F931F93D9
:103C7000CF93DF931092720021E030E03093440143
:103C800020934301E4E3F7E048EDDF011D924A95FC
:103C9000E9F740EF40931101109233071092320779
:103CA0004FEF4093100159E15093310761E772E003
:103CB000709342016093410130933E0120933D0196
:103CC0003093FC072093FB0722E42093C00021E0FF
:103CD0002093C1004093D10020E82093CF00EC0155
:103CE0002196FC018491D0933007C0932F0790E078
:103CF000880F991FC80FD91FCE01049690932E07E5
:103D000080932D0734E3E32E37E0F32E10E000E03C
:103D1000FE01E00FF11F84910E94221ED7018D93B6
:103D20009C930F5F1F4FB6E3EB0EF11C043011059F
:103D300079F784E080937200DF91CF911F910F910A
:103D4000FF90EF90089580910402823020F48FED6F
:103D500096E10C94341E08950E94C7168CE00E94D0
:103D6000E415882321F00E94A31E0C941C1D0895C5
:103D70000E94C7160E9485170E9446198CE00E9477
:103D8000E415882321F00E94A31E0C941C1D0895A5
:103D9000809105029091060268E770E00E941A3255
:103DA000892B21F40E94A31E0E941C1D20E041E9E2
:103DB00058E164E170E081E390E00C949C15AF92CF
:103DC000BF92CF92DF92EF92FF920F931F93CF9308
:103DD000DF934EE250E06BE170E086E396E00E94F4
:103DE0005A32E09135064E2F50E026E0E29FF00176
:103DF0001124EC59F94F60812EE090E080E070E0F2
:103E0000382FFC01ED54FE4DE491DC011496EB01DA
:103E100002C0D595C795AA95E2F7C0FF10C0AE2F96
:103E2000B0E0AA5CB94FFDEFF20FFC93FEEFF20F8A
:103E30001196FC931197FFEFF20F1396FC93DB01A1
:103E400002C0B595A7953A95E2F7A0FF04C0F0E04F
:103E5000EA5CF94F248301962C5F8430910581F64A
:103E6000B09024070CE518E0D0E0C0E026E0249FE5
:103E7000C001259F900D1124FC01EB59F94F7F01E2
:103E800087E0C82ED12CAC2EF2E0CF1302C0B110C7
:103E900017C0F701808190E096012C1B3D0B02C0FA
:103EA000959587952A95E2F780FF0AC0F80162810F
:103EB00080810E946B18E82FF0E0EA5CF94FA2863F
:103EC00021960A5F1F4FC830D105E9F680912F0671
:103ED000282F2072982F9074382F307691F4E0912B
:103EE0003106F0E0EA5CF94F89E08287DF91CF91FB
:103EF0001F910F91FF90EF90DF90CF90BF90AF9008
:103F0000089583708230A9F08330F1F0813059F048
:103F1000222319F089E080933806992339F389E048
:103F200080935B06E3CF2223C1F389E080933D06B3
:103F3000F4CF222319F089E080935B069923B1F234
:103F400089E080933806D2CF222319F089E080934C
:103F50006006992359F289E080933D06C7CFCF933D
:103F6000809304028330B1F410927200E4E3F7E02E
:103F700088EDDF011D928A95E9F780EF80931101AA
:103F800010923307109232078FEF80931001CF9178
:103F90000C94D915C82F0E94DE158FED96E10E9472
:103FA000341EC230E0F080913307811118C081E0E7
:103FB000809333072091320730E0EDE2F1E090E0AA
:103FC00080E0A901082E02C0559547950A94E2F7B2
:103FD00040FF1082019635968430910591F7CF917C
:103FE00008959091040290FD51C0E82FF0E0EE0F8B
:103FF000FF1FE054FA4F259134918091720082FDA9
:104000002FC060913107611101C069E160933107F0
:1040100070E089E09DE30E942E327093420160932C
:10402000410181E090E0909344018093430190939B
:104030003E0180933D019093FC078093FB0782E44F
:104040008093C00081E08093C1009FEF9093D100E6
:1040500090E89093CF008093330780EF8093110115
:10406000E7E4F1E084E3DF011D928A95E9F73093FC
:1040700046012093450181E08093100182E0809306
:1040800032078091720084608093720008950E94CC
:1040900077170E94851783E08093FA018CE00E94D5
:1040A000E415882329F081E00E94F11F0C941C1D67
:1040B00008950E9477170E9485178091F801811159
:1040C00022C088E40E94901680E40E94E4158823B0
:1040D00031F082E00E94F11F84E08093F80180E2D9
:1040E0000E94E415882329F082E00E94F11F1092BB
:1040F000F8018CE00E94E415882339F081E00E94E9
:10410000F11F0C941C1D80E6DDCF08951F93CF9303
:10411000DF930E9477170E948517D0910101ED2F40
:10412000F0E0EF52FF4D84910E94901680910502BD
:10413000909106026AE170E00E941A32892B31F4F4
:104140008091F50191E089278093F501C091F501F7
:1041500012E01C0F212F4FEE5EE16CE070E083E374
:1041600090E00E946815212F4DEE58E168E170E063
:104170008BE490E00E94681526E02C0F4DEE58E18C
:1041800068E170E08BE190E00E9468152AE02C0F56
:104190004DEE58E164E270E083E690E00E9468151D
:1041A0002EE02C0F4DEE58E164E270E083E090E0E9
:1041B0000E94681580E40E94E415882341F0D33002
:1041C00030F482E00E94F11FDF5FD093010180E2B2
:1041D0000E94E415882351F0C0910101CC2331F0F5
:1041E00082E00E94F11FC150C09301018CE00E9447
:1041F000E415882389F081E00E94F11FC09101013C
:10420000CF5FC09303018C2F0E94E71CC23021F4C2
:104210008091040280930101DF91CF911F91089555
:10422000CF930E9477170E948517C0910101EC2F50
:10423000F0E0EF52FF4D84910E94901680E40E94BE
:10424000E415882359F0C33048F482E00E94F11F3E
:1042500081E08C0F809301010E94AF1F80E20E94D9
:10426000E415882369F0C0910101CC2349F082E074
:104270000E94F11F8FEF8C0F809301010E94AF1FEE
:104280008CE00E94E4158823B1F082E00E94F11FC7
:10429000C091030282E090E00E94D631C81729F055
:1042A0006C2F82E090E00E94DE3181E0809301017A
:1042B000CF910C941C1DCF9108955F926F927F92C5
:1042C0008F929F92AF92BF92CF92DF92EF92FF9226
:1042D0000F931F93CF93DF93CDB7DEB728970FB619
:1042E000F894DEBF0FBECDBF182F862ECA01B901CC
:1042F0002AE0AE014F5F5F4F6A010E949531F601DF
:1043000001900020E9F731977F01EC18FD08FF24A8
:1043100080E3B82E5E2CE01658F45FEFE51AF50A3C
:10432000A701B601CE0102960E944832B982F2CFAF
:10433000E12EF12C5601912CF50181915F01805302
:104340008A3008F080E0982F990F980F01E0090F4C
:1043500014E0190F3701202F46E256E1B401C301E2
:104360000E949C15FFEF6F1A7F0A0F5F1013F3CFA7
:1043700044E0E40EF11C8A2D8C198515E8F228968C
:104380000FB6F894DEBF0FBECDBFDF91CF911F9166
:104390000F91FF90EF90DF90CF90BF90AF909F90E4
:1043A0008F907F906F905F9008950F93CF93DF93DE
:1043B000D0E0C0E020E049ED56E1BE0186E790E0A4
:1043C0000E9468152896C034D105A1F720913506C2
:1043D00030E050E040E002E061E089E70E945D21CA
:1043E00020913006277030E050E040E001E067E1C6
:1043F0008BE70E945D2120E042ED56E16DE170E027
:104400008AE790E00E949C152091300630E083E01E
:10441000359527958A95E1F723703327032E000CF5
:10442000440B550B66E28BE70E945D2120E049ECCE
:1044300056E16CE270E089E790E00E949C152091C3
:10444000300625FB222720F930E050E040E065E30C
:104450008BE70E945D2120E040EC56E16BE370E0C9
:1044600089E790E00E949C1580912F0620913006EC
:1044700084FF14C02064209330068091300686FFAC
:104480001EC020912E064AEA56E169E070E08AE7F4
:1044900090E0DF91CF910F910C949C1580910502D3
:1044A0009091060264E170E00E941A32892B29F78C
:1044B00080912E06823008F780E42827DCCFDF9138
:1044C000CF910F9108951F93CF93DF93909134066E
:1044D0009F5F90933406209105023091060223706D
:1044E0003327232B51F480912F06282F237023305C
:1044F00009F058C08C7F80932F069B3558F080912F
:104500002F068F77846080932F061092340686E002
:10451000809303010E94C7160E9485170E94D5212F
:104520000E94461980910502909106026AE570E0AA
:104530000E941A32892BC1F5E0913506C6E0CE9F64
:10454000F0011124EC59F94F128110933506D091E6
:1045500031068D2F0E94EF1590932B0680932A062B
:10456000DC9F900111242E5E3F4F8D2F65E00E944D
:104570000E32482F58EE5403C0011124280F391F62
:104580008091FD019091FE01280F391F30932D0677
:1045900020932C0610923206812FDF91CF911F912C
:1045A0000C94B8188F5FA7CFDF91CF911F9108951A
:1045B0000E94C7160E9485170E94D5218CE00E9498
:1045C000E41581110C942D1D08950E94DF1E0E9498
:1045D000AE1980913206853038F48091050280FF53
:1045E0000E94191C0C94D5211092320680912F063E
:1045F0008F7B80932F060E942D1DF4CF2F923F9228
:104600004F925F926F927F928F929F92AF92BF92E2
:10461000CF92DF92EF92FF920F931F93CF93DF938E
:1046200000D01F92CDB7DEB7209135062A830E94B5
:10463000DF1E0E94AE1960912F0665FD8CC464FDDB
:10464000BAC08091050280FD9AC00091FD011091D1
:10465000FE0160912C06601B80912A060E946B1857
:10466000893110F480933106E091F801EE2EF12C9F
:10467000F701E352FF4D349139830E94D1154981EE
:104680008423481709F44AC0F701E252FF4D5491C0
:1046900059830E94D11599818923981709F440C044
:1046A000F701E152FF4DA491A9830E94D115B98170
:1046B0008B23B817B9F1F701E052FF4D24912983FC
:1046C0000E94D11539818323381359C083E040916A
:1046D0002F064C7F482B498340932F06C0902C0611
:1046E000D0902D06A0902A06B0902B06E82EF12C33
:1046F00021E0A701B601C5010E942A16811114C04C
:10470000B601601B710B00E021E0A701C5010E940A
:10471000A41B8111C6C10E94191C31C080E0D7CFF3
:1047200081E0D5CF82E0D3CF80913106998193701B
:10473000923009F484C1933009F49DC1913009F499
:1047400068C18230E1F48A8156E0859FF00111242E
:10475000EC59F94F808184FF12C080FD10C099810F
:10476000906290932F068BE190E090932B068093BC
:104770002A06025E1F4F10932D0600932C0688E038
:104780000E94E415882329F00E943D1D89E0809352
:10479000030184E00E94E415882369F080913106CA
:1047A0009091FB013A8139133BC28C3009F038C239
:1047B00088E08093030180912F0683FF66C4909167
:1047C00033069F5F909333062091050230910602D5
:1047D00023703327232B21F424E0822780932F0694
:1047E000913F40F080912F06877F846080932F0651
:1047F0001092330680912F0684FDF4C0A09005022C
:10480000209106028A2D922F66E070E00E941A32F3
:10481000892B09F0B1C08A2D922F60E370E00E94CD
:104820001A321C018CE598E09B838A83D12CC12C21
:1048300056E0852E67E0E62EF12C7724739475E020
:10484000972E6C2CE09135068E9EF0011124EC59C8
:10485000F94F818190E097012C193D0902C095958F
:1048600087952A95E2F780FF7DC0AA81BB811496C7
:104870002C91822F90E033E0959587953A95E1F75A
:10488000082F037027702983602F8C2D0E94E51B51
:10489000882309F457C4402F6A817B816E5F7F4F64
:1048A0008A819B810E947016EA81FB814280508040
:1048B000642D852D0E944918882389F1F9811FEF05
:1048C000100FF130B1F02981223049F5642D852D8A
:1048D0000E946B18482F893108F408C4AA81BB8153
:1048E00014966C9170E093E0759567959A95E1F751
:1048F000162F13700117B1F1612F862D0E94E51B51
:10490000882369F0EA81FB818481877EF8E01F9F1C
:10491000B0011124682BAA81BB8114966C93B981D4
:10492000B33001F521143104E9F480912507811198
:1049300019C083E00E94F11F70922507EA81FB8174
:104940008081918190938D0880938C0882819381DE
:1049500090938F0880938E0884818871809390084B
:10496000109291082A813B812A5F3F4F3B832A8323
:10497000CA94CD2809F0B6C380912C07882391F002
:10498000A0FC10C040912A0768E277E086E297E039
:104990000E94701680912B078F5F863008F0E7C366
:1049A00080932B07809125078823E1F0A0FC1AC093
:1049B0004091900850E083E0559547958A95E1F73E
:1049C000842F83708983482F6EE878E08CE898E024
:1049D0000E947016809191088F5F863008F0EBC3BB
:1049E000809391080F900F900F90DF91CF911F91BE
:1049F0000F91FF90EF90DF90CF90BF90AF909F907E
:104A00008F907F906F905F904F903F902F900C947D
:104A1000D5218A3009F0B3CEBA81A6E0BA9FF00161
:104A20001124EC59F94F808185FFA9CE81FDA7CED5
:104A3000E981E062E0932F068BE490E096CE863128
:104A400009F09DCE3A8126E0329FF0011124EC5905
:104A5000F94F808186FF93CE82FD91CE49814062DD
:104A600040932F068BE490E090932B0680932A06C8
:104A70000A5C1F4F80CE8E3009F081CE8A8156E0CD
:104A8000859FF0011124EC59F94F808187FF77CE83
:104A900083FD75CE9981906290932F068BE190E013
:104AA000E3CFE091F701E23091F070F0E83008F0E8
:104AB00066CE26E0E29FF0011124E45AF74F84818C
:104AC0008770823009F05BCE0E94FB1A58CE80912D
:104AD0006C088770823009F45DC008F58823B9F14D
:104AE000813009F04CCE809130068871883109F40C
:104AF00046CE81E00E94F11F80913006885F80934E
:104B000030060E941E168091FF0190910002A09134
:104B10000102B09102020A96A11DB11D32C083307C
:104B200009F462C0843009F02ACE81E00E94F11FAE
:104B30000E941E168091FF0190910002A091010237
:104B4000B091020288539F4FAF4FBF4F1AC0809160
:104B5000300685FD14CE81E00E94F11F8091300661
:104B60008062809330060E941E168091FF01909112
:104B70000002A0910102B09102028C599F4FAF4FE9
:104B8000BF4F8093FF0190930002A0930102B09366
:104B90000202F5CD81E00E94F11F80912E06C090A7
:104BA000FF01D0900002E0900102F09002028330F9
:104BB00098F48F5F80932E060E941E16A4E1CA0E01
:104BC000D11CE11CF11CC092FF01D0920002E092C6
:104BD0000102F0920202D3CD0E941E16B2E3CB0E68
:104BE000D11CE11CF11CEFCF81E00E94F11F8091EC
:104BF0003006982F9770973009F4C1CD8F5F80935E
:104C0000300681E0809324078091FF01909100029B
:104C1000A0910102B09102024E96A11DB11DB1CF2B
:104C200090912F069370F92E092F10E0A80147529A
:104C30005F4D6A01FA019491981372C08091300619
:104C4000887109F494C00E949D18F81609F48FC069
:104C5000809130068850809330068091FF019091BA
:104C60000002A0910102B0910202C296A11DB11DE5
:104C70008093FF0190930002A0930102B09302027F
:104C80003A8126E0329FF0011124EC59F94F81E07E
:104C900090E0A0E0B0E00F2C04C0880F991FAA1F7D
:104CA000BB1F0A94D2F780959081892380838091DD
:104CB000300685FF69C00E949D18F81265C080917A
:104CC00030068052809330068091FF01909100025F
:104CD000A0910102B091020288519C4FAF4FBF4F8B
:104CE0008093FF0190930002A0930102B09302020F
:104CF000E091350646E0E49FF0011124EC59F94FAC
:104D000081E090E0A0E0B0E00F2C04C0880F991F74
:104D1000AA1FBB1F0A94D2F78095908189238083B4
:104D200090916C0840913106F801EB52FF4D84914F
:104D3000840FF601C490282F082E000C330B592F36
:104D40005695569556955217130609F04AC0592F95
:104D50005770553031F580912F06806880932F066B
:104D60008BE08093030180E00E94F11F24CD80E05E
:104D70000E94F11F87E00E94E71C81E28093FA0104
:104D800081E08093F90193CF80E00E94F11F88E0D9
:104D90000E94E71C81E28093FA0181E08093F9018F
:104DA000BFCF5630F0F081E0982790936C08E091E7
:104DB000350686E08E9FF0011124EC59F94F94815D
:104DC00090589483A381AF738A9FD0011124AC596A
:104DD000B94F858111969C911197892711968C93D3
:104DE000C2CF4C1509F4E7CCEFEF893128F42A5CE7
:104DF000394FD9011A96EC918DEF8E0F853060F402
:104E00000E2F10E0B6E0EB9FF0011124E45AF74FAB
:104E100084818770813091F180912C078111CBCCF6
:104E200080913006877009F4C6CC83E00E94F11FA0
:104E30008091300681508093300681E080932C076A
:104E400010922B0780912A0690912B0690932707AA
:104E50008093260780912C0690912D062091FD01CC
:104E60003091FE01821B930B9093290780932807B2
:104E700080912F06837080932A079DCC22812A83FC
:104E800030813983622F832F0E944918882309F4C7
:104E900092CC6A8189810E946B188983893108F0DC
:104EA0008ACCF11035C0853008F485CCB981B55075
:104EB000B9833981393108F07ECCE32F032E000C01
:104EC000FF0BEA5CF94F82858B3109F074CC832F9C
:104ED0000E94EF1526E0209FF001219FF00D112484
:104EE000E45AF74F918380834981429F90011124B6
:104EF0002E5E3F4F842F65E00E940E32582F48EE01
:104F00004503C0011124280F391F3383228353CC5A
:104F100042E0F41208C05981543108F04CCCF981B8
:104F2000FB5FF983C6CF898165E00E940E3281E084
:104F3000F81207C0992309F43ECCE981E150E983D6
:104F4000B8CFA3E0FA1203C0943009F434CC29811D
:104F50002F5F2983AECF80913206853038F480915F
:104F6000050280FD28CC0E94191C25CC63706F5F60
:104F70008A810E94B0188370823041F0833009F436
:104F80007AC0813009F079C08AE078C086E18093E8
:104F90003106ADEDEA2EFF24FA94F092FE01E09284
:104FA000FD0160912F0663706F5F8A810E94B018C7
:104FB000082F10E015950795159507950093350670
:104FC000509131065983852F0E94EF15A981AA308F
:104FD00021F026EF3FEFA63111F42AE030E0820FF6
:104FE000931F90932B0680932A06E981B6E0EB9FEE
:104FF000900111242E5E3F4F8E2F65E00E940E32ED
:10500000482F58EE5403C0011124820F931FE6313C
:1050100021F02BEF3FEFEE3011F425E030E0280FC8
:10502000391F2E0D3F1D30932D0620932C06109214
:105030003206802F0E94B81880912F068F7D8064E1
:1050400080932F0687E0809303010F900F900F90BD
:10505000DF91CF911F910F91FF90EF90DF90CF9054
:10506000BF90AF909F908F907F906F905F904F9088
:105070003F902F9008958EE08ACF82E08093310692
:10508000F7EFEF2EFF24FA9488CF84FFB7CB8AEF97
:105090009FEF9093FE018093FD0185E00E94E71C45
:1050A0006091FF01709100028091010290910202D3
:1050B00026E046E10E94761C83E08093FA0181E0BD
:1050C0008093F90183E390E090932B0680932A0666
:1050D00085E190E090932D0680932C068AE08093E2
:1050E000030188CBCC24C394D12CABCB8091310667
:1050F000692D0E940E32382F292F842F0E940E32E4
:10510000381B832F291B922F432F330F550B57FF2B
:1051100003C0519541955109292F092E000C330BDD
:1051200037FF03C0319521953109421753072CF001
:1051300012E087FFDFCB10E0DDCB11E097FDDACB8B
:1051400013E0D8CBB98182E0B23009F081E0800F62
:105150008370E8E08E9FC0011124AA81BB81149660
:105160009C911497977E892B14968C93D8CB109290
:105170002B0700912807109129074091260750918D
:1051800027075B834A8340912A0750E020E0B8015B
:105190008A819B810E942A16882319F010922C077D
:1051A00001CC41E0B8018A819B810E940D1B8823BC
:1051B00009F4F8CBF3CF10929108E0908E08F090AC
:1051C0008F0800918C0810918D089981492F50E02B
:1051D00020E0B701C8010E942A16882319F0109216
:1051E000250700CC40E0B701C8010E940D1B8823B1
:1051F00009F4F8CBF4CF1F920F920FB60F9211243F
:105200008F939F938091E1009091E100937F909321
:10521000E10083FF0FC01092E90091E09093EB0052
:105220001092EC0092E39093ED001092290698E022
:105230009093F00082FF22C093E09093E900909158
:10524000F200992319F09AE39093E80090911A06DE
:10525000992341F090911A06915090931A0691115A
:1052600001C05D9A90912806992341F090912806FB
:10527000915090932806911101C0289A84FF18C07C
:105280008091E2008E7E81608093E2008091E10057
:105290008F7E8093E10080911B068E7E80618093DB
:1052A0001B069F918F910F900FBE0F901F90189526
:1052B00080FFF7CF8091E2008E7E80618093E200D4
:1052C0008091E1008E7E8093E10080911B068E7EAE
:1052D0008160E5CF1F920F920FB60F921124CF92EB
:1052E000DF92EF92FF920F931F932F933F934F9371
:1052F0005F936F937F938F939F93AF93BF93EF933E
:10530000FF93CF93DF93CDB7DEB76C97DEBFCDBFF2
:105310001092E9008091E80083FF25C068E0CE018B
:1053200045960E948F1282EF8093E8008D8987FF57
:1053300039C09091E80090FFFCCF982F907609F04B
:1053400034C19E894F89588D2F89F88C911131C0B5
:10535000803861F5809119068093F1001092F10078
:105360008EEF8093E8006C960FB6F894DEBF0FBE08
:10537000CDBFDF91CF91FF91EF91BF91AF919F9101
:105380008F917F916F915F914F913F912F911F91DD
:105390000F91FF90EF90DF90CF900F900FBE0F9086
:1053A0001F9018959EEF9093E800C7CF1092F100E0
:1053B000D5CF913059F48111D3CF4130510581F6C9
:1053C000809119068D7F80931906CACF933049F4D6
:1053D0008111C6CF4130510519F6809119068260BE
:1053E000F2CF953041F48091E80080FFFCCF206837
:1053F0002093E300B5CF963009F0A9C00B8D1C8D2A
:1054000022E01092E9001092170610921606F2128E
:105410002EC010921506109214060E945E121F8272
:1054200099E09983FA8291E09E8390EA98879AEFB7
:1054300099872091160630911706275F3F4F3C83CE
:105440002B838D831092E900109217061092160696
:10545000109315060093140649E050E0BE016F5FFB
:105460007F4F80E00E9438120E945E1279CF109325
:105470001506009314060E944211DC0112960D914C
:105480001C910115110509F451C1D801ED91FC9150
:105490000480F581E02DBE016B5E7F4FC801099548
:1054A000009709F03EC1F80100851185EACFF3E0CD
:1054B000FF120EC08F89882309F440C0823061F446
:1054C00040E860E182EA91E20E940512811148CF32
:1054D00081E28093EB0047CF813029F440E86BE014
:1054E00086E991E2F1CF833099F70E944211DC0105
:1054F0001296ED90FC908E010F5F1F4F6801E11432
:10550000F10479F0D701ED91FC910680F781E02D4F
:10551000B801C7010995080F111DF701E084F18456
:10552000EECFD8011C92F60101900020E9F73197E7
:10553000BF016C197D0940E0C601C6CF60E871E289
:10554000FB01449150E080E80E94381209CF973067
:1055500009F4BECF983021F481E08093F10000CFB0
:10556000993009F0FDCE837009F0B2CFE3E1F1E0AC
:1055700081E031E096E32191222371F08093E900EC
:105580003093EB00DF0111972C912093EC00909366
:10559000ED008F5F873079F78EE78093EA001092F5
:1055A000EA008F8980932906DBCE8B8D9C8D10922B
:1055B000E900109217061092160690931506809334
:1055C0001406898D811192C08E899D89913A49F482
:1055D000813209F07DCF47E050E068E071E080E083
:1055E000B3CF913209F074CF833269F48F89988DEB
:1055F000B0E0A0E08093040190930501A093060120
:10560000B0930701ADCE803269F48091E80082FF4B
:10561000FCCF67E088E091E00E948F128BEF8093CF
:10562000E8009ECE823209F09BCE8F8980930F01D5
:10563000EEEFFFE7859194918B3F9C4D51F1E0E0B7
:10564000F8E08091080190910901A0910A01B091C0
:105650000B01803B9440A105B105F1F480910F014D
:1056600080FD1AC0EE3F8AE0F80789F587E797E7E3
:1056700091838083809160008093180688E19BE08D
:105680000FB6F894A895809360000FBE90936000C9
:1056900067CEEEEFFAE0D5CF8081918187379747CB
:1056A00009F05ECEA89580916000886180936000CB
:1056B0008091180680936000EE3F2AE0F20789F09F
:1056C0008091FE0A9091FF0A9183808349CE808168
:1056D00091818737980751F29093FF0A8093FE0AD1
:1056E000C5CF1092FF0A1092FE0A3ACE0E944211D4
:1056F000DC0112960D911C910115110509F4E8CEFB
:10570000D801ED91FC910190F081E02DBE016B5E1E
:105710007F4FC8010995811123CEF80100851185BD
:10572000EBCF181619060CF41BCED2CEF1E0FF1207
:10573000BECE64E871E204CF1F920F920FB60F92B3
:1057400011242F933F938F939F93AF93BF93809197
:105750000C0690910D06A0910E06B0910F063091A7
:105760000B0623E0230F2D3758F50196A11DB11D1F
:1057700020930B0680930C0690930D06A0930E06C3
:10578000B0930F068091100690911106A091120619
:10579000B09113060196A11DB11D80931006909340
:1057A0001106A0931206B0931306BF91AF919F917B
:1057B0008F913F912F910F900FBE0F901F901895D2
:1057C00026E8230F0296A11DB11DD2CF2F923F9242
:1057D0004F925F926F927F928F929F92AF92BF9201
:1057E000CF92DF92EF92FF920F931F93CF93DF93AD
:1057F000812C3CE0E32E38E0F32E49E0C42E4DE34B
:10580000D42EAA24AA94BA2C10E000E022242394D7
:10581000312C502E811021C18091320790E0002E52
:1058200002C0959587950A94E2F7209133072223C9
:1058300049F180FD09C085E0809FF001819FF00D56
:105840001124E35DFE4F10820F5F1F4F04301105DE
:1058500001F7F1E08F1213C0DF91CF911F910F91EB
:10586000FF90EF90DF90CF90BF90AF909F908F9080
:105870007F906F905F904F903F902F900895882475
:105880008394C2CF26E3209FE001219FD00D1124F5
:10589000CC5CD84F80959095282F2170922EEEA544
:1058A000EE23B1F08FA59E2F9370891708F4DDC009
:1058B000F0E0F595E795F595E795EE0FFF1FE25CB3
:1058C000FC4F8591949190933E0180933D011FA6DA
:1058D0009CA99923F9F08DA9292F2F77022E000C6E
:1058E000330B821713060CF4CAC08A8197FFC0C01D
:1058F00081508A838A818111BDC081E08A83EA81D7
:10590000F0E0EE0FFF1FE25CFC4F859194919EA3A7
:105910008DA31DAA58A5552319F13AA529A5311122
:1059200019C0422F407426FFADC08DA19EA1850FE6
:10593000911D57FD9A9527FDAAC097FDA6C0442347
:1059400009F4A7C0863B44E2940714F085EB94E287
:105950009EA38DA32F73321708F09DC03F5F3AA717
:105960009BA5992371F0EA81EE2359F08DA52CA512
:10597000482F4F71322F3F71431708F08EC08F5F51
:105980008DA749A9442311F13AA9632F607436FF0A
:10599000B0C08DA19EA12BA950E027FFADC0840F00
:1059A000951F97FDACC0662309F4ADC0863BE4E2C9
:1059B0009E0714F085EB94E29EA38DA33F71822F86
:1059C0008F71831708F0A1C02F5F2BAB89A19AA11B
:1059D000009709F4A1C08F3F980719F001979AA387
:1059E00089A3992009F48DC28091110190E0002EC5
:1059F00002C0959587950A94E2F780FD82C28FA137
:105A000023E0521271C290E09595879580933C01F6
:105A100081101FCF80911101807F09F015CF8091F7
:105A2000540790918A07890F9091C007890F909130
:105A3000F607890F09F468C2C4E3D7E088A10E9481
:105A4000221E998388831AA219A2E696EC16FD06F7
:105A5000A9F780EF80931101F7CE80911001801398
:105A6000F3CE982CC5E4D1E01ACF8F5F8FA730CF4B
:105A70008F5F3FCF803408F442CF8FE33FCF8F5FFB
:105A80008DAB48CF8FA190E052CF90E080E04111E4
:105A90005FCF8FA35FCF1AA663CF807EF1F480E241
:105AA0008DA78DA5807E51F09F3F09F1292F22956A
:105AB0002F70E20F803411F49F70E90F88A9F0E095
:105AC000E80FF11D87FDFA95EE0FFF1FE25CFC4F1A
:105AD000859194919EA38DA354CF803231F426FDFD
