:100000000C9423110C944B110C944B110C944B1128
:100010000C944B110C944B110C944B110C944B11F0
:100020000C944B110C944B110C94BE290C942D2A5A
:100030000C944B110C944B110C944B110C944B11D0
:100040000C944B110C944B110C944B110C944B11C0
:100050000C944B110C944B110C944B110C945F2C81
:100060000C944B110C944B110C944B110C944B11A0
:100070000C944B110C944B110C944B110C944B1190
:100080000C944B110C944B110C944B110C944B1180
:100090000C944B110C944B110C944B110C944B1170
:1000A0000C944B110C945C300C944B119D249F9D2F
:1000B000289F403F41F8520154000DA79F403F4107
:1000C000F814A69F403F41F836A438AA9F403F014C
:1000D000AF9F0C02012A0B60000B0400000081217D
:1000E000A100000030020F00000000AB314159694F
:1000F00081C0000010015100663B8B000000C00071
:100100000018057B2B134262820000300A170000A2
:1001100072006524A40000008000000011A90060A6
:100120003C5C6C8C00300E1F00005000A14181002F
:100130000000C000002019790065329200000030F4
:100140001E2B00007222144B9B0000004000002870
:10015000000000634181000000D426002C21A30090
:10016000215A6A000000102A000000000000000070
:100170000000000704051E0A0201220960000708AA
:10018000000000811949000000C000000C0162005D
:10019000A33A8A00000030020F0000790066339312
:1001A000000000F00617100953B01243830000004E
:1001B000100E0000000000A53C5C6C8C00C000002C
:1001C000180D29A96042825B0000301623000072DE
:1001D000006521A400000040000020000000633101
:1001E00091000000D41E0024197B00214A9A0000CF
:1001F00000102200000000000000000000000604C3
:10020000041E080201190740000004000000A1417B
:1002100081210000B0020B00117A00663B8B0000C8
:10022000008000000005510065329200000050126D
:10023000001800000023446484A4006000070C0040
:10024000A929105B6B00000000000000007300652E
:100250004A9A000000320E1F00004000A221C10097
:1002600000008000000019000000000000000005F0
:1002700002031E0800001A0760000B040000008142
:100280002141A100005002000C007900AB3B8B0023
:100290000000C0000010015000A0335B830000305C
:1002A000061700007200214262920000900A0000CE
:1002B000190000643C5C6C8C00800000000DA30001
:1002C0001242820000006400131C002900AB49990F
:1002D000000000101A0000000000000000000000F4
:1002E0000902020802F10A07140D0100C39CBC9424
:1002F0000B2BA0001300015900A2143C648CB40025
:10030000000000002200046700000000200003003D
:10031000004BBA66936B3B4300C400001C05A02051
:1003200066000000000010020000004181C163036C
:1003300023A300501E0020002000C072626A5A529F
:100340005412001800C200656C5C000000101A0016
:100350000000AB00656C5C00000006060111001C8B
:10036000000006011501260137014A015D017201F5
:1003700088019F01B801D201EE010B022A024B0253
:100380006E029302BA02E40210033F037003A40357
:10039000DC03170455049704DD0427057505C8051B
:1003A00020067D06E0064907B8072D08A9082D0993
:1003B000B9094D0AEA0A900B400CFA0CC00D910ED7
:1003C0006F0F5A1053115B1272139A14D415201721
:1003D0008018F519801B231DDE1EB420A622B5242B
:1003E00020202020434F4E462053444658202020B2
:1003F000494E464F20504C41590020425554544FCD
:100400004E20534348454D45202020204E3C3E532E
:100410002020453C3E5700202020204D53465820A8
:100420004D55534320202053444658204D555445A4
:1004300000204352454154454420425920535447DB
:10044000204F4E45424954204A4F335249002043E1
:100450004F4E54494E55452047414D4520202020C0
:100460004E4557202020434F4E54002020204C451D
:1004700056454C20202020202020202053434F523E
:10048000453A0047414D45204F56455220203A3CC1
:10049000202053434F52453A0044524F494420458F
:1004A000534341504544203A3E202053434F524548
:1004B0003A004143434553532044454E4945443A4D
:1004C0002055534520574849544520434152440044
:1004D0004143434553532044454E4945443A2055F2
:1004E000534520424C41434B204341524400445227
:1004F0004F4944205553454420412054454C4550D4
:100500004F5254204745542048494D0057415443C9
:10051000482049542044524F494420464F554E44A8
:1005200020412053574954434800414C45525420E0
:10053000414C4552542044524F4944204553434175
:1005400050494E4700474554205448415420445296
:100550004F4944204E4F5700444F204E4F54204C9B
:10056000455420544841542044524F494420455357
:10057000434150450049542053544F4C4520544862
:100580004520444541445354415220504C414E5320
:1005900000544849532049532041204E4F20534D89
:1005A0004F4B494E4720464143494C49545900411D
:1005B00052454120353120495320494E204C4F436C
:1005C0004B444F574E0044524F494420513345331A
:1005D00020504C45415345205245504F5254204ED7
:1005E0004F570054484520455849542049532054FA
:1005F00048415420574159203D3D3D3D3E0000CDEE
:1006000000C400BD00B200AF00AC000600000A004C
:100610001200150020002C000001020240509D0E27
:1006200041FAFD3F039F403041FFFD14049F40000D
:100630009F2BAF32AF2EAF2EA72DA7FEFC054CFE91
:10064000FC054C02FC054DFE05DFFE180800C0C08D
:10065000F0F0F830F8183C0C1E0C1E0C1E060F06AD
:100660000F060F060F060F060F060F060F0C1E0CC7
:100670001E0C1E183C30F8F0F8C0F000C000030358
:100680000F0F1F0C1F183C30783078307860F06006
:10069000F060F060F060F060F060F060F0307830B2
:1006A000783078183C0C1F0F1F030F0003E0027313
:1006B0000202027701D200080800000080808080DA
:1006C00080A0305058C8C064060E8B99993D2726EB
:1006D0000C8888C8486020302060C0C0000000003E
:1006E000000000000000C0C0404040400018183822
:1006F00048D8E171333226262E0B19000000000184
:1007000001010100000000010103020604040404C9
:1007100016121B090C8CFEF2322624BC98C04040F5
:10072000404040C0800000000060F09090C0444C09
:100730000E1A92BA08486D293B12060404040703F6
:10074000000001000000000000000307040404048E
:100750000426321359C8ECA436121808089890F0F1
:10076000600A282040402090CCE2FA797D171708D3
:100770000A0505020201015050E8E8F4F4FAFA7D96
:10078000BDF0F8F3F307037B7CFE7F0F0301060245
:1007900003000000007D79FAE2CC90204040200167
:1007A00001020205050A081717BD7DFAFAF4F4E8FC
:1007B000E850507FFE7C7B0307F3F3F8F000000065
:1007C0000003020601030FD0D0E8E8740482BA5D8A
:1007D0005D11110A0A050502020101D0D0E8E87492
:1007E0000482BADDDDC1C1EEEE770783BBDDDD013A
:1007F0000106060303010100005D5DBA820474E88E
:10080000E8D0D00101020205050A0A1111DDDDBAA6
:10081000820474E8E8D0D0DDDDBB830777EEEEC15B
:10082000C1000001010303060601011610000000CB
:1008300000000000000000000080808080C0C0C078
:10084000C0E0E0E0E0C0C0C0C08080808000000068
:10085000000000000000000000040404040E0E0E5E
:100860000E1F1F1F1F3F3F3F3F7F7F7F7FFFFFFF09
:10087000FF7F7F7F7F3F3F3F3F1F1F1F1F0E0E0EDB
:100880000E040404040000000000F0E0F010F8D0B2
:10089000F838FCB8FC7CFE7CFEFEFFFEFF7CFE7C94
:1008A000FEB8FCB8FC50F850F8A0F000F0000000D2
:1008B000000000000000070307000F070F001F0FD4
:1008C0001F003F1F3F007F2A7F153F153F0A1F0A69
:1008D0001F050F050F0207000700000000F0F008D9
:1008E000F8D0F0A0E040C0FEFE01FFC6FE38F806DA
:1008F000FEF9FFC6FE38F870F08CFC02FEFCFCC06E
:10090000C030F0CCFC02FEFCFC04040707080F0F0B
:100910000F1E1F1D1F203F3F3F7C7F437FFFFF8F28
:10092000FF717F7E7F3F3F203F1B1F1C1F0F0F0863
:100930000F07070404000000000000808040C02072
:10094000E010F008F804FC02FEABFF55FF02FE04C5
:10095000FC08F810F020E040C0808000000000009B
:100960000004040606090F080F101F101F203F2067
:100970003F407F407FAAFFD5FF407F407F203F2040
:100980003F101F101F080F090F0606040400000087
:1009900000000000000080008000C080C000E0C0B7
:1009A000E000E0E0E000E0C0E000C080C0008000C7
:1009B000800000000000000000000E040E001F0E6A
:1009C0001F003F1F3F207F2F7F70FF77FFF8FFFB47
:1009D000FF70FF77FF207F2F7F003F1F3F001F0E1C
:1009E0001F000E040E0000000000000000000000C8
:1009F000008080808040C040C0A0E0A0E040C040B7
:100A0000C080808080000000000000000000000026
:100A100000040404040A0E0A0E151F151F2E3F2E93
:100A20003F5B7F5B7FB5FFB5FF5B7F5B7F2E3F2E1C
:100A30003F151F151F0A0E0A0E04040404000000CF
:100A400000000000000000000080808080C0C0C066
:100A5000C060E060E0C0C0C0C08080808000000056
:100A6000000000000000000000040404040E0E0E4C
:100A70000E1B1F1B1F353F353F6E7F6E7FDBFFDB7D
:100A8000FF6E7F6E7F353F353F1B1F1B1F0E0E0E07
:100A90000E04040404000000000000000000000038
:100AA000000080008080C080C0C0E0C0E080C080C6
:100AB000C000800080000000000000000000000076
:100AC0000000040004040E040E0E1F0E1F1B3F1B2B
:100AD0003F357F357F6EFF6EFF357F357F1B3F1BB8
:100AE0003F0E1F0E1F040E040E000400040A208097
:100AF00080000050500000AAAA0000000000000082
:100B0000000000AAAA000055550000AAAA00000093
:100B100000000000100000AAAA000055550000AA1D
:100B2000AA000000000000000000000A0A00000502
:100B300005000002020000000000000000000000AC
:100B4000000000000000000000AAAA0000505000B1
:100B500000808000000010000000000000AAAA0031
:100B60000055550000AAAA00000000000000000087
:100B700000AAAA000055550000AAAA000000000023
:100B8000000000000002020000050500000A0A0043
:100B90000000A000000054000000AA000000550062
:100BA0000000AA000000AA00000055000000AA00F2
:100BB000000055001000AA000000AA000000550027
:100BC0000000AA00000055000000AA000000AA00D2
:100BD0000000550000002A000000150000000A0077
:100BE000AA00000055000000AA0000005400000008
:100BF000A0000000AA00100055000000AA0000009C
:100C000055000000AA000000AA00000055000000E6
:100C1000AA00000055000000AA0000000A00000021
:100C2000150000002A00000055000000AA0000176F
:100C300010000000000000008080C0C0E0C0E0E0C4
:100C4000F0F0F870F878FCB8FCDCFEDCFEEEFFECAF
:100C5000FE74FE70FC78FCF0F8F0F8E0F000E000C4
:100C6000F8F8FEFEFFFFFF1FFFE7FFFBFF7DFF1E03
:100C7000FF0FFF07FF03FF03FF01FFFEFFFEFFFF64
:100C8000FFFFFFFFFF00FFFFFFFFFF00FF00E0E0AF
:100C9000F0F0F8F0F878FC70FC74FEECFEEEFFDC8F
:100CA000FEDCFEB8FC78FC70F8F0F8E0F0C0E0C0C4
:100CB000E080C0008000000000000000FFFFFFFF98
:100CC000FF00FFFFFFFFFFFFFFFEFFFEFF01FF032F
:100CD000FF03FF07FF0FFF1EFF7DFFFBFFE7FF1F67
:100CE000FFFFFFFEFFF8FE00F8000000000000001C
:100CF0008080C0C0E0C0E0E0F0F0F870F878FCB8A8
:100D0000FCDCFEDCFEEEFFECFE74FE70FC78FCF01A
:100D1000F8F0F8E0F000E000F8F8FEFEFFFFFF1F3B
:100D2000FFE7FFFBFF7DFF1E7F0F1F070F0307037A
:100D30000701FFFEFFFEFFFFFFFFFFFFFF00FFFFBA
:100D4000FFFFFF00FF00E0E0F0F0F8F0F878FC7043
:100D5000FC74FEECFEEEFFDCFEDCFEB8FC78FC7002
:100D6000F8F0F8E0F0C0E0C0E080C00080000000D3
:100D700000000000FFFFFFFFFF00FFFFFFFFFFFF7E
:100D8000FFFEFFFEFF01FF03070307070F0F1F1EF4
:100D90003F7DFFFBFFE7FF1FFFFFFFFEFFF8FE00A9
:100DA000F80820000000000000000000FFFFFFFF27
:100DB000FF00FF000000000000000000FFFFFFFF39
:100DC000FF00FF000000000000000000FFFFFFFF29
:100DD000FF00FF0000000000000000007F1F3F1F19
:100DE0003F001F00FFFFFFFFFF00FF0000000000AB
:100DF00000000000FFFFFFFFFF00FF0000000000F9
:100E000000000000FFFFFFFFFF00FF0000000000E8
:100E1000000000001F1F3F1F3F003F0000000000B8
:100E200000000000FFFFFFFFFFFFFF00FFFFFFFFCD
:100E3000FF00FF00FFFFFFFFFFFFFF00FFFFFFFFBF
:100E4000FF00FF00FFFFFFFFFFFFFF00FFFFFFFFAF
:100E5000FF00FF0007070F070F0F1F003F1F3F1F77
:100E60003F001F00FFFFFFFFFF00FFFFFFFFFFFF2F
:100E7000FF00FF00FFFFFFFFFF00FFFFFFFFFFFF7F
:100E8000FF00FF00FFFFFFFFFF00FFFFFFFFFFFF6F
:100E9000FF00FF001F1F3F1F3F003F0F1F070F07EF
:100EA0000F00070F2000FF00FF00FF00FF00FF0002
:100EB000FFFFFF8FFF4FFF1FFFFFFF00FFFFFFFF41
:100EC000FF00FF00FF00FF00FF00FF00FF00FFFF2B
:100ED000FFFFFFFFFFFFFFFFFF00FFFFFFFFFF0020
:100EE000FF80FFC0FFC0FFE0FFE0FFF0FFF7FFEF74
:100EF000FFEFFF5FFF5FFF007F3F7F1F3F003F0F60
:100F00001F070F070F030703070103010300010079
:100F10000100000000000000000000000000FFFFD2
:100F2000FFFFFF00FFFFFF1FFF4FFF8FFFFFFF00CF
:100F3000FF00FF00FF00FF00FF00FF00FFFFFFFFBB
:100F4000FF00FFFFFFFFFFFFFFFFFFFFFF00FF00AE
:100F5000FF00FF00FF00FF00FF003F1F3F3F7F003B
:100F60007F5FFF5FFFEFFFEFFFF7FFF0FFE0FFE0C6
:100F7000FFC0FFC0FF80FF00000000000000000075
:100F8000000000000100010103010303070307073C
:100F90000F070F0F1F0000000000000000000000FE
:100FA000FFFFFF8FFF4FFF1FFFFFFF00FFFFFFFF50
:100FB000FF00FF0000000000000000000000FFFF35
:100FC000FFFFFFFFFFFFFFFFFF00FFFFFFFFFF002F
:100FD000FF80C0C0E0C0E0E0F0E0F0F0FFF7FFEF1E
:100FE000FFEFFF5FFF5FFF007F3F7F1F3F003F0F6F
:100FF0001F070F070F030703070103010300010089
:101000000100000000000000000000000000FFFFE1
:10101000FFFFFF00FFFFFF1FFF4FFF8FFFFFFF00DE
:10102000FF0000000000000000000000FFFFFFFFC5
:10103000FF00FFFFFFFFFFFFFFFFFFFFFF00FF00BD
:10104000000000000000000000003F1F3F3F7F0045
:101050007F5FFF5FFFEFFFEFFFF7FFF0FFE0F0E0E4
:10106000F0C0E0C0E080C000000000000000000010
:10107000000000000100010103010303070307074B
:101080000F070F0F1F100518151015180F500550DA
:10109000155F15550F51265936513659300E260E0B
:1010A000361D361330081000FE00FE38FE38FE38BC
:1010B000FE00FE00FE000000270027022700270296
:1010C00027002700270000000000FF1CFF38FE3823
:1010D000FE00FC00000000000000130127002702B2
:1010E0004F004F000000000000000000FF1CFF0048
:1010F000FC000000000000000000000013012F00B1
:101100004F00000000000000000000000000FF0091
:1011100000000000000000000000000000004F0080
:10112000000000000000000000000000FC1CFF00A8
:10113000FF00000000000000000000004F012F0031
:1011400013000000000000000000FC38FE38FE1C08
:10115000FF00FF000000000000004F024F002701C9
:101160002700130000000000FEFCFE3CFE3CFE3C9D
:10117000FEFCFE00FE0000002703270227022702D4
:1011800027032700270000000000FFFEFF3CFEF8B9
:10119000FE00FC00000000000000130127022707EA
:1011A0004F004F000000000000000000FFFCFF00A7
:1011B000FC000000000000000000000013012F00F0
:1011C0004F00000000000000000000000000FF00D1
:1011D00000000000000000000000000000004F00C0
:1011E000000000000000000000000000FCFEFF0006
:1011F000FF00000000000000000000004F012F0071
:1012000013000000000000000000FCF8FE3CFEFEA1
:10121000FF00FF000000000000004F074F02270101
:101220002700130000000000FCA8FCA8FEA0FE8020
:10123000FE00FC00FC000000270227022702270214
:1012400027022700270000000000FE54FEA0FE0039
:10125000FE00F80000000000000013012702270430
:101260004F004F000000000000000000FE00FE00E4
:10127000F8000000000000000000000013002F0034
:101280004F00000000000000000000000000FE0011
:1012900000000000000000000000000000004F00FF
:1012A000000000000000000000000000F800FE0048
:1012B000FE00000000000000000000004F002F00B2
:1012C00013000000000000000000F800FEA0FE5423
:1012D000FE00FE000000000000004F044F02270146
:1012E000270013000000000038007C00FE08FE0804
:1012F000FE107C00380000002000200020002000AC
:10130000200020002000000000001C00FE08FE203D
:10131000FE0070000000000000001000200020000F
:101320004000400000000000000000001C00FE0023
:10133000700000000000000000000000100020000D
:101340004000000000000000000000000000FE005F
:10135000000000000000000000000000000040004D
:101360000000000000000000000000007000FE000F
:101370001C000000000000000000000040002000F1
:10138000100000000000000000007000FE08FE08D1
:10139000FE001C0000000000000040004000200093
:1013A0002000100000000000FCF8FC00FCA8FCA8D5
:1013B000FCF8FC00FC00000027032700270227029E
:1013C00027032700270000000000FEFCFEA8FCF019
:1013D000FC00F800000000000000130127022707AE
:1013E0004F004F000000000000000000FEF0FE0073
:1013F000F8000000000000000000000013032F00B0
:101400004F00000000000000000000000000FE008F
:1014100000000000000000000000000000004F007D
:10142000000000000000000000000000F8F0FE00D6
:10143000FE00000000000000000000004F032F002D
:1014400013000000000000000000F8F0FCA8FCFC05
:10145000FE00FE000000000000004F074F022701C1
:101460002700130000000000F848FC48FC9CFE9C8C
:10147000FE48FC48FC00F8003F017F017F02FF02AC
:10148000FF017F017F003F00F888FC88FC1CFE1CE8
:10149000FE88FC88FC00F8003F027F027F05FF0504
:1014A000FF027F027F003F00F808FC08FC1CFE1CC6
:1014B000FE08FC08FC00F8003F057F057F0AFF0AD4
:1014C000FF057F057F003F00F808FC08FC1CFE1CA0
:1014D000FE08FC08FC00F8003F0A7F0A7F14FF1496
:1014E000FF0A7F0A7F003F00F808FC08FC1CFE1C76
:1014F000FE08FC08FC00F8003F147F147F28FF283A
:10150000FF147F147F003F00F808FC08FC1CFE1C41
:10151000FE08FC08FC00F8003F287F287F50FF50A1
:10152000FF287F287F003F007858FC5CFEBEFFBE8E
:10153000FF5CFE58FC0078003C307E307E60FF602F
:10154000FF307E307E003C007858FC5CFEBEFFBE63
:10155000FF5CFE58FC0078003C307E307E60FF600F
:10156000FF307E307E003C007858FC5CFEBEFFBE43
:10157000FF5CFE58FC0078003C307E307E60FF60EF
:10158000FF307E307E003C007840FC40FE80FF80D3
:10159000FF40FE40FC0078003C307E307E60FF6003
:1015A000FF307E307E003C007840FC40FE80FF80B3
:1015B000FF40FE40FC0078003C307E307E60FF60E3
:1015C000FF307E307E003C007840FC40FE80FF8093
:1015D000FF40FE40FC0078003C307E307E60FF60C3
:1015E000FF307E307E003C008080C0C0E0E0F0E054
:1015F000F0C0E080C00080003F3D7F3D7F7BFF7BEF
:10160000FF3D7F3D7F003F008080C0C0E0E0F0E014
:10161000F0C0E080C00080003F3D7F3D7F7BFF7BCE
:10162000FF3D7F3D7F003F008080C0C0E0E0F0E0F4
:10163000F0C0E080C00080003F3D7F3D7F7BFF7BAE
:10164000FF3D7F3D7F003F008000C000E000F000D4
:10165000F000E000C00080003F027F027F04FF0432
:10166000FF027F027F003F008000C000E000F0002A
:10167000F000E000C00080003F027F027F04FF0412
:10168000FF027F027F003F008000C000E000F0000A
:10169000F000E000C00080003F027F027F04FF04F2
:1016A000FF027F027F003F252502070207252A004F
:1016B0000523280108001F111F111F101D151711E8
:1016C000151F07041F17151D1F151D01011F1F15CD
:1016D0001F17151F000A00100A00040A110A0A0A3F
:1016E000110A040115020E17161F051F1F150A1FE8
:1016F00011111F110E1F15111F05011F111D1F04B0
:101700001F111F1119111F1F06191F10101F071F6E
:101710001F011F1F111F1F05070F091F1F051A1784
:10172000151D011F011F101F0F100F1F1C1F1B0471
:101730001B071C071915130508FEFFFFFFFEFEBF60
:10174000BFBFFEFEAFAFAFFEFEABABABFE07081FE9
:1017500011151511111F07081F19191F1F1F1F052C
:10176000080E1F1D190E020800FFFFFF18000005DC
:101770000010001B00210026006C0074007D008C0E
:1017800000A700AC00B100C000CF00F000F600FCE4
:10179000000B0111015A01640168016E010612007B
:1017A0001640009D249F41FA0DA741F419A314A3EC
:1017B000FE41F40DA30DA314A319A3FEFD0201FC29
:1017C00002FEFC01FC02FEFC02FD0103FC044CFED7
:1017D000FC044CFCFC044DFC04FD0103FC044CFE29
:1017E000FC044CFCFC044C03FC04FD01034C07FC12
:1017F000044C05FC044C03FD0104FD01034C07FCF3
:10180000044C05FC044C03FC044DFC04FE4030FD7C
:101810000203FD02019E07130017FD01059F31A77A
:101820002FA731A72CA728A72CA725AFFE31A733B8
:10183000A734A733A734A731A733A731A733A72FDE
:10184000A731A72FA731A7FE2DA731AFFE33A734AD
:10185000AFFE38A736A738A734A72FA734A72CAFD9
:10186000FE31A72FA731A72CA728A32CA725B3FEAD
:1018700031A733A734A733A334A734A731A333A7A1
:1018800031A333A733A72FA331A72FA331A731A3A8
:10189000FEA32DA331AFFEA333A334AFFE38A7368A
:1018A000A738A734A72FA334A72CB3FE4000DFDF4F
:1018B000DFCF403041E8FD0108FC09FC0AFD0108CA
:1018C000FC09FC0BFD010C4C07FC09FC0A4DFD0159
:1018D0000C4C07FC09FC0B4DFD010DFC0EFC0FFD33
:1018E000010DFC0EFC10FD01114C07FC0EFC0F4D10
:1018F000FD01114C07FC0EFC104D9F57024904409E
:101900002041FAAFFEFD0314FEFD0215FD0214FC9A
:1019100014FD0F15FC14FD0F159F0208001F001F7A
:101920001E1800C038C6E9ADE1D1DDDDE1FDFDFDE9
:10193000FDFDFDFDFDFDFDFDF5BDF9C638C215023D
:101940000041060808C84848D000F81FDF5F5F9FC5
:101950003FFF18C05048080808086661000820507A
:1019600088502003813943988A888B88898A888A9D
:10197000889B423A0340123810000200101800F011
:10198000F0F8F0F8F8FCF8FCFCFEFCFEFEFFFEFFB1
:10199000FCFEFCFEF8FC80F800800000000000FF68
:1019A000FFFFFFFF7FFFBFFF3FFFFFFFFFFFFFFFC7
:1019B000FFFFFFFFFFFFFFFFFFFFFCFF00FC000F2B
:1019C0000F1F0F1F1C3F1D3F3E7F3F7F7FFF7FFF8D
:1019D0003F7F3F7F1F3F1F3F0F1F0F1F000F000064
:1019E0000000008080F8F8FCFCFEFCFEFEFFFEFF1D
:1019F000FCFEFCFEF8FCF8FCF0F8F0F800F000FC4F
:101A0000FCFFFFFFFFFFFFFFFFFFFFFFFFFFFFFFE9
:101A1000FFFF3FFFBFFF7FFFFFFFFFFF00FF000F44
:101A20000F1F0F1F1F3F1F3F3F7F3F7F7FFF7FFF26
:101A30003F7F3E7F1D3F1C3F0F1F0F1F000F000009
:101A400000000000008080C0C0E0C0E0E0F0E0F0F6
:101A5000F0F8F0F8F8FC78FC70F8F0F800F000E02E
:101A6000E0F8F8FCFCFF7FFF7FFFFFFFFFFFFFFFB9
:101A700041FF6CFF20FF36FF10FFFFFF00FF000F4C
:101A80000F1F0F1F1F3F1C3F3B7F387F7FFF7FFFD4
:101A9000207F377F163F1A3F081F0F1F000F00F0EF
:101AA000F0F870F878FCF8FCF0F8F0F8E0F0E0F00E
:101AB000C0E0C0E080C0008000000000000000FF27
:101AC000FFFF10FF36FF20FF6CFF41FFFFFFFFFF0E
:101AD000FFFF7FFF7FFFFCFFF8FCE0F800E0000F56
:101AE0000F1F081F1A3F163F377F207F7FFF7FFFA2
:101AF000387F3B7F1C3F1F3F0F1F0F1F000F0080D1
:101B000080C0C0E0E0F0F0F8F8FCFCFE54FFAAFF53
:101B1000FCFEF8FCF0F8E0F0C0E080C000800008B7
:101B2000081D083D1D7F5DFFB3FFB3FF65FF66FF26
:101B3000B3FFB3FF5DFF1D7F083D081D00080008CF
:101B40000008001C001C003E003F017F027F017F57
:101B5000017F003F003E001C001C000800080080C0
:101B600080C0C0E0E0F0F0F8F8FCFCFE54FFAAFFF3
:101B7000FCFE78FCB0F8E0F0C0E080C00080000817
:101B8000081D083D1D7F5DFFB3FFB3FF65FF66FFC6
:101B9000B3FFB3FF5DFF1D7F083D081D000800086F
:101BA0000008001C001C003E003F017F027F017FF7
:101BB000017F003F003E001C001C00080008008060
:101BC00080C0C0E0E0F0B0F878FCFCFE54FFAAFF53
:101BD000FCFE78FC30F8E0F0C0E080C00080000837
:101BE000081D083D1D7F5DFFB3FFB3FF65FF66FF66
:101BF000B3FFB3FF5DFF1D7F083D081D000800080F
:101C00000008001C001C003E003F017F027F017F96
:101C1000017F003F003E001C001C000800080080FF
:101C200080C0C0E0E0F030F878FCFCFE54FFAAFF72
:101C3000FCFEF8FCF0F8E0F0C0E080C00080000896
:101C4000081D083D1D7F5DFFB3FFB3FF65FF66FF05
:101C5000B3FFB3FF5DFF1D7F083D081D00080008AE
:101C60000008001C001C003E003F017F027F017F36
:101C7000017F003F003E001C001C0008000800001F
:101C80000000000000000000000000000000000054
:101C90000000000000000000000000000000000044
:101CA0000080008000C000C000E000E000F060F0B4
:101CB000C0E0C0E080C080C0008000800000000F55
:101CC0000D1F0D1F1B3F1B3F377F367F6EFF6EFFC3
:101CD000377F377F1B3F1B3F0D1F0D1F000F00007D
:101CE00000000000000000000000000000000000F4
:101CF00000000000000000000000000000000000E4
:101D00000080008080C080C0C0E0C0E060F000F0D3
:101D100000E000E000C000C0008000800000000F74
:101D20000D1F0D1F1B3F1B3F377F377F6EFF6EFF61
:101D3000367F377F1B3F1B3F0D1F0D1F000F00001D
:101D40000000000000000000000000000000000093
:101D50000000000000000000000000000000000083
:101D60000080008080C080C0C0E0C0E0E0F0E0F013
:101D7000C0E0C0E080C080C0008000800000000F94
:101D80000D1F0D1F1B3F1B3F377F377F6CFF60FF11
:101D9000307F017F193F013F0D1F0D1F000F000015
:101DA0000000000000000000000000000000000033
:101DB0000000000000000000000000000000000023
:101DC0000080008080C080C0C0E0C0E0E0F0E0F0B3
:101DD000C0E0C0E080C080C0008000800000000F34
:101DE0000D1F0D1F013F193F017F307F60FF6CFF0A
:101DF000377F377F1B3F1B3F0D1F0D1F000F00F06C
:101E0000D0F8D0F8B0FCB0FC70FE60FEE0FFE6FF5A
:101E10007CFE7CFEB8FCB8FCD0F8D0F800F000E006
:101E2000A0F1A0F171FB41FFBBFFBBFF76FF76FF86
:101E3000BBFFBBFF41FF71FBA0F1A0F100E0000F71
:101E40000F1F0F1F173F173F327F327F7DFF7DFF30
:101E50003E7F3E7F1F3F1F3F0F1F0F1F000F00F0F1
:101E6000D0F8D0F8B8FCB8FC7CFE7CFEE6FFE0FFC2
:101E700060FE70FEB0FCB0FCD0F8D0F800F000E0DE
:101E8000A0F1A0F171FB41FFBBFFBBFF76FF76FF26
:101E9000BBFFBBFF41FF71FBA0F1A0F100E0000F11
:101EA0000F1F0F1F1F3F1F3F3E7F3E7F7DFF7DFFA8
:101EB000327F327F173F173F0F1F0F1F000F00F0B9
:101EC000D0F8D0F8B8FCB8FC7CFE7CFECEFF0EFF4C
:101ED0000CFE1CFE98FC18FCD0F8D0F800F000E0D6
:101EE000A0F1A0F171FB41FFBBFFBBFF76FF76FFC6
:101EF000BBFFB8FF41FF70FBA0F1A0F100E0000FB5
:101F00000F1F0F1F193F193F367F367F7DFF7DFF63
:101F10003E7F3E7F1F3F1F3F0F1F0F1F000F00F030
:101F2000D0F8D0F818FC98FC1CFE0CFE0EFFCEFF7B
:101F30007CFE7CFEB8FCB8FCD0F8D0F800F000E0E5
:101F4000A0F1A0F170FB41FFB8FFBBFF76FF76FF69
:101F5000BBFFBBFF41FF71FBA0F1A0F100E0000F50
:101F60000F1F0F1F1F3F1F3F3E7F3E7F7DFF7DFFE7
:101F7000367F367F193F193F0F1F0F1F000F1018B4
:101F800000F0F0F8F0F8F8FCF8FCFCFEFCFEFEFFB8
:101F9000FEFFFCFEFCFEF8FCF8FCF0F8F0F800F0A8
:101FA000006363FF7FFFFFFF9FFFE7FFF9FFFFFF76
:101FB000FFFFFFFFFFFFFFFFFFFF7FFF7FFF007FB0
:101FC000000E0C1E0C1F183F1A3F357F357F6BFF2C
:101FD0006BFF357F357F1A3F183F0C1F0C1E000E1C
:101FE00000F0F0F8F0F8F8FCF8FCFCFEFCFEFEFF58
:101FF000FEFFFCFEFCFEF8FCF8FCF0F8F0F800F048
:10200000007F7FFF7FFFFFFFFFFFFFFFFFFFFFFF5F
:10201000FFFFF9FFE7FF9FFFFFFF7FFF63FF006305
:10202000000E0C1E0C1F183F1A3F357F357F6BFFCB
:102030006BFF357F357F1A3F183F0C1F0C1E000EBB
:1020400000F0F0F8F0F8F8FCF8FCFCFEFCFEFEFFF7
:10205000FEFF7CFE7CFE38FCB8FC10F8F0F800F0C7
:10206000007F7FFF7FFFF9FFE7FF9FFFFFFFFFFF7D
:10207000F0FFF9FFF8FFFCFFFCFF7EFF63FF00634A
:10208000000E0C1E0C1F183F1A3F357F357F6BFF6B
:102090006BFF357F357F1A3F183F0C1F0C1E000E5B
:1020A00000F0F0F810F8B8FC38FC7CFE7CFEFEFF77
:1020B000FEFFFCFEFCFEF8FCF8FCF0F8F0F800F087
:1020C000006363FF7EFFFCFFFCFFF8FFF9FFF0FFFA
:1020D000FFFFFFFF9FFFE7FFF9FF7FFF7FFF007F0D
:1020E000000E0C1E0C1F183F1A3F357F357F6BFF0B
:1020F0006BFF357F357F1A3F183F0C1F0C1E000EFB
:10210000008000C080C080FCF8FCFCFEFCFEFEFFEE
:10211000CEFFE0FEF0F878FC78FC30F8F0F800F044
:10212000007F7FFF7FFFF9FF87FFFFFFFFFFFFFFBC
:10213000F1FFF8FFF8FFFCFFFCFF7EFF63FF006389
:10214000000E0C1E0C1F081F0A3F357F357F6BFFEA
:102150006BFF357F357F0A3F081F0C1F0C1E000EDA
:1021600010244054FBFF05018040102020804010C7
:10217000020A160ED5F08D14A1C881CFD9F1AF2077
:1021800000030000030016000201000040009F4011
:10219000309D180DBF44080DDF4619AF41FCBF57F5
:1021A000019F403001BF440C01DF4619AF41FCAF35
:1021B0009F8B213E2272296B2214287D22E122ADC1
:1021C000226B28A0222E22551B222241295A1608B2
:1021D0000B000202020000090400000102020000DC
:1021E0000524001001052401010104240206052430
:1021F0000600010705810310004009040100020ADE
:1022000000000007050202400000070583024000AD
:10221000000403090412010002EF020140412336C9
:102220008000010102030141726475696E6F204CE8
:102230004C430041726475696E6F204C656F6E612E
:1022400072646F00E53011241FBECFEFDAE0DEBF0D
:10225000CDBF11E0A0E0B1E0E8EDF5E602C00590E9
:102260000D92AC32B107D9F728E0ACE2B1E001C081
:102270001D92A437B207E1F711E1C3E2D1E104C036
:102280002197FE010E94DD32C232D107C9F70E94B8
:102290000B310C94EA320C940000FC0180910D0784
:1022A000882311F13FB7F89482E08093E9002091F0
:1022B000F200822F90E01816190614F481E090E0E5
:1022C000882339F0289844E640930C074091F100A8
:1022D0004083222339F02091F200211103C02BE624
:1022E0002093E8003FBF08958FEF9FEF08952FB729
:1022F000F89483E08093E9009091E800892F807240
:1023000095FF04C09091F20080E4891B2FBF0895CF
:102310008091040781110DC082E08093000784E062
:1023200080930107109203071092020781E08093C7
:10233000040780E097E00895CF93DF931F92CDB715
:10234000DEB76983DC01ED91FC910280F381E02D21
:1023500041E050E0BE016F5F7F4F09950F90DF9124
:10236000CF91089583E08093E9008091F200882363
:1023700019F08AE38093E80008950E94771190E0B5
:102380000895CF93DF931F92CDB7DEB7FC0184850C
:10239000958597FD08C02FEF3FEF358724870F9075
:1023A000DF91CF910895CE0101960E944D110197C2
:1023B00019F4898190E0F3CF8FEF9FEFF0CF0F9367
:1023C0001F93CF93DF931F92CDB7DEB78C01FC0133
:1023D0008485958597FF0BC0CE0101960E944D1113
:1023E000019771F4898190E0F80195878487F8015D
:1023F000848595850F90DF91CF911F910F9108955E
:102400008FEF9FEFF1CFFC018485958597FD0BC081
:102410009FB7F89482E08093E9008091F2009FBF1B
:1024200090E0019608959FB7F89482E08093E900C8
:102430008091F2009FBF90E008954091FA0650917C
:10244000FB062091F8063091F90642175307B4F4C1
:102450009091E8009570E1F39091E80092FD19C029
:102460008093F1008091FA069091FB0601968F739C
:102470009927892B19F48EEF8093E8008091FA0652
:102480009091FB0601969093FB068093FA0681E0FB
:10249000089580E00895EF92FF920F931F93CF93DA
:1024A000DF93F82E192FE62E042F81E0860F880F78
:1024B0000E941D1283E00E941D12CF2DD12FEC0E21
:1024C000FD2EF11CCE15DF05B9F007FF13C0FE018C
:1024D00084910E941D12182F80E00E941D128123FA
:1024E00021968111EFCFDF91CF911F910F91FF9036
:1024F000EF9008958881EDCF81E0F5CFDF92EF92E4
:10250000FF920F931F93CF93DF93D82E8A01EB0195
:102510007B01E40EF51ECE15DF0559F0D7FE12C083
:10252000FE0184910E941D1221968111F4CF0FEFBC
:102530001FEFC801DF91CF911F910F91FF90EF9096
:10254000DF9008958881EECF0F931F93CF93DF9391
:102550001F92CDB7DEB782E0898342E450E06FEC92
:1025600071E280E80E947E120E948811DC011296BE
:102570000D911C910115110589F0D801ED91FC9187
:102580000280F381E02DBE016F5F7F4FC801099586
:1025900097FD04C0F80100851185ECCF89810F906B
:1025A000DF91CF911F910F910895615030F02091EC
:1025B000F100FC0120830196F8CF289884E68093EF
:1025C0000C0708953FB7F8948091F4069091F506B2
:1025D000A091F606B091F70626B5A89B05C02F3F3F
:1025E00019F00196A11DB11D3FBFBA2FA92F982F39
:1025F0008827BC01CD01620F711D811D911D42E034
:10260000660F771F881F991F4A95D1F708958F92FB
:102610009F92AF92BF92CF92DF92EF92FF926B01A7
:102620007C010E94E2124B015C01C114D104E1045F
:10263000F104B9F00E94E212681979098A099B092C
:10264000683E73408105910580F321E0C21AD108EC
:10265000E108F10888EE880E83E0981EA11CB11CE9
:10266000E4CFFF90EF90DF90CF90BF90AF909F901E
:102670008F90089565E070E080E090E00C9407137F
:102680008F929F92AF92BF92CF92DF92EF92FF9282
:102690000F931F93CF93DF936C017B018A0180918D
:1026A0000F01882309F45CC080910D07882309F489
:1026B00057C08091FF0680FF05C08091E0008260D6
:1026C0008093E000E801B12C8AEFA82E93E0892ED8
:1026D0002AE3922E209711F4BB20D9F10E947711A2
:1026E00081110AC0AA94AA20D9F161E070E080E0CB
:1026F00090E00E940713EECF8C171D0611F00CF02E
:102700008C2F9FB7F8948092E9002091E80025FD76
:1027100002C09FBFDFCF282F30E0C21BD30BF701D1
:10272000815020F041914093F100FACFE20EF31E68
:10273000BB2021F09092E800B12CEBCF8091E80013
:1027400085FDE7CF9092E800BB24B394209709F36E
:10275000F3CF5D9884E68093FE06101611063CF0D8
:1027600081E090E0F6019383828310E000E0C801ED
:10277000DF91CF911F910F91FF90EF90DF90CF905D
:10278000BF90AF909F908F9008954F925F926F92FD
:102790007F928F929F92AF92BF92CF92DF92EF92F1
:1027A000FF920F931F93CF93DF934C015901FC2DA0
:1027B000C02FD0E0CE01880D991D181619060CF017
:1027C0006CC020E8821691040CF067C09B012E0DAE
:1027D000311D121613060CF060C0603471050CF048
:1027E0005CC04115510509F458C0E62FE770FE2E74
:1027F000DB0177FD179633E0B595A7953A95E1F79C
:102800003A2F77FF04C0FF2011F03FEF3A0F662701
:1028100077276819790997FC02C070E060E080387A
:1028200091050CF44BC090E89819961BA32F032E2A
:10283000000CBB0B1A2F10953F3F0CF010E021E06D
:102840008E2D877009F420E0E694E694E694E20E7B
:10285000AE0DB11D19971CF028E0E22EE31AE11A23
:10286000310F20E83203D0011124A80DB91DA60FA5
:10287000B71F019F600D711D1124460F571F0F2DAB
:102880000F2C000C110BF33009F41CC1C8F4F1300B
:1028900009F4D0C0F23009F47CC0DF91CF911F91D0
:1028A0000F91FF90EF90DF90CF90BF90AF909F90EF
:1028B0008F907F906F905F904F900895902FB5CF3D
:1028C000FA3FB1F1232F2E0DFB3F39F7321729F3D1
:1028D000BD0163517D4FD12CC12CC91608F0A4C095
:1028E000FA01EC0DFD1DE491F0E04F01002E02C055
:1028F000880C991C0A94E2F737FD06C0FB01808121
:10290000E82CE0948E218083FF2061F0373054F46E
:102910005B01F0E8AF0EB11CE92CE094F501808179
:102920008E218083FFEFCF1ADF0A6F5F7F4FD5CFF5
:10293000232F2E0D321709F4B0CFBD0163517D4F07
:10294000D12CC12CC91608F069C0FA01EC0DFD1D8F
:10295000E491F0E04F01002E02C0880C991C0A940B
:10296000E2F737FD04C0FB01808188298083FF20C6
:1029700051F0373044F45B01F0E8AF0EB11CF501C3
:10298000808189298083FFEFCF1ADF0A6F5F7F4F35
:10299000D9CF6FEF70E00F2C02C0660F771F0A943B
:1029A000E2F760957095772E232F2E0D321709F4DC
:1029B00074CFFD01E351FD4F6F01B12CA12CA9167D
:1029C00038F5FA01EA0DFB1DE491F0E02F01002E2D
:1029D00002C0440C551C0A94E2F737FD05C0F6010D
:1029E0008081862384298083FF2059F037304CF47E
:1029F0004601F0E88F0E911CF40180818721852922
:102A00008083FFEFAF1ABF0A8FEFC81AD80AD7CF5B
:102A10003F5F4C0F5D1FA058BF4FC8CF3F5F4C0FAB
:102A20005D1FA058BF4F86CF3F5F4C0F5D1FA05862
:102A3000BF4F4CCF6A0D7B1D232F2E0D321709F48B
:102A40002CCFFD01E351FD4F6F01B12CA12CA91634
:102A500088F5FB01EA0DFB1D8490912C002E02C02D
:102A6000880C991C0A94E2F780949094FA01EA0D7C
:102A7000FB1D6490712C002E02C0660C771C0A941A
:102A8000E2F737FD05C0F601808188218629808321
:102A9000FF2049F037303CF4F601E058FF4F8081C9
:102AA000892187298083FFEFAF1ABF0A8FEFC81AE9
:102AB000D80ACDCF3F5F4C0F5D1F6C0F7D1FA05814
:102AC000BF4FBCCFC92ED12CFA01E60FF71FA3517F
:102AD000BD4F00E810E00C191D09CC19DD09BE013D
:102AE000660F771F41E050E06A010F2C01C0CC0C4B
:102AF0000A94EAF7592F2E2D792ECF93DF93ED010B
:102B0000EF96EF9622968590A590FF2059F08C9C29
:102B10004001AC9C500137302CF4E880B094EB209D
:102B2000E928E99233233AF0EC90A094EA20E828CF
:102B3000ED920C949C1511965A9529F72A9551F00F
:102B4000572D33951124E60FF11DA00FB11DC00FB5
:102B5000D11DD9CFDF91CF9111249FCECF92EF928B
:102B60000F93FA0104913196E4904E5F5F4F222358
:102B7000F9F0A1E0B0E03E2D377011F4B0E0A0E034
:102B8000EE2DE695E695E695EA0FFB2FF11D0E9FDB
:102B9000D0010F9FB00D112430E0220F331FA29FF0
:102BA000F001A39FF00DB29FF00D11244E0F5F1F97
:102BB00023E0C22E30E020E00E94C5130F91EF9079
:102BC000CF900895CF92EF920F93CF93DF93DC01D4
:102BD000FA0104913196E4904E5F5F4F2223D1F0C9
:102BE000C1E0D0E09E2D977011F4D0E0C0E0EE2D52
:102BF000E695E695E695EC0FFD2FF11D0E9FE001A1
:102C00000F9FD00D11242C9FC0012D9F900D1124DA
:102C1000480F591F8AEFC82E30E020E0CD010E94F6
:102C2000C513DF91CF910F91EF90CF9008958FB1A1
:102C30008095807F669B88601C9B846008951092BD
:102C4000E6023E983F9808953E9A3F9A81E080932D
:102C5000E60208959091ED06982329F49091EE06EE
:102C6000982381E009F480E0089546E0849F900174
:102C700011242E5E3F4F65E00E94A932582F48EE86
:102C80004503C0011124820F931F0895482F65E06A
:102C90000E94A93296E0899F900111242C5F3F4F3A
:102CA000241B31094CE0429FC001439F900D112429
:102CB000039608951092FC011092FD011092FE01FE
:102CC0001092FF01E4E0F2E086E0858380E48683F1
:102CD0008CE08783108683E084831186128688E0E7
:102CE000809303010895E091AF0290E025E0E29F18
:102CF000F0011124E15FFD4F27E030E0281B390B84
:102D000041E050E060E070E004C0440F551F661FD2
:102D1000771F2A95D2F7409521814223418326E0EF
:102D2000289FF001299FF00D1124E25CF74F1482D7
:102D30008091FC019091FD01A091FE01B091FF01F5
:102D4000855B9F4FAF4FBF4F8093FC019093FD0178
:102D5000A093FE01B093FF010895E091AF0285E0DA
:102D6000E89FF0011124E15FFD4F81818F7D818318
:102D70000895A0910202B0910302AA0FBB1F2A9FDF
:102D8000F0012B9FF00D1124660F771F437055271C
:102D900042305105E9F04330510519F141305105F8
:102DA00051F0680F791FE75AFF4F81E0E617F707E8
:102DB00074F480E00CC09C01261B370BB9012FE096
:102DC00030E02E1B3F0B81E06217730794F30895E8
:102DD000EA54FF4F680F791F81E0E617F707BCF34D
:102DE000E8CF9C01261B370BB9012FEA3FEF2E1BC2
:102DF0003F0B81E02617370754F7DBCF1F93CF93A4
:102E0000DF93C82F8091E9029091EA028F70992791
:102E1000892B31F48091F40191E089278093F401AA
:102E20008091F4018823E9F0D0E1DC0F1AE360918E
:102E30000202709103026A5D7F4F8C2F90E0AC011B
:102E400055954795242FCA3310F0212F241B621B60
:102E5000710920E04AE159E10E94AE15CE5FDC1312
:102E6000E6CFDF91CF911F9108954F925F926F92BD
:102E70007F928F929F92AF92BF92CF92DF92EF920A
:102E8000FF920F931F93CF93DF9300D000D000D019
:102E90001F92CDB7DEB7C82EA62ECA01B9019E017A
:102EA0002F5F3F4F7901490110E02AE0422E512C5B
:102EB000612C712C611571058105910579F41982D8
:102EC00011E0F701E10FF11DCF018E199F091017D5
:102ED000A8F4119212E0F8CF173099F31F5FA30105
:102EE00092010E948732F40161934F01B901CA0136
:102EF000611571058105910579F7E3CFE80EF91E9B
:102F0000D12C612CB12CF70182917F01982F990F60
:102F1000980F77247394790E04E0090F4601272D4A
:102F200043EB56E1B501C4010E94E215FFEF8F1A91
:102F30009F0A73940711F3CF639424E0C20ED11C4F
:102F4000611608F327960FB6F894DEBF0FBECDBF0B
:102F5000DF91CF911F910F91FF90EF90DF90CF9075
:102F6000BF90AF909F908F907F906F905F904F90A9
:102F700008950F93CF93DF93D0E0C0E020E046E6C2
:102F800057E1BE0186E790E00E94AE152896C03456
:102F9000D105A1F72091AF0230E050E040E002E01F
:102FA00061E089E70E94351720910A02277030E01E
:102FB00050E040E001E067E18BE70E94351720E038
:102FC0004FE557E16DE170E08AE790E00E94E2157D
:102FD00020910A0230E083E0359527958A95E1F744
:102FE00023703327032E000C440B550B66E28BE74E
:102FF0000E94351720E046E557E16CE270E089E772
:1030000090E00E94E21520910A0225FB222720F978
:1030100030E050E040E065E38BE70E94351720E0A8
:103020004DE457E16BE370E089E790E00E94E21520
:103030008091090220910A0284FF14C02064209329
:103040000A0280910A0286FF1EC02091080247E30F
:1030500057E169E070E08AE790E0DF91CF910F914E
:103060000C94E2158091E9029091EA0264E170E02B
:103070000E94B532892B29F780910802823008F727
:1030800080E42827DCCFDF91CF910F910895BF9284
:10309000CF92DF92EF92FF920F931F93CF93DF9324
:1030A000C091FB01CC23B1F18091FA01882391F109
:1030B0008CE7E82E81E0F82ECC24C394D12CD0E00C
:1030C000B12C00910202109103020A5D1F4F0D1BEB
:1030D0001109F701208143EB56E1B801C7018C5774
:1030E00091400E94E215F701218143EB56E1B801BE
:1030F000C6010E94E215FCE1FB1508F456C0DF5F33
:10310000B39482E0E80EF11CE2E0CE0ED11CFBE3AA
:10311000BF12D7CF2091E9023091EA02C90164E1E0
:1031200070E00E94B532892B41F4C5FF06C0809142
:10313000FA0191E089278093FA0123703327232B2A
:1031400031F4C530C1F198F5C33009F442C0CEEF77
:10315000DFEF10E000E0E0900202F0900302B70120
:10316000675E7F4F600F711F22E041E657E0CE019E
:103170000E94E215B701601B710B23E041E657E0A6
:10318000CE01CE960E94E215055011092A96023E04
:103190008FEF180701F7DF91CF911F910F91FF90EB
:1031A000EF90DF90CF90BF900895D150A9CFC33258
:1031B00081F0C53261F68091F301E3EFF1E02CE795
:1031C00031E0929191832E173F07D9F780937C01CC
:1031D000BECF80917C01ECE7F1E023EF31E09181FB
:1031E00091932E173F07D9F78093F301B0CF8091C9
:1031F000020290910302892B31F48AEF9FEF9093A2
:103200000302809302020C9447189F92AF92BF92E0
:10321000CF92DF92EF92FF920F931F93CF93DF93A2
:10322000A0900301B12CD12CC12CD0E053E0952EFD
:10323000CB2D10E000E07601EE0CFF1C80E3E80EE1
:10324000F11CE5E0EA1560F08AEF8C0F8430E0F1C4
:10325000CB30D1F1C031C1F1C531B1F120E01FC097
:103260008C2F8B198230D1F7D230C1F79091AF02F9
:10327000809100029813F2CF80917B012091E902A6
:103280003091EA0227703327232B31F48F5F692DA9
:103290000E94A93290937B0120917B012B5F60916A
:1032A000020270910302655E7F4F600F711F6C0D0B
:1032B0007D1D4BE258E0C801880F991FF701E81BFC
:1032C000F90BCF010E94AE15CF5F0A5F1F4F0E3181
:1032D000110509F0B6CFDF5FF6E0CF0ED11C85E017
:1032E000B80ED53009F0A4CF8A1508F446C027E2FD
:1032F000E22EF12CC0E00091020210910302B8010D
:10330000625D7F4F2C2F47EB56E0C7010E94E2150C
:10331000CF5FE8E0EE0EF11CC53069F797E1E92ECA
:10332000F12C6801F6E3CF0ED11C2C2F47EB56E0B1
:10333000B601C7010E94E21588E0E80EF11CCF5FDC
:10334000CE3099F78FE0E82EF12C025C1F4F2C2F26
:1033500047EB56E0B801C7010E94E21523E02C0FAD
:1033600047EB56E0B801C701C8960E94E215E8E0B5
:10337000EE0EF11CCF5FC23151F7DF91CF911F915B
:103380000F91FF90EF90DF90CF90BF90AF909F9004
:103390000895362F83506CE00E94A932282F911196
:1033A00018C08EEE830F66E00E94A932911111C001
:1033B0009CEF980F290F20FD0CC0022E000C330B40
:1033C00035952795253028F4982F921B81E095306C
:1033D00008F080E008959AEA899FA001112485E50C
:1033E00091E0689F9001699F300D1124CA01820FFE
:1033F000931F8FEC890F90E064E0959587956A950F
:10340000E1F7982F990F990F890F241B350B92E143
:10341000930F92959F70890F0895CF930E94EB1997
:10342000C82F893158F46091060280910202681B0E
:10343000809104020E94EB1991E08C1390E0892F97
:10344000CF9108950F931F93CF930E94EB19C82F2C
:10345000893128F5E091AF0285E0E89FF001112461
:10346000E15FFD4F8181082F87FF08C06091400810
:1034700080913E080E94EB19C81779F006FF0FC033
:1034800060914608809144080E94EB19C81307C058
:1034900081E0CF911F910F91089580E0FACF8FEFD7
:1034A000F8CFE0910102E150FF0BEE0FFF1FE35553
:1034B000F94F25913491820F932F911DFC01849136
:1034C000089583E00E94511A9091AF02282F30E0B6
:1034D00035952795359527959217130611F4837026
:1034E00008958FEF08956B5F9DE0899F600D112413
:1034F000862F0C94511A8F929F92AF92BF92CF92C7
:10350000DF92EF92FF920F931F93CF93DF93982E4A
:103510001092E5021092DE021092F801CEE3D8E09C
:1035200007E010E0A82EB12C25E0829FC0011124F5
:10353000FC01E05FFD4F6F012CE0822E1C82F60142
:10354000808190E0002E02C0959587950A94E2F75D
:1035500080FF1AC0682D601B892D0E94731AE82E07
:10356000F12C93E0F594E7949A95E1F7F8E1FE15D4
:1035700080F18C838E2D0E944616998388838E2D30
:103580000E9435169B838A83269601501109B0F656
:1035900080914E08982F9770963070F095E09A9D24
:1035A000F0019B9DF00D1124E15FFD4F938197FF8A
:1035B00012C0816080934E08DF91CF911F910F91CF
:1035C000FF90EF90DF90CF90BF90AF909F908F9043
:1035D00008951C82CFCF8E7FEDCFEF92FF920F9395
:1035E0001F93CF93DF9380910902182F1370012F3F
:1035F000000F87FF1CC0D0E0C0E0E02EF12C6091EE
:10360000060270910702665071096C0F7D1F6E19DA
:103610007F09809104029091050220E04BE456E07E
:1036200004970E94AE152896C831D10541F78091C4
:103630000902609106027091070224E084FD07C030
:1036400082FF0DC06091060270910702212F4EE7A4
:103650005FE180910402909105020E94AE15809175
:10366000090287FF1BC0D0E0C0E010E060910602B5
:10367000709107026E5F7F4F6C0F7D1F601B710B97
:10368000809104029091050221E04BE456E00497FA
:103690000E94AE152896C831D10541F7DF91CF9130
:1036A0001F910F91FF90EF900895CF93DF9390912A
:1036B0000E029F5F90930E02C091E902D091EA0240
:1036C0009E0123703327232B51F480910902282F68
:1036D0002370233009F047C08C7F809309029B350B
:1036E00058F0809109028F778460809309021092CC
:1036F0000E0286E0809303010E9447180E9405197C
:103700000E94B9170E94ED1ACE016AE570E00E948E
:10371000B532892B51F5E091AF0285E0E89FF001C9
:103720001124E15FFD4FC281C093AF02D0910B0223
:103730008D2F0E94461690930502809304028D2FD0
:103740000E9435162091020230910302820F931FCE
:10375000909307028093060210920C028C2FDF9147
:10376000CF910C947B1A8F5FB8CFDF91CF910895E2
:103770006F927F928F929F92AF92BF92CF92DF9281
:10378000EF92FF920F931F93CF93DF9300D01F927E
:10379000CDB7DEB70E9447180E94051970EBE72EDF
:1037A00072E0F72EEEEDCE2EE2E0DE2EF6E07F2E7A
:1037B000D701ED917D01EB3109F47AC0E23020F5BB
:1037C0007E9EF0011124E25CF74F848190E09C0121
:1037D000220F331F220F331F2C7163E095958795BD
:1037E0006A95E1F78370822B6281738120910202D6
:1037F00030910302620F731F282F4CE759E180813B
:1038000091810E94AE1554C0E23091F58091F8018B
:1038100081114EC08091E9029091EA028770992748
:10382000892B41F480914F088F5F672D0E94A93248
:1038300090934F0880914E088770282F220F280FF1
:10384000220F80914F08280F60914C0870914D080D
:103850008091020290910302680F791F6A5F7F4F87
:1038600080914A0890914B0845EA50E10496C9CFEF
:10387000E830C8F47E9EF0011124E25CF74F248109
:103880002223B1F0277062817381809102029091AE
:103890000302680F791F675F7F4F808191814BE240
:1038A00058E00397AECFE93009F04CC00E94ED1A02
:1038B000CE14DF0409F07CCF8091E5028823B1F0BB
:1038C0006091E1027091E202809102029091030204
:1038D000680F791F6A5F7F4F8091DF029091E0024D
:1038E00022E145EA50E104960E94AE158091DE0285
:1038F000882309F478C060917008709171088091F4
:10390000020290910302680F791F6A5F7F4F8091D6
:103910006E0890916F0822E145EA50E104960F90FD
:103920000F900F90DF91CF911F910F91FF90EF902B
:10393000DF90CF90BF90AF909F908F907F906F90CF
:103940000C94AE15EB50E03108F0B2CF8E2E912CD6
:103950009594879495948794682CBE2FB370B983FF
:10396000EE0F8E2F90E0FC01EB57FF4E04918A572B
:103970009F4EFC01F49160910202709103028F2F1F
:10398000860F972F911D9B838A8323EAA22E2EE018
:10399000B22EB13081F091EAA92E9DE0B92EB2305D
:1039A00051F03FE2A32E3CE0B32EB33021F48DEE74
:1039B000A82E8AE0B82E10E0282DA5016A817B810F
:1039C000C8010E94AE159981933009F071CF0E9411
:1039D000611A68126DCF6A817B816F5F7F4F282DDE
:1039E000A501C8010ECF0F900F900F90DF91CF91DE
:1039F0001F910F91FF90EF90DF90CF90BF90AF900D
:103A00009F908F907F906F90089520910902822F50
:103A1000807629F080910C028F5F80930C022370D6
:103A20008091020290910302223018F1853E3FEF0F
:103A30009307ACF001979093030280930202809168
:103A400004029091050221502230E8F422E030E097
:103A5000820F931F90930502809304020895809132
:103A60000602909107020196909307028093060246
:103A7000E6CF97FF02C00196DECF809106029091BB
:103A800007020197F1CF2EEF3FEFE2CF4F925F9207
:103A90006F927F928F929F92AF92BF92EF92FF921E
:103AA0000F931F93CF93DF934B015C01C42FD22F51
:103AB00011E081149104A104B10409F010E0A50102
:103AC00094016AE0462E512C612C712C2115310590
:103AD0004105510541F01F5FCA01B901A3019201DF
:103AE0000E948732F3CF1D1708F41D2FC10FDD2769
:103AF000DD1FCC0FDD1FCC0FDD1FC858DE4F00E0EF
:103B00009AE0492E512C612C712C82E090E09C01AE
:103B10002C5731407901C501B401A30192010E94E3
:103B20008732C7018C0F9D1F8837910558F4862F67
:103B3000880F680F81E0860F888382E0860F898373
:103B40006D5F6A830F5F249749015A011013E3CF19
:103B5000DF91CF911F910F91FF90EF90BF90AF90A9
:103B60009F908F907F906F905F904F90089581E02D
:103B7000809314072091130730E0EDE2F1E090E02C
:103B800080E0A901082E02C0559547950A94E2F7F6
:103B900040FF1082019635968430910591F7089583
:103BA00090E0880F991FE0911007F0911107E80F3E
:103BB000F91F8591949120910E0730910F07820F84
:103BC000931F0895EF92FF920F931F93CF93DF936C
:103BD0001092720021E030E03093440120934301C1
:103BE000E6E1F7E048EDDF011D924A95E9F740EF85
:103BF00040931101109215071092140710921307A9
:103C00004FEF4093100159E15093120761E772E0C2
:103C1000709342016093410130933E0120933D0136
:103C20003093DE072093DD0722E42093C00021E0DB
:103C30002093C1004093D10020E82093CF00EC01F5
:103C40002196FC018491D0931107C093100790E056
:103C5000880F991FC80FD91FCE01049690930F07A4
:103C600080930E0736E1E32E37E0F32E10E000E0FC
:103C7000FE01E00FF11F84910E94D01DD7018D93AA
:103C80009C930F5F1F4FB6E3EB0EF11C0430110540
:103C900079F784E080937200DF91CF911F910F91AB
:103CA000FF90EF9008958091E802823020F48CE636
:103CB00097E10C94E21D0895CF938093E80283303E
:103CC000C1F410927200E6E1F7E088EDDF011D9289
:103CD0008A95E9F780EF80931101109215071092F1
:103CE0001407109213078FEF80931001CF910C945B
:103CF0001F16C82F0E9424168CE697E10E94E21D31
:103D0000C23038F080911407811103C0CF910C9418
:103D1000B71DCF910895AF92BF92CF92DF92EF92ED
:103D2000FF920F931F93CF93DF934EE250E06BE12E
:103D300070E080EB92E00E94E332E091AF024E2F00
:103D400050E025E0E29FF0011124E15FFD4F60812A
:103D50002EE090E080E070E0382FFC01E155F94E54
:103D6000E491DC011496EB0102C0D595C795AA95A4
:103D7000E2F7C0FF10C0AE2FB0E0A055BD4FFDEF81
:103D8000F20FFC93FEEFF20F1196FC931197FFEFE9
:103D9000F20F1396FC93DB0102C0B595A7953A95F7
:103DA000E2F7A0FF04C0F0E0E055FD4F2483019648
:103DB0002C5F8430910581F6B090F8010EE318E095
:103DC000D0E0C0E025E0249FC001259F900D112484
:103DD000FC01E05FFD4F7F0187E0C82ED12CAC2EA7
:103DE000F2E0CF1302C0B11017C0F701808190E05C
:103DF00096012C1B3D0B02C0959587952A95E2F7FD
:103E000080FF0AC0F801628180810E94EB19E82FCF
:103E1000F0E0E055FD4FA28621960A5F1F4FC830A3
:103E2000D105E9F6E09109022E2F20729E2F9074A1
:103E30008E2F807691F4E0910B02F0E0E055FD4F7B
:103E400089E08287DF91CF911F910F91FF90EF90D2
:103E5000DF90CF90BF90AF9008958E2F8370222374
:103E600051F0E82FF0E0E555F94EE491F0E0E0552F
:103E7000FD4F29E02083992329F3E82FF0E0E9554D
:103E8000F94EE491F0E0E055FD4F89E08083DACF10
:103E90009091E80290FD51C0E82FF0E0EE0FFF1F77
:103EA000E150FA4F259134918091720082FD2FC02C
:103EB00060911207611101C069E16093120770E01F
:103EC00089E09DE30E94C9327093420160934101F1
:103ED00081E090E0909344018093430190933E01F0
:103EE00080933D019093DE078093DD0782E4809309
:103EF000C00081E08093C1009FEF9093D10090E8D3
:103F00009093CF008093140780EF80931101E7E432
:103F1000F1E084E3DF011D928A95E9F730934601D1
:103F20002093450181E08093100182E08093130784
:103F300080917200846080937200089580910802DD
:103F4000823018F085E00C94481F84E0FCCF80910B
:103F5000090283FD22C090910802915090930802BB
:103F60008860809309020E949E1F8091080281113F
:103F700014C08BE096E00E94E21D8091E80282303E
:103F800030F080911407811102C00E94B71D80910A
:103F90000902877F8061809309020895CF92DF92A2
:103FA000EF92FF920F931F93CF93DF93E82E882316
:103FB00009F441C06091DF027091E0028091E1025A
:103FC0009091E202C090E302F090E4022C2D237065
:103FD0003FEF320FCEEFDFEF323010F4C2E0D0E02F
:103FE000C60FD71F0FEF1FEF223010F001E010E0D7
:103FF000080F191FF394B801CE01EE2091F10E9431
:10400000221A823008F0DAC00E947316D093E002C0
:10401000C093DF021093E2020093E102F092E40207
:104020001092E502DF91CF911F910F91FF90EF90D9
:10403000DF90CF90089560916E0870916F08809125
:104040007008909171084091720850E023E05595F6
:1040500047952A95E1F7242F2370C22EF09073081C
:10406000B5CF0E940D1AD82E882389F00E94A71F71
:10407000D0936F08C0936E08109371080093700876
:10408000F0927308DD2071F21092DE02CBCF85E052
:104090008F1570F74C2D50E020E0B801CE010E9442
:1040A000B916811172C0B801CE01EE2041F00E9414
:1040B000221A823068F40E947316F12CA7CF0E9456
:1040C0000D1AD82E882321F00E94A71FF12CD0CFE3
:1040D000602F8C2F0E94EB19893108F050C0E82F17
:1040E000F0E0E055FD4FE285E93011F0E23008F4F0
:1040F000EBE18DEF8E0F853008F045C06E2F70E03C
:10410000A6E0EA9FF0011124E25CF74F84818770FA
:104110008430A9F1833081F52091AF02B5E02B9F67
:1041200090011124215F3D4F47E050E0461B570BA3
:1041300081E090E0A0E0B0E004C0880F991FAA1FC2
:10414000BB1F4A95D2F78095D90111969C91119782
:10415000892311968C931482DD24D394EE2009F4E4
:10416000B5CFD093E002C093DF021093E202009338
:10417000E1021092E40254CF8150823068F3E110E2
:1041800011C0D12CA3CFE230D1F7E11096CFD0935C
:104190006F08C0936E081093710800937008109216
:1041A000730872CFF12CD093E002C093DF0210931A
:1041B000E2020093E102F092E40234CFB5E0BF15D1
:1041C00090F768CF0F93CF93C22F4370552742309B
:1041D000510519F14330510519F164504130510531
:1041E000D1F088500E94EB198093F601E091F6011E
:1041F000E93160F4F0E0E055FD4F82858093F901EC
:104200008B3121F0CC2379F0893009F4C0E08C2F78
:10421000CF910F910895885FE5CF6D5F8A5FE2CF00
:104220006D5F8650DFCF011106C0882379F3893096
:1042300029F0C1E0ECCF8130D1F7E8CF0E94A71F71
:10424000F8CFCF92DF92EF92FF920F931F93CF930D
:10425000DF93182FC62FD0E086E0189FF0011124BD
:10426000E25CF74FC280D380E080F18020E0AE01B5
:10427000B601C7010E94B916811115C001E01111E4
:1042800001C000E020E0AE01B601C7010E94E220BB
:1042900091E08927DF91CF911F910F91FF90EF90CF
:1042A000DF90CF90089580E0F5CFECE7F1E098E75C
:1042B000DF011D929A95E9F740EE53E0811123C08A
:1042C000ACE7B1E030E020E0FA01E20FF31FE49147
:1042D000EE23C1F0E053E03F79F08E2F880FE80F16
:1042E00081E08E0F8C9382E08E0F11968C93119744
:1042F000ED5F1296EC9312972F5F3F4F14962E317D
:10430000310511F70895FA0194914F5F5F4F9111B4
:10431000FACF8150D3CF1F93CF93DF930E94F7182A
:104320000E940519D0910101ED2FF0E0E05AFE4DF9
:1043300084910E94FE168091150710921507823015
:1043400031F48091F50191E089278093F501C091C6
:10435000F50112E01C0F212F4EE75FE16CE070E0E9
:1043600083E390E00E94AE15212F4CE759E168E10C
:1043700070E08BE490E00E94AE1526E02C0F4CE735
:1043800059E168E170E08BE190E00E94AE152AE00F
:104390002C0F4CE759E164E270E083E690E00E9464
:1043A000AE152EE02C0F4CE759E164E270E083E09B
:1043B00090E00E94AE1580E40E942A16882341F006
:1043C000D33030F482E00E94481FDF5FD0930101B8
:1043D00080E20E942A16882351F0C0910101CC236B
:1043E00031F082E00E94481FC150C09301018CE06F
:1043F0000E942A16882389F081E00E94481FC091FC
:104400000101CF5FC09303018C2F0E945521C23060
:1044100021F48091E80280930101DF91CF911F91F7
:1044200008958AEF9FEF909303028093020280E049
:104430000E94552181E08093FB018093FA01109244
:10444000030108950E9447188CE00E942A168823D1
:1044500021F00E94531E0C94112208950E944718C7
:104460000E9405190E94ED1A8CE00E942A168823EA
:1044700021F00E94531E0C94112208950E94F718F7
:104480000E9405198091E702811122C088E40E94F0
:10449000FE1680E40E942A16882331F082E00E94F2
:1044A000481F84E08093E70280E20E942A16882356
:1044B00029F082E00E94481F1092E7028CE00E94DF
:1044C0002A16882339F081E00E94481F0C9411229B
:1044D00080E6DDCF08950E94F7180E94051983E059
:1044E0008093FB018CE00E942A16882329F081E04A
:1044F0000E94481F0C941122089580911507109274
:104500001507813021F40E94531E0E94112220E0E1
:1045100040E259E164E170E081E390E00C94E2153F
:104520008091AF028770845F0E94552183E0809361
:10453000FB0181E08093FA0186E0809303010895F6
:104540000E9447180E9405190E94B9178CE00E942A
:104550002A1681110C94902208950E948B1E0E94AD
:10456000B81B80910C02853038F48091E90280FFFD
:104570000E94051D0C94B91710920C02809109023B
:104580008F7B809309020E949022F4CF81E2809376
:10459000FB0185E00E9455216091010270E090E0EE
:1045A00080E022E049E00E94461D6091FC0170918C
:1045B000FD018091FE019091FF0126E047E10C94FE
:1045C000461D3F924F925F926F927F928F929F9281
:1045D000AF92BF92CF92DF92EF92FF920F931F9311
:1045E000CF93DF9300D01F92CDB7DEB70E948B1E12
:1045F0000E94B81B6091090265FD1BC464FD69C07F
:104600008091E90280FD46C00091020210910302F0
:1046100060910602601B809104020E94EB198931AF
:1046200010F480930B022091E702622F70E07B83ED
:104630006A83FB01E859FE4DF4900E9417168F2102
:10464000F81609F46FC1EA81FB81E759FE4DF49039
:104650000E9417168F2191E0F81609F464C1EA81CF
:10466000FB81E659FE4DF4900E9417168F2192E0CF
:10467000F81609F458C18A819B8185599E4DFC0129
:10468000F491F9830E9417162981822393E0281759
:1046900009F449C188E00E942A16882329F00E9463
:1046A000C62289E08093030184E00E942A16D82E56
:1046B000882379F03091AF023A83B0900002809164
:1046C0000B023B1155C28C3009F052C288E0809336
:1046D00003018091090283FF31C490910D029F5F15
:1046E00090930D022091E9023091EA022370332762
:1046F000232B21F424E0822780930902913F40F08C
:1047000080910902877F84608093090210920D02D4
:104710008091090284FDF0C08091E9029091EA0243
:1047200066E070E00E94B532892B09F0CFC06EE3DD
:1047300078E07B836A8310E000E055E0652E67E057
:10474000C62ED12C70E3A72EB12C33243394502ED7
:10475000E091AF026E9EF0011124E15FFD4F818177
:1047600090E09601201B310B02C0959587952A9504
:10477000E2F74C0171E08722992480FF9DC0AA8155
:10478000BB8114962C91822F90E043E095958795FC
:104790004A95E1F7B82FB3707B2E277029836B2FD2
:1047A000802F0E942121882309F427C4EA81FB81FC
:1047B000E080F18044244A94470CF1E082E090E0EC
:1047C000F41510F48EEF9FEFE80EF91EAA81BB815D
:1047D0001196FC92EE9212968D919C91B1E0B715D4
:1047E00018F088248A94982C880E991EEA81FB81FF
:1047F00093828282682D8E2D0E94C919882399F197
:10480000F981242D2370422EF130C1F039813230EC
:1048100051F5682D8E2D0E94EB19482F893108F42F
:10482000BDC3AA81BB8114966C9170E023E075959D
:1048300067952A95E1F7B62FB3704B2E4714E1F137
:10484000642D852D0E942121882369F0EA81FB8156
:104850008481877EF8E04F9E20011124482AAA8196
:10486000BB8114964C92B981B33031F58091E90245
:104870009091EA02B5010E94B532892BE9F480914A
:10488000DE02811119C083E00E94481F3092DE02CF
:10489000EA81FB818081918190936F0880936E08FB
:1048A00082819381909371088093700884818871CC
:1048B00080937208109273082A813B812A5F3F4FD0
:1048C0003B832A830130110509F065C38091E5021D
:1048D000882339F08091E90280FD03C081E00E94C5
:1048E000CE1F8091DE02882339F08091E90280FD9D
:1048F00003C080E00E94CE1F0F900F900F90DF91B9
:10490000CF911F910F91FF90EF90DF90CF90BF90CC
:10491000AF909F908F907F906F905F904F903F905F
:104920000C94B91790E0309109023C7F392B398300
:1049300030930902C0900602D0900702A0900402B2
:10494000B0900502E92EF12C21E0A701B601C501C6
:104950000E94B91681110EC0B601601B710B00E0F8
:1049600021E0A701C5010E94E220811140C00E9400
:10497000051D90CE49814370242F30E0F901E059A4
:10498000FE4D64916A8380910B02681383CEE0919F
:10499000AF0275E0E79FF0011124E15FFD4F8081D8
:1049A00090E02C5F3F4FDC0102C0B595A7952A959A
:1049B000E2F7A0FF6FCE02C0959587954A95E2F782
:1049C00080FD68CEB981B062B0930902862F0E9443
:1049D000461690930502809304028A810E94351640
:1049E000800F911F909307028093060253CEE091AF
:1049F000F901E23091F070F0E83008F04BCE26E09B
:104A0000E29FF0011124E25CF74F848187708230CD
:104A100009F040CE0E94A71F3DCE80914E088770BE
:104A2000823009F45DC008F58823B9F1813009F0BE
:104A300031CE80910A028871883109F42BCE81E051
:104A40000E94481F80910A02885F80930A020E9498
:104A5000AD168091FC019091FD01A091FE01B091F5
:104A6000FF010A96A11DB11D32C0833009F464C054
:104A7000843009F00FCE81E00E94481F0E94AD16DD
:104A80008091FC019091FD01A091FE01B091FF0188
:104A900088539F4FAF4FBF4F1AC080910A0285FDC8
:104AA000F9CD81E00E94481F80910A0280628093C4
:104AB0000A020E94AD168091FC019091FD01A09127
:104AC000FE01B091FF018C599F4FAF4FBF4F8093B4
:104AD000FC019093FD01A093FE01B093FF01DACD9C
:104AE00081E00E94481F0E949E1F80910802C09092
:104AF000FC01D090FD01E090FE01F090FF018330B9
:104B000098F48F5F809308020E94AD16E4E1CE0E08
:104B1000D11CE11CF11CC092FC01D092FD01E0927D
:104B2000FE01F092FF01B6CD0E94AD16F2E3CF0E6A
:104B3000D11CE11CF11CEFCF81E00E94481F809145
:104B40000A02982F9770973009F4A4CD8F5F809355
:104B50000A0281E08093F8018091FC019091FD01AF
:104B6000A091FE01B091FF014E96A11DB11DAFCFE6
:104B70006091090263706983062F10E0D801A05983
:104B8000BE4D7D01FD019491981356C06F5F8A81DF
:104B90000E94731AC82E0E94611AF981F81721F039
:104BA000C694C694CB106FC090E280910A02282F61
:104BB00030E040E250E0D11002C048E150E0242350
:104BC0003523232B09F462C0891B80930A0248EE27
:104BD00053E060E070E0D11004C042E350E060E0D8
:104BE00070E08091FC019091FD01A091FE01B091D7
:104BF000FF01840F951FA61FB71F8093FC019093A0
:104C0000FD01A093FE01B093FF013A8125E0329FA0
:104C1000F0011124E15FFD4F81E090E0A0E0B0E001
:104C2000098004C0880F991FAA1FBB1F0A94D2F7DE
:104C3000809590818923808390914E0840910B024A
:104C4000F801EC59FE4D8491840FF701E490282F70
:104C5000082E000C330B592F569556955695521722
:104C6000130609F041C0592F57705530F9F480915F
:104C700009028068809309028BE08093030180E041
:104C80000E94481F26CDD12C98E08FCF80E00E9453
:104C9000481F89E0D11001C088E00E94552185E2BB
:104CA0008093FB0181E08093FA01C6CF5630E0F09B
:104CB00081E0982790934E0885E02A81829FF00139
:104CC0001124E15FFD4FA381A058A383AF738A9F96
:104CD000D0011124A15FBD4F848111969C91119741
:104CE000892711968C93CBCF4E1509F4F2CCEFEFB8
:104CF000893128F420553D4FD9011A96EC918DEF5A
:104D00008E0F853060F4EE2EF12CB6E0EB9FF001B3
:104D10001124E25CF74F84818770813091F180919A
:104D2000E5028111D6CC80910A02877009F4D1CCBA
:104D300083E00E94481F80910A02815080930A02FA
:104D400081E08093E5021092E40280910402909148
:104D500005029093E0028093DF0280910602909119
:104D600007022091020230910302821B930B909361
:104D7000E2028093E1028091090283708093E30252
:104D8000A8CC128120812A83612F822F0E94C91909
:104D9000882309F49ECC612F8A810E94EB19282F69
:104DA000893108F096CC3981311105C0853008F47D
:104DB00090CC255012C06981623029F4843108F00A
:104DC00088CC2B5F0AC065E00E94A93279817130DE
:104DD00041F52150992309F47CCC2983998199319B
:104DE00008F077CCE92F092E000CFF0BE055FD4FA2
:104DF00082858B3109F06DCC892F0E94461626E002
:104E00002E9D80012F9D100D1124025C174FD8019B
:104E10008D939C9389810E943516F8019383828338
:104E200058CC8981833019F4943009F452CC2F5F27
:104E3000D4CF80910C02853038F48091E90280FD56
:104E400048CC0E94051D45CCF091AF02F9836370F8
:104E50006F5F8F2F0E94731A8370E82FF0E0E05984
:104E6000FE4DE491E0930B02E63131F0F7EFEF2EC7
:104E7000FF24FA94EE3021F4ADEDEA2EFF24FA94EB
:104E8000F0920302E09202026091090263706F5F88
:104E900089810E94731A282F30E035952795359522
:104EA00027953B832A832093AF0210910B02812F19
:104EB0000E9446161A3021F026EF3FEF163111F40A
:104EC0002AE030E0820F931F909305028093040242
:104ED000812F0E943516163121F02BEF3FEF1E3047
:104EE00011F425E030E0820F931F8E0D9F1D9093EB
:104EF00007028093060210920C028A810E947B1A9C
:104F0000809109028F7D80648093090287E08093FD
:104F100003010F900F900F90DF91CF911F910F9190
:104F2000FF90EF90DF90CF90BF90AF909F908F90C9
:104F30007F906F905F904F903F90089584FFECCBEF
:104F40008AEF9FEF909303028093020286E00E9413
:104F500055216091FC017091FD018091FE019091BD
:104F6000FF0126E046E10E94461D83E08093FB019D
:104F700081E08093FA0183E390E0909305028093AF
:104F8000040285E190E090930702809306028AE094
:104F900080930301BDCB01E010E0D9CB80910B02DF
:104FA000662D0E94A932382F292F842F0E94A93202
:104FB000381B832F291B922F432F330F550B57FF7D
:104FC00003C0519541955109292F092E000C330B2F
:104FD00037FF03C03195219531094217530734F04B
:104FE00092E0492E87FF2ACC412C28CC44244394BC
:104FF00097FD24CC83E0482E21CCB98182E0B230E9
:1050000009F081E0870D8370E8E08E9FC0011124D4
:10501000AA81BB8114969C911497977E892B149634
:105020008C9321CC0C94713289E590E00E94122877
:10503000843109F04AC08CE590E00E941228843146
:1050400009F043C08AE590E00E9412288093010293
:105050000E94F7180E9405198091F701811131C053
:1050600088E40E94FE1680E40E942A16882331F00C
:1050700082E00E94481F84E08093F70180E20E9452
:105080002A16882329F082E00E94481F1092F70117
:1050900084E00E942A16882351F081E00E94481F74
:1050A0008091F70181110FC08DE08093030188E0AA
:1050B0000E942A16882361F081E00E94481F0C9408
:1050C000112280E6CECF8EE0F0CF8DE080930301F9
:1050D00008950C9479322F923F924F925F926F9283
:1050E0007F928F929F92AF92BF92CF92DF92EF9278
:1050F000FF920F931F93CF93DF93609101026F5F35
:105100006093010283E0809308028AE590E00E94A8
:10511000692880910102863028F187E00E9455219C
:105120006091FC017091FD018091FE019091FF0161
:1051300026E048E10E94461D8CE080930301DF9148
:10514000CF911F910F91FF90EF90DF90CF90BF9084
:10515000AF909F908F907F906F905F904F903F9017
:105160002F9008951092AF028CE080930B028AEF8B
:105170009FEF909303028093020283E390E0909369
:1051800005028093040284E290E0909307028093EA
:10519000060284E00E94511A8093000280E00E947F
:1051A000511A382E8DE0389E70011124E5E0EE0E84
:1051B000F11C81E00E94511A5701A80EB11CCFE0EA
:1051C000D2E010E0812C912C95E0292E412C512C1D
:1051D00032014394311609F44DC0FE01822D119223
:1051E0008A95E9F760E0812F0E94731A888387E02F
:1051F000C82ED12C05E0602F812F0E94731A8823BE
:1052000069F02981D301C2010C2C04C0880F991FB9
:10521000AA1FBB1F0A94D2F7822B89830F5FE1E09C
:10522000CE1AD1080D3039F767E0812F0E94731A2A
:10523000082F0770053049F4892D8E0D0E94511AF0
:105240008A8393941F5F2596C5CF0630D8F3D82C58
:10525000DA0C8D2D0E94511A8B8381E08D0D0E94F6
:10526000511A8C8383948394073061F78B81806813
:105270008B83E8CF80E00E947B1A0E94C62289E0DF
:105280005CCF109201021092FC011092FD0110926D
:10529000FE011092FF01E4E0F2E086E0858380E405
:1052A00086838CE08783108683E084831186128650
:1052B00064E189E590E00E946928609101028AE535
:1052C00090E00E9469286091E7028BE590E00E94DF
:1052D000692864E18CE590E00E94692888E0809369
:1052E00003010895CF930E94F7180E940519C091F9
:1052F0000101EC2FF0E0E05AFE4D84910E94FE1671
:1053000080E40E942A16882359F0C33048F481E0D3
:105310008C0F809301010E945C1E82E00E94481F56
:1053200080E20E942A16882361F08091010188237F
:1053300041F08150809301010E945C1E82E00E9436
:10534000481F8CE00E942A168823B1F081E00E9459
:10535000481FC091E60282E090E00E947132C817B7
:1053600029F06C2F82E090E00E94793281E08093F6
:105370000101CF910C941122CF9108951F920F92A9
:105380000FB60F9211248F939F938091E10090911B
:10539000E100937F9093E10083FF0FC01092E9003A
:1053A00091E09093EB001092EC0092E39093ED006B
:1053B00010920D0798E09093F00082FF22C093E0D6
:1053C0009093E9009091F200992319F09AE3909359
:1053D000E8009091FE06992341F09091FE069150CD
:1053E0009093FE06911101C05D9A90910C0799234C
:1053F00041F090910C07915090930C07911101C0CE
:10540000289A84FF18C08091E2008E7E816080938C
:10541000E2008091E1008F7E8093E1008091FF06A1
:105420008E7E80618093FF069F918F910F900FBEBB
:105430000F901F90189580FFF7CF8091E2008E7E2D
:1054400080618093E2008091E1008E7E8093E10094
:105450008091FF068E7E8160E5CF1F920F920FB67E
:105460000F921124CF92DF92EF92FF920F931F932E
:105470002F933F934F935F936F937F938F939F935C
:10548000AF93BF93EF93FF93CF93DF93CDB7DEB787
:105490006C97DEBFCDBF1092E9008091E80083FFDA
:1054A00025C068E0CE0145960E94D51282EF809318
:1054B000E8008D8987FF39C09091E80090FFFCCF0C
:1054C000982F907609F034C19E894F89588D2F8985
:1054D000F88C911131C0803861F58091FD06809380
:1054E000F1001092F1008EEF8093E8006C960FB6F9
:1054F000F894DEBF0FBECDBFDF91CF91FF91EF914A
:10550000BF91AF919F918F917F916F915F914F91DB
:105510003F912F911F910F91FF90EF90DF90CF90CF
:105520000F900FBE0F901F9018959EEF9093E8007C
:10553000C7CF1092F100D5CF913059F48111D3CF5C
:105540004130510581F68091FD068D7F8093FD06E7
:10555000CACF933049F48111C6CF4130510519F6B5
:105560008091FD068260F2CF953041F48091E80091
:1055700080FFFCCF20682093E300B5CF963009F080
:10558000A9C00B8D1C8D22E01092E9001092FB0641
:105590001092FA06F2122EC01092F9061092F80636
:1055A0000E94A4121F8299E09983FA8291E09E835F
:1055B00090EA98879AEF99872091FA063091FB0636
:1055C000275F3F4F3C832B838D831092E90010921D
:1055D000FB061092FA061093F9060093F80649E0CC
:1055E00050E0BE016F5F7F4F80E00E947E120E94FC
:1055F000A41279CF1093F9060093F8060E9488113F
:10560000DC0112960D911C910115110509F451C18F
:10561000D801ED91FC910480F581E02DBE016B5E17
:105620007F4FC8010995009709F03EC1F801008538
:105630001185EACFF3E0FF120EC08F89882309F4A9
:1056400040C0823061F440E860E183E392E20E946E
:105650004B12811148CF81E28093EB0047CF81301C
:1056600029F440E86BE087E292E2F1CF833099F7CA
:105670000E948811DC011296ED90FC908E010F5F64
:105680001F4F6801E114F10479F0D701ED91FC910D
:105690000680F781E02DB801C7010995080F111D9B
:1056A000F701E084F184EECFD8011C92F60101905D
:1056B0000020E9F73197BF016C197D0940E0C60170
:1056C000C6CF61E172E2FB01449150E080E80E94A4
:1056D0007E1209CF973009F4BECF983021F481E0D3
:1056E0008093F10000CF993009F0FDCE837009F06E
:1056F000B2CFE3E1F1E081E031E096E321912223B2
:1057000071F08093E9003093EB00DF0111972C9149
:105710002093EC009093ED008F5F873079F78EE750
:105720008093EA001092EA008F8980930D07DBCE08
:105730008B8D9C8D1092E9001092FB061092FA0658
:105740009093F9068093F806898D811192C08E8915
:105750009D89913A49F4813209F07DCF47E050E0CC
:1057600068E071E080E0B3CF913209F074CF83320A
:1057700069F48F89988DB0E0A0E080930401909344
:105780000501A0930601B0930701ADCE803269F404
:105790008091E80082FFFCCF67E088E091E00E9402
:1057A000D5128BEF8093E8009ECE823209F09BCE1B
:1057B0008F8980930F01EEEFFFE7859194918B3FE6
:1057C0009C4D51F1E0E0F8E08091080190910901D1
:1057D000A0910A01B0910B01803B9440A105B10555
:1057E000F1F480910F0180FD1AC0EE3F8AE0F807C6
:1057F00089F587E797E791838083809160008093A4
:10580000FC0688E19BE00FB6F894A89580936000B1
:105810000FBE9093600067CEEEEFFAE0D5CF8081A7
:1058200091818737974709F05ECEA89580916000F7
:105830008861809360008091FC0680936000EE3F59
:105840002AE0F20789F08091FE0A9091FF0A918385
:10585000808349CE808191818737980751F2909358
:10586000FF0A8093FE0AC5CF1092FF0A1092FE0A2B
:105870003ACE0E948811DC0112960D911C910115FF
:10588000110509F4E8CED801ED91FC910190F08169
:10589000E02DBE016B5E7F4FC8010995811123CEBB
:1058A000F80100851185EBCF181619060CF41BCEF4
:1058B000D2CEF1E0FF12BECE65E172E204CF1F92BC
:1058C0000F920FB60F9211242F933F938F939F93B4
:1058D000AF93BF938091F0069091F106A091F206EC
:1058E000B091F3063091EF0623E0230F2D3758F5E2
:1058F0000196A11DB11D2093EF068093F0069093B1
:10590000F106A093F206B093F3068091F40690910D
:10591000F506A091F606B091F7060196A11DB11DFE
:105920008093F4069093F506A093F606B093F706DD
:10593000BF91AF919F918F913F912F910F900FBE8B
:105940000F901F90189526E8230F0296A11DB11DF8
:10595000D2CF2F923F924F925F926F927F928F920F
:105960009F92AF92BF92CF92DF92EF92FF920F93EE
:105970001F93CF93DF93812C3EEEE32E37E0F32E7F
:1059800049E0C42E4DE3D42EAA24AA94BA2C10E0E8
:1059900000E022242394312C502E811021C18091CB
:1059A000130790E0002E02C0959587950A94E2F7C0
:1059B00020911407222349F180FD09C085E0809FD2
:1059C000F001819FF00D1124E35DFE4F10820F5F07
:1059D0001F4F0430110501F7F1E08F1213C0DF9162
:1059E000CF911F910F91FF90EF90DF90CF90BF90DC
:1059F000AF909F908F907F906F905F904F903F906F
:105A00002F90089588248394C2CF26E3209FE0013D
:105A1000219FD00D1124CA5ED84F80959095282FD4
:105A20002170922EEEA5EE23B1F08FA59E2F9370DC
:105A3000891708F4DDC0F0E0F595E795F595E79551
:105A4000EE0FFF1FE05AFC4F8591949190933E0119
:105A500080933D011FA69CA99923F9F08DA9292FB8
:105A60002F77022E000C330B821713060CF4CAC0DA
:105A70008A8197FFC0C081508A838A818111BDC00D
:105A800081E08A83EA81F0E0EE0FFF1FE05AFC4FCD
:105A9000859194919EA38DA31DAA58A5552319F114
:105AA0003AA529A5311119C0422F407426FFADC077
:105AB0008DA19EA1850F911D57FD9A9527FDAAC026
:105AC00097FDA6C0442309F4A7C0863B44E294078F
:105AD00014F085EB94E29EA38DA32F73321708F088
