:100000000C9421110C9449110C9449110C94491130
:100010000C9449110C9449110C9449110C944911F8
:100020000C9449110C9449110C94B42B0C94232C6E
:100030000C9449110C9449110C9449110C944911D8
:100040000C9449110C9449110C9449110C944911C8
:100050000C9449110C9449110C9449110C94552E8F
:100060000C9449110C9449110C9449110C944911A8
:100070000C9449110C9449110C9449110C94491198
:100080000C9449110C9449110C9449110C94491188
:100090000C9449110C9449110C9449110C94491178
:1000A0000C9449110C9452320C944911403F05A70D
:1000B00041F05201A39F403F50188119AB41F0A578
:1000C0009F403F0647CC04AD41F8A39F403F5008F6
:1000D0008347532114AF528141FEAF9F402052818C
:1000E00047532141015020873DCF9F403F41F85267
:1000F0000154000DA79F403F41F814A69F403F4187
:10010000F836A438AA9F403F01AF9F0801030902B7
:100110006400070C00C10024511B4B4394C0000035
:100120001001000059116151814120000F0000C1F0
:1001300000244B1B7B5B2BB802130009B30005A402
:1001400084644424F8061B140D00005BC4946434DA
:10015000041012000000C300673C345C0000C000C3
:10016000001C11280806143C645C54101A0000009E
:10017000620086343C946C4404061F0404030405A6
:10018000000113042000070000C000231C4C5C8405
:1001900034F00A0B08012100A0C292623202F0067C
:1001A0000F0405C1000622426282A2A200130009C8
:1001B0005200027B832B3363800000000DA30004F8
:1001C000672B0B7BAB00180901020B0260000714C0
:1001D0000020A0C28C5C000000A2000F0001000003
:1001E0006500000000008000000015000000000015
:1001F000000000C000001005C200070B332B9CBCA0
:10020000500E002000A300C3716961595172020BA6
:1002100018002100A16292C2320230161F0000BBFA
:100220009BC01C4464340CA80023001920A2B6898A
:1002300059796999901200001D79A9A154B484617B
:100240004105081C03030902020A02F10A07140D02
:100250000100C39CBC940B2BA0001300015900A209
:10026000143C648CB400000000002200046700000D
:10027000000020000300004BBA66936B3B4300C4B0
:1002800000001C05A0206600000000001002000015
:10029000004181C1630323A300501E002000200001
:1002A000C072626A5A525412001800C200656C5C37
:1002B000000000101A000000AB00656C5C0000003C
:1002C00006060111001C0500010902320613000098
:1002D000C100035C343CAC4CE8000F00090929A0C4
:1002E000C494643404200007000023C3749B6B4B48
:1002F0001167800000000520C0A1AB7B6B9B4B8089
:1003000000000001A303565B7B2B833301B405007F
:10031000010E03200007000051001B215C844111E5
:10032000F10E0B10012100023C342C444C800000E3
:10033000000502A2567B2B5B3383400000040020A3
:1003400000146B5B73536710060000005070B02CF4
:100350004CC4A48C011F0400010A02BB0A07000D53
:100360000000B189B9A90000A0000F000120A00081
:100370002C343C444C40000000002101A39B938B93
:10038000837BA00003000502C26689693959000118
:100390001F0300000B0220000700000000C3000044
:1003A000000000A2000B0001A300C87C2C94446450
:1003B00080000000050000000000000000000006B2
:1003C000011501260137014A015D01720188019F73
:1003D00001B801D201EE010B022A024B026E029318
:1003E00002BA02E40210033F037003A403DC031704
:1003F0000455049704DD0427057505C80520067D0E
:1004000006E0064907B8072D08A9082D09B9094DC6
:100410000AEA0A900B400CFA0CC00D910E6F0F5AAD
:100420001053115B1272139A14D41520178018F50B
:1004300019801B231DDE1EB420A622B524202020F7
:1004400020434F4E462053444658202020494E46D4
:100450004F20504C41590020425554544F4E205388
:100460004348454D45202020204E3C3E532020450A
:100470003C3E5700202020204D534658204D5553D8
:100480004320202053444658204D555445002043D6
:1004900052454154454420425920535447204F4E21
:1004A00045424954204A4F3352490020434F4E544D
:1004B000494E55452047414D45202020204E455767
:1004C000202020434F4E54002020204C4556454CC0
:1004D00020202020202020202053434F52453A0046
:1004E00047414D45204F56455220203A3C2020534D
:1004F000434F52453A0044524F49442045534341EB
:10050000504544203A3E202053434F52453A004143
:1005100043434553532044454E4945443A2055539F
:1005200045205748495445204341524400414343E4
:100530004553532044454E4945443A2055534520A0
:10054000424C41434B20434152440044524F4944A2
:10055000205553454420412054454C45504F52545A
:10056000204745542048494D0057415443482049AD
:10057000542044524F494420464F554E4420412078
:1005800053574954434800414C45525420414C452F
:1005900052542044524F4944204553434150494E00
:1005A000470047455420544841542044524F494441
:1005B000204E4F5700444F204E4F54204C4554205E
:1005C000544841542044524F4944204553434150DC
:1005D000450049542053544F4C452054484520442D
:1005E0004541445354415220504C414E53005448CD
:1005F00049532049532041204E4F20534D4F4B49E2
:100600004E4720464143494C4954590041524541C7
:1006100020353120495320494E204C4F434B444F05
:10062000574E0044524F4944205133453320504CDB
:1006300045415345205245504F5254204E4F57008C
:100640005448452045584954204953205448415462
:1006500020574159203D3D3D3D3E00000601FD0033
:10066000F600EB006F21DC00CC00C100B600AC004E
:100670000600000A001200150020002C00000102F4
:1006800002403F9D0E41FAFD3F039F403041FFFD78
:1006900014049F40009F2BAF32AF2EAF2EA72DA783
:1006A000FEFC054CFEFC054C02FC054DFE05DFFE84
:1006B000180800C0C0F0F0F830F8183C0C1E0C1EF2
:1006C0000C1E060F060F060F060F060F060F060F6D
:1006D000060F0C1E0C1E0C1E183C30F8F0F8C0F073
:1006E00000C00003030F0F1F0C1F183C3078307838
:1006F000307860F060F060F060F060F060F060F022
:1007000060F0307830783078183C0C1F0F1F030FE2
:100710000003910356030E03C6024602C7017F0180
:100720000B0108080000008080808080A0305058B5
:10073000C8C064060E8B99993D27260C8888C84846
:100740006020302060C0C0000000000000000000F9
:1007500000C0C0404040400018183848D8E171330C
:100760003226262E0B1900000000010101010000B5
:10077000000001010302060404040416121B090C04
:100780008CFEF2322624BC98C04040404040C080DD
:100790000000000060F09090C0444C0E1A92BA081D
:1007A000486D293B12060404040703000001000001
:1007B0000000000000030704040404042632135957
:1007C000C8ECA436121808089890F0600A28204057
:1007D000402090CCE2FA797D1717080A050502023D
:1007E00001015050E8E8F4F4FAFA7DBDF0F8F3F3B3
:1007F00007037B7CFE7F0F0301060203000000005D
:100800007D79FAE2CC9020404020010102020505EA
:100810000A081717BD7DFAFAF4F4E8E850507FFE95
:100820007C7B0307F3F3F8F00000000003020601ED
:10083000030F161000000000000000000000000080
:1008400080808080C0C0C0C0E0E0E0E0C0C0C0C028
:100850008080808000000000000000000000000098
:10086000040404040E0E0E0E1F1F1F1F3F3F3F3FC8
:100870007F7F7F7FFFFFFFFF7F7F7F7F3F3F3F3F88
:100880001F1F1F1F0E0E0E0E0404040400000000A4
:1008900000F0E0F010F8D0F838FCB8FC7CFE7CFEEC
:1008A000FEFFFEFF7CFE7CFEB8FCB8FC50F850F862
:1008B000A0F000F0000000000000000000070307A7
:1008C000000F070F001F0F1F003F1F3F007F2A7FF1
:1008D000153F153F0A1F0A1F050F050F02070007E6
:1008E00000000000F0F008F8D0F0A0E040C0FEFEEC
:1008F00001FFC6FE38F806FEF9FFC6FE38F870F0B4
:100900008CFC02FEFCFCC0C030F0CCFC02FEFCFC07
:1009100004040707080F0F0F1E1F1D1F203F3F3F36
:100920007C7F437FFFFF8FFF717F7E7F3F3F203FB4
:100930001B1F1C1F0F0F080F0707040400000000F7
:100940000000808040C020E010F008F804FC02FEA7
:10095000ABFF55FF02FE04FC08F810F020E040C099
:10096000808000000000000004040606090F080F44
:10097000101F101F203F203F407F407FAAFFD5FF60
:10098000407F407F203F203F101F101F080F090F9E
:100990000606040400000000000000000080008043
:1009A00000C080C000E0C0E000E0E0E000E0C0E0A7
:1009B00000C080C000800080000000000000000037
:1009C000000E040E001F0E1F003F1F3F207F2F7FD1
:1009D00070FF77FFF8FFFBFF70FF77FF207F2F7F0F
:1009E000003F1F3F001F0E1F000E040E00000000FE
:1009F00000000000000000008080808040C040C0F7
:100A0000A0E0A0E040C040C08080808000000000E6
:100A10000000000000000000040404040A0E0A0E96
:100A2000151F151F2E3F2E3F5B7F5B7FB5FFB5FF68
:100A30005B7F5B7F2E3F2E3F151F151F0A0E0A0E90
:100A40000404040400000000000000000000000096
:100A500080808080C0C0C0C060E060E0C0C0C0C016
:100A60008080808000000000000000000000000086
:100A7000040404040E0E0E0E1B1F1B1F353F353FD2
:100A80006E7F6E7FDBFFDBFF6E7F6E7F353F353F16
:100A90001B1F1B1F0E0E0E0E04040404000000009A
:100AA00000000000000000000080008080C080C0C6
:100AB000C0E0C0E080C080C0008000800000000076
:100AC000000000000000000000040004040E040EFA
:100AD0000E1F0E1F1B3F1B3F357F357F6EFF6EFFC6
:100AE000357F357F1B3F1B3F0E1F0E1F040E040E6C
:100AF000000400040A208080000050500000AAAAD0
:100B000000000000000000000000AAAA00005555E7
:100B10000000AAAA00000000000000100000AAAA1D
:100B2000000055550000AAAA0000000000000000C7
:100B300000000A0A00000505000002020000000093
:100B400000000000000000000000000000000000A5
:100B5000AAAA000050500000808000000010000091
:100B600000000000AAAA000055550000AAAA000033
:100B70000000000000000000AAAA00005555000077
:100B8000AAAA00000000000000000000020200000D
:100B9000050500000A0A000000A000000054000043
:100BA00000AA00000055000000AA000000AA0000F2
:100BB0000055000000AA00000055001000AA000027
:100BC00000AA00000055000000AA00000055000027
:100BD00000AA000000AA000000550000002A000042
:100BE00000150000000A00AA00000055000000AA3D
:100BF00000000054000000A0000000AA00100055F2
:100C0000000000AA00000055000000AA000000AA91
:100C100000000055000000AA00000055000000AAD6
:100C20000000000A000000150000002A0000005526
:100C3000000000AA00001710000000000000008063
:100C400080C0C0E0C0E0E0F0F0F870F878FCB8FCDC
:100C5000DCFEDCFEEEFFECFE74FE70FC78FCF0F8CF
:100C6000F0F8E0F000E000F8F8FEFEFFFFFF1FFFE5
:100C7000E7FFFBFF7DFF1EFF0FFF07FF03FF03FFE3
:100C800001FFFEFFFEFFFFFFFFFFFFFF00FFFFFF73
:100C9000FFFF00FF00E0E0F0F0F8F0F878FC70FCF7
:100CA00074FEECFEEEFFDCFEDCFEB8FC78FC70F8B7
:100CB000F0F8E0F0C0E0C0E080C00080000000007C
:100CC000000000FFFFFFFFFF00FFFFFFFFFFFFFF30
:100CD000FEFFFEFF01FF03FF03FF07FF0FFF1EFFE5
:100CE0007DFFFBFFE7FF1FFFFFFFFEFFF8FE00F8A1
:100CF000000000000000008080C0C0E0C0E0E0F024
:100D0000F0F870F878FCB8FCDCFEDCFEEEFFECFEE0
:100D100074FE70FC78FCF0F8F0F8E0F000E000F809
:100D2000F8FEFEFFFFFF1FFFE7FFFBFF7DFF1E7FBB
:100D30000F1F070F0307030701FFFEFFFEFFFFFF63
:100D4000FFFFFFFF00FFFFFFFFFF00FF00E0E0F0FD
:100D5000F0F8F0F878FC70FC74FEECFEEEFFDCFEC0
:100D6000DCFEB8FC78FC70F8F0F8E0F0C0E0C0E021
:100D700080C0008000000000000000FFFFFFFFFFB8
:100D800000FFFFFFFFFFFFFFFEFFFEFF01FF030766
:100D90000307070F0F1F1E3F7DFFFBFFE7FF1FFF2E
:100DA000FFFFFEFFF8FE00F8082000000000000032
:100DB000000000FFFFFFFFFF00FF00000000000039
:100DC000000000FFFFFFFFFF00FF00000000000029
:100DD000000000FFFFFFFFFF00FF00000000000019
:100DE0000000007F1F3F1F3F001F00FFFFFFFFFFAE
:100DF00000FF000000000000000000FFFFFFFFFFF9
:100E000000FF000000000000000000FFFFFFFFFFE8
:100E100000FF0000000000000000001F1F3F1F3FF8
:100E2000003F000000000000000000FFFFFFFFFF88
:100E3000FFFF00FFFFFFFFFF00FF00FFFFFFFFFFBF
:100E4000FFFF00FFFFFFFFFF00FF00FFFFFFFFFFAF
:100E5000FFFF00FFFFFFFFFF00FF0007070F070F67
:100E60000F1F003F1F3F1F3F001F00FFFFFFFFFF3F
:100E700000FFFFFFFFFFFFFF00FF00FFFFFFFFFF7F
:100E800000FFFFFFFFFFFFFF00FF00FFFFFFFFFF6F
:100E900000FFFFFFFFFFFFFF00FF001F1F3F1F3F7F
:100EA000003F0F1F070F070F00070F2000FF00FF75
:100EB00000FF00FF00FF00FFFFFF8FFF4FFF1FFF3E
:100EC000FFFF00FFFFFFFFFF00FF00FF00FF00FF2D
:100ED00000FF00FF00FFFFFFFFFFFFFFFFFFFFFF1F
:100EE00000FFFFFFFFFF00FF80FFC0FFC0FFE0FF2C
:100EF000E0FFF0FFF7FFEFFFEFFF5FFF5FFF007F17
:100F00003F7F1F3F003F0F1F070F070F0307030718
:100F100001030103000100010000000000000000C7
:100F20000000000000FFFFFFFFFF00FFFFFF1FFFAB
:100F30004FFF8FFFFFFF00FF00FF00FF00FF00FFDC
:100F400000FF00FFFFFFFFFF00FFFFFFFFFFFFFFAE
:100F5000FFFFFFFF00FF00FF00FF00FF00FF00FF9B
:100F6000003F1F3F3F7F007F5FFF5FFFEFFFEFFF0F
:100F7000F7FFF0FFE0FFE0FFC0FFC0FF80FF0000D1
:100F8000000000000000000000000001000101035B
:100F9000010303070307070F070F0F1F00000000DF
:100FA00000000000000000FFFFFF8FFF4FFF1FFF4A
:100FB000FFFF00FFFFFFFFFF00FF00000000000039
:100FC0000000000000FFFFFFFFFFFFFFFFFFFFFF2C
:100FD00000FFFFFFFFFF00FF80C0C0E0C0E0E0F0C7
:100FE000E0F0F0FFF7FFEFFFEFFF5FFF5FFF007F35
:100FF0003F7F1F3F003F0F1F070F070F0307030728
:1010000001030103000100010000000000000000D6
:101010000000000000FFFFFFFFFF00FFFFFF1FFFBA
:101020004FFF8FFFFFFF00FF0000000000000000E7
:10103000000000FFFFFFFFFF00FFFFFFFFFFFFFFBC
:10104000FFFFFFFF00FF00000000000000000000A5
:10105000003F1F3F3F7F007F5FFF5FFFEFFFEFFF1E
:10106000F7FFF0FFE0F0E0F0C0E0C0E080C000007B
:10107000000000000000000000000001000101036A
:10108000010303070307070F070F0F1F10051815AC
:101090001015180F500550155F15550F512659366C
:1010A000513659300E260E361D361330081000FE0C
:1010B00000FE38FE38FE38FE00FE00FE000000276D
:1010C0000027022700270227002700270000000032
:1010D00000FF1CFF38FE38FE00FC0000000000008E
:1010E000001301270027024F004F000000000000FE
:1010F000000000FF1CFF00FC0000000000000000DA
:1011000000000013012F004F00000000000000004D
:101110000000000000FF00000000000000000000D0
:1011200000000000004F0000000000000000000070
:10113000000000FC1CFF00FF000000000000000099
:101140000000004F012F001300000000000000000D
:1011500000FC38FE38FE1CFF00FF0000000000000D
:10116000004F024F0027012700130000000000FE7F
:10117000FCFE3CFE3CFE3CFEFCFE00FE00000027A8
:101180000327022702270227032700270000000069
:1011900000FFFEFF3CFEF8FE00FC00000000000027
:1011A000001301270227074F004F00000000000036
:1011B000000000FFFCFF00FC000000000000000039
:1011C00000000013012F004F00000000000000008D
:1011D0000000000000FF0000000000000000000010
:1011E00000000000004F00000000000000000000B0
:1011F000000000FCFEFF00FF0000000000000000F7
:101200000000004F012F001300000000000000004C
:1012100000FCF8FE3CFEFEFF00FF000000000000A6
:10122000004F074F0227012700130000000000FCB9
:10123000A8FCA8FEA0FE80FE00FC00FC0000002729
:1012400002270227022702270227002700000000AA
:1012500000FE54FEA0FE00FE00F8000000000000AA
:10126000001301270227044F004F00000000000078
:10127000000000FE00FE00F800000000000000007A
:1012800000000013002F004F0000000000000000CD
:101290000000000000FE0000000000000000000050
:1012A00000000000004F00000000000000000000EF
:1012B000000000F800FE00FE00000000000000003A
:1012C0000000004F002F001300000000000000008D
:1012D00000F800FEA0FE54FE00FE0000000000002A
:1012E000004F044F022701270013000000000038C0
:1012F000007C00FE08FE08FE107C00380000002084
:10130000002000200020002000200020000000001D
:10131000001C00FE08FE20FE00700000000000001F
:1013200000100020002000400040000000000000ED
:101330000000001C00FE0070000000000000000023
:10134000000000100020004000000000000000002D
:101350000000000000FE000000000000000000008F
:10136000000000000040000000000000000000003D
:101370000000007000FE001C0000000000000000E3
:1013800000000040002000100000000000000000ED
:10139000007000FE08FE08FE001C000000000000B7
:1013A000004000400020002000100000000000FC71
:1013B000F8FC00FCA8FCA8FCF8FC00FC00000027DE
:1013C0000327002702270227032700270000000029
:1013D00000FEFCFEA8FCF0FC00F80000000000008D
:1013E000001301270227074F004F000000000000F4
:1013F000000000FEF0FE00F8000000000000000009
:1014000000000013032F004F000000000000000048
:101410000000000000FE00000000000000000000CE
:1014200000000000004F000000000000000000006D
:10143000000000F8F0FE00FE0000000000000000C8
:101440000000004F032F0013000000000000000008
:1014500000F8F0FCA8FCFCFE00FE0000000000000C
:10146000004F074F0227012700130000000000F87B
:1014700048FC48FC9CFE9CFE48FC48FC00F8003FF1
:10148000017F017F02FF02FF017F017F003F00F823
:1014900088FC88FC1CFE1CFE88FC88FC00F8003FD1
:1014A000027F027F05FF05FF027F027F003F00F8F9
:1014B00008FC08FC1CFE1CFE08FC08FC00F8003FB1
:1014C000057F057F0AFF0AFF057F057F003F00F8C3
:1014D00008FC08FC1CFE1CFE08FC08FC00F8003F91
:1014E0000A7F0A7F14FF14FF0A7F0A7F003F00F87B
:1014F00008FC08FC1CFE1CFE08FC08FC00F8003F71
:10150000147F147F28FF28FF147F147F003F00F80A
:1015100008FC08FC1CFE1CFE08FC08FC00F8003F50
:10152000287F287F50FF50FF287F287F003F0078CA
:1015300058FC5CFEBEFFBEFF5CFE58FC0078003C21
:10154000307E307E60FF60FF307E307E003C007871
:1015500058FC5CFEBEFFBEFF5CFE58FC0078003C01
:10156000307E307E60FF60FF307E307E003C007851
:1015700058FC5CFEBEFFBEFF5CFE58FC0078003CE1
:10158000307E307E60FF60FF307E307E003C007831
:1015900040FC40FE80FF80FF40FE40FC0078003CA5
:1015A000307E307E60FF60FF307E307E003C007811
:1015B00040FC40FE80FF80FF40FE40FC0078003C85
:1015C000307E307E60FF60FF307E307E003C0078F1
:1015D00040FC40FE80FF80FF40FE40FC0078003C65
:1015E000307E307E60FF60FF307E307E003C0080C9
:1015F00080C0C0E0E0F0E0F0C0E080C00080003FCC
:101600003D7F3D7F7BFF7BFF3D7F3D7F003F008037
:1016100080C0C0E0E0F0E0F0C0E080C00080003FAB
:101620003D7F3D7F7BFF7BFF3D7F3D7F003F008017
:1016300080C0C0E0E0F0E0F0C0E080C00080003F8B
:101640003D7F3D7F7BFF7BFF3D7F3D7F003F0080F7
:1016500000C000E000F000F000E000C00080003FAB
:10166000027F027F04FF04FF027F027F003F0080B1
:1016700000C000E000F000F000E000C00080003F8B
:10168000027F027F04FF04FF027F027F003F008091
:1016900000C000E000F000F000E000C00080003F6B
:1016A000027F027F04FF04FF027F027F003F2525A7
:1016B00002070207252A000523280108001F111F21
:1016C000111F101D151711151F07041F17151D1FBA
:1016D000151D01011F1F151F17151F000A00100AF5
:1016E00000040A110A0A0A110A040115020E17164B
:1016F0001F051F1F150A1F11111F110E1F15111F86
:1017000005011F111D1F041F111F1119111F1F0695
:10171000191F10101F071F1F011F1F111F1F050773
:101720000F091F1F051A17151D011F011F101F0F7D
:10173000100F1F1C1F1B041B071C0719151305087E
:10174000FEFFFFFFFEFEBFBFBFFEFEAFAFAFFEFE60
:10175000ABABABFE07081F11151511111F07081FB2
:1017600019191F1F1F1F05080E1F1D190E02080043
:10177000FFFFFF180000050010001B0021002600DD
:101780006C0074007D008C00A700AC00B100C000AC
:10179000CF00F000F600FC000B0111015A016401BA
:1017A00068016E0106120016400040009F41FA0DCC
:1017B000A741F419A314A3FE41F40DA30DA314A390
:1017C00019A3FEFD0201FC02FEFC01FC02FEFC026C
:1017D000FD0103FC044CFEFC044CFCFC044DFC0429
:1017E000FD0103FC044CFEFC044CFCFC044C03FC1B
:1017F00004FD01034C07FC044C05FC044C03FD01F3
:1018000004FD01034C07FC044C05FC044C03FC04E0
:101810004DFC04FE4030FD0203FD02019E07130053
:1018200017FD01059F31A72FA731A72CA728A72CAB
:10183000A725AFFE31A733A734A733A734A731A715
:1018400033A731A733A72FA731A72FA731A7FE2D85
:10185000A731AFFE33A734AFFE38A736A738A73479
:10186000A72FA734A72CAFFE31A72FA731A72CA7EE
:1018700028A32CA725B3FE31A733A734A733A3345D
:10188000A734A731A333A731A333A733A72FA3319D
:10189000A72FA331A731A3FEA32DA331AFFEA333FE
:1018A000A334AFFE38A736A738A734A72FA334A791
:1018B0002CB3FE4000DFDFDFCF403041E8FD010800
:1018C000FC09FC0AFD0108FC09FC0BFD010C4C079E
:1018D000FC09FC0A4DFD010C4C07FC09FC0B4DFDFD
:1018E000010DFC0EFC0FFD010DFC0EFC10FD0111A5
:1018F0004C07FC0EFC0F4DFD01114C07FC0EFC10BB
:101900004D9F57024904402041FAAFFEFD0314FEEB
:10191000FD0215FD0214FC14FD0F15FC14FD0F153E
:101920009F0208001F001F1E1800C038C6E9ADE165
:10193000D1DDDDE1FDFDFDFDFDFDFDFDFDFDFDF567
:10194000BDF9C638C215020041060808C84848D08B
:1019500000F81FDF5F5F9F3FFF18C050480808086E
:101960000866610008205088502003813943988A16
:10197000888B88898A888A889B423A03401238106B
:10198000000200101800F0F0F8F0F8F8FCF8FCFC89
:10199000FEFCFEFEFFFEFFFCFEFCFEF8FC80F800F5
:1019A000800000000000FFFFFFFFFF7FFFBFFF3F41
:1019B000FFFFFFFFFFFFFFFFFFFFFFFFFFFFFFFF37
:1019C000FFFCFF00FC000F0F1F0F1F1C3F1D3F3EC1
:1019D0007F3F7F7FFF7FFF3F7F3F7F1F3F1F3F0F87
:1019E0001F0F1F000F00000000008080F8F8FCFCB3
:1019F000FEFCFEFEFFFEFFFCFEFCFEF8FCF8FCF029
:101A0000F8F0F800F000FCFCFFFFFFFFFFFFFFFF16
:101A1000FFFFFFFFFFFFFFFFFF3FFFBFFF7FFFFF56
:101A2000FFFFFF00FF000F0F1F0F1F1F3F1F3F3F54
:101A30007F3F7F7FFF7FFF3F7F3E7F1D3F1C3F0F2C
:101A40001F0F1F000F000000000000008080C0C0BA
:101A5000E0C0E0E0F0E0F0F0F8F0F8F8FC78FC70BE
:101A6000F8F0F800F000E0E0F8F8FCFCFF7FFF7F02
:101A7000FFFFFFFFFFFFFF41FF6CFF20FF36FF105E
:101A8000FFFFFF00FF000F0F1F0F1F1F3F1C3F3BFB
:101A90007F387F7FFF7FFF207F377F163F1A3F0809
:101AA0001F0F1F000F00F0F0F870F878FCF8FCF042
:101AB000F8F0F8E0F0E0F0C0E0C0E080C0008000A6
:101AC000000000000000FFFFFF10FF36FF20FF6C4A
:101AD000FF41FFFFFFFFFFFFFF7FFF7FFFFCFFF8DE
:101AE000FCE0F800E0000F0F1F081F1A3F163F37F9
:101AF0007F207F7FFF7FFF387F3B7F1C3F1F3F0F93
:101B00001F0F1F000F008080C0C0E0E0F0F0F8F869
:101B1000FCFCFE54FFAAFFFCFEF8FCF0F8E0F0C06D
:101B2000E080C000800008081D083D1D7F5DFFB3F8
:101B3000FFB3FF65FF66FFB3FFB3FF5DFF1D7F08C7
:101B40003D081D000800080008001C001C003E00A5
:101B50003F017F027F017F017F003F003E001C00AC
:101B60001C00080008008080C0C0E0E0F0F0F8F839
:101B7000FCFCFE54FFAAFFFCFE78FCB0F8E0F0C0CD
:101B8000E080C000800008081D083D1D7F5DFFB398
:101B9000FFB3FF65FF66FFB3FFB3FF5DFF1D7F0867
:101BA0003D081D000800080008001C001C003E0045
:101BB0003F017F027F017F017F003F003E001C004C
:101BC0001C00080008008080C0C0E0E0F0B0F87899
:101BD000FCFCFE54FFAAFFFCFE78FC30F8E0F0C0ED
:101BE000E080C000800008081D083D1D7F5DFFB338
:101BF000FFB3FF65FF66FFB3FFB3FF5DFF1D7F0807
:101C00003D081D000800080008001C001C003E00E4
:101C10003F017F027F017F017F003F003E001C00EB
:101C20001C00080008008080C0C0E0E0F030F878B8
:101C3000FCFCFE54FFAAFFFCFEF8FCF0F8E0F0C04C
:101C4000E080C000800008081D083D1D7F5DFFB3D7
:101C5000FFB3FF65FF66FFB3FFB3FF5DFF1D7F08A6
:101C60003D081D000800080008001C001C003E0084
:101C70003F017F027F017F017F003F003E001C008B
:101C80001C00080008000000000000000000000028
:101C90000000000000000000000000000000000044
:101CA000000000000000000080008000C000C000B4
:101CB000E000E000F060F0C0E0C0E080C080C00064
:101CC0008000800000000F0D1F0D1F1B3F1B3F37C2
:101CD0007F367F6EFF6EFF377F377F1B3F1B3F0DC9
:101CE0001F0D1F000F00000000000000000000009A
:101CF00000000000000000000000000000000000E4
:101D0000000000000000000080008080C080C0C093
:101D1000E0C0E060F000F000E000E000C000C000C3
:101D20008000800000000F0D1F0D1F1B3F1B3F3761
:101D30007F377F6EFF6EFF367F377F1B3F1B3F0D68
:101D40001F0D1F000F000000000000000000000039
:101D50000000000000000000000000000000000083
:101D6000000000000000000080008080C080C0C033
:101D7000E0C0E0E0F0E0F0C0E0C0E080C080C00083
:101D80008000800000000F0D1F0D1F1B3F1B3F3701
:101D90007F377F6CFF60FF307F017F193F013F0D70
:101DA0001F0D1F000F0000000000000000000000D9
:101DB0000000000000000000000000000000000023
:101DC000000000000000000080008080C080C0C0D3
:101DD000E0C0E0E0F0E0F0C0E0C0E080C080C00023
:101DE0008000800000000F0D1F0D1F013F193F01F3
:101DF0007F307F60FF6CFF377F377F1B3F1B3F0DBE
:101E00001F0D1F000F00F0D0F8D0F8B0FCB0FC7030
:101E1000FE60FEE0FFE6FF7CFE7CFEB8FCB8FCD076
:101E2000F8D0F800F000E0A0F1A0F171FB41FFBB99
:101E3000FFBBFF76FF76FFBBFFBBFF41FF71FBA03F
:101E4000F1A0F100E0000F0F1F0F1F173F173F32E7
:101E50007F327F7DFF7DFF3E7F3E7F1F3F1F3F0F15
:101E60001F0F1F000F00F0D0F8D0F8B8FCB8FC7CB2
:101E7000FE7CFEE6FFE0FF60FE70FEB0FCB0FCD032
:101E8000F8D0F800F000E0A0F1A0F171FB41FFBB39
:101E9000FFBBFF76FF76FFBBFFBBFF41FF71FBA0DF
:101EA000F1A0F100E0000F0F1F0F1F1F3F1F3F3E6B
:101EB0007F3E7F7DFF7DFF327F327F173F173F0FD1
:101EC0001F0F1F000F00F0D0F8D0F8B8FCB8FC7C52
:101ED000FE7CFECEFF0EFF0CFE1CFE98FC18FCD014
:101EE000F8D0F800F000E0A0F1A0F171FB41FFBBD9
:101EF000FFBBFF76FF76FFBBFFB8FF41FF70FBA083
:101F0000F1A0F100E0000F0F1F0F1F193F193F361E
:101F10007F367F7DFF7DFF3E7F3E7F1F3F1F3F0F50
:101F20001F0F1F000F00F0D0F8D0F818FC98FC1C11
:101F3000FE0CFE0EFFCEFF7CFE7CFEB8FCB8FCD093
:101F4000F8D0F800F000E0A0F1A0F170FB41FFB87C
:101F5000FFBBFF76FF76FFBBFFBBFF41FF71FBA01E
:101F6000F1A0F100E0000F0F1F0F1F1F3F1F3F3EAA
:101F70007F3E7F7DFF7DFF367F367F193F193F0F04
:101F80001F0F1F000F101800F0F0F8F0F8F8FCF821
:101F9000FCFCFEFCFEFEFFFEFFFCFEFCFEF8FCF877
:101FA000FCF0F8F0F800F0006363FF7FFFFFFF9F95
:101FB000FFE7FFF9FFFFFFFFFFFFFFFFFFFFFFFF4F
:101FC000FF7FFF7FFF007F000E0C1E0C1F183F1AC3
:101FD0003F357F357F6BFF6BFF357F357F1A3F18AD
:101FE0003F0C1F0C1E000E00F0F0F8F0F8F8FCF8A3
:101FF000FCFCFEFCFEFEFFFEFFFCFEFCFEF8FCF817
:10200000FCF0F8F0F800F0007F7FFF7FFFFFFFFF9C
:10201000FFFFFFFFFFFFFFFFFFF9FFE7FF9FFFFF4E
:10202000FF7FFF63FF0063000E0C1E0C1F183F1A9A
:102030003F357F357F6BFF6BFF357F357F1A3F184C
:102040003F0C1F0C1E000E00F0F0F8F0F8F8FCF842
:10205000FCFCFEFCFEFEFFFEFF7CFE7CFE38FCB8B6
:10206000FC10F8F0F800F0007F7FFF7FFFF9FFE73A
:10207000FF9FFFFFFFFFFFF0FFF9FFF8FFFCFFFCF2
:10208000FF7EFF63FF0063000E0C1E0C1F183F1A3B
:102090003F357F357F6BFF6BFF357F357F1A3F18EC
:1020A0003F0C1F0C1E000E00F0F0F810F8B8FC38C2
:1020B000FC7CFE7CFEFEFFFEFFFCFEFCFEF8FCF856
:1020C000FCF0F8F0F800F0006363FF7EFFFCFFFC1B
:1020D000FFF8FFF9FFF0FFFFFFFFFF9FFFE7FFF9AA
:1020E000FF7FFF7FFF007F000E0C1E0C1F183F1AA2
:1020F0003F357F357F6BFF6BFF357F357F1A3F188C
:102100003F0C1F0C1E000E008000C080C080FCF839
:10211000FCFCFEFCFEFEFFCEFFE0FEF0F878FC7853
:10212000FC30F8F0F800F0007F7FFF7FFFF9FF87B9
:10213000FFFFFFFFFFFFFFF1FFF8FFF8FFFCFFFCD1
:10214000FF7EFF63FF0063000E0C1E0C1F081F0ABA
:102150003F357F357F6BFF6BFF357F357F0A3F084B
:102160001F0C1F0C1E000E10244054FBFF050140E5
:10217000109D325201475321410119DF9D249F8058
:1021800040102020804010020A160ED5F08D14A1B8
:10219000C881CFD9F1AF20009D1EAF403F41F84725
:1021A000532133AB33A933A32EBF57019F3123E40F
:1021B00023642B1124022A232493245F24592A46C2
:1021C00024D423011CC823332B7516080B000202EC
:1021D00002000009040000010202000005240010B2
:1021E000010524010101042402060524060001075B
:1021F00005810310004009040100020A00000007E5
:1022000005020240000007058302400000040309A4
:102210000412010002EF0201404123368000010157
:1022200002030141726475696E6F204C4C4300419A
:10223000726475696E6F204C656F6E6172646F00B9
:10224000DB3211241FBECFEFDAE0DEBFCDBF11E0DD
:10225000A0E0B1E0E6EBF9E602C005900D92AC32E9
:10226000B107D9F728E0ACE2B1E001C01D92A53773
:10227000B207E1F711E1C1E2D1E104C02197FE010B
:102280000E94CC34C032D107C9F70E9401330C94AC
:10229000D9340C94000080911507811118C081E099
:1022A000809315072091140730E0EDE2F1E090E013
:1022B00080E0A901082E02C0559547950A94E2F7DF
:1022C00040FF1082019635968430910591F708956C
:1022D000FC0180910E07882311F13FB7F89482E04A
:1022E0008093E9002091F200822F90E018161906E1
:1022F00014F481E090E0882339F0289844E6409374
:102300000D074091F1004083222339F02091F20023
:10231000211103C02BE62093E8003FBF08958FEF03
:102320009FEF08952FB7F89483E08093E900909190
:10233000E800892F807295FF04C09091F20080E43C
:10234000891B2FBF08958091050781110DC082E080
:102350008093010784E08093020710920407109293
:10236000030781E08093050781E097E00895CF930C
:10237000DF931F92CDB7DEB76983DC01ED91FC914D
:102380000280F381E02D41E050E0BE016F5F7F4F9E
:1023900009950F90DF91CF91089583E08093E90034
:1023A0008091F200882319F08AE38093E800089571
:1023B0000E94921190E00895CF93DF931F92CDB7C2
:1023C000DEB7FC018485958597FD08C02FEF3FEFB0
:1023D000358724870F90DF91CF910895CE01019624
:1023E0000E946811019719F4898190E0F3CF8FEF73
:1023F0009FEFF0CF0F931F93CF93DF931F92CDB733
:10240000DEB78C01FC018485958597FF0BC0CE015A
:1024100001960E946811019771F4898190E0F8019A
:1024200095878487F801848595850F90DF91CF91FA
:102430001F910F9108958FEF9FEFF1CFFC018485DD
:10244000958597FD0BC09FB7F89482E08093E900D3
:102450008091F2009FBF90E0019608959FB7F89495
:1024600082E08093E9008091F2009FBF90E00895A0
:102470004091FB065091FC062091F9063091FA0636
:1024800042175307B4F49091E8009570E1F39091EE
:10249000E80092FD19C08093F1008091FB069091B5
:1024A000FC0601968F739927892B19F48EEF809380
:1024B000E8008091FB069091FC0601969093FC0643
:1024C0008093FB0681E0089580E00895EF92FF92EB
:1024D0000F931F93CF93DF93F82E192FE62E042F1F
:1024E00081E0860F880F0E94381283E00E94381224
:1024F000CF2DD12FEC0EFD2EF11CCE15DF05B9F03E
:1025000007FF13C0FE0184910E943812182F80E04B
:102510000E943812812321968111EFCFDF91CF9154
:102520001F910F91FF90EF9008958881EDCF81E08A
:10253000F5CFDF92EF92FF920F931F93CF93DF932C
:10254000D82E8A01EB017B01E40EF51ECE15DF05C6
:1025500059F0D7FE12C0FE0184910E9438122196D4
:102560008111F4CF0FEF1FEFC801DF91CF911F91C1
:102570000F91FF90EF90DF9008958881EECF0F9339
:102580001F93CF93DF931F92CDB7DEB782E089838D
:1025900042E450E06BEC71E280E80E9499120E94E4
:1025A000A311DC0112960D911C910115110589F002
:1025B000D801ED91FC910280F381E02DBE016F5FA7
:1025C0007F4FC801099597FD04C0F801008511856A
:1025D000ECCF89810F90DF91CF911F910F910895DA
:1025E000615030F02091F100FC0120830196F8CF7A
:1025F000289884E680930D0708953FB7F89480915A
:10260000F5069091F606A091F706B091F80626B56A
:10261000A89B05C02F3F19F00196A11DB11D3FBF1A
:10262000BA2FA92F982F8827BC01CD01620F711DE9
:10263000811D911D42E0660F771F881F991F4A95E3
:10264000D1F708958F929F92AF92BF92CF92DF926F
:10265000EF92FF926B017C010E94FD124B015C0125
:10266000C114D104E104F104B9F00E94FD1268190B
:1026700079098A099B09683E73408105910580F3B9
:1026800021E0C21AD108E108F10888EE880E83E043
:10269000981EA11CB11CE4CFFF90EF90DF90CF906B
:1026A000BF90AF909F908F90089565E070E080E0BC
:1026B00090E00C9422138F929F92AF92BF92CF9290
:1026C000DF92EF92FF920F931F93CF93DF936C01F2
:1026D0007B018A0180911001882309F45CC08091FC
:1026E0000E07882309F457C08091000780FF05C0BA
:1026F0008091E00082608093E000E801B12C8AEFD5
:10270000A82E93E0892E2AE3922E209711F4BB2065
:10271000D9F10E94921181110AC0AA94AA20D9F17C
:1027200061E070E080E090E00E942213EECF8C1711
:102730001D0611F00CF08C2F9FB7F8948092E900E1
:102740002091E80025FD02C09FBFDFCF282F30E099
:10275000C21BD30BF701815020F041914093F1004F
:10276000FACFE20EF31EBB2021F09092E800B12CCC
:10277000EBCF8091E80085FDE7CF9092E800BB2485
:10278000B394209709F3F3CF5D9884E68093FF0616
:10279000101611063CF081E090E0F60193838283ED
:1027A00010E000E0C801DF91CF911F910F91FF90E1
:1027B000EF90DF90CF90BF90AF909F908F90089553
:1027C0004F925F926F927F928F929F92AF92BF9241
:1027D000CF92DF92EF92FF920F931F93CF93DF93ED
:1027E0004C015901FC2DC02FD0E0CE01880D991D60
:1027F000181619060CF06CC020E8821691040CF033
:1028000067C09B012E0D311D121613060CF060C01F
:10281000603471050CF05CC04115510509F458C0D5
:10282000E62FE770FE2EDB0177FD179633E0B595B6
:10283000A7953A95E1F73A2F77FF04C0FF2011F0F2
:102840003FEF3A0F662777276819790997FC02C08E
:1028500070E060E0803891050CF44BC090E8981966
:10286000961BA32F032E000CBB0B1A2F10953F3F76
:102870000CF010E021E08E2D877009F420E0E69442
:10288000E694E694E20EAE0DB11D19971CF028E017
:10289000E22EE31AE11A310F20E83203D0011124AD
:1028A000A80DB91DA60FB71F019F600D711D112442
:1028B000460F571F0F2D0F2C000C110BF33009F48E
:1028C0001CC1C8F4F13009F4D0C0F23009F47CC066
:1028D000DF91CF911F910F91FF90EF90DF90CF90FC
:1028E000BF90AF909F908F907F906F905F904F9030
:1028F0000895902FB5CFFA3FB1F1232F2E0DFB3F56
:1029000039F7321729F3BD0162517D4FD12CC12C0B
:10291000C91608F0A4C0FA01EC0DFD1DE491F0E029
:102920004F01002E02C0880C991C0A94E2F737FD73
:1029300006C0FB018081E82CE0948E218083FF207B
:1029400061F0373054F45B01F0E8AF0EB11CE92CB4
:10295000E094F50180818E218083FFEFCF1ADF0A9A
:102960006F5F7F4FD5CF232F2E0D321709F4B0CFD5
:10297000BD0162517D4FD12CC12CC91608F069C030
:10298000FA01EC0DFD1DE491F0E04F01002E02C0B4
:10299000880C991C0A94E2F737FD04C0FB01808182
:1029A00088298083FF2051F0373044F45B01F0E840
:1029B000AF0EB11CF501808189298083FFEFCF1A0A
:1029C000DF0A6F5F7F4FD9CF6FEF70E00F2C02C02F
:1029D000660F771F0A94E2F760957095772E232F84
:1029E0002E0D321709F474CFFD01E251FD4F6F0136
:1029F000B12CA12CA91638F5FA01EA0DFB1DE491C2
:102A0000F0E02F01002E02C0440C551C0A94E2F79E
:102A100037FD05C0F6018081862384298083FF204D
:102A200059F037304CF44601F0E88F0E911CF40158
:102A30008081872185298083FFEFAF1ABF0A8FEF3E
:102A4000C81AD80AD7CF3F5F4C0F5D1FA058BF4FA1
:102A5000C8CF3F5F4C0F5D1FA058BF4F86CF3F5F71
:102A60004C0F5D1FA058BF4F4CCF6A0D7B1D232F0D
:102A70002E0D321709F42CCFFD01E251FD4F6F01ED
:102A8000B12CA12CA91688F5FB01EA0DFB1D849041
:102A9000912C002E02C0880C991C0A94E2F78094B5
:102AA0009094FA01EA0DFB1D6490712C002E02C077
:102AB000660C771C0A94E2F737FD05C0F6018081A9
:102AC000882186298083FF2049F037303CF4F601C5
:102AD000E058FF4F8081892187298083FFEFAF1A5B
:102AE000BF0A8FEFC81AD80ACDCF3F5F4C0F5D1FCA
:102AF0006C0F7D1FA058BF4FBCCFC92ED12CFA013F
:102B0000E60FF71FA251BD4F00E810E00C191D0998
:102B1000CC19DD09BE01660F771F41E050E06A0164
:102B20000F2C01C0CC0C0A94EAF7592F2E2D792EC8
:102B3000CF93DF93ED01EF96EF9622968590A590C7
:102B4000FF2059F08C9C4001AC9C500137302CF494
:102B5000E880B094EB20E928E99233233AF0EC9036
:102B6000A094EA20E828ED920C94B71511965A9596
:102B700029F72A9551F0572D33951124E60FF11DB1
:102B8000A00FB11DC00FD11DD9CFDF91CF9111245E
:102B90009FCECF92EF920F93FA0104913196E49079
:102BA0004E5F5F4F2223F9F0A1E0B0E03E2D377079
:102BB00011F4B0E0A0E0EE2DE695E695E695EA0F7B
:102BC000FB2FF11D0E9FD0010F9FB00D112430E09F
:102BD000220F331FA29FF001A39FF00DB29FF00DB3
:102BE00011244E0F5F1F23E0C22E30E020E00E9430
:102BF000E0130F91EF90CF900895CF92EF920F9343
:102C0000CF93DF93DC01FA0104913196E4904E5F9B
:102C10005F4F2223D1F0C1E0D0E09E2D977011F4D8
:102C2000D0E0C0E0EE2DE695E695E695EC0FFD2FA1
:102C3000F11D0E9FE0010F9FD00D11242C9FC001AC
:102C40002D9F900D1124480F591F8AEFC82E30E098
:102C500020E0CD010E94E013DF91CF910F91EF9022
:102C6000CF9008958FB18095807F669B88601C9B74
:102C7000846008951092E8023E983F9808953E9A25
:102C80003F9A81E08093E80208959091EE069823A0
:102C900029F49091EF06982381E009F480E00895EB
:102CA00046E0849F900111242E5E3F4F65E00E9414
:102CB0009834582F48EE4503C0011124820F931F0A
:102CC0000895482F65E00E94983496E0899F90010E
:102CD00011242C5F3F4F241B31094CE0429FC0015F
:102CE000439F900D1124039608951092C8011092ED
:102CF000C9011092CA011092CB01E0EDF1E086E02B
:102D0000858380E486838CE08783108683E08483D8
:102D10001186128688E0809304010895282FE62FFB
:102D2000893120F4611104C0853030F48FEF0895AB
:102D3000623041F48431D0F7F0E0E559FE4D8491E2
:102D4000820F089565E00E949834E13019F49111E2
:102D5000F3CFECCFE33081F7943071F7E7CFE09118
:102D6000B10285E0E89FF0011124EF5EFD4F818103
:102D70008F7D81830895A091CE01B091CF01AA0FDC
:102D8000BB1F2A9FF0012B9FF00D1124660F771FA8
:102D90004370552742305105E9F04330510519F190
:102DA0004130510551F0680F791FE75AFF4F81E01C
:102DB000E617F70774F480E00CC09C01261B370B64
:102DC000B9012FE030E02E1B3F0B81E06217730743
:102DD00094F30895EA54FF4F680F791F81E0E617D6
:102DE000F707BCF3E8CF9C01261B370BB9012FEA8C
:102DF0003FEF2E1B3F0B81E02617370754F7DBCF41
:102E00001F93CF93DF93C82F8091EA029091EB023A
:102E10008F709927892B31F48091BE0191E0892729
:102E20008093BE018091BE018823E9F0D0E1DC0FE0
:102E30001AE36091CE017091CF016A5D7F4F8C2FB4
:102E400090E0AC0155954795242FCA3310F0212FFF
:102E5000241B621B710920E041E259E10E94C9155F
:102E6000CE5FDC13E6CFDF91CF911F9108954F9293
:102E70005F926F927F928F929F92AF92BF92CF920A
:102E8000DF92EF92FF920F931F93CF93DF9300D0C7
:102E900000D000D01F92CDB7DEB7C82EA62ECA0133
:102EA000B9019E012F5F3F4F7901490110E02AE0EF
:102EB000422E512C612C712C6115710581059105F3
:102EC00079F4198211E0F701E10FF11DCF018E199C
:102ED0009F091017A8F4119212E0F8CF173099F358
:102EE0001F5FA30192010E947634F40161934F01A8
:102EF000B901CA01611571058105910579F7E3CF23
:102F0000E80EF91ED12C612CB12CF70182917F01C2
:102F1000982F990F980F77247394790E04E0090F76
:102F20004601272D4AEB56E1B501C4010E94FD156B
:102F3000FFEF8F1A9F0A73940711F3CF639424E075
:102F4000C20ED11C611608F327960FB6F894DEBFA7
:102F50000FBECDBFDF91CF911F910F91FF90EF90EA
:102F6000DF90CF90BF90AF909F908F907F906F90A9
:102F70005F904F9008950F93CF93DF93D0E0C0E020
:102F800020E04DE657E1BE0186E790E00E94C915BA
:102F90002896C034D105A1F72091B10230E050E06D
:102FA00040E002E061E089E70E9437172091D601F6
:102FB000277030E050E040E001E067E18BE70E94DD
:102FC000371720E046E657E16DE170E08AE790E0D0
:102FD0000E94FD152091D60130E083E035952795BC
:102FE0008A95E1F723703327032E000C440B550B11
:102FF00066E28BE70E94371720E04DE557E16CE26F
:1030000070E089E790E00E94FD152091D60125FB34
:10301000222720F930E050E040E065E38BE70E9492
:10302000371720E044E557E16BE370E089E790E073
:103030000E94FD158091D5012091D60184FF14C016
:1030400020642093D6018091D60186FF1EC0209176
:10305000D4014EE357E169E070E08AE790E0DF9148
:10306000CF910F910C94FD158091EA029091EB02A3
:1030700064E170E00E94A434892B29F78091D40187
:10308000823008F780E42827DCCFDF91CF910F91C1
:103090000895BF92CF92DF92EF92FF920F931F930A
:1030A000CF93DF93C091C701CC23B1F18091C601CA
:1030B000882391F186E4E82E81E0F82ECC24C39495
:1030C000D12CD0E0B12C0091CE011091CF010A5D3E
:1030D0001F4F0D1B1109F70120814AEB56E1B80182
:1030E000C701865491400E94FD15F70121814AEBEA
:1030F00056E1B801C6010E94FD15FCE1FB1508F47C
:1031000056C0DF5FB39482E0E80EF11CE2E0CE0E21
:10311000D11CFBE3BF12D7CF2091EA023091EB0222
:10312000C90164E170E00E94A434892B41F4C5FF19
:1031300006C08091C60191E089278093C601237063
:103140003327232B31F4C530C1F198F5C33009F48E
:1031500042C0CEEFDFEF10E000E0E090CE01F09053
:10316000CF01B701675E7F4F600F711F20E04CEC0D
:1031700057E0CE010E94FD15B701601B710B21E0E5
:103180004CEC57E0CE01CE960E94FD15055011097A
:103190002A96023E8FEF180701F7DF91CF911F911A
:1031A0000F91FF90EF90DF90CF90BF900895D15096
:1031B000A9CFC33281F0C53261F68091BD01EDEB3C
:1031C000F1E026E431E0929191832E173F07D9F781
:1031D00080934601BECF80914601E6E4F1E02DEBFD
:1031E00031E0918191932E173F07D9F78093BD016C
:1031F000B0CF8091CE019091CF01892B31F48AEF2D
:103200009FEF9093CF018093CE010C9449189F9229
:10321000AF92BF92CF92DF92EF92FF920F931F93E4
:10322000CF93DF93A0900401B12CD12CC12CD0E01E
:1032300053E0952ECB2D10E000E07601EE0CFF1C44
:1032400080E3E80EF11CE5E0EA1560F08AEF8C0FF0
:103250008430E0F1CB30D1F1C031C1F1C531B1F1F1
:1032600020E01FC08C2F8B198230D1F7D230C1F7EC
:103270009091B1028091CC019813F2CF80914501D9
:103280002091EA023091EB0227703327232B31F48F
:103290008F5F692D0E9498349093450120914501DC
:1032A0002B5F6091CE017091CF01655E7F4F600F03
:1032B000711F6C0D7D1D42E358E0C801880F991FF6
:1032C000F701E81BF90BCF010E94C915CF5F0A5F18
:1032D0001F4F0E31110509F0B6CFDF5FF6E0CF0EBC
:1032E000D11C85E0B80ED53009F0A4CF8A1508F4BA
:1032F00046C027E2E22EF12CC0E00091CE011091F1
:10330000CF01B801625D7F4F2C2F42E257E0C70129
:103310000E94FD15CF5FE8E0EE0EF11CC53069F7A5
:1033200097E1E92EF12C6801F6E3CF0ED11C2C2F8A
:1033300042E257E0B601C7010E94FD1588E0E80EA1
:10334000F11CCF5FCE3099F78FE0E82EF12C025CB4
:103350001F4F2C2F42E257E0B801C7010E94FD1514
:1033600023E02C0F42E257E0B801C701C8960E9443
:10337000FD15E8E0EE0EF11CCF5FC23151F7DF9191
:10338000CF911F910F91FF90EF90DF90CF90BF9062
:10339000AF909F900895362F83506CE00E94983430
:1033A000282F911118C08EEE830F66E00E9498348A
:1033B000911111C09CEF980F290F20FD0CC0022E17
:1033C000000C330B35952795253028F4982F921B48
:1033D00081E0953008F080E008959AEA899FA00185
:1033E000112485E591E0689F9001699F300D1124BB
:1033F000CA01820F931F8FEC890F90E064E09595CE
:1034000087956A95E1F7982F990F990F890F241BDB
:10341000350B92E1930F92959F70890F0895CF938A
:103420000E94ED19C82F893158F46091D201809122
:10343000CE01681B8091D0010E94ED1991E08C13A0
:1034400090E0892FCF9108951F93CF93DF930E942F
:10345000ED19182F8931A0F5E091B10285E0E89FC0
:10346000F0011124EF5EFD4FC181D0E0CE01880F45
:10347000892F881F990B892B69F0809143088770E9
:10348000843041F06091410880913F080E94ED191D
:103490001817A1F0C6FF14C08091490887708430C6
:1034A00079F060914708809145080E94ED198113D9
:1034B00007C081E0DF91CF911F91089580E0FACF9E
:1034C0008FEFF8CFEF92FF921F93CF93DF9340914E
:1034D000C8015091C9016091CA017091CB01455B4F
:1034E0005F4F6F4F7F4F4093C8015093C901609366
:1034F000CA017093CB011091B102E82EF12C96E035
:10350000899FE0011124C15CD74F8C818770833083
:10351000D1F46A8188810E94ED1998E0899F900119
:10352000112424602C831093020195E0EE0CFF1C03
:103530009A95E1F78E298093C201DF91CF911F9177
:10354000FF90EF90089585E0189FF0011124EF5E41
:10355000FD4F27E030E02E193F0981E090E0A0E028
:10356000B0E004C0880F991FAA1FBB1F2A95D2F78D
:1035700080959181892381831C82DFCFE091CD01E9
:10358000E150FF0BEE0FFF1FEE5EF84F25913491D7
:10359000820F932F911DFC018491089583E00E9476
:1035A000BE1A9091B102282F30E0359527953595B8
:1035B00027959217130611F4837008958FEF0895DD
:1035C0006B5F9DE0899F600D1124862F0C94BE1ABD
:1035D0009F92AF92BF92CF92DF92EF92FF920F93A2
:1035E0001F93CF93DF93B82E1092E7021092E00260
:1035F0001092C401CFE3D8E007E010E0E82EF12CF0
:1036000025E0829FC0011124FC01EE5EFD4F6F0199
:103610003CE0932E1C82F601808190E0002E02C0D7
:10362000959587950A94E2F780FF18C0692D601B75
:103630008B2D0E94E01AA82EA694A694A694F8E1D9
:10364000FA1508F4A12C8C838A2D0E9461169983A7
:1036500088838A2D0E9450169B838A832696015068
:103660001109C0F680914F08982F9770963070F02E
:1036700095E09E9DF0019F9DF00D1124EF5EFD4FA2
:10368000938197FF54C0816080934F08809102011D
:103690008B1141C0C091C2018C2F90E025E095951F
:1036A00087952A95E1F7CF7125E02E9DF0012F9D9A
:1036B000F00D1124EF5EFD4F67E070E0681B790BA1
:1036C00001E010E020E030E06801790104C0CC0C9A
:1036D000DD1CEE1CFF1C6A95D2F721812C29218369
:1036E00026E0289F8001299F100D1124015C174FAF
:1036F00028E0C29FC00111248460F80184838C2FCC
:103700000E946116F801918380838C2F0E945016CD
:10371000F80193838283DF91CF911F910F91FF90E6
:10372000EF90DF90CF90BF90AF909F9008958E7FE5
:10373000ABCFEF92FF920F931F93CF93DF938091C4
:10374000D501182F1370012F000F87FF1CC0D0E088
:10375000C0E0E02EF12C6091D2017091D30166504F
:1037600071096C0F7D1F6E197F098091D0019091B6
:10377000D10120E040EB56E004970E94C91528963D
:10378000C831D10541F78091D5016091D201709186
:10379000D30124E084FD07C082FF0DC06091D201F7
:1037A0007091D301212F45E85FE18091D001909184
:1037B000D1010E94C9158091D50187FF1BC0D0E0BF
:1037C000C0E010E06091D2017091D3016E5F7F4F35
:1037D0006C0F7D1F601B710B8091D0019091D10106
:1037E00021E040EB56E004970E94C9152896C831A5
:1037F000D10541F7DF91CF911F910F91FF90EF908D
:103800000895CF93DF939091DA019F5F9093DA014F
:10381000C091EA02D091EB029E0123703327232B43
:1038200051F48091D501282F2370233009F047C02F
:103830008C7F8093D5019B3558F08091D5018F778F
:1038400084608093D5011092DA0186E080930401B0
:103850000E9449180E9407190E94BB170E94991BD9
:10386000CE016AE570E00E94A434892B51F5E09105
:10387000B10285E0E89FF0011124EF5EFD4FC281A7
:10388000C093B102D091D7018D2F0E946116909301
:10389000D1018093D0018D2F0E9450162091CE012E
:1038A0003091CF01820F931F9093D3018093D20167
:1038B0001092D8018C2FDF91CF910C94E81A8F5F72
:1038C000B8CFDF91CF9108956F927F928F929F92A0
:1038D000AF92BF92CF92DF92EF92FF920F931F931E
:1038E000CF93DF9300D01F92CDB7DEB70E94491867
:1038F0000E940719A2EBEA2EA2E0FA2EB6E07B2E78
:1039000013E0C12ED12CD701ED917D01EB3109F4EB
:10391000C8C0E23008F058C0F0E07E9ED0017F9E23
:10392000B00D1124A15CB74F14968C91149760913F
:10393000CE017091CF01982F9770943049F5809106
:10394000EA029091EB0287709927892B41F4159632
:103950008C9115978F5F8630C0F415968C937E9E60
:10396000C0017F9E900D1124FC01E15CF74F258181
:10397000245F82819381680F791F6A5F7F4F808106
:1039800091814CEA50E104961CC015961C92E7CF39
:1039900090E09C01220F331F220F331F2C71F3E0A4
:1039A00095958795FA95E1F78370822B12962D9164
:1039B0003C911397620F731F282F43E859E18D91B3
:1039C0009C910E94C9156DC0E23079F58091C401C7
:1039D000811167C08091EA029091EB02877099276C
:1039E000892B41F4809150088F5F672D0E94983495
:1039F0009093500880914F088770282F220F280F2E
:103A0000220F80915008280F60914D0870914E0848
:103A10008091CE019091CF01680F791F6A5F7F4F2F
:103A200080914B0890914C08ACCFE830A8F5F0E0BD
:103A30007E9ED0017F9EB00D1124A15CB74F1496DD
:103A40002C91222371F12770273071F48091EA02C2
:103A50009091EB0253E0969587955A95E1F7B60160
:103A60000E94A43425E0280F7E9EC0017F9E900D09
:103A70001124FC01E15CF74F628173818091CE01DA
:103A80009091CF01680F791F675F7F4F808191818F
:103A900042E358E0039795CFE93009F04EC00E9409
:103AA000991BA0EEEA16A2E0FA0609F02CCF80914D
:103AB000E7028823B1F06091E3027091E402809103
:103AC000CE019091CF01680F791F6A5F7F4F80917F
:103AD000E1029091E20222E14CEA50E104960E9458
:103AE000C9158091E002882309F478C060917108BB
:103AF000709172088091CE019091CF01680F791F6B
:103B00006A5F7F4F80916F089091700822E14CEAC4
:103B100050E104960F900F900F90DF91CF911F917D
:103B20000F91FF90EF90DF90CF90BF90AF909F905C
:103B30008F907F906F900C94C915EB50E03108F096
:103B4000B0CFAE2EB12CB594A794B594A7946A2C9F
:103B5000BE2FB370B983EE0F8E2F90E0FC01E457B7
:103B6000FF4E049183579F4EFC01F4916091CE016A
:103B70007091CF018F2F860F972F911D9B838A8382
:103B80002AEA822E2EE0922EB13081F098EA892E18
:103B90009DE0992EB23051F036E3832E3CE0932E17
:103BA000B33021F484EF882E8AE0982E10E02A2D7D
:103BB000A4016A817B81C8010E94C9159981933053
:103BC00009F06FCF0E94CE1A68126BCF6A817B8199
:103BD0006F5F7F4F2A2DA401C801F3CE0F900F9085
:103BE0000F90DF91CF911F910F91FF90EF90DF9099
:103BF000CF90BF90AF909F908F907F906F900895DF
:103C00002091D501822F807629F08091D8018F5F95
:103C10008093D80123708091CE019091CF01223002
:103C200018F1853E3FEF9307ACF001979093CF01D9
:103C30008093CE018091D0019091D101215022300A
:103C4000E8F422E030E0820F931F9093D10180933B
:103C5000D00108958091D2019091D3010196909363
:103C6000D3018093D201E6CF97FF02C00196DECF49
:103C70008091D2019091D3010197F1CF2EEF3FEFC8
:103C8000E2CF8091D40168E2823008F064E2609370
:103C9000130770E089E09DE30E94B83470934201FD
:103CA0006093410108954F925F926F927F928F923D
:103CB0009F92AF92BF92EF92FF920F931F93CF9379
:103CC000DF934B015C01C42FD22F11E081149104CA
:103CD000A104B10409F010E0A50194016AE0462EA8
:103CE000512C612C712C211531054105510541F0F4
:103CF0001F5FCA01B901A30192010E947634F3CF7C
:103D00001D1708F41D2FC10FDD27DD1FCC0FDD1F90
:103D1000CC0FDD1FCE5BDE4F00E09AE0492E512C28
:103D2000612C712C82E090E09C0126543140790195
:103D3000C501B401A30192010E947634C7018C0F22
:103D40009D1F8837910558F4862F880F680F81E0F2
:103D5000860F888382E0860F89836D5F6A830F5F99
:103D6000249749015A011013E3CFDF91CF911F919E
:103D70000F91FF90EF90BF90AF909F908F907F90AA
:103D80006F905F904F90089590E0880F991FE09199
:103D90001107F0911207E80FF91F85919491209176
:103DA0000F0730911007820F931F0895EF92FF9233
:103DB0000F931F93CF93DF931092720021E030E0B6
:103DC0003093440120934301E7E1F7E048EDDF0140
:103DD0001D924A95E9F740EF4093120110921607A1
:103DE00010921507109214074FEF4093110159E1FB
:103DF0005093130761E772E07093420160934101B1
:103E000030933E0120933D013093DF072093DE077E
:103E100022E42093C00021E02093C1004093D10010
:103E200020E82093CF00EC012196FC018491D093EF
:103E30001207C093110790E0880F991FC80FD91F70
:103E4000CE0104969093100780930F0737E1E32E7D
:103E500037E0F32E10E000E0FE01E00FF11F849147
:103E60000E94C41ED7018D939C930F5F1F4FB6E332
:103E7000EB0EF11C0430110579F784E08093720099
:103E8000DF91CF911F910F91FF90EF90089583E7FD
:103E900097E10E94D61E84E28093130782EB91E0A3
:103EA00090934201809341018091BF01823010F0D4
:103EB0000C944B110895CF93DF93FC01262F809132
:103EC000720082FD2FC060911307611101C069E18A
:103ED0006093130770E089E09DE30E94B83470930B
:103EE00042016093410181E090E09093440180930E
:103EF000430190933E0180933D019093DF078093AF
:103F0000DE0782E48093C00081E08093C1009FEFD0
:103F10009093D10090E89093CF008093150780EFA5
:103F200080931201ADEDB1E084E3ED0119928A9521
:103F3000E9F7F093DC01E093DB012093110181E0CC
:103F400001C0880F2A95EAF78093140780917200C8
:103F5000846080937200DF91CF9108959091BF01AA
:103F600090FD0BC0E82FF0E0EE0FFF1FE45AF94F71
:103F70008591949161E00C945B1F089581E00E940B
:103F8000AE1F0E94411E2091D4018091C8019091E2
:103F9000C901A091CA01B091CB01233078F42F5F01
:103FA0002093D4014496A11DB11D8093C801909324
:103FB000C901A093CA01B093CB010895C296A11D77
:103FC000B11DF3CF8091D50183FD23C08091D40131
:103FD00081508093D40186E00E94AE1F8091D5016C
:103FE00088608093D5010E94411E8091D401811187
:103FF00010C080E796E00E94D61E8091BF018230FB
:1040000010F00E944B118091D501877F80618093D1
:10401000D5010895CF92DF92EF92FF920F931F93F5
:10402000CF93DF93E82E882309F441C06091E10229
:104030007091E2028091E3029091E402C090E50267
:10404000F090E6022C2D23703FEF320FCEEFDFEF22
:10405000323010F4C2E0D0E0C60FD71F0FEF1FEFD1
:10406000223010F001E010E0080F191FF394B8019E
:10407000CE01EE2091F10E94241A823008F0DAC0BD
:104080000E94621AD093E202C093E1021093E4020C
:104090000093E302F092E6021092E702DF91CF91E3
:1040A0001F910F91FF90EF90DF90CF900895609156
:1040B0006F0870917008809171089091720840911A
:1040C000730850E023E0559547952A95E1F7242F92
:1040D0002370C22EF0907408B5CF0E940F1AD82E0C
:1040E000882389F00E94E21FD0937008C0936F0864
:1040F0001093720800937108F0927408DD2071F239
:104100001092E002CBCF85E08F1570F74C2D50E078
:1041100020E0B801CE010E94BB16811172C0B80127
:10412000CE01EE2041F00E94241A823068F40E94F1
:10413000621AF12CA7CF0E940F1AD82E882321F0E3
:104140000E94E21FF12CD0CF602F8C2F0E94ED191E
:10415000893108F050C0E82FF0E0EE54FD4FE285C1
:10416000E93011F0E23008F4EBE18DEF8E0F85308D
:1041700008F045C06E2F70E0A6E0EA9FF001112420
:10418000E15CF74F848187708430A9F1833081F539
:104190002091B102B5E02B9F900111242F5E3D4F7D
:1041A00047E050E0461B570B81E090E0A0E0B0E014
:1041B00004C0880F991FAA1FBB1F4A95D2F780958C
:1041C000D90111969C911197892311968C93148291
:1041D000DD24D394EE2009F4B5CFD093E202C0934E
:1041E000E1021093E4020093E3021092E60254CF3E
:1041F0008150823068F3E11011C0D12CA3CFE2309E
:10420000D1F7E11096CFD0937008C0936F08109348
:104210007208009371081092740872CFF12CD09339
:10422000E202C093E1021093E4020093E302F092F1
:10423000E60234CFB5E0BF1590F768CFFF920F9339
:104240001F93CF93DF93682F8091D7010E948E1622
:10425000C82F87FD20C0E82F880FFF0BEE54FD4FBD
:10426000F2848DEF8F0D853080F486E0F89EF001AA
:104270001124E15CF74F84818770823099F0873098
:1042800011F0843041F4D0E00EC08BE1F816D9F380
:1042900081E08F15C0F780E0DF91CF911F910F91E2
:1042A000FF900895D1E0C093D701C63121F007EF08
:1042B0001FEFCE3011F40DED1FEF1093CF010093DF
:1042C000CE018C2F0E9461169093D1018093D00172
:1042D0008C2F0E945016800F911F9093D3018093D2
:1042E000D20181E08F1508F4D1110E94E21F81E014
:1042F000D3CFEF92FF920F93CF93C22F7A0193E027
:10430000E922FF2492E0E916F104D9F093E0E916DE
:10431000F104D1F0645091E0E916F10481F0885085
:104320000E94ED198093C101E091C101E93178F05B
:10433000C0E08C2FCF910F91FF90EF900895885F90
:10434000EFCF6D5F8A5FECCF6D5F8650E9CFF0E015
:10435000EE54FD4F82858093C5018B3149F39DEF6B
:10436000980F953050F496E0899FF0011124E15C9C
:10437000F74F948197709730D9F2CC2319F0893098
:10438000C1F6D6CF011106C0882391F2893041F0E1
:10439000C1E0CFCF8130D1F7CBCF0E94E21FF8CF61
:1043A00086E0089FF0011124E15CF74F848187705B
:1043B000A1F78E2D0E941E21C1E0C827BACFCF924F
:1043C000DF92EF92FF920F931F93CF93DF93182FFB
:1043D000C62FD0E086E0189FF0011124E15CF74F72
:1043E000C280D380E080F18020E0AE01B601C70139
:1043F0000E94BB16811115C001E0111101C000E03F
:1044000020E0AE01B601C7010E94792191E0892721
:10441000DF91CF911F910F91FF90EF90DF90CF90A0
:10442000089580E0F5CFCF938093BF018330C1F42E
:1044300010927200E7E1F7E088EDDF011D928A95A6
:10444000E9F780EF8093120110921607109215077A
:10445000109214078FEF80931101CF910C943A16AC
:10446000C82F0E943F1683E797E10E94D61EC230F4
:1044700018F0CF910C944B11CF910895AF92BF9249
:10448000CF92DF92EF92FF920F931F93CF93DF9320
:104490004EE250E06BE170E082EB92E00E94D23499
:1044A000E091B1024E2F50E025E0E29FF00111248F
:1044B000EF5EFD4F60812EE090E080E070E0382FED
:1044C000FC01EA54F94EE491DC011496EB0102C0C0
:1044D000D595C795AA95E2F7C0FF10C0AE2FB0E002
:1044E000AE54BD4FFDEFF20FFC93FEEFF20F1196AD
:1044F000FC931197FFEFF20F1396FC93DB0102C0C0
:10450000B595A7953A95E2F7A0FF04C0F0E0EE5408
:10451000FD4F248301962C5F8430910581F6B09085
:10452000C4010FE318E0D0E0C0E025E0249FC00103
:10453000259F900D1124FC01EE5EFD4F7F0187E069
:10454000C82ED12CAC2EF2E0CF1302C0B11017C090
:10455000F701808190E096012C1B3D0B02C09595E0
:1045600087952A95E2F780FF0AC0F8016281808171
:104570000E94ED19E82FF0E0EE54FD4FA28621963F
:104580000A5F1F4FC830D105E9F6E091D5012E2F03
:1045900020729E2F90748E2F807691F4E091D70137
:1045A000F0E0EE54FD4F89E08287DF91CF911F91BB
:1045B0000F91FF90EF90DF90CF90BF90AF90089554
:1045C0008E2F8370222351F0E82FF0E0EE54F94E45
:1045D000E491F0E0EE54FD4F29E02083992329F384
:1045E000E82FF0E0E255F94EE491F0E0EE54FD4F93
:1045F00089E08083DACFE6E4F1E098E7DF011D92FD
:104600009A95E9F74DE354E0811123C0A6E4B1E0A7
:1046100030E020E0FA01E20FF31FE491EE23C1F055
:10462000E053E03F79F08E2F880FE80F81E08E0F86
:104630008C9382E08E0F11968C931197ED5F1296FA
:10464000EC9312972F5F3F4F14962E31310511F7DF
:104650000895FA0194914F5F5F4F9111FACF815005
:10466000D3CF1F93CF93DF930E94F9180E940719AD
:10467000D0910101ED2FF0E0E959FE4D84910E94A7
:1046800000178091160710921607823031F480913E
:10469000C00191E089278093C001C091C00112E060
:1046A0001C0F212F45E85FE16CE070E083E390E0B0
:1046B0000E94C915212F43E859E168E170E08BE4BD
:1046C00090E00E94C91526E02C0F43E859E168E10B
:1046D00070E08BE190E00E94C9152AE02C0F43E8BE
:1046E00059E164E270E083E690E00E94C9152EE093
:1046F0002C0F43E859E164E270E083E090E00E940F
:10470000C91580E40E944516882341F0D33030F467
:1047100082E00E94AE1FDF5FD093010180E20E9421
:104720004516882351F0C0910101CC2331F082E07D
:104730000E94AE1FC150C09301018CE00E9445163B
:10474000882389F081E00E94AE1FC0910101CF5FF4
:10475000C09304018C2F0E94FB22C23021F480916F
:10476000BF0180930101DF91CF911F9108958AEFDE
:104770009FEF9093CF018093CE0180E00E94FB22B7
:1047800081E08093C7018093C601109204010895CF
:104790000E9449188CE00E944516882321F00E944F
:1047A000471F0C94B72308950E9449180E940719C7
:1047B0000E94991B8CE00E944516882321F00E94DC
:1047C000471F0C94B72308950E94F9180E940719F7
:1047D0008091E902811122C088E40E94001780E4E0
:1047E0000E944516882331F082E00E94AE1F84E0CB
:1047F0008093E90280E20E944516882329F082E036
:104800000E94AE1F1092E9028CE00E944516882398
:1048100039F081E00E94AE1F0C94B72380E6DDCF13
:1048200008950E94F9180E94071983E08093C70138
:104830008CE00E944516882329F081E00E94AE1F7B
:104840000C94B723089580911607109216078130B3
:1048500021F40E94471F0E94B72320E047E259E15C
:1048600064E170E081E390E00C94FD158091B10269
:104870008770845F0E94FB2283E08093C70181E000
:104880008093C60186E08093040108950E94491830
:104890000E9407190E94BB178CE00E9445168823CE
:1048A00069F080911507882339F0109215078091DF
:1048B00072008460809372000C94362408950E94E4
:1048C0003E220E94641C8091D801853038F480918A
:1048D000EA0280FF0E94001E0C94BB171092D801C0
:1048E0008091D5018F7B8093D5010E943624F4CF2F
:1048F00081E28093C70185E00E94FB226091CD0197
:1049000070E090E080E022E049E00E94531E609158
:10491000C8017091C9018091CA019091CB0126E034
:1049200047E10C94531E3F924F925F926F927F9299
:104930008F929F92AF92BF92CF92DF92EF92FF92AF
:104940000F931F93CF93DF9300D01F92CDB7DEB7A5
:104950000E943E220E94641C6091D50165FD5BC4EB
:1049600064FDFCC08091EA0280FDB4C00091CE01DC
:104970001091CF016091D201601B8091D0010E9403
:10498000ED19893110F48093D701E091E9022E2FBF
:1049900030E03B832A83F901E158FE4DF4900E94F8
:1049A00032168F21F81609F451C0EA81FB81E058D4
:1049B000FE4DF4900E9432168F21F81609F448C07B
:1049C000EA81FB81EF57FE4DF4900E9432168F2151
:1049D000F81609F440C06A817B816E577E4DFB0159
:1049E000F491F9830E94321629818223281372C020
:1049F00033E03983F090D5017F2D7C7FF72E8981BC
:104A0000F82AF092D501C090D201D090D301A090A5
:104A1000D001B090D101E82FF0E0FB83EA8321E0E0
:104A2000AF01B601C5010E94BB16811117C0B601C6
:104A3000601B710B00E021E04A815B81C5010E948F
:104A400079218111B2C10E94001E44C01982D2CFC7
:104A500041E04983CFCF62E06983CCCF4F2D4370D3
:104A6000842F90E0FC01E957FE4D24912983209189
:104A7000D701398132132EC0E091B10265E0E69F83
:104A8000F0011124EF5EFD4F208130E00496F90122
:104A900002C0F595E7958A95E2F7E0FF1BC002C0DA
:104AA000359527954A95E2F720FD14C08F2D806239
:104AB0008093D50189810E9461169093D1018093E2
:104AC000D00189810E945016800F911F9093D301CD
:104AD0008093D20188E00E944516882339F00E9415
:104AE00078240E944B1189E08093040184E00E94A5
:104AF00045168A83882391F12091D701622F70E0B7
:104B0000EFE3F8E04DE558E030E08689982F9770A4
:104B1000973051F490E0A3E095958795AA95E1F739
:104B20008617970709F43A8136964E175F0769F79B
:104B30004091B1024983B090CC014B1102C02C309E
:104B400019F0332309F428C20E944B1160E08FE66C
:104B500091E20E945B1F88E0809304018091D5015F
:104B600083FFDDC39091D9019F5F9093D90120917C
:104B7000EA023091EB0223703327232B21F424E047
:104B800082278093D501913F40F08091D501877FA6
:104B900084608093D5011092D9018091D50184FD64
:104BA000EEC08091EA029091EB0266E070E00E9414
:104BB000A434892B09F0CDC06FE378E07B836A834E
:104BC00010E000E055E0652E67E0C62ED12C70E3C2
:104BD000A72EB12C33243394502EE091B1026E9E57
:104BE000F0011124EF5EFD4F818190E09601201BC2
:104BF000310B02C0959587952A95E2F74C0171E03B
:104C00008722992480FF9BC0EA81FB818481F82F51
:104C1000F770F983F43008F092C090E043E0959586
:104C200087954A95E1F7282F2370722E622F802FE7
:104C30000E94DF21882309F4D1C3EA81FB81E0804F
:104C4000F18044244A94470CF1E082E090E0F415AE
:104C500010F48EEF9FEFE80EF91EEA81FB81F182DE
:104C6000E08282819381F1E0F71518F088248A941C
:104C7000982C880E991EEA81FB8193828282682D8E
:104C80008E2D0E94CB19882389F1F981242D237060
:104C9000422EF130B9F03981323041F5682D8E2D38
:104CA0000E94ED19482F893108F469C3EA81FB811C
:104CB000648170E023E0759567952A95E1F7F62FFA
:104CC000F3704F2E4714D9F1642D852D0E94DF21FA
:104CD000882361F0EA81FB818481877EF8E04F9E22
:104CE00020011124482AEA81FB814482F981F330B2
:104CF00031F58091EA029091EB02B5010E94A43453
:104D0000892BE9F48091E002811119C083E00E94AF
:104D1000AE1F3092E002EA81FB8180819181909305
:104D2000700880936F0882819381909372088093BA
:104D300071088481887180937308109274082A81A5
:104D40003B812A5F3F4F3B832A830130110509F0E5
:104D500013C38091E702882339F08091EA0280FD35
:104D600003C081E00E940A208091E002882339F08C
:104D70008091EA0280FD03C080E00E940A200F902B
:104D80000F900F90DF91CF911F910F91FF90EF90B7
:104D9000DF90CF90BF90AF909F908F907F906F905B
:104DA0005F904F903F900C94BB178091C501282FC6
:104DB00030E03B832A83823009F46BC0A8F088304E
:104DC00008F088CE86E02A813B81829FF001839F94
:104DD000F00D1124E15CF74F84818770823009F077
:104DE00079CE0E94E21F76CE86E06A817B81869F23
:104DF0008001879F100D1124015C174FF8018481F9
:104E0000982F9770943029F50E94BE1FE091B1024F
:104E100025E0E29FF0011124EF5EFD4F27E030E036
:104E20006A817B81261B370B81E090E0A0E0B0E037
:104E300004C0880F991FAA1FBB1F2A95D2F780951F
:104E4000918189238183F80114828FEF809302017D
:104E500041CE9111C6CF90E0B3E095958795BA9574
:104E6000E1F7F82FF370F983F801628180810E94E5
:104E7000ED1969810E948E16082E000C990B209165
:104E8000D7012817190609F025CE89810E941E2115
:104E900021CE80914F088770823009F45CC008F5FC
:104EA0008823B1F1813009F015CE8091D601887147
:104EB000883109F40FCE81E00E94AE1F8091D601A7
:104EC000885F8093D6010E94AF168091C8019091AF
:104ED000C901A091CA01B091CB010A96A11DB11DD3
:104EE00031C08330E9F1843009F0F4CD81E00E94D3
:104EF000AE1F0E94AF168091C8019091C901A09188
:104F0000CA01B091CB0188539F4FAF4FBF4F1AC01A
:104F10008091D60185FDDECD81E00E94AE1F80919B
:104F2000D60180628093D6010E94AF168091C8019D
:104F30009091C901A091CA01B091CB018C599F4FAA
:104F4000AF4FBF4F8093C8019093C901A093CA018E
:104F5000B093CB01BFCD0E94BE1F0E94AF16BACD49
:104F600081E00E94AE1F8091D601982F97709730F4
:104F700009F4B0CD8F5F8093D60181E08093C401A6
:104F80008091C8019091C901A091CA01B091CB0153
:104F90004E96A11DB11DD6CF8091D5018370F82EFC
:104FA000082F10E0B80169577E4D6B01FB01849119
:104FB000281358C061E06F0D89810E94E01AE82E25
:104FC0000E94CE1AF81621F0E694E694EB1071C018
:104FD00090E28091D601282F30E0FA8140E250E043
:104FE000F11102C048E150E024233523232B09F4BA
:104FF00063C0891B8093D6012A8148EE53E060E0AC
:1050000070E0211104C042E350E060E070E0809164
:10501000C8019091C901A091CA01B091CB01840F40
:10502000951FA61FB71F8093C8019093C901A09335
:10503000CA01B093CB01498135E0439FF0011124AF
:10504000EF5EFD4F81E090E0A0E0B0E00F2C04C0E7
:10505000880F991FAA1FBB1F0A94D2F780959081D1
:105060008923808390914F084091D701F801E55939
:10507000FE4D8491840FF601C490282F082E000C59
:10508000330B592F5695569556955217130609F01E
:1050900043C0592F5770553001F58091D501806874
:1050A0008093D5018BE08093040185E00E94AE1FC0
:1050B00055CD1A8298E08DCF80E00E94AE1F6A81A4
:1050C00089E0611101C088E00E94FB2285E28093A3
:1050D000C70181E08093C601C5CF5630E8F081E07A
:1050E000982790934F0885E02981829FF001112431
:1050F000EF5EFD4FA381A058A383AF738A9FD001B9
:105100001124AF5EBD4F848111969C911197892720
:1051100011968C9387E0CACF4C1509F41FCD8931C5
:1051200008F049C02E543D4FF901F285F983898179
:105130008350853070F4698186E0689FB001112446
:10514000615C774F7B836A83FB0184818770813048
:10515000A9F18091E702811101CD8091D60187707C
:1051600009F4FCCC83E00E94AE1F8091D6018150EF
:105170008093D60181E08093E7021092E60280914D
:10518000D0019091D1019093E2028093E10280914D
:10519000D2019091D3012091CE013091CF01821B99
:1051A000930B9093E4028093E3028091D501837086
:1051B0008093E502D3CC2FEF2983B9CFEA81FB811D
:1051C00002811081602F812F0E94CB19882309F45E
:1051D000C5CC602F812F0E94ED196F2D0E948E1675
:1051E000182F87FDBBCCE82F880FFF0BEE54FD4F27
:1051F00082858B3109F0B2CC812F0E946116EA8141
:10520000FB8191838083812F0E945016EA81FB816C
:1052100093838283A3CC8091D801853038F4809128
:10522000EA0280FD9BCC0E94001E98CCF091B10256
:10523000F98363706F5F8F2F0E94E01A8370E82FED
:10524000F0E0E957FE4DE491E093D701E63121F01B
:1052500007EF1FEFEE3011F40DED1FEF1093CF01AC
:105260000093CE016091D50163706F5F89810E94C8
:10527000E01AE82EF12CF594E794F594E794E09287
:10528000B1022091D7012983822F0E9461163981B2
:105290003A3019F0363109F03FC02AE030E0820F91
:1052A000931F9093D1018093D00189810E94501661
:1052B0004981463121F02BEF3FEF4E3011F425E0CC
:1052C00030E0820F931F800F911F9093D301809342
:1052D000D2011092D8018E2D0E94E81A8091D5013A
:1052E0008F7D80648093D50187E0809304010F90C7
:1052F0000F900F90DF91CF911F910F91FF90EF9042
:10530000DF90CF90BF90AF909F908F907F906F90E5
:105310005F904F903F90089526EF3FEFC0CF84FFFE
:1053200040CC8AEF9FEF9093CF018093CE0186E02F
:105330000E94FB226091C8017091C9018091CA014D
:105340009091CB0126E046E10E94531E83E08093BA
:10535000C70181E08093C60183E390E09093D1017F
:105360008093D00185E190E09093D3018093D201A6
:105370008AE08093040111CC01E010E02DCC8091F3
:10538000D701662D0E949834382F292F842F0E9430
:105390009834381B832F291B922F432F330F550B23
:1053A00057FF03C0519541955109292F092E000C33
:1053B000330B37FF03C0319521953109421753074D
:1053C00034F092E0492E87FF7DCC412C7BCC4424E5
:1053D000439497FD77CC83E0482E74CCF98182E02A
:1053E000F23009F081E0870D837028E0829FC001D0
:1053F0001124EA81FB819481977E892B848376CC6A
:105400000C94603489E590E00E94002A843109F010
:105410004AC08CE590E00E94002A843109F043C024
:105420008AE590E00E94002A8093CD010E94F9183D
:105430000E9407198091C301811131C088E40E9444
:10544000001780E40E944516882331F082E00E9414
:10545000AE1F84E08093C30180E20E94451688233A
:1054600029F082E00E94AE1F1092C30184E00E94E6
:105470004516882351F081E00E94AE1F8091C30140
:1054800081110FC08DE08093040188E00E944516D1
:10549000882361F081E00E94AE1F0C94B72380E660
:1054A000CECF8EE0F0CF8DE08093040108950C9470
:1054B00068342F923F924F925F926F927F928F92B9
:1054C0009F92AF92BF92CF92DF92EF92FF920F9393
:1054D0001F93CF93DF936091CD016F5F6093CD01F8
:1054E00083E08093D4018AE590E00E94572A80915E
:1054F000CD01893028F187E00E94FB226091C8012C
:105500007091C9018091CA019091CB0126E048E1D8
:105510000E94531E8CE080930401DF91CF911F9174
:105520000F91FF90EF90DF90CF90BF90AF909F9042
:105530008F907F906F905F904F903F902F90089545
:105540001092B1028CE08093D7018AEF9FEF909385
:10555000CF018093CE0183E390E09093D1018093BB
:10556000D00184E290E09093D3018093D2018FEF39
:105570008093020184E00E94BE1A8F738093CC0155
:1055800080E00E94BE1A382E8DE0389E70011124F2
:10559000E5E0EE0EF11C81E00E94BE1A5701A80E54
:1055A000B11CC1E1D2E010E0812C912C95E0292EB4
:1055B000412C512C32014394311609F44DC0FE01A7
:1055C000822D11928A95E9F760E0812F0E94E01AFE
:1055D000888387E0C82ED12C05E0602F812F0E94A0
:1055E000E01A882369F02981D301C2010C2C04C080
:1055F000880F991FAA1FBB1F0A94D2F7822B898399
:105600000F5FE1E0CE1AD1080D3039F767E0812F46
:105610000E94E01A082F0770053049F4892D8E0D7D
:105620000E94BE1A8A8393941F5F2596C5CF0630C9
:10563000D8F3D82CDA0C8D2D0E94BE1A8B8381E012
:105640008D0D0E94BE1A8C8383948394073061F77A
:105650008B8180688B83E8CF80E00E94E81A0E94EB
:10566000782489E058CF1092CD011092C801109291
:10567000C9011092CA011092CB01E0EDF1E086E081
:10568000858380E486838CE08783108683E084832F
:105690001186128664E189E590E00E94572A6091A4
:1056A000CD018AE590E00E94572A6091E9028BE5DE
:1056B00090E00E94572A64E18CE590E00E94572A0E
:1056C00088E0809304010895CF930E94F9180E9406
:1056D0000719C0910101EC2FF0E0E959FE4D8491CA
:1056E0000E94001780E40E944516882369F0C330A9
:1056F00058F481E08C0F809301010E9413220E94D4
:10570000471F82E00E94AE1F80E20E944516882358
:1057100071F080910101882351F081508093010143
:105720000E9413220E94471F82E00E94AE1F8CE05D
:105730000E9445168823B1F081E00E94AE1FC091FF
:10574000E80282E090E00E946034C81729F06C2FD4
:1057500082E090E00E94683481E080930101CF9163
:105760000C94B723CF9108951F920F920FB60F920A
:1057700011248F939F938091E1009091E100937F9A
:105780009093E10083FF0FC01092E90091E09093A5
:10579000EB001092EC0092E39093ED0010920E0754
:1057A00098E09093F00082FF22C093E09093E9008C
:1057B0009091F200992319F09AE39093E800909168
:1057C000FF06992341F09091FF0691509093FF06B8
:1057D000911101C05D9A90910D07992341F090912C
:1057E0000D07915090930D07911101C0289A84FFE5
:1057F00018C08091E2008E7E81608093E2008091EB
:10580000E1008F7E8093E100809100078E7E8061B1
:10581000809300079F918F910F900FBE0F901F9064
:10582000189580FFF7CF8091E2008E7E8061809393
:10583000E2008091E1008E7E8093E100809100077C
:105840008E7E8160E5CF1F920F920FB60F921124CA
:10585000CF92DF92EF92FF920F931F932F933F937C
:105860004F935F936F937F938F939F93AF93BF9368
:10587000EF93FF93CF93DF93CDB7DEB76C97DEBF87
:10588000CDBF1092E9008091E80083FF25C068E059
:10589000CE0145960E94F01282EF8093E8008D8938
:1058A00087FF39C09091E80090FFFCCF982F907649
:1058B00009F034C19E894F89588D2F89F88C911138
:1058C00031C0803861F58091FE068093F10010921E
:1058D000F1008EEF8093E8006C960FB6F894DEBF6F
:1058E0000FBECDBFDF91CF91FF91EF91BF91AF91EF
:1058F0009F918F917F916F915F914F913F912F91E8
:105900001F910F91FF90EF90DF90CF900F900FBEFF
:105910000F901F9018959EEF9093E800C7CF1092BC
:10592000F100D5CF913059F48111D3CF41305105D9
:1059300081F68091FE068D7F8093FE06CACF93305C
:1059400049F48111C6CF4130510519F68091FE0608
:105950008260F2CF953041F48091E80080FFFCCF67
:1059600020682093E300B5CF963009F0A9C00B8DD5
:105970001C8D22E01092E9001092FC061092FB06AA
:10598000F2122EC01092FA061092F9060E94BF126F
:105990001F8299E09983FA8291E09E8390EA98872A
:1059A0009AEF99872091FB063091FC06275F3F4FC5
:1059B0003C832B838D831092E9001092FC06109299
:1059C000FB061093FA060093F90649E050E0BE0189
:1059D0006F5F7F4F80E00E9499120E94BF1279CFC3
:1059E0001093FA060093F9060E94A311DC011296A7
:1059F0000D911C910115110509F451C1D801ED91CA
:105A0000FC910480F581E02DBE016B5E7F4FC801E3
:105A10000995009709F03EC1F80100851185EACF8C
:105A2000F3E0FF120EC08F89882309F440C0823052
:105A300061F440E860E18FE292E20E946612811117
:105A400048CF81E28093EB0047CF813029F440E8D2
:105A50006BE083E292E2F1CF833099F70E94A311C9
:105A6000DC011296ED90FC908E010F5F1F4F6801D4
:105A7000E114F10479F0D701ED91FC910680F781F2
:105A8000E02DB801C7010995080F111DF701E08449
:105A9000F184EECFD8011C92F60101900020E9F7C5
:105AA0003197BF016C197D0940E0C601C6CF6DE09A
:105AB00072E2FB01449150E080E80E94991209CF04
:105AC000973009F4BECF983021F481E08093F10043
:105AD00000CF993009F0FDCE837009F0B2CFE4E138
